{
	"contract/LuckyDraw.sol": {
		"LuckyDraw": {
			"abi": [
				{
					"inputs": [
						{
							"internalType": "uint64",
							"name": "subscriptionId",
							"type": "uint64"
						}
					],
					"stateMutability": "nonpayable",
					"type": "constructor"
				},
				{
					"inputs": [
						{
							"internalType": "address",
							"name": "have",
							"type": "address"
						},
						{
							"internalType": "address",
							"name": "want",
							"type": "address"
						}
					],
					"name": "OnlyCoordinatorCanFulfill",
					"type": "error"
				},
				{
					"anonymous": false,
					"inputs": [
						{
							"indexed": true,
							"internalType": "uint256",
							"name": "lotId",
							"type": "uint256"
						},
						{
							"indexed": true,
							"internalType": "address",
							"name": "user",
							"type": "address"
						}
					],
					"name": "Claimed",
					"type": "event"
				},
				{
					"anonymous": false,
					"inputs": [
						{
							"indexed": false,
							"internalType": "uint256",
							"name": "id",
							"type": "uint256"
						}
					],
					"name": "CreateLottery",
					"type": "event"
				},
				{
					"anonymous": false,
					"inputs": [
						{
							"indexed": true,
							"internalType": "uint256",
							"name": "lotId",
							"type": "uint256"
						},
						{
							"indexed": false,
							"internalType": "uint256",
							"name": "amount",
							"type": "uint256"
						}
					],
					"name": "Fund",
					"type": "event"
				},
				{
					"anonymous": false,
					"inputs": [
						{
							"indexed": true,
							"internalType": "uint256",
							"name": "lotId",
							"type": "uint256"
						},
						{
							"indexed": true,
							"internalType": "address",
							"name": "user",
							"type": "address"
						},
						{
							"indexed": false,
							"internalType": "uint256",
							"name": "tickets",
							"type": "uint256"
						}
					],
					"name": "Join",
					"type": "event"
				},
				{
					"anonymous": false,
					"inputs": [
						{
							"indexed": true,
							"internalType": "address",
							"name": "from",
							"type": "address"
						},
						{
							"indexed": true,
							"internalType": "address",
							"name": "to",
							"type": "address"
						}
					],
					"name": "OwnershipTransferRequested",
					"type": "event"
				},
				{
					"anonymous": false,
					"inputs": [
						{
							"indexed": true,
							"internalType": "address",
							"name": "from",
							"type": "address"
						},
						{
							"indexed": true,
							"internalType": "address",
							"name": "to",
							"type": "address"
						}
					],
					"name": "OwnershipTransferred",
					"type": "event"
				},
				{
					"anonymous": false,
					"inputs": [
						{
							"indexed": false,
							"internalType": "uint256",
							"name": "lotId",
							"type": "uint256"
						},
						{
							"indexed": false,
							"internalType": "uint256[]",
							"name": "randomWords",
							"type": "uint256[]"
						}
					],
					"name": "RequestFulfilled",
					"type": "event"
				},
				{
					"anonymous": false,
					"inputs": [
						{
							"indexed": false,
							"internalType": "uint256",
							"name": "lotId",
							"type": "uint256"
						}
					],
					"name": "RequestSent",
					"type": "event"
				},
				{
					"inputs": [],
					"name": "acceptOwnership",
					"outputs": [],
					"stateMutability": "nonpayable",
					"type": "function"
				},
				{
					"inputs": [
						{
							"internalType": "uint256",
							"name": "lotId",
							"type": "uint256"
						}
					],
					"name": "claim",
					"outputs": [],
					"stateMutability": "nonpayable",
					"type": "function"
				},
				{
					"inputs": [
						{
							"internalType": "address",
							"name": "tokenAddr",
							"type": "address"
						},
						{
							"internalType": "uint256",
							"name": "maxTickets",
							"type": "uint256"
						},
						{
							"internalType": "uint256",
							"name": "ticketPrice",
							"type": "uint256"
						},
						{
							"internalType": "uint256[]",
							"name": "winnerRatios",
							"type": "uint256[]"
						},
						{
							"internalType": "uint32",
							"name": "winners",
							"type": "uint32"
						},
						{
							"internalType": "uint256",
							"name": "start",
							"type": "uint256"
						},
						{
							"internalType": "uint256",
							"name": "end",
							"type": "uint256"
						}
					],
					"name": "createLottery",
					"outputs": [],
					"stateMutability": "nonpayable",
					"type": "function"
				},
				{
					"inputs": [
						{
							"internalType": "uint256",
							"name": "lotId",
							"type": "uint256"
						}
					],
					"name": "draw",
					"outputs": [],
					"stateMutability": "nonpayable",
					"type": "function"
				},
				{
					"inputs": [
						{
							"internalType": "uint256",
							"name": "lotId",
							"type": "uint256"
						},
						{
							"internalType": "uint256",
							"name": "amount",
							"type": "uint256"
						}
					],
					"name": "fund",
					"outputs": [],
					"stateMutability": "nonpayable",
					"type": "function"
				},
				{
					"inputs": [
						{
							"internalType": "uint256",
							"name": "_requestId",
							"type": "uint256"
						}
					],
					"name": "getRequestStatus",
					"outputs": [
						{
							"internalType": "bool",
							"name": "fulfilled",
							"type": "bool"
						},
						{
							"internalType": "uint256[]",
							"name": "randomWords",
							"type": "uint256[]"
						}
					],
					"stateMutability": "view",
					"type": "function"
				},
				{
					"inputs": [
						{
							"internalType": "uint256",
							"name": "lotId",
							"type": "uint256"
						},
						{
							"internalType": "uint256",
							"name": "quantity",
							"type": "uint256"
						}
					],
					"name": "join",
					"outputs": [],
					"stateMutability": "nonpayable",
					"type": "function"
				},
				{
					"inputs": [
						{
							"internalType": "uint256",
							"name": "lotId",
							"type": "uint256"
						}
					],
					"name": "lottery",
					"outputs": [
						{
							"internalType": "address",
							"name": "tokenAddr",
							"type": "address"
						},
						{
							"internalType": "uint256",
							"name": "pool",
							"type": "uint256"
						},
						{
							"internalType": "uint256",
							"name": "maxTickets",
							"type": "uint256"
						},
						{
							"internalType": "uint256",
							"name": "ticketPrice",
							"type": "uint256"
						},
						{
							"internalType": "uint256[]",
							"name": "winnerRatio",
							"type": "uint256[]"
						},
						{
							"internalType": "uint32",
							"name": "winners",
							"type": "uint32"
						},
						{
							"internalType": "uint256",
							"name": "vrfRequestId",
							"type": "uint256"
						},
						{
							"internalType": "uint256",
							"name": "start",
							"type": "uint256"
						},
						{
							"internalType": "uint256",
							"name": "end",
							"type": "uint256"
						},
						{
							"internalType": "uint256",
							"name": "totalTickets",
							"type": "uint256"
						},
						{
							"internalType": "uint256",
							"name": "claimed",
							"type": "uint256"
						},
						{
							"internalType": "bool",
							"name": "vrfRequestExists",
							"type": "bool"
						}
					],
					"stateMutability": "view",
					"type": "function"
				},
				{
					"inputs": [
						{
							"internalType": "uint256",
							"name": "lotId",
							"type": "uint256"
						}
					],
					"name": "myTickets",
					"outputs": [
						{
							"internalType": "uint256[]",
							"name": "",
							"type": "uint256[]"
						}
					],
					"stateMutability": "view",
					"type": "function"
				},
				{
					"inputs": [],
					"name": "owner",
					"outputs": [
						{
							"internalType": "address",
							"name": "",
							"type": "address"
						}
					],
					"stateMutability": "view",
					"type": "function"
				},
				{
					"inputs": [
						{
							"internalType": "uint256",
							"name": "lotId",
							"type": "uint256"
						}
					],
					"name": "prize",
					"outputs": [
						{
							"internalType": "uint256",
							"name": "",
							"type": "uint256"
						}
					],
					"stateMutability": "view",
					"type": "function"
				},
				{
					"inputs": [
						{
							"internalType": "uint256",
							"name": "requestId",
							"type": "uint256"
						},
						{
							"internalType": "uint256[]",
							"name": "randomWords",
							"type": "uint256[]"
						}
					],
					"name": "rawFulfillRandomWords",
					"outputs": [],
					"stateMutability": "nonpayable",
					"type": "function"
				},
				{
					"inputs": [
						{
							"internalType": "uint256",
							"name": "_life",
							"type": "uint256"
						}
					],
					"name": "setLife",
					"outputs": [],
					"stateMutability": "nonpayable",
					"type": "function"
				},
				{
					"inputs": [
						{
							"internalType": "address",
							"name": "to",
							"type": "address"
						}
					],
					"name": "transferOwnership",
					"outputs": [],
					"stateMutability": "nonpayable",
					"type": "function"
				},
				{
					"inputs": [
						{
							"internalType": "uint256",
							"name": "lotId",
							"type": "uint256"
						}
					],
					"name": "winners",
					"outputs": [
						{
							"internalType": "address[]",
							"name": "result",
							"type": "address[]"
						}
					],
					"stateMutability": "view",
					"type": "function"
				},
				{
					"inputs": [
						{
							"internalType": "uint256",
							"name": "lotId",
							"type": "uint256"
						}
					],
					"name": "withdraw",
					"outputs": [],
					"stateMutability": "nonpayable",
					"type": "function"
				}
			],
			"devdoc": {
				"kind": "dev",
				"methods": {},
				"version": 1
			},
			"evm": {
				"assembly": "    /* \"contract/LuckyDraw.sol\":446:10791  contract LuckyDraw is VRFConsumerBaseV2, ConfirmedOwner, ReentrancyGuard {... */\n  mstore(0x40, 0xa0)\n    /* \"contract/LuckyDraw.sol\":1598:1612  30 * 24 * 3600 */\n  0x278d00\n    /* \"contract/LuckyDraw.sol\":1583:1612  uint256 life = 30 * 24 * 3600 */\n  0x03\n  sstore\n    /* \"contract/LuckyDraw.sol\":1817:1883  0xd4bb89654db74673a187bd804519e65e3f71a52bc55f11da7601a13dcf505314 */\n  0xd4bb89654db74673a187bd804519e65e3f71a52bc55f11da7601a13dcf505314\n    /* \"contract/LuckyDraw.sol\":1790:1883  bytes32 keyHash =... */\n  0x00\n  shl\n  0x06\n  sstore\n    /* \"contract/LuckyDraw.sol\":1916:1923  1000000 */\n  0x0f4240\n    /* \"contract/LuckyDraw.sol\":1890:1923  uint32 callbackGasLimit = 1000000 */\n  0x07\n  exp(0x0100, 0x00)\n  dup2\n  sload\n  dup2\n  0xffffffff\n  mul\n  not\n  and\n  swap1\n  dup4\n  0xffffffff\n  and\n  mul\n  or\n  swap1\n  sstore\n  pop\n    /* \"contract/LuckyDraw.sol\":1960:1961  3 */\n  0x03\n    /* \"contract/LuckyDraw.sol\":1930:1961  uint16 requestConfirmations = 3 */\n  0x07\n  exp(0x0100, 0x04)\n  dup2\n  sload\n  dup2\n  0xffff\n  mul\n  not\n  and\n  swap1\n  dup4\n  0xffff\n  and\n  mul\n  or\n  swap1\n  sstore\n  pop\n    /* \"contract/LuckyDraw.sol\":2275:2592  constructor(uint64 subscriptionId)... */\n  callvalue\n  dup1\n  iszero\n  tag_1\n  jumpi\n  0x00\n  dup1\n  revert\ntag_1:\n  pop\n  mload(0x40)\n  sub(codesize, bytecodeSize)\n  dup1\n  bytecodeSize\n  dup4\n  codecopy\n  dup2\n  dup2\n  add\n  0x40\n  mstore\n  dup2\n  add\n  swap1\n  tag_2\n  swap2\n  swap1\n  tag_3\n  jump\t// in\ntag_2:\n    /* \"contract/LuckyDraw.sol\":2405:2415  msg.sender */\n  caller\n    /* \"@chainlink/contracts/src/v0.8/ConfirmedOwner.sol\":327:335  newOwner */\n  dup1\n    /* \"@chainlink/contracts/src/v0.8/ConfirmedOwner.sol\":345:346  0 */\n  0x00\n    /* \"contract/LuckyDraw.sol\":2337:2379  0x6A2AAd07396B36Fe02a22b33cf443582f682c82f */\n  0x6a2aad07396b36fe02a22b33cf443582f682c82f\n    /* \"@chainlink/contracts/src/v0.8/VRFConsumerBaseV2.sol\":5616:5631  _vrfCoordinator */\n  dup1\n    /* \"@chainlink/contracts/src/v0.8/VRFConsumerBaseV2.sol\":5599:5631  vrfCoordinator = _vrfCoordinator */\n  0xffffffffffffffffffffffffffffffffffffffff\n  and\n  0x80\n  dup2\n  0xffffffffffffffffffffffffffffffffffffffff\n  and\n  dup2\n  mstore\n  pop\n  pop\n    /* \"@chainlink/contracts/src/v0.8/VRFConsumerBaseV2.sol\":5556:5636  constructor(address _vrfCoordinator) {... */\n  pop\n    /* \"@chainlink/contracts/src/v0.8/ConfirmedOwnerWithProposal.sol\":572:573  0 */\n  0x00\n    /* \"@chainlink/contracts/src/v0.8/ConfirmedOwnerWithProposal.sol\":552:574  newOwner != address(0) */\n  0xffffffffffffffffffffffffffffffffffffffff\n  and\n    /* \"@chainlink/contracts/src/v0.8/ConfirmedOwnerWithProposal.sol\":552:560  newOwner */\n  dup3\n    /* \"@chainlink/contracts/src/v0.8/ConfirmedOwnerWithProposal.sol\":552:574  newOwner != address(0) */\n  0xffffffffffffffffffffffffffffffffffffffff\n  and\n  sub\n    /* \"@chainlink/contracts/src/v0.8/ConfirmedOwnerWithProposal.sol\":544:603  require(newOwner != address(0), \"Cannot set owner to zero\") */\n  tag_11\n  jumpi\n  mload(0x40)\n  0x08c379a000000000000000000000000000000000000000000000000000000000\n  dup2\n  mstore\n  0x04\n  add\n  tag_12\n  swap1\n  tag_13\n  jump\t// in\ntag_12:\n  mload(0x40)\n  dup1\n  swap2\n  sub\n  swap1\n  revert\ntag_11:\n    /* \"@chainlink/contracts/src/v0.8/ConfirmedOwnerWithProposal.sol\":620:628  newOwner */\n  dup2\n    /* \"@chainlink/contracts/src/v0.8/ConfirmedOwnerWithProposal.sol\":610:617  s_owner */\n  0x00\n  dup1\n    /* \"@chainlink/contracts/src/v0.8/ConfirmedOwnerWithProposal.sol\":610:628  s_owner = newOwner */\n  0x0100\n  exp\n  dup2\n  sload\n  dup2\n  0xffffffffffffffffffffffffffffffffffffffff\n  mul\n  not\n  and\n  swap1\n  dup4\n  0xffffffffffffffffffffffffffffffffffffffff\n  and\n  mul\n  or\n  swap1\n  sstore\n  pop\n    /* \"@chainlink/contracts/src/v0.8/ConfirmedOwnerWithProposal.sol\":662:663  0 */\n  0x00\n    /* \"@chainlink/contracts/src/v0.8/ConfirmedOwnerWithProposal.sol\":638:664  pendingOwner != address(0) */\n  0xffffffffffffffffffffffffffffffffffffffff\n  and\n    /* \"@chainlink/contracts/src/v0.8/ConfirmedOwnerWithProposal.sol\":638:650  pendingOwner */\n  dup2\n    /* \"@chainlink/contracts/src/v0.8/ConfirmedOwnerWithProposal.sol\":638:664  pendingOwner != address(0) */\n  0xffffffffffffffffffffffffffffffffffffffff\n  and\n  eq\n    /* \"@chainlink/contracts/src/v0.8/ConfirmedOwnerWithProposal.sol\":634:713  if (pendingOwner != address(0)) {... */\n  tag_14\n  jumpi\n    /* \"@chainlink/contracts/src/v0.8/ConfirmedOwnerWithProposal.sol\":674:706  _transferOwnership(pendingOwner) */\n  tag_15\n    /* \"@chainlink/contracts/src/v0.8/ConfirmedOwnerWithProposal.sol\":693:705  pendingOwner */\n  dup2\n    /* \"@chainlink/contracts/src/v0.8/ConfirmedOwnerWithProposal.sol\":674:692  _transferOwnership */\n  shl(0x20, tag_16)\n    /* \"@chainlink/contracts/src/v0.8/ConfirmedOwnerWithProposal.sol\":674:706  _transferOwnership(pendingOwner) */\n  0x20\n  shr\n  jump\t// in\ntag_15:\n    /* \"@chainlink/contracts/src/v0.8/ConfirmedOwnerWithProposal.sol\":634:713  if (pendingOwner != address(0)) {... */\ntag_14:\n    /* \"@chainlink/contracts/src/v0.8/ConfirmedOwnerWithProposal.sol\":486:717  constructor(address newOwner, address pendingOwner) {... */\n  pop\n  pop\n    /* \"@chainlink/contracts/src/v0.8/ConfirmedOwner.sol\":270:351  constructor(address newOwner) ConfirmedOwnerWithProposal(newOwner, address(0)) {} */\n  pop\n    /* \"@openzeppelin/contracts/security/ReentrancyGuard.sol\":1716:1717  1 */\n  0x01\n    /* \"@openzeppelin/contracts/security/ReentrancyGuard.sol\":1821:1828  _status */\n  0x02\n    /* \"@openzeppelin/contracts/security/ReentrancyGuard.sol\":1821:1843  _status = _NOT_ENTERED */\n  dup2\n  swap1\n  sstore\n  pop\n    /* \"contract/LuckyDraw.sol\":2487:2529  0x6A2AAd07396B36Fe02a22b33cf443582f682c82f */\n  0x6a2aad07396b36fe02a22b33cf443582f682c82f\n    /* \"contract/LuckyDraw.sol\":2433:2444  COORDINATOR */\n  0x0a\n  0x00\n    /* \"contract/LuckyDraw.sol\":2433:2540  COORDINATOR = VRFCoordinatorV2Interface(... */\n  0x0100\n  exp\n  dup2\n  sload\n  dup2\n  0xffffffffffffffffffffffffffffffffffffffff\n  mul\n  not\n  and\n  swap1\n  dup4\n  0xffffffffffffffffffffffffffffffffffffffff\n  and\n  mul\n  or\n  swap1\n  sstore\n  pop\n    /* \"contract/LuckyDraw.sol\":2570:2584  subscriptionId */\n  dup1\n    /* \"contract/LuckyDraw.sol\":2551:2567  s_subscriptionId */\n  0x04\n  0x00\n    /* \"contract/LuckyDraw.sol\":2551:2584  s_subscriptionId = subscriptionId */\n  0x0100\n  exp\n  dup2\n  sload\n  dup2\n  0xffffffffffffffff\n  mul\n  not\n  and\n  swap1\n  dup4\n  0xffffffffffffffff\n  and\n  mul\n  or\n  swap1\n  sstore\n  pop\n    /* \"contract/LuckyDraw.sol\":2275:2592  constructor(uint64 subscriptionId)... */\n  pop\n    /* \"contract/LuckyDraw.sol\":446:10791  contract LuckyDraw is VRFConsumerBaseV2, ConfirmedOwner, ReentrancyGuard {... */\n  jump(tag_20)\n    /* \"@chainlink/contracts/src/v0.8/ConfirmedOwnerWithProposal.sol\":1497:1685  function _transferOwnership(address to) private {... */\ntag_16:\n    /* \"@chainlink/contracts/src/v0.8/ConfirmedOwnerWithProposal.sol\":1565:1575  msg.sender */\n  caller\n    /* \"@chainlink/contracts/src/v0.8/ConfirmedOwnerWithProposal.sol\":1559:1575  to != msg.sender */\n  0xffffffffffffffffffffffffffffffffffffffff\n  and\n    /* \"@chainlink/contracts/src/v0.8/ConfirmedOwnerWithProposal.sol\":1559:1561  to */\n  dup2\n    /* \"@chainlink/contracts/src/v0.8/ConfirmedOwnerWithProposal.sol\":1559:1575  to != msg.sender */\n  0xffffffffffffffffffffffffffffffffffffffff\n  and\n  sub\n    /* \"@chainlink/contracts/src/v0.8/ConfirmedOwnerWithProposal.sol\":1551:1603  require(to != msg.sender, \"Cannot transfer to self\") */\n  tag_22\n  jumpi\n  mload(0x40)\n  0x08c379a000000000000000000000000000000000000000000000000000000000\n  dup2\n  mstore\n  0x04\n  add\n  tag_23\n  swap1\n  tag_24\n  jump\t// in\ntag_23:\n  mload(0x40)\n  dup1\n  swap2\n  sub\n  swap1\n  revert\ntag_22:\n    /* \"@chainlink/contracts/src/v0.8/ConfirmedOwnerWithProposal.sol\":1627:1629  to */\n  dup1\n    /* \"@chainlink/contracts/src/v0.8/ConfirmedOwnerWithProposal.sol\":1610:1624  s_pendingOwner */\n  0x01\n  0x00\n    /* \"@chainlink/contracts/src/v0.8/ConfirmedOwnerWithProposal.sol\":1610:1629  s_pendingOwner = to */\n  0x0100\n  exp\n  dup2\n  sload\n  dup2\n  0xffffffffffffffffffffffffffffffffffffffff\n  mul\n  not\n  and\n  swap1\n  dup4\n  0xffffffffffffffffffffffffffffffffffffffff\n  and\n  mul\n  or\n  swap1\n  sstore\n  pop\n    /* \"@chainlink/contracts/src/v0.8/ConfirmedOwnerWithProposal.sol\":1677:1679  to */\n  dup1\n    /* \"@chainlink/contracts/src/v0.8/ConfirmedOwnerWithProposal.sol\":1641:1680  OwnershipTransferRequested(s_owner, to) */\n  0xffffffffffffffffffffffffffffffffffffffff\n  and\n    /* \"@chainlink/contracts/src/v0.8/ConfirmedOwnerWithProposal.sol\":1668:1675  s_owner */\n  0x00\n  dup1\n  sload\n  swap1\n  0x0100\n  exp\n  swap1\n  div\n  0xffffffffffffffffffffffffffffffffffffffff\n  and\n    /* \"@chainlink/contracts/src/v0.8/ConfirmedOwnerWithProposal.sol\":1641:1680  OwnershipTransferRequested(s_owner, to) */\n  0xffffffffffffffffffffffffffffffffffffffff\n  and\n  0xed8889f560326eb138920d842192f0eb3dd22b4f139c87a2c57538e05bae1278\n  mload(0x40)\n  mload(0x40)\n  dup1\n  swap2\n  sub\n  swap1\n  log3\n    /* \"@chainlink/contracts/src/v0.8/ConfirmedOwnerWithProposal.sol\":1497:1685  function _transferOwnership(address to) private {... */\n  pop\n  jump\t// out\n    /* \"#utility.yul\":88:205   */\ntag_26:\n    /* \"#utility.yul\":197:198   */\n  0x00\n    /* \"#utility.yul\":194:195   */\n  dup1\n    /* \"#utility.yul\":187:199   */\n  revert\n    /* \"#utility.yul\":334:435   */\ntag_28:\n    /* \"#utility.yul\":370:377   */\n  0x00\n    /* \"#utility.yul\":410:428   */\n  0xffffffffffffffff\n    /* \"#utility.yul\":403:408   */\n  dup3\n    /* \"#utility.yul\":399:429   */\n  and\n    /* \"#utility.yul\":388:429   */\n  swap1\n  pop\n    /* \"#utility.yul\":334:435   */\n  swap2\n  swap1\n  pop\n  jump\t// out\n    /* \"#utility.yul\":441:561   */\ntag_29:\n    /* \"#utility.yul\":513:536   */\n  tag_42\n    /* \"#utility.yul\":530:535   */\n  dup2\n    /* \"#utility.yul\":513:536   */\n  tag_28\n  jump\t// in\ntag_42:\n    /* \"#utility.yul\":506:511   */\n  dup2\n    /* \"#utility.yul\":503:537   */\n  eq\n    /* \"#utility.yul\":493:555   */\n  tag_43\n  jumpi\n    /* \"#utility.yul\":551:552   */\n  0x00\n    /* \"#utility.yul\":548:549   */\n  dup1\n    /* \"#utility.yul\":541:553   */\n  revert\n    /* \"#utility.yul\":493:555   */\ntag_43:\n    /* \"#utility.yul\":441:561   */\n  pop\n  jump\t// out\n    /* \"#utility.yul\":567:708   */\ntag_30:\n    /* \"#utility.yul\":623:628   */\n  0x00\n    /* \"#utility.yul\":654:660   */\n  dup2\n    /* \"#utility.yul\":648:661   */\n  mload\n    /* \"#utility.yul\":639:661   */\n  swap1\n  pop\n    /* \"#utility.yul\":670:702   */\n  tag_45\n    /* \"#utility.yul\":696:701   */\n  dup2\n    /* \"#utility.yul\":670:702   */\n  tag_29\n  jump\t// in\ntag_45:\n    /* \"#utility.yul\":567:708   */\n  swap3\n  swap2\n  pop\n  pop\n  jump\t// out\n    /* \"#utility.yul\":714:1063   */\ntag_3:\n    /* \"#utility.yul\":783:789   */\n  0x00\n    /* \"#utility.yul\":832:834   */\n  0x20\n    /* \"#utility.yul\":820:829   */\n  dup3\n    /* \"#utility.yul\":811:818   */\n  dup5\n    /* \"#utility.yul\":807:830   */\n  sub\n    /* \"#utility.yul\":803:835   */\n  slt\n    /* \"#utility.yul\":800:919   */\n  iszero\n  tag_47\n  jumpi\n    /* \"#utility.yul\":838:917   */\n  tag_48\n  tag_26\n  jump\t// in\ntag_48:\n    /* \"#utility.yul\":800:919   */\ntag_47:\n    /* \"#utility.yul\":958:959   */\n  0x00\n    /* \"#utility.yul\":983:1046   */\n  tag_49\n    /* \"#utility.yul\":1038:1045   */\n  dup5\n    /* \"#utility.yul\":1029:1035   */\n  dup3\n    /* \"#utility.yul\":1018:1027   */\n  dup6\n    /* \"#utility.yul\":1014:1036   */\n  add\n    /* \"#utility.yul\":983:1046   */\n  tag_30\n  jump\t// in\ntag_49:\n    /* \"#utility.yul\":973:1046   */\n  swap2\n  pop\n    /* \"#utility.yul\":929:1056   */\n  pop\n    /* \"#utility.yul\":714:1063   */\n  swap3\n  swap2\n  pop\n  pop\n  jump\t// out\n    /* \"#utility.yul\":1069:1238   */\ntag_31:\n    /* \"#utility.yul\":1153:1164   */\n  0x00\n    /* \"#utility.yul\":1187:1193   */\n  dup3\n    /* \"#utility.yul\":1182:1185   */\n  dup3\n    /* \"#utility.yul\":1175:1194   */\n  mstore\n    /* \"#utility.yul\":1227:1231   */\n  0x20\n    /* \"#utility.yul\":1222:1225   */\n  dup3\n    /* \"#utility.yul\":1218:1232   */\n  add\n    /* \"#utility.yul\":1203:1232   */\n  swap1\n  pop\n    /* \"#utility.yul\":1069:1238   */\n  swap3\n  swap2\n  pop\n  pop\n  jump\t// out\n    /* \"#utility.yul\":1244:1418   */\ntag_32:\n    /* \"#utility.yul\":1384:1410   */\n  0x43616e6e6f7420736574206f776e657220746f207a65726f0000000000000000\n    /* \"#utility.yul\":1380:1381   */\n  0x00\n    /* \"#utility.yul\":1372:1378   */\n  dup3\n    /* \"#utility.yul\":1368:1382   */\n  add\n    /* \"#utility.yul\":1361:1411   */\n  mstore\n    /* \"#utility.yul\":1244:1418   */\n  pop\n  jump\t// out\n    /* \"#utility.yul\":1424:1790   */\ntag_33:\n    /* \"#utility.yul\":1566:1569   */\n  0x00\n    /* \"#utility.yul\":1587:1654   */\n  tag_53\n    /* \"#utility.yul\":1651:1653   */\n  0x18\n    /* \"#utility.yul\":1646:1649   */\n  dup4\n    /* \"#utility.yul\":1587:1654   */\n  tag_31\n  jump\t// in\ntag_53:\n    /* \"#utility.yul\":1580:1654   */\n  swap2\n  pop\n    /* \"#utility.yul\":1663:1756   */\n  tag_54\n    /* \"#utility.yul\":1752:1755   */\n  dup3\n    /* \"#utility.yul\":1663:1756   */\n  tag_32\n  jump\t// in\ntag_54:\n    /* \"#utility.yul\":1781:1783   */\n  0x20\n    /* \"#utility.yul\":1776:1779   */\n  dup3\n    /* \"#utility.yul\":1772:1784   */\n  add\n    /* \"#utility.yul\":1765:1784   */\n  swap1\n  pop\n    /* \"#utility.yul\":1424:1790   */\n  swap2\n  swap1\n  pop\n  jump\t// out\n    /* \"#utility.yul\":1796:2215   */\ntag_13:\n    /* \"#utility.yul\":1962:1966   */\n  0x00\n    /* \"#utility.yul\":2000:2002   */\n  0x20\n    /* \"#utility.yul\":1989:1998   */\n  dup3\n    /* \"#utility.yul\":1985:2003   */\n  add\n    /* \"#utility.yul\":1977:2003   */\n  swap1\n  pop\n    /* \"#utility.yul\":2049:2058   */\n  dup2\n    /* \"#utility.yul\":2043:2047   */\n  dup2\n    /* \"#utility.yul\":2039:2059   */\n  sub\n    /* \"#utility.yul\":2035:2036   */\n  0x00\n    /* \"#utility.yul\":2024:2033   */\n  dup4\n    /* \"#utility.yul\":2020:2037   */\n  add\n    /* \"#utility.yul\":2013:2060   */\n  mstore\n    /* \"#utility.yul\":2077:2208   */\n  tag_56\n    /* \"#utility.yul\":2203:2207   */\n  dup2\n    /* \"#utility.yul\":2077:2208   */\n  tag_33\n  jump\t// in\ntag_56:\n    /* \"#utility.yul\":2069:2208   */\n  swap1\n  pop\n    /* \"#utility.yul\":1796:2215   */\n  swap2\n  swap1\n  pop\n  jump\t// out\n    /* \"#utility.yul\":2221:2394   */\ntag_34:\n    /* \"#utility.yul\":2361:2386   */\n  0x43616e6e6f74207472616e7366657220746f2073656c66000000000000000000\n    /* \"#utility.yul\":2357:2358   */\n  0x00\n    /* \"#utility.yul\":2349:2355   */\n  dup3\n    /* \"#utility.yul\":2345:2359   */\n  add\n    /* \"#utility.yul\":2338:2387   */\n  mstore\n    /* \"#utility.yul\":2221:2394   */\n  pop\n  jump\t// out\n    /* \"#utility.yul\":2400:2766   */\ntag_35:\n    /* \"#utility.yul\":2542:2545   */\n  0x00\n    /* \"#utility.yul\":2563:2630   */\n  tag_59\n    /* \"#utility.yul\":2627:2629   */\n  0x17\n    /* \"#utility.yul\":2622:2625   */\n  dup4\n    /* \"#utility.yul\":2563:2630   */\n  tag_31\n  jump\t// in\ntag_59:\n    /* \"#utility.yul\":2556:2630   */\n  swap2\n  pop\n    /* \"#utility.yul\":2639:2732   */\n  tag_60\n    /* \"#utility.yul\":2728:2731   */\n  dup3\n    /* \"#utility.yul\":2639:2732   */\n  tag_34\n  jump\t// in\ntag_60:\n    /* \"#utility.yul\":2757:2759   */\n  0x20\n    /* \"#utility.yul\":2752:2755   */\n  dup3\n    /* \"#utility.yul\":2748:2760   */\n  add\n    /* \"#utility.yul\":2741:2760   */\n  swap1\n  pop\n    /* \"#utility.yul\":2400:2766   */\n  swap2\n  swap1\n  pop\n  jump\t// out\n    /* \"#utility.yul\":2772:3191   */\ntag_24:\n    /* \"#utility.yul\":2938:2942   */\n  0x00\n    /* \"#utility.yul\":2976:2978   */\n  0x20\n    /* \"#utility.yul\":2965:2974   */\n  dup3\n    /* \"#utility.yul\":2961:2979   */\n  add\n    /* \"#utility.yul\":2953:2979   */\n  swap1\n  pop\n    /* \"#utility.yul\":3025:3034   */\n  dup2\n    /* \"#utility.yul\":3019:3023   */\n  dup2\n    /* \"#utility.yul\":3015:3035   */\n  sub\n    /* \"#utility.yul\":3011:3012   */\n  0x00\n    /* \"#utility.yul\":3000:3009   */\n  dup4\n    /* \"#utility.yul\":2996:3013   */\n  add\n    /* \"#utility.yul\":2989:3036   */\n  mstore\n    /* \"#utility.yul\":3053:3184   */\n  tag_62\n    /* \"#utility.yul\":3179:3183   */\n  dup2\n    /* \"#utility.yul\":3053:3184   */\n  tag_35\n  jump\t// in\ntag_62:\n    /* \"#utility.yul\":3045:3184   */\n  swap1\n  pop\n    /* \"#utility.yul\":2772:3191   */\n  swap2\n  swap1\n  pop\n  jump\t// out\n    /* \"contract/LuckyDraw.sol\":446:10791  contract LuckyDraw is VRFConsumerBaseV2, ConfirmedOwner, ReentrancyGuard {... */\ntag_20:\n  mload(0x80)\n  codecopy(0x00, dataOffset(sub_0), dataSize(sub_0))\n  0x00\n  assignImmutable(\"0xa75e2cf51d42f4164e4624f425e61448777a748393b6f6a5bcb1d94d1e8e5e98\")\n  return(0x00, dataSize(sub_0))\nstop\n\nsub_0: assembly {\n        /* \"contract/LuckyDraw.sol\":446:10791  contract LuckyDraw is VRFConsumerBaseV2, ConfirmedOwner, ReentrancyGuard {... */\n      mstore(0x40, 0x80)\n      callvalue\n      dup1\n      iszero\n      tag_1\n      jumpi\n      0x00\n      dup1\n      revert\n    tag_1:\n      pop\n      jumpi(tag_2, lt(calldatasize, 0x04))\n      shr(0xe0, calldataload(0x00))\n      dup1\n      0x79e66b46\n      gt\n      tag_19\n      jumpi\n      dup1\n      0xa57d1560\n      gt\n      tag_20\n      jumpi\n      dup1\n      0xa57d1560\n      eq\n      tag_15\n      jumpi\n      dup1\n      0xa65e2cfd\n      eq\n      tag_16\n      jumpi\n      dup1\n      0xd8a4676f\n      eq\n      tag_17\n      jumpi\n      dup1\n      0xf2fde38b\n      eq\n      tag_18\n      jumpi\n      jump(tag_2)\n    tag_20:\n      dup1\n      0x79e66b46\n      eq\n      tag_11\n      jumpi\n      dup1\n      0x86ca3936\n      eq\n      tag_12\n      jumpi\n      dup1\n      0x8da5cb5b\n      eq\n      tag_13\n      jumpi\n      dup1\n      0xa2fb1175\n      eq\n      tag_14\n      jumpi\n      jump(tag_2)\n    tag_19:\n      dup1\n      0x379607f5\n      gt\n      tag_21\n      jumpi\n      dup1\n      0x379607f5\n      eq\n      tag_7\n      jumpi\n      dup1\n      0x3b304147\n      eq\n      tag_8\n      jumpi\n      dup1\n      0x4c947ded\n      eq\n      tag_9\n      jumpi\n      dup1\n      0x79ba5097\n      eq\n      tag_10\n      jumpi\n      jump(tag_2)\n    tag_21:\n      dup1\n      0x1b08af49\n      eq\n      tag_3\n      jumpi\n      dup1\n      0x1fe543e3\n      eq\n      tag_4\n      jumpi\n      dup1\n      0x28bd0a3d\n      eq\n      tag_5\n      jumpi\n      dup1\n      0x2e1a7d4d\n      eq\n      tag_6\n      jumpi\n    tag_2:\n      0x00\n      dup1\n      revert\n        /* \"contract/LuckyDraw.sol\":1621:1705  function setLife(uint256 _life) external onlyOwner {... */\n    tag_3:\n      tag_22\n      0x04\n      dup1\n      calldatasize\n      sub\n      dup2\n      add\n      swap1\n      tag_23\n      swap2\n      swap1\n      tag_24\n      jump\t// in\n    tag_23:\n      tag_25\n      jump\t// in\n    tag_22:\n      stop\n        /* \"@chainlink/contracts/src/v0.8/VRFConsumerBaseV2.sol\":6618:6874  function rawFulfillRandomWords(uint256 requestId, uint256[] memory randomWords) external {... */\n    tag_4:\n      tag_26\n      0x04\n      dup1\n      calldatasize\n      sub\n      dup2\n      add\n      swap1\n      tag_27\n      swap2\n      swap1\n      tag_28\n      jump\t// in\n    tag_27:\n      tag_29\n      jump\t// in\n    tag_26:\n      stop\n        /* \"contract/LuckyDraw.sol\":5288:5430  function myTickets(uint256 lotId) public view returns (uint256[] memory) {... */\n    tag_5:\n      tag_30\n      0x04\n      dup1\n      calldatasize\n      sub\n      dup2\n      add\n      swap1\n      tag_31\n      swap2\n      swap1\n      tag_24\n      jump\t// in\n    tag_31:\n      tag_32\n      jump\t// in\n    tag_30:\n      mload(0x40)\n      tag_33\n      swap2\n      swap1\n      tag_34\n      jump\t// in\n    tag_33:\n      mload(0x40)\n      dup1\n      swap2\n      sub\n      swap1\n      return\n        /* \"contract/LuckyDraw.sol\":9641:9973  function withdraw(uint256 lotId) public onlyOwner nonReentrant {... */\n    tag_6:\n      tag_35\n      0x04\n      dup1\n      calldatasize\n      sub\n      dup2\n      add\n      swap1\n      tag_36\n      swap2\n      swap1\n      tag_24\n      jump\t// in\n    tag_36:\n      tag_37\n      jump\t// in\n    tag_35:\n      stop\n        /* \"contract/LuckyDraw.sol\":9030:9633  function claim(uint256 lotId) public nonReentrant {... */\n    tag_7:\n      tag_38\n      0x04\n      dup1\n      calldatasize\n      sub\n      dup2\n      add\n      swap1\n      tag_39\n      swap2\n      swap1\n      tag_24\n      jump\t// in\n    tag_39:\n      tag_40\n      jump\t// in\n    tag_38:\n      stop\n        /* \"contract/LuckyDraw.sol\":6434:7091  function draw(uint256 lotId) public {... */\n    tag_8:\n      tag_41\n      0x04\n      dup1\n      calldatasize\n      sub\n      dup2\n      add\n      swap1\n      tag_42\n      swap2\n      swap1\n      tag_24\n      jump\t// in\n    tag_42:\n      tag_43\n      jump\t// in\n    tag_41:\n      stop\n        /* \"contract/LuckyDraw.sol\":2600:3693  function createLottery(... */\n    tag_9:\n      tag_44\n      0x04\n      dup1\n      calldatasize\n      sub\n      dup2\n      add\n      swap1\n      tag_45\n      swap2\n      swap1\n      tag_46\n      jump\t// in\n    tag_45:\n      tag_47\n      jump\t// in\n    tag_44:\n      stop\n        /* \"@chainlink/contracts/src/v0.8/ConfirmedOwnerWithProposal.sol\":1016:1281  function acceptOwnership() external override {... */\n    tag_10:\n      tag_48\n      tag_49\n      jump\t// in\n    tag_48:\n      stop\n        /* \"contract/LuckyDraw.sol\":4056:5280  function join(uint256 lotId, uint256 quantity) public {... */\n    tag_11:\n      tag_50\n      0x04\n      dup1\n      calldatasize\n      sub\n      dup2\n      add\n      swap1\n      tag_51\n      swap2\n      swap1\n      tag_52\n      jump\t// in\n    tag_51:\n      tag_53\n      jump\t// in\n    tag_50:\n      stop\n        /* \"contract/LuckyDraw.sol\":8197:9022  function prize(uint256 lotId) public view returns (uint256) {... */\n    tag_12:\n      tag_54\n      0x04\n      dup1\n      calldatasize\n      sub\n      dup2\n      add\n      swap1\n      tag_55\n      swap2\n      swap1\n      tag_24\n      jump\t// in\n    tag_55:\n      tag_56\n      jump\t// in\n    tag_54:\n      mload(0x40)\n      tag_57\n      swap2\n      swap1\n      tag_58\n      jump\t// in\n    tag_57:\n      mload(0x40)\n      dup1\n      swap2\n      sub\n      swap1\n      return\n        /* \"@chainlink/contracts/src/v0.8/ConfirmedOwnerWithProposal.sol\":1332:1413  function owner() public view override returns (address) {... */\n    tag_13:\n      tag_59\n      tag_60\n      jump\t// in\n    tag_59:\n      mload(0x40)\n      tag_61\n      swap2\n      swap1\n      tag_62\n      jump\t// in\n    tag_61:\n      mload(0x40)\n      dup1\n      swap2\n      sub\n      swap1\n      return\n        /* \"contract/LuckyDraw.sol\":7099:8189  function winners(uint256 lotId)... */\n    tag_14:\n      tag_63\n      0x04\n      dup1\n      calldatasize\n      sub\n      dup2\n      add\n      swap1\n      tag_64\n      swap2\n      swap1\n      tag_24\n      jump\t// in\n    tag_64:\n      tag_65\n      jump\t// in\n    tag_63:\n      mload(0x40)\n      tag_66\n      swap2\n      swap1\n      tag_67\n      jump\t// in\n    tag_66:\n      mload(0x40)\n      dup1\n      swap2\n      sub\n      swap1\n      return\n        /* \"contract/LuckyDraw.sol\":5438:6426  function lottery(uint256 lotId)... */\n    tag_15:\n      tag_68\n      0x04\n      dup1\n      calldatasize\n      sub\n      dup2\n      add\n      swap1\n      tag_69\n      swap2\n      swap1\n      tag_24\n      jump\t// in\n    tag_69:\n      tag_70\n      jump\t// in\n    tag_68:\n      mload(0x40)\n      tag_71\n      swap13\n      swap12\n      swap11\n      swap10\n      swap9\n      swap8\n      swap7\n      swap6\n      swap5\n      swap4\n      swap3\n      swap2\n      swap1\n      tag_72\n      jump\t// in\n    tag_71:\n      mload(0x40)\n      dup1\n      swap2\n      sub\n      swap1\n      return\n        /* \"contract/LuckyDraw.sol\":3701:4048  function fund(uint256 lotId, uint256 amount) public {... */\n    tag_16:\n      tag_73\n      0x04\n      dup1\n      calldatasize\n      sub\n      dup2\n      add\n      swap1\n      tag_74\n      swap2\n      swap1\n      tag_52\n      jump\t// in\n    tag_74:\n      tag_75\n      jump\t// in\n    tag_73:\n      stop\n        /* \"contract/LuckyDraw.sol\":10441:10788  function getRequestStatus(uint256 _requestId)... */\n    tag_17:\n      tag_76\n      0x04\n      dup1\n      calldatasize\n      sub\n      dup2\n      add\n      swap1\n      tag_77\n      swap2\n      swap1\n      tag_24\n      jump\t// in\n    tag_77:\n      tag_78\n      jump\t// in\n    tag_76:\n      mload(0x40)\n      tag_79\n      swap3\n      swap2\n      swap1\n      tag_80\n      jump\t// in\n    tag_79:\n      mload(0x40)\n      dup1\n      swap2\n      sub\n      swap1\n      return\n        /* \"@chainlink/contracts/src/v0.8/ConfirmedOwnerWithProposal.sol\":826:924  function transferOwnership(address to) public override onlyOwner {... */\n    tag_18:\n      tag_81\n      0x04\n      dup1\n      calldatasize\n      sub\n      dup2\n      add\n      swap1\n      tag_82\n      swap2\n      swap1\n      tag_83\n      jump\t// in\n    tag_82:\n      tag_84\n      jump\t// in\n    tag_81:\n      stop\n        /* \"contract/LuckyDraw.sol\":1621:1705  function setLife(uint256 _life) external onlyOwner {... */\n    tag_25:\n        /* \"@chainlink/contracts/src/v0.8/ConfirmedOwnerWithProposal.sol\":1956:1976  _validateOwnership() */\n      tag_86\n        /* \"@chainlink/contracts/src/v0.8/ConfirmedOwnerWithProposal.sol\":1956:1974  _validateOwnership */\n      tag_87\n        /* \"@chainlink/contracts/src/v0.8/ConfirmedOwnerWithProposal.sol\":1956:1976  _validateOwnership() */\n      jump\t// in\n    tag_86:\n        /* \"contract/LuckyDraw.sol\":1691:1696  _life */\n      dup1\n        /* \"contract/LuckyDraw.sol\":1683:1687  life */\n      0x03\n        /* \"contract/LuckyDraw.sol\":1683:1697  life = (_life) */\n      dup2\n      swap1\n      sstore\n      pop\n        /* \"contract/LuckyDraw.sol\":1621:1705  function setLife(uint256 _life) external onlyOwner {... */\n      pop\n      jump\t// out\n        /* \"@chainlink/contracts/src/v0.8/VRFConsumerBaseV2.sol\":6618:6874  function rawFulfillRandomWords(uint256 requestId, uint256[] memory randomWords) external {... */\n    tag_29:\n        /* \"@chainlink/contracts/src/v0.8/VRFConsumerBaseV2.sol\":6731:6745  vrfCoordinator */\n      immutable(\"0xa75e2cf51d42f4164e4624f425e61448777a748393b6f6a5bcb1d94d1e8e5e98\")\n        /* \"@chainlink/contracts/src/v0.8/VRFConsumerBaseV2.sol\":6717:6745  msg.sender != vrfCoordinator */\n      0xffffffffffffffffffffffffffffffffffffffff\n      and\n        /* \"@chainlink/contracts/src/v0.8/VRFConsumerBaseV2.sol\":6717:6727  msg.sender */\n      caller\n        /* \"@chainlink/contracts/src/v0.8/VRFConsumerBaseV2.sol\":6717:6745  msg.sender != vrfCoordinator */\n      0xffffffffffffffffffffffffffffffffffffffff\n      and\n      eq\n        /* \"@chainlink/contracts/src/v0.8/VRFConsumerBaseV2.sol\":6713:6822  if (msg.sender != vrfCoordinator) {... */\n      tag_90\n      jumpi\n        /* \"@chainlink/contracts/src/v0.8/VRFConsumerBaseV2.sol\":6788:6798  msg.sender */\n      caller\n        /* \"@chainlink/contracts/src/v0.8/VRFConsumerBaseV2.sol\":6800:6814  vrfCoordinator */\n      immutable(\"0xa75e2cf51d42f4164e4624f425e61448777a748393b6f6a5bcb1d94d1e8e5e98\")\n        /* \"@chainlink/contracts/src/v0.8/VRFConsumerBaseV2.sol\":6762:6815  OnlyCoordinatorCanFulfill(msg.sender, vrfCoordinator) */\n      mload(0x40)\n      0x1cf993f400000000000000000000000000000000000000000000000000000000\n      dup2\n      mstore\n      0x04\n      add\n      tag_91\n      swap3\n      swap2\n      swap1\n      tag_92\n      jump\t// in\n    tag_91:\n      mload(0x40)\n      dup1\n      swap2\n      sub\n      swap1\n      revert\n        /* \"@chainlink/contracts/src/v0.8/VRFConsumerBaseV2.sol\":6713:6822  if (msg.sender != vrfCoordinator) {... */\n    tag_90:\n        /* \"@chainlink/contracts/src/v0.8/VRFConsumerBaseV2.sol\":6827:6869  fulfillRandomWords(requestId, randomWords) */\n      tag_93\n        /* \"@chainlink/contracts/src/v0.8/VRFConsumerBaseV2.sol\":6846:6855  requestId */\n      dup3\n        /* \"@chainlink/contracts/src/v0.8/VRFConsumerBaseV2.sol\":6857:6868  randomWords */\n      dup3\n        /* \"@chainlink/contracts/src/v0.8/VRFConsumerBaseV2.sol\":6827:6845  fulfillRandomWords */\n      tag_94\n        /* \"@chainlink/contracts/src/v0.8/VRFConsumerBaseV2.sol\":6827:6869  fulfillRandomWords(requestId, randomWords) */\n      jump\t// in\n    tag_93:\n        /* \"@chainlink/contracts/src/v0.8/VRFConsumerBaseV2.sol\":6618:6874  function rawFulfillRandomWords(uint256 requestId, uint256[] memory randomWords) external {... */\n      pop\n      pop\n      jump\t// out\n        /* \"contract/LuckyDraw.sol\":5288:5430  function myTickets(uint256 lotId) public view returns (uint256[] memory) {... */\n    tag_32:\n        /* \"contract/LuckyDraw.sol\":5343:5359  uint256[] memory */\n      0x60\n        /* \"contract/LuckyDraw.sol\":5379:5388  lotteries */\n      0x08\n        /* \"contract/LuckyDraw.sol\":5389:5394  lotId */\n      dup3\n        /* \"contract/LuckyDraw.sol\":5379:5395  lotteries[lotId] */\n      dup2\n      sload\n      dup2\n      lt\n      tag_96\n      jumpi\n      tag_97\n      tag_98\n      jump\t// in\n    tag_97:\n    tag_96:\n      swap1\n      0x00\n      mstore\n      keccak256(0x00, 0x20)\n      swap1\n      0x0f\n      mul\n      add\n        /* \"contract/LuckyDraw.sol\":5379:5410  lotteries[lotId].indexedTickets */\n      0x08\n      add\n        /* \"contract/LuckyDraw.sol\":5379:5422  lotteries[lotId].indexedTickets[msg.sender] */\n      0x00\n        /* \"contract/LuckyDraw.sol\":5411:5421  msg.sender */\n      caller\n        /* \"contract/LuckyDraw.sol\":5379:5422  lotteries[lotId].indexedTickets[msg.sender] */\n      0xffffffffffffffffffffffffffffffffffffffff\n      and\n      0xffffffffffffffffffffffffffffffffffffffff\n      and\n      dup2\n      mstore\n      0x20\n      add\n      swap1\n      dup2\n      mstore\n      0x20\n      add\n      0x00\n      keccak256\n        /* \"contract/LuckyDraw.sol\":5372:5422  return lotteries[lotId].indexedTickets[msg.sender] */\n      dup1\n      sload\n      dup1\n      0x20\n      mul\n      0x20\n      add\n      mload(0x40)\n      swap1\n      dup2\n      add\n      0x40\n      mstore\n      dup1\n      swap3\n      swap2\n      swap1\n      dup2\n      dup2\n      mstore\n      0x20\n      add\n      dup3\n      dup1\n      sload\n      dup1\n      iszero\n      tag_100\n      jumpi\n      0x20\n      mul\n      dup3\n      add\n      swap2\n      swap1\n      0x00\n      mstore\n      keccak256(0x00, 0x20)\n      swap1\n    tag_101:\n      dup2\n      sload\n      dup2\n      mstore\n      0x20\n      add\n      swap1\n      0x01\n      add\n      swap1\n      dup1\n      dup4\n      gt\n      tag_101\n      jumpi\n    tag_100:\n      pop\n      pop\n      pop\n      pop\n      pop\n      swap1\n      pop\n        /* \"contract/LuckyDraw.sol\":5288:5430  function myTickets(uint256 lotId) public view returns (uint256[] memory) {... */\n      swap2\n      swap1\n      pop\n      jump\t// out\n        /* \"contract/LuckyDraw.sol\":9641:9973  function withdraw(uint256 lotId) public onlyOwner nonReentrant {... */\n    tag_37:\n        /* \"@chainlink/contracts/src/v0.8/ConfirmedOwnerWithProposal.sol\":1956:1976  _validateOwnership() */\n      tag_103\n        /* \"@chainlink/contracts/src/v0.8/ConfirmedOwnerWithProposal.sol\":1956:1974  _validateOwnership */\n      tag_87\n        /* \"@chainlink/contracts/src/v0.8/ConfirmedOwnerWithProposal.sol\":1956:1976  _validateOwnership() */\n      jump\t// in\n    tag_103:\n        /* \"@openzeppelin/contracts/security/ReentrancyGuard.sol\":2261:2282  _nonReentrantBefore() */\n      tag_105\n        /* \"@openzeppelin/contracts/security/ReentrancyGuard.sol\":2261:2280  _nonReentrantBefore */\n      tag_106\n        /* \"@openzeppelin/contracts/security/ReentrancyGuard.sol\":2261:2282  _nonReentrantBefore() */\n      jump\t// in\n    tag_105:\n        /* \"contract/LuckyDraw.sol\":9715:9734  Lottery storage lot */\n      0x00\n        /* \"contract/LuckyDraw.sol\":9737:9746  lotteries */\n      0x08\n        /* \"contract/LuckyDraw.sol\":9747:9752  lotId */\n      dup3\n        /* \"contract/LuckyDraw.sol\":9737:9753  lotteries[lotId] */\n      dup2\n      sload\n      dup2\n      lt\n      tag_108\n      jumpi\n      tag_109\n      tag_98\n      jump\t// in\n    tag_109:\n    tag_108:\n      swap1\n      0x00\n      mstore\n      keccak256(0x00, 0x20)\n      swap1\n      0x0f\n      mul\n      add\n        /* \"contract/LuckyDraw.sol\":9715:9753  Lottery storage lot = lotteries[lotId] */\n      swap1\n      pop\n        /* \"contract/LuckyDraw.sol\":9800:9804  life */\n      sload(0x03)\n        /* \"contract/LuckyDraw.sol\":9790:9793  lot */\n      dup2\n        /* \"contract/LuckyDraw.sol\":9790:9797  lot.end */\n      0x0c\n      add\n      sload\n        /* \"contract/LuckyDraw.sol\":9790:9804  lot.end + life */\n      tag_111\n      swap2\n      swap1\n      tag_112\n      jump\t// in\n    tag_111:\n        /* \"contract/LuckyDraw.sol\":9772:9787  block.timestamp */\n      timestamp\n        /* \"contract/LuckyDraw.sol\":9772:9804  block.timestamp > lot.end + life */\n      gt\n        /* \"contract/LuckyDraw.sol\":9764:9822  require(block.timestamp > lot.end + life, \"not available\") */\n      tag_113\n      jumpi\n      mload(0x40)\n      0x08c379a000000000000000000000000000000000000000000000000000000000\n      dup2\n      mstore\n      0x04\n      add\n      tag_114\n      swap1\n      tag_115\n      jump\t// in\n    tag_114:\n      mload(0x40)\n      dup1\n      swap2\n      sub\n      swap1\n      revert\n    tag_113:\n        /* \"contract/LuckyDraw.sol\":9835:9847  IERC20 token */\n      0x00\n        /* \"contract/LuckyDraw.sol\":9857:9860  lot */\n      dup2\n        /* \"contract/LuckyDraw.sol\":9857:9870  lot.tokenAddr */\n      0x01\n      add\n      0x00\n      swap1\n      sload\n      swap1\n      0x0100\n      exp\n      swap1\n      div\n      0xffffffffffffffffffffffffffffffffffffffff\n      and\n        /* \"contract/LuckyDraw.sol\":9835:9871  IERC20 token = IERC20(lot.tokenAddr) */\n      swap1\n      pop\n        /* \"contract/LuckyDraw.sol\":9882:9887  token */\n      dup1\n        /* \"contract/LuckyDraw.sol\":9882:9896  token.transfer */\n      0xffffffffffffffffffffffffffffffffffffffff\n      and\n      0xa9059cbb\n        /* \"contract/LuckyDraw.sol\":9897:9907  msg.sender */\n      caller\n        /* \"contract/LuckyDraw.sol\":9920:9923  lot */\n      dup5\n        /* \"contract/LuckyDraw.sol\":9920:9931  lot.claimed */\n      0x03\n      add\n      sload\n        /* \"contract/LuckyDraw.sol\":9909:9912  lot */\n      dup6\n        /* \"contract/LuckyDraw.sol\":9909:9917  lot.pool */\n      0x02\n      add\n      sload\n        /* \"contract/LuckyDraw.sol\":9909:9931  lot.pool - lot.claimed */\n      tag_116\n      swap2\n      swap1\n      tag_117\n      jump\t// in\n    tag_116:\n        /* \"contract/LuckyDraw.sol\":9882:9932  token.transfer(msg.sender, lot.pool - lot.claimed) */\n      mload(0x40)\n      dup4\n      0xffffffff\n      and\n      0xe0\n      shl\n      dup2\n      mstore\n      0x04\n      add\n      tag_118\n      swap3\n      swap2\n      swap1\n      tag_119\n      jump\t// in\n    tag_118:\n      0x20\n      mload(0x40)\n      dup1\n      dup4\n      sub\n      dup2\n      0x00\n      dup8\n      gas\n      call\n      iszero\n      dup1\n      iszero\n      tag_121\n      jumpi\n      returndatasize\n      0x00\n      dup1\n      returndatacopy\n      revert(0x00, returndatasize)\n    tag_121:\n      pop\n      pop\n      pop\n      pop\n      mload(0x40)\n      returndatasize\n      not(0x1f)\n      0x1f\n      dup3\n      add\n      and\n      dup3\n      add\n      dup1\n      0x40\n      mstore\n      pop\n      dup2\n      add\n      swap1\n      tag_122\n      swap2\n      swap1\n      tag_123\n      jump\t// in\n    tag_122:\n      pop\n        /* \"contract/LuckyDraw.sol\":9957:9960  lot */\n      dup2\n        /* \"contract/LuckyDraw.sol\":9957:9965  lot.pool */\n      0x02\n      add\n      sload\n        /* \"contract/LuckyDraw.sol\":9943:9946  lot */\n      dup3\n        /* \"contract/LuckyDraw.sol\":9943:9954  lot.claimed */\n      0x03\n      add\n        /* \"contract/LuckyDraw.sol\":9943:9965  lot.claimed = lot.pool */\n      dup2\n      swap1\n      sstore\n      pop\n        /* \"contract/LuckyDraw.sol\":9704:9973  {... */\n      pop\n      pop\n        /* \"@openzeppelin/contracts/security/ReentrancyGuard.sol\":2303:2323  _nonReentrantAfter() */\n      tag_124\n        /* \"@openzeppelin/contracts/security/ReentrancyGuard.sol\":2303:2321  _nonReentrantAfter */\n      tag_125\n        /* \"@openzeppelin/contracts/security/ReentrancyGuard.sol\":2303:2323  _nonReentrantAfter() */\n      jump\t// in\n    tag_124:\n        /* \"contract/LuckyDraw.sol\":9641:9973  function withdraw(uint256 lotId) public onlyOwner nonReentrant {... */\n      pop\n      jump\t// out\n        /* \"contract/LuckyDraw.sol\":9030:9633  function claim(uint256 lotId) public nonReentrant {... */\n    tag_40:\n        /* \"@openzeppelin/contracts/security/ReentrancyGuard.sol\":2261:2282  _nonReentrantBefore() */\n      tag_127\n        /* \"@openzeppelin/contracts/security/ReentrancyGuard.sol\":2261:2280  _nonReentrantBefore */\n      tag_106\n        /* \"@openzeppelin/contracts/security/ReentrancyGuard.sol\":2261:2282  _nonReentrantBefore() */\n      jump\t// in\n    tag_127:\n        /* \"contract/LuckyDraw.sol\":9091:9110  Lottery storage lot */\n      0x00\n        /* \"contract/LuckyDraw.sol\":9113:9122  lotteries */\n      0x08\n        /* \"contract/LuckyDraw.sol\":9123:9128  lotId */\n      dup3\n        /* \"contract/LuckyDraw.sol\":9113:9129  lotteries[lotId] */\n      dup2\n      sload\n      dup2\n      lt\n      tag_129\n      jumpi\n      tag_130\n      tag_98\n      jump\t// in\n    tag_130:\n    tag_129:\n      swap1\n      0x00\n      mstore\n      keccak256(0x00, 0x20)\n      swap1\n      0x0f\n      mul\n      add\n        /* \"contract/LuckyDraw.sol\":9091:9129  Lottery storage lot = lotteries[lotId] */\n      swap1\n      pop\n        /* \"contract/LuckyDraw.sol\":9202:9203  0 */\n      0x00\n        /* \"contract/LuckyDraw.sol\":9162:9165  lot */\n      dup2\n        /* \"contract/LuckyDraw.sol\":9162:9180  lot.indexedTickets */\n      0x08\n      add\n        /* \"contract/LuckyDraw.sol\":9162:9192  lot.indexedTickets[msg.sender] */\n      0x00\n        /* \"contract/LuckyDraw.sol\":9181:9191  msg.sender */\n      caller\n        /* \"contract/LuckyDraw.sol\":9162:9192  lot.indexedTickets[msg.sender] */\n      0xffffffffffffffffffffffffffffffffffffffff\n      and\n      0xffffffffffffffffffffffffffffffffffffffff\n      and\n      dup2\n      mstore\n      0x20\n      add\n      swap1\n      dup2\n      mstore\n      0x20\n      add\n      0x00\n      keccak256\n        /* \"contract/LuckyDraw.sol\":9162:9199  lot.indexedTickets[msg.sender].length */\n      dup1\n      sload\n      swap1\n      pop\n        /* \"contract/LuckyDraw.sol\":9162:9203  lot.indexedTickets[msg.sender].length > 0 */\n      gt\n        /* \"contract/LuckyDraw.sol\":9162:9253  lot.indexedTickets[msg.sender].length > 0 &&... */\n      dup1\n      iszero\n      tag_132\n      jumpi\n      pop\n        /* \"contract/LuckyDraw.sol\":9225:9228  lot */\n      dup1\n        /* \"contract/LuckyDraw.sol\":9225:9241  lot.claimedAddrs */\n      0x0d\n      add\n        /* \"contract/LuckyDraw.sol\":9225:9253  lot.claimedAddrs[msg.sender] */\n      0x00\n        /* \"contract/LuckyDraw.sol\":9242:9252  msg.sender */\n      caller\n        /* \"contract/LuckyDraw.sol\":9225:9253  lot.claimedAddrs[msg.sender] */\n      0xffffffffffffffffffffffffffffffffffffffff\n      and\n      0xffffffffffffffffffffffffffffffffffffffff\n      and\n      dup2\n      mstore\n      0x20\n      add\n      swap1\n      dup2\n      mstore\n      0x20\n      add\n      0x00\n      keccak256\n      0x00\n      swap1\n      sload\n      swap1\n      0x0100\n      exp\n      swap1\n      div\n      0xff\n      and\n        /* \"contract/LuckyDraw.sol\":9224:9253  !lot.claimedAddrs[msg.sender] */\n      iszero\n        /* \"contract/LuckyDraw.sol\":9162:9253  lot.indexedTickets[msg.sender].length > 0 &&... */\n    tag_132:\n        /* \"contract/LuckyDraw.sol\":9140:9293  require(... */\n      tag_133\n      jumpi\n      mload(0x40)\n      0x08c379a000000000000000000000000000000000000000000000000000000000\n      dup2\n      mstore\n      0x04\n      add\n      tag_134\n      swap1\n      tag_135\n      jump\t// in\n    tag_134:\n      mload(0x40)\n      dup1\n      swap2\n      sub\n      swap1\n      revert\n    tag_133:\n        /* \"contract/LuckyDraw.sol\":9306:9322  uint256 prizeVal */\n      0x00\n        /* \"contract/LuckyDraw.sol\":9325:9337  prize(lotId) */\n      tag_136\n        /* \"contract/LuckyDraw.sol\":9331:9336  lotId */\n      dup4\n        /* \"contract/LuckyDraw.sol\":9325:9330  prize */\n      tag_56\n        /* \"contract/LuckyDraw.sol\":9325:9337  prize(lotId) */\n      jump\t// in\n    tag_136:\n        /* \"contract/LuckyDraw.sol\":9306:9337  uint256 prizeVal = prize(lotId) */\n      swap1\n      pop\n        /* \"contract/LuckyDraw.sol\":9381:9389  prizeVal */\n      dup1\n        /* \"contract/LuckyDraw.sol\":9367:9370  lot */\n      dup3\n        /* \"contract/LuckyDraw.sol\":9367:9378  lot.claimed */\n      0x03\n      add\n      sload\n        /* \"contract/LuckyDraw.sol\":9356:9359  lot */\n      dup4\n        /* \"contract/LuckyDraw.sol\":9356:9364  lot.pool */\n      0x02\n      add\n      sload\n        /* \"contract/LuckyDraw.sol\":9356:9378  lot.pool - lot.claimed */\n      tag_137\n      swap2\n      swap1\n      tag_117\n      jump\t// in\n    tag_137:\n        /* \"contract/LuckyDraw.sol\":9356:9389  lot.pool - lot.claimed > prizeVal */\n      gt\n        /* \"contract/LuckyDraw.sol\":9348:9405  require(lot.pool - lot.claimed > prizeVal, \"unavailable\") */\n      tag_138\n      jumpi\n      mload(0x40)\n      0x08c379a000000000000000000000000000000000000000000000000000000000\n      dup2\n      mstore\n      0x04\n      add\n      tag_139\n      swap1\n      tag_140\n      jump\t// in\n    tag_139:\n      mload(0x40)\n      dup1\n      swap2\n      sub\n      swap1\n      revert\n    tag_138:\n        /* \"contract/LuckyDraw.sol\":9418:9430  IERC20 token */\n      0x00\n        /* \"contract/LuckyDraw.sol\":9440:9443  lot */\n      dup3\n        /* \"contract/LuckyDraw.sol\":9440:9453  lot.tokenAddr */\n      0x01\n      add\n      0x00\n      swap1\n      sload\n      swap1\n      0x0100\n      exp\n      swap1\n      div\n      0xffffffffffffffffffffffffffffffffffffffff\n      and\n        /* \"contract/LuckyDraw.sol\":9418:9454  IERC20 token = IERC20(lot.tokenAddr) */\n      swap1\n      pop\n        /* \"contract/LuckyDraw.sol\":9465:9470  token */\n      dup1\n        /* \"contract/LuckyDraw.sol\":9465:9479  token.transfer */\n      0xffffffffffffffffffffffffffffffffffffffff\n      and\n      0xa9059cbb\n        /* \"contract/LuckyDraw.sol\":9480:9490  msg.sender */\n      caller\n        /* \"contract/LuckyDraw.sol\":9492:9500  prizeVal */\n      dup5\n        /* \"contract/LuckyDraw.sol\":9465:9501  token.transfer(msg.sender, prizeVal) */\n      mload(0x40)\n      dup4\n      0xffffffff\n      and\n      0xe0\n      shl\n      dup2\n      mstore\n      0x04\n      add\n      tag_141\n      swap3\n      swap2\n      swap1\n      tag_119\n      jump\t// in\n    tag_141:\n      0x20\n      mload(0x40)\n      dup1\n      dup4\n      sub\n      dup2\n      0x00\n      dup8\n      gas\n      call\n      iszero\n      dup1\n      iszero\n      tag_143\n      jumpi\n      returndatasize\n      0x00\n      dup1\n      returndatacopy\n      revert(0x00, returndatasize)\n    tag_143:\n      pop\n      pop\n      pop\n      pop\n      mload(0x40)\n      returndatasize\n      not(0x1f)\n      0x1f\n      dup3\n      add\n      and\n      dup3\n      add\n      dup1\n      0x40\n      mstore\n      pop\n      dup2\n      add\n      swap1\n      tag_144\n      swap2\n      swap1\n      tag_123\n      jump\t// in\n    tag_144:\n      pop\n        /* \"contract/LuckyDraw.sol\":9527:9535  prizeVal */\n      dup2\n        /* \"contract/LuckyDraw.sol\":9512:9515  lot */\n      dup4\n        /* \"contract/LuckyDraw.sol\":9512:9523  lot.claimed */\n      0x03\n      add\n      0x00\n        /* \"contract/LuckyDraw.sol\":9512:9535  lot.claimed += prizeVal */\n      dup3\n      dup3\n      sload\n      tag_145\n      swap2\n      swap1\n      tag_112\n      jump\t// in\n    tag_145:\n      swap3\n      pop\n      pop\n      dup2\n      swap1\n      sstore\n      pop\n        /* \"contract/LuckyDraw.sol\":9577:9581  true */\n      0x01\n        /* \"contract/LuckyDraw.sol\":9546:9549  lot */\n      dup4\n        /* \"contract/LuckyDraw.sol\":9546:9562  lot.claimedAddrs */\n      0x0d\n      add\n        /* \"contract/LuckyDraw.sol\":9546:9574  lot.claimedAddrs[msg.sender] */\n      0x00\n        /* \"contract/LuckyDraw.sol\":9563:9573  msg.sender */\n      caller\n        /* \"contract/LuckyDraw.sol\":9546:9574  lot.claimedAddrs[msg.sender] */\n      0xffffffffffffffffffffffffffffffffffffffff\n      and\n      0xffffffffffffffffffffffffffffffffffffffff\n      and\n      dup2\n      mstore\n      0x20\n      add\n      swap1\n      dup2\n      mstore\n      0x20\n      add\n      0x00\n      keccak256\n      0x00\n        /* \"contract/LuckyDraw.sol\":9546:9581  lot.claimedAddrs[msg.sender] = true */\n      0x0100\n      exp\n      dup2\n      sload\n      dup2\n      0xff\n      mul\n      not\n      and\n      swap1\n      dup4\n      iszero\n      iszero\n      mul\n      or\n      swap1\n      sstore\n      pop\n        /* \"contract/LuckyDraw.sol\":9614:9624  msg.sender */\n      caller\n        /* \"contract/LuckyDraw.sol\":9599:9625  Claimed(lotId, msg.sender) */\n      0xffffffffffffffffffffffffffffffffffffffff\n      and\n        /* \"contract/LuckyDraw.sol\":9607:9612  lotId */\n      dup5\n        /* \"contract/LuckyDraw.sol\":9599:9625  Claimed(lotId, msg.sender) */\n      0x6aa3eac93d079e5e100b1029be716caa33586c96aa4baac390669fb5c2a21212\n      mload(0x40)\n      mload(0x40)\n      dup1\n      swap2\n      sub\n      swap1\n      log3\n        /* \"contract/LuckyDraw.sol\":9080:9633  {... */\n      pop\n      pop\n      pop\n        /* \"@openzeppelin/contracts/security/ReentrancyGuard.sol\":2303:2323  _nonReentrantAfter() */\n      tag_146\n        /* \"@openzeppelin/contracts/security/ReentrancyGuard.sol\":2303:2321  _nonReentrantAfter */\n      tag_125\n        /* \"@openzeppelin/contracts/security/ReentrancyGuard.sol\":2303:2323  _nonReentrantAfter() */\n      jump\t// in\n    tag_146:\n        /* \"contract/LuckyDraw.sol\":9030:9633  function claim(uint256 lotId) public nonReentrant {... */\n      pop\n      jump\t// out\n        /* \"contract/LuckyDraw.sol\":6434:7091  function draw(uint256 lotId) public {... */\n    tag_43:\n        /* \"contract/LuckyDraw.sol\":6481:6500  Lottery storage lot */\n      0x00\n        /* \"contract/LuckyDraw.sol\":6503:6512  lotteries */\n      0x08\n        /* \"contract/LuckyDraw.sol\":6513:6518  lotId */\n      dup3\n        /* \"contract/LuckyDraw.sol\":6503:6519  lotteries[lotId] */\n      dup2\n      sload\n      dup2\n      lt\n      tag_148\n      jumpi\n      tag_149\n      tag_98\n      jump\t// in\n    tag_149:\n    tag_148:\n      swap1\n      0x00\n      mstore\n      keccak256(0x00, 0x20)\n      swap1\n      0x0f\n      mul\n      add\n        /* \"contract/LuckyDraw.sol\":6481:6519  Lottery storage lot = lotteries[lotId] */\n      swap1\n      pop\n        /* \"contract/LuckyDraw.sol\":6556:6559  lot */\n      dup1\n        /* \"contract/LuckyDraw.sol\":6556:6563  lot.end */\n      0x0c\n      add\n      sload\n        /* \"contract/LuckyDraw.sol\":6538:6553  block.timestamp */\n      timestamp\n        /* \"contract/LuckyDraw.sol\":6538:6563  block.timestamp > lot.end */\n      gt\n        /* \"contract/LuckyDraw.sol\":6530:6581  require(block.timestamp > lot.end, \"not available\") */\n      tag_151\n      jumpi\n      mload(0x40)\n      0x08c379a000000000000000000000000000000000000000000000000000000000\n      dup2\n      mstore\n      0x04\n      add\n      tag_152\n      swap1\n      tag_115\n      jump\t// in\n    tag_152:\n      mload(0x40)\n      dup1\n      swap2\n      sub\n      swap1\n      revert\n    tag_151:\n        /* \"contract/LuckyDraw.sol\":6620:6621  0 */\n      0x00\n        /* \"contract/LuckyDraw.sol\":6600:6603  lot */\n      dup2\n        /* \"contract/LuckyDraw.sol\":6600:6616  lot.vrfRequestId */\n      0x0a\n      add\n      sload\n        /* \"contract/LuckyDraw.sol\":6600:6621  lot.vrfRequestId == 0 */\n      eq\n        /* \"contract/LuckyDraw.sol\":6592:6632  require(lot.vrfRequestId == 0, \"drawed\") */\n      tag_153\n      jumpi\n      mload(0x40)\n      0x08c379a000000000000000000000000000000000000000000000000000000000\n      dup2\n      mstore\n      0x04\n      add\n      tag_154\n      swap1\n      tag_155\n      jump\t// in\n    tag_154:\n      mload(0x40)\n      dup1\n      swap2\n      sub\n      swap1\n      revert\n    tag_153:\n        /* \"contract/LuckyDraw.sol\":6664:6675  COORDINATOR */\n      0x0a\n      0x00\n      swap1\n      sload\n      swap1\n      0x0100\n      exp\n      swap1\n      div\n      0xffffffffffffffffffffffffffffffffffffffff\n      and\n        /* \"contract/LuckyDraw.sol\":6664:6694  COORDINATOR.requestRandomWords */\n      0xffffffffffffffffffffffffffffffffffffffff\n      and\n      0x5d3b1d30\n        /* \"contract/LuckyDraw.sol\":6709:6716  keyHash */\n      sload(0x06)\n        /* \"contract/LuckyDraw.sol\":6731:6747  s_subscriptionId */\n      0x04\n      0x00\n      swap1\n      sload\n      swap1\n      0x0100\n      exp\n      swap1\n      div\n      0xffffffffffffffff\n      and\n        /* \"contract/LuckyDraw.sol\":6762:6782  requestConfirmations */\n      0x07\n      0x04\n      swap1\n      sload\n      swap1\n      0x0100\n      exp\n      swap1\n      div\n      0xffff\n      and\n        /* \"contract/LuckyDraw.sol\":6797:6813  callbackGasLimit */\n      0x07\n      0x00\n      swap1\n      sload\n      swap1\n      0x0100\n      exp\n      swap1\n      div\n      0xffffffff\n      and\n        /* \"contract/LuckyDraw.sol\":6828:6831  lot */\n      dup7\n        /* \"contract/LuckyDraw.sol\":6828:6839  lot.winners */\n      0x07\n      add\n      0x00\n      swap1\n      sload\n      swap1\n      0x0100\n      exp\n      swap1\n      div\n      0xffffffff\n      and\n        /* \"contract/LuckyDraw.sol\":6664:6850  COORDINATOR.requestRandomWords(... */\n      mload(0x40)\n      dup7\n      0xffffffff\n      and\n      0xe0\n      shl\n      dup2\n      mstore\n      0x04\n      add\n      tag_156\n      swap6\n      swap5\n      swap4\n      swap3\n      swap2\n      swap1\n      tag_157\n      jump\t// in\n    tag_156:\n      0x20\n      mload(0x40)\n      dup1\n      dup4\n      sub\n      dup2\n      0x00\n      dup8\n      gas\n      call\n      iszero\n      dup1\n      iszero\n      tag_159\n      jumpi\n      returndatasize\n      0x00\n      dup1\n      returndatacopy\n      revert(0x00, returndatasize)\n    tag_159:\n      pop\n      pop\n      pop\n      pop\n      mload(0x40)\n      returndatasize\n      not(0x1f)\n      0x1f\n      dup3\n      add\n      and\n      dup3\n      add\n      dup1\n      0x40\n      mstore\n      pop\n      dup2\n      add\n      swap1\n      tag_160\n      swap2\n      swap1\n      tag_161\n      jump\t// in\n    tag_160:\n        /* \"contract/LuckyDraw.sol\":6645:6648  lot */\n      dup2\n        /* \"contract/LuckyDraw.sol\":6645:6661  lot.vrfRequestId */\n      0x0a\n      add\n        /* \"contract/LuckyDraw.sol\":6645:6850  lot.vrfRequestId = COORDINATOR.requestRandomWords(... */\n      dup2\n      swap1\n      sstore\n      pop\n        /* \"contract/LuckyDraw.sol\":6894:7049  RequestStatus({... */\n      mload(0x40)\n      dup1\n      0x80\n      add\n      0x40\n      mstore\n      dup1\n        /* \"contract/LuckyDraw.sol\":7005:7010  false */\n      0x00\n        /* \"contract/LuckyDraw.sol\":6894:7049  RequestStatus({... */\n      iszero\n      iszero\n      dup2\n      mstore\n      0x20\n      add\n        /* \"contract/LuckyDraw.sol\":6975:6979  true */\n      0x01\n        /* \"contract/LuckyDraw.sol\":6894:7049  RequestStatus({... */\n      iszero\n      iszero\n      dup2\n      mstore\n      0x20\n      add\n        /* \"contract/LuckyDraw.sol\":6950:6951  0 */\n      0x00\n        /* \"contract/LuckyDraw.sol\":6936:6952  new uint256[](0) */\n      0xffffffffffffffff\n      dup2\n      gt\n      iszero\n      tag_162\n      jumpi\n      tag_163\n      tag_164\n      jump\t// in\n    tag_163:\n    tag_162:\n      mload(0x40)\n      swap1\n      dup1\n      dup3\n      mstore\n      dup1\n      0x20\n      mul\n      0x20\n      add\n      dup3\n      add\n      0x40\n      mstore\n      dup1\n      iszero\n      tag_165\n      jumpi\n      dup2\n      0x20\n      add\n      0x20\n      dup3\n      mul\n      dup1\n      calldatasize\n      dup4\n      calldatacopy\n      dup1\n      dup3\n      add\n      swap2\n      pop\n      pop\n      swap1\n      pop\n    tag_165:\n      pop\n        /* \"contract/LuckyDraw.sol\":6894:7049  RequestStatus({... */\n      dup2\n      mstore\n      0x20\n      add\n        /* \"contract/LuckyDraw.sol\":7032:7037  lotId */\n      dup4\n        /* \"contract/LuckyDraw.sol\":6894:7049  RequestStatus({... */\n      dup2\n      mstore\n      pop\n        /* \"contract/LuckyDraw.sol\":6863:6873  s_requests */\n      0x09\n        /* \"contract/LuckyDraw.sol\":6863:6891  s_requests[lot.vrfRequestId] */\n      0x00\n        /* \"contract/LuckyDraw.sol\":6874:6877  lot */\n      dup4\n        /* \"contract/LuckyDraw.sol\":6874:6890  lot.vrfRequestId */\n      0x0a\n      add\n      sload\n        /* \"contract/LuckyDraw.sol\":6863:6891  s_requests[lot.vrfRequestId] */\n      dup2\n      mstore\n      0x20\n      add\n      swap1\n      dup2\n      mstore\n      0x20\n      add\n      0x00\n      keccak256\n        /* \"contract/LuckyDraw.sol\":6863:7049  s_requests[lot.vrfRequestId] = RequestStatus({... */\n      0x00\n      dup3\n      add\n      mload\n      dup2\n      0x00\n      add\n      exp(0x0100, 0x00)\n      dup2\n      sload\n      dup2\n      0xff\n      mul\n      not\n      and\n      swap1\n      dup4\n      iszero\n      iszero\n      mul\n      or\n      swap1\n      sstore\n      pop\n      0x20\n      dup3\n      add\n      mload\n      dup2\n      0x00\n      add\n      exp(0x0100, 0x01)\n      dup2\n      sload\n      dup2\n      0xff\n      mul\n      not\n      and\n      swap1\n      dup4\n      iszero\n      iszero\n      mul\n      or\n      swap1\n      sstore\n      pop\n      0x40\n      dup3\n      add\n      mload\n      dup2\n      0x01\n      add\n      swap1\n      dup1\n      mload\n      swap1\n      0x20\n      add\n      swap1\n      tag_166\n      swap3\n      swap2\n      swap1\n      tag_167\n      jump\t// in\n    tag_166:\n      pop\n      0x60\n      dup3\n      add\n      mload\n      dup2\n      0x02\n      add\n      sstore\n      swap1\n      pop\n      pop\n        /* \"contract/LuckyDraw.sol\":7065:7083  RequestSent(lotId) */\n      0x0cd21a41891ff04ecd9a8754bec97e2fb85d2a4e7694329d4dc364c796f23d06\n        /* \"contract/LuckyDraw.sol\":7077:7082  lotId */\n      dup3\n        /* \"contract/LuckyDraw.sol\":7065:7083  RequestSent(lotId) */\n      mload(0x40)\n      tag_168\n      swap2\n      swap1\n      tag_58\n      jump\t// in\n    tag_168:\n      mload(0x40)\n      dup1\n      swap2\n      sub\n      swap1\n      log1\n        /* \"contract/LuckyDraw.sol\":6470:7091  {... */\n      pop\n        /* \"contract/LuckyDraw.sol\":6434:7091  function draw(uint256 lotId) public {... */\n      pop\n      jump\t// out\n        /* \"contract/LuckyDraw.sol\":2600:3693  function createLottery(... */\n    tag_47:\n        /* \"contract/LuckyDraw.sol\":2860:2865  start */\n      dup2\n        /* \"contract/LuckyDraw.sol\":2854:2857  end */\n      dup2\n        /* \"contract/LuckyDraw.sol\":2854:2865  end > start */\n      gt\n        /* \"contract/LuckyDraw.sol\":2854:2890  end > start && end > block.timestamp */\n      dup1\n      iszero\n      tag_170\n      jumpi\n      pop\n        /* \"contract/LuckyDraw.sol\":2875:2890  block.timestamp */\n      timestamp\n        /* \"contract/LuckyDraw.sol\":2869:2872  end */\n      dup2\n        /* \"contract/LuckyDraw.sol\":2869:2890  end > block.timestamp */\n      gt\n        /* \"contract/LuckyDraw.sol\":2854:2890  end > start && end > block.timestamp */\n    tag_170:\n        /* \"contract/LuckyDraw.sol\":2846:2907  require(end > start && end > block.timestamp, \"invalid time\") */\n      tag_171\n      jumpi\n      mload(0x40)\n      0x08c379a000000000000000000000000000000000000000000000000000000000\n      dup2\n      mstore\n      0x04\n      add\n      tag_172\n      swap1\n      tag_173\n      jump\t// in\n    tag_172:\n      mload(0x40)\n      dup1\n      swap2\n      sub\n      swap1\n      revert\n    tag_171:\n        /* \"contract/LuckyDraw.sol\":2963:2970  winners */\n      dup3\n        /* \"contract/LuckyDraw.sol\":2940:2970  winnerRatios.length == winners */\n      0xffffffff\n      and\n        /* \"contract/LuckyDraw.sol\":2940:2952  winnerRatios */\n      dup5\n        /* \"contract/LuckyDraw.sol\":2940:2959  winnerRatios.length */\n      mload\n        /* \"contract/LuckyDraw.sol\":2940:2970  winnerRatios.length == winners */\n      eq\n        /* \"contract/LuckyDraw.sol\":2940:2985  winnerRatios.length == winners && winners > 0 */\n      dup1\n      iszero\n      tag_174\n      jumpi\n      pop\n        /* \"contract/LuckyDraw.sol\":2984:2985  0 */\n      0x00\n        /* \"contract/LuckyDraw.sol\":2974:2981  winners */\n      dup4\n        /* \"contract/LuckyDraw.sol\":2974:2985  winners > 0 */\n      0xffffffff\n      and\n      gt\n        /* \"contract/LuckyDraw.sol\":2940:2985  winnerRatios.length == winners && winners > 0 */\n    tag_174:\n        /* \"contract/LuckyDraw.sol\":2918:3027  require(... */\n      tag_175\n      jumpi\n      mload(0x40)\n      0x08c379a000000000000000000000000000000000000000000000000000000000\n      dup2\n      mstore\n      0x04\n      add\n      tag_176\n      swap1\n      tag_177\n      jump\t// in\n    tag_176:\n      mload(0x40)\n      dup1\n      swap2\n      sub\n      swap1\n      revert\n    tag_175:\n        /* \"contract/LuckyDraw.sol\":3038:3050  IERC20 token */\n      0x00\n        /* \"contract/LuckyDraw.sol\":3060:3069  tokenAddr */\n      dup8\n        /* \"contract/LuckyDraw.sol\":3038:3070  IERC20 token = IERC20(tokenAddr) */\n      swap1\n      pop\n        /* \"contract/LuckyDraw.sol\":3111:3112  0 */\n      0x00\n        /* \"contract/LuckyDraw.sol\":3089:3094  token */\n      dup2\n        /* \"contract/LuckyDraw.sol\":3089:3106  token.totalSupply */\n      0xffffffffffffffffffffffffffffffffffffffff\n      and\n      0x18160ddd\n        /* \"contract/LuckyDraw.sol\":3089:3108  token.totalSupply() */\n      mload(0x40)\n      dup2\n      0xffffffff\n      and\n      0xe0\n      shl\n      dup2\n      mstore\n      0x04\n      add\n      0x20\n      mload(0x40)\n      dup1\n      dup4\n      sub\n      dup2\n      dup7\n      gas\n      staticcall\n      iszero\n      dup1\n      iszero\n      tag_179\n      jumpi\n      returndatasize\n      0x00\n      dup1\n      returndatacopy\n      revert(0x00, returndatasize)\n    tag_179:\n      pop\n      pop\n      pop\n      pop\n      mload(0x40)\n      returndatasize\n      not(0x1f)\n      0x1f\n      dup3\n      add\n      and\n      dup3\n      add\n      dup1\n      0x40\n      mstore\n      pop\n      dup2\n      add\n      swap1\n      tag_180\n      swap2\n      swap1\n      tag_161\n      jump\t// in\n    tag_180:\n        /* \"contract/LuckyDraw.sol\":3089:3112  token.totalSupply() > 0 */\n      gt\n        /* \"contract/LuckyDraw.sol\":3081:3130  require(token.totalSupply() > 0, \"invalid token\") */\n      tag_181\n      jumpi\n      mload(0x40)\n      0x08c379a000000000000000000000000000000000000000000000000000000000\n      dup2\n      mstore\n      0x04\n      add\n      tag_182\n      swap1\n      tag_183\n      jump\t// in\n    tag_182:\n      mload(0x40)\n      dup1\n      swap2\n      sub\n      swap1\n      revert\n    tag_181:\n        /* \"contract/LuckyDraw.sol\":3141:3157  uint256 ratioSum */\n      0x00\n        /* \"contract/LuckyDraw.sol\":3173:3182  uint256 i */\n      dup1\n        /* \"contract/LuckyDraw.sol\":3168:3256  for (uint256 i; i < winners; i++) {... */\n    tag_184:\n        /* \"contract/LuckyDraw.sol\":3188:3195  winners */\n      dup6\n        /* \"contract/LuckyDraw.sol\":3184:3195  i < winners */\n      0xffffffff\n      and\n        /* \"contract/LuckyDraw.sol\":3184:3185  i */\n      dup2\n        /* \"contract/LuckyDraw.sol\":3184:3195  i < winners */\n      lt\n        /* \"contract/LuckyDraw.sol\":3168:3256  for (uint256 i; i < winners; i++) {... */\n      iszero\n      tag_185\n      jumpi\n        /* \"contract/LuckyDraw.sol\":3229:3241  winnerRatios */\n      dup7\n        /* \"contract/LuckyDraw.sol\":3242:3243  i */\n      dup2\n        /* \"contract/LuckyDraw.sol\":3229:3244  winnerRatios[i] */\n      dup2\n      mload\n      dup2\n      lt\n      tag_187\n      jumpi\n      tag_188\n      tag_98\n      jump\t// in\n    tag_188:\n    tag_187:\n      0x20\n      mul\n      0x20\n      add\n      add\n      mload\n        /* \"contract/LuckyDraw.sol\":3217:3244  ratioSum += winnerRatios[i] */\n      dup3\n      tag_189\n      swap2\n      swap1\n      tag_112\n      jump\t// in\n    tag_189:\n      swap2\n      pop\n        /* \"contract/LuckyDraw.sol\":3197:3200  i++ */\n      dup1\n      dup1\n      tag_190\n      swap1\n      tag_191\n      jump\t// in\n    tag_190:\n      swap2\n      pop\n      pop\n        /* \"contract/LuckyDraw.sol\":3168:3256  for (uint256 i; i < winners; i++) {... */\n      jump(tag_184)\n    tag_185:\n      pop\n        /* \"contract/LuckyDraw.sol\":3285:3288  100 */\n      0x64\n        /* \"contract/LuckyDraw.sol\":3274:3282  ratioSum */\n      dup2\n        /* \"contract/LuckyDraw.sol\":3274:3288  ratioSum < 100 */\n      lt\n        /* \"contract/LuckyDraw.sol\":3266:3306  require(ratioSum < 100, \"invalid ratio\") */\n      tag_192\n      jumpi\n      mload(0x40)\n      0x08c379a000000000000000000000000000000000000000000000000000000000\n      dup2\n      mstore\n      0x04\n      add\n      tag_193\n      swap1\n      tag_194\n      jump\t// in\n    tag_193:\n      mload(0x40)\n      dup1\n      swap2\n      sub\n      swap1\n      revert\n    tag_192:\n        /* \"contract/LuckyDraw.sol\":3319:3338  Lottery storage lot */\n      0x00\n        /* \"contract/LuckyDraw.sol\":3341:3350  lotteries */\n      0x08\n        /* \"contract/LuckyDraw.sol\":3341:3357  lotteries.push() */\n      0x01\n      dup2\n      0x01\n      dup2\n      sload\n      add\n      dup1\n      dup3\n      sstore\n      dup1\n      swap2\n      pop\n      pop\n      sub\n      swap1\n      0x00\n      mstore\n      keccak256(0x00, 0x20)\n      swap1\n      0x0f\n      mul\n      add\n        /* \"contract/LuckyDraw.sol\":3319:3357  Lottery storage lot = lotteries.push() */\n      swap1\n      pop\n        /* \"contract/LuckyDraw.sol\":3382:3392  msg.sender */\n      caller\n        /* \"contract/LuckyDraw.sol\":3368:3371  lot */\n      dup2\n        /* \"contract/LuckyDraw.sol\":3368:3379  lot.creator */\n      0x00\n      add\n      0x00\n        /* \"contract/LuckyDraw.sol\":3368:3392  lot.creator = msg.sender */\n      0x0100\n      exp\n      dup2\n      sload\n      dup2\n      0xffffffffffffffffffffffffffffffffffffffff\n      mul\n      not\n      and\n      swap1\n      dup4\n      0xffffffffffffffffffffffffffffffffffffffff\n      and\n      mul\n      or\n      swap1\n      sstore\n      pop\n        /* \"contract/LuckyDraw.sol\":3419:3428  tokenAddr */\n      dup10\n        /* \"contract/LuckyDraw.sol\":3403:3406  lot */\n      dup2\n        /* \"contract/LuckyDraw.sol\":3403:3416  lot.tokenAddr */\n      0x01\n      add\n      0x00\n        /* \"contract/LuckyDraw.sol\":3403:3428  lot.tokenAddr = tokenAddr */\n      0x0100\n      exp\n      dup2\n      sload\n      dup2\n      0xffffffffffffffffffffffffffffffffffffffff\n      mul\n      not\n      and\n      swap1\n      dup4\n      0xffffffffffffffffffffffffffffffffffffffff\n      and\n      mul\n      or\n      swap1\n      sstore\n      pop\n        /* \"contract/LuckyDraw.sol\":3456:3466  maxTickets */\n      dup9\n        /* \"contract/LuckyDraw.sol\":3439:3442  lot */\n      dup2\n        /* \"contract/LuckyDraw.sol\":3439:3453  lot.maxTickets */\n      0x04\n      add\n        /* \"contract/LuckyDraw.sol\":3439:3466  lot.maxTickets = maxTickets */\n      dup2\n      swap1\n      sstore\n      pop\n        /* \"contract/LuckyDraw.sol\":3495:3506  ticketPrice */\n      dup8\n        /* \"contract/LuckyDraw.sol\":3477:3480  lot */\n      dup2\n        /* \"contract/LuckyDraw.sol\":3477:3492  lot.ticketPrice */\n      0x05\n      add\n        /* \"contract/LuckyDraw.sol\":3477:3506  lot.ticketPrice = ticketPrice */\n      dup2\n      swap1\n      sstore\n      pop\n        /* \"contract/LuckyDraw.sol\":3536:3548  winnerRatios */\n      dup7\n        /* \"contract/LuckyDraw.sol\":3517:3520  lot */\n      dup2\n        /* \"contract/LuckyDraw.sol\":3517:3533  lot.winnerRatios */\n      0x06\n      add\n        /* \"contract/LuckyDraw.sol\":3517:3548  lot.winnerRatios = winnerRatios */\n      swap1\n      dup1\n      mload\n      swap1\n      0x20\n      add\n      swap1\n      tag_196\n      swap3\n      swap2\n      swap1\n      tag_167\n      jump\t// in\n    tag_196:\n      pop\n        /* \"contract/LuckyDraw.sol\":3573:3580  winners */\n      dup6\n        /* \"contract/LuckyDraw.sol\":3559:3562  lot */\n      dup2\n        /* \"contract/LuckyDraw.sol\":3559:3570  lot.winners */\n      0x07\n      add\n      0x00\n        /* \"contract/LuckyDraw.sol\":3559:3580  lot.winners = winners */\n      0x0100\n      exp\n      dup2\n      sload\n      dup2\n      0xffffffff\n      mul\n      not\n      and\n      swap1\n      dup4\n      0xffffffff\n      and\n      mul\n      or\n      swap1\n      sstore\n      pop\n        /* \"contract/LuckyDraw.sol\":3603:3608  start */\n      dup5\n        /* \"contract/LuckyDraw.sol\":3591:3594  lot */\n      dup2\n        /* \"contract/LuckyDraw.sol\":3591:3600  lot.start */\n      0x0b\n      add\n        /* \"contract/LuckyDraw.sol\":3591:3608  lot.start = start */\n      dup2\n      swap1\n      sstore\n      pop\n        /* \"contract/LuckyDraw.sol\":3629:3632  end */\n      dup4\n        /* \"contract/LuckyDraw.sol\":3619:3622  lot */\n      dup2\n        /* \"contract/LuckyDraw.sol\":3619:3626  lot.end */\n      0x0c\n      add\n        /* \"contract/LuckyDraw.sol\":3619:3632  lot.end = end */\n      dup2\n      swap1\n      sstore\n      pop\n        /* \"contract/LuckyDraw.sol\":3650:3685  CreateLottery(lotteries.length - 1) */\n      0x960f4fb18f2af9795686d97891dbd6534865353629cbda12afb278e618197662\n        /* \"contract/LuckyDraw.sol\":3683:3684  1 */\n      0x01\n        /* \"contract/LuckyDraw.sol\":3664:3673  lotteries */\n      0x08\n        /* \"contract/LuckyDraw.sol\":3664:3680  lotteries.length */\n      dup1\n      sload\n      swap1\n      pop\n        /* \"contract/LuckyDraw.sol\":3664:3684  lotteries.length - 1 */\n      tag_197\n      swap2\n      swap1\n      tag_117\n      jump\t// in\n    tag_197:\n        /* \"contract/LuckyDraw.sol\":3650:3685  CreateLottery(lotteries.length - 1) */\n      mload(0x40)\n      tag_198\n      swap2\n      swap1\n      tag_58\n      jump\t// in\n    tag_198:\n      mload(0x40)\n      dup1\n      swap2\n      sub\n      swap1\n      log1\n        /* \"contract/LuckyDraw.sol\":2835:3693  {... */\n      pop\n      pop\n      pop\n        /* \"contract/LuckyDraw.sol\":2600:3693  function createLottery(... */\n      pop\n      pop\n      pop\n      pop\n      pop\n      pop\n      pop\n      jump\t// out\n        /* \"@chainlink/contracts/src/v0.8/ConfirmedOwnerWithProposal.sol\":1016:1281  function acceptOwnership() external override {... */\n    tag_49:\n        /* \"@chainlink/contracts/src/v0.8/ConfirmedOwnerWithProposal.sol\":1089:1103  s_pendingOwner */\n      0x01\n      0x00\n      swap1\n      sload\n      swap1\n      0x0100\n      exp\n      swap1\n      div\n      0xffffffffffffffffffffffffffffffffffffffff\n      and\n        /* \"@chainlink/contracts/src/v0.8/ConfirmedOwnerWithProposal.sol\":1075:1103  msg.sender == s_pendingOwner */\n      0xffffffffffffffffffffffffffffffffffffffff\n      and\n        /* \"@chainlink/contracts/src/v0.8/ConfirmedOwnerWithProposal.sol\":1075:1085  msg.sender */\n      caller\n        /* \"@chainlink/contracts/src/v0.8/ConfirmedOwnerWithProposal.sol\":1075:1103  msg.sender == s_pendingOwner */\n      0xffffffffffffffffffffffffffffffffffffffff\n      and\n      eq\n        /* \"@chainlink/contracts/src/v0.8/ConfirmedOwnerWithProposal.sol\":1067:1130  require(msg.sender == s_pendingOwner, \"Must be proposed owner\") */\n      tag_200\n      jumpi\n      mload(0x40)\n      0x08c379a000000000000000000000000000000000000000000000000000000000\n      dup2\n      mstore\n      0x04\n      add\n      tag_201\n      swap1\n      tag_202\n      jump\t// in\n    tag_201:\n      mload(0x40)\n      dup1\n      swap2\n      sub\n      swap1\n      revert\n    tag_200:\n        /* \"@chainlink/contracts/src/v0.8/ConfirmedOwnerWithProposal.sol\":1137:1153  address oldOwner */\n      0x00\n        /* \"@chainlink/contracts/src/v0.8/ConfirmedOwnerWithProposal.sol\":1156:1163  s_owner */\n      dup1\n      0x00\n      swap1\n      sload\n      swap1\n      0x0100\n      exp\n      swap1\n      div\n      0xffffffffffffffffffffffffffffffffffffffff\n      and\n        /* \"@chainlink/contracts/src/v0.8/ConfirmedOwnerWithProposal.sol\":1137:1163  address oldOwner = s_owner */\n      swap1\n      pop\n        /* \"@chainlink/contracts/src/v0.8/ConfirmedOwnerWithProposal.sol\":1179:1189  msg.sender */\n      caller\n        /* \"@chainlink/contracts/src/v0.8/ConfirmedOwnerWithProposal.sol\":1169:1176  s_owner */\n      0x00\n      dup1\n        /* \"@chainlink/contracts/src/v0.8/ConfirmedOwnerWithProposal.sol\":1169:1189  s_owner = msg.sender */\n      0x0100\n      exp\n      dup2\n      sload\n      dup2\n      0xffffffffffffffffffffffffffffffffffffffff\n      mul\n      not\n      and\n      swap1\n      dup4\n      0xffffffffffffffffffffffffffffffffffffffff\n      and\n      mul\n      or\n      swap1\n      sstore\n      pop\n        /* \"@chainlink/contracts/src/v0.8/ConfirmedOwnerWithProposal.sol\":1220:1221  0 */\n      0x00\n        /* \"@chainlink/contracts/src/v0.8/ConfirmedOwnerWithProposal.sol\":1195:1209  s_pendingOwner */\n      0x01\n      0x00\n        /* \"@chainlink/contracts/src/v0.8/ConfirmedOwnerWithProposal.sol\":1195:1222  s_pendingOwner = address(0) */\n      0x0100\n      exp\n      dup2\n      sload\n      dup2\n      0xffffffffffffffffffffffffffffffffffffffff\n      mul\n      not\n      and\n      swap1\n      dup4\n      0xffffffffffffffffffffffffffffffffffffffff\n      and\n      mul\n      or\n      swap1\n      sstore\n      pop\n        /* \"@chainlink/contracts/src/v0.8/ConfirmedOwnerWithProposal.sol\":1265:1275  msg.sender */\n      caller\n        /* \"@chainlink/contracts/src/v0.8/ConfirmedOwnerWithProposal.sol\":1234:1276  OwnershipTransferred(oldOwner, msg.sender) */\n      0xffffffffffffffffffffffffffffffffffffffff\n      and\n        /* \"@chainlink/contracts/src/v0.8/ConfirmedOwnerWithProposal.sol\":1255:1263  oldOwner */\n      dup2\n        /* \"@chainlink/contracts/src/v0.8/ConfirmedOwnerWithProposal.sol\":1234:1276  OwnershipTransferred(oldOwner, msg.sender) */\n      0xffffffffffffffffffffffffffffffffffffffff\n      and\n      0x8be0079c531659141344cd1fd0a4f28419497f9722a3daafe3b4186f6b6457e0\n      mload(0x40)\n      mload(0x40)\n      dup1\n      swap2\n      sub\n      swap1\n      log3\n        /* \"@chainlink/contracts/src/v0.8/ConfirmedOwnerWithProposal.sol\":1061:1281  {... */\n      pop\n        /* \"@chainlink/contracts/src/v0.8/ConfirmedOwnerWithProposal.sol\":1016:1281  function acceptOwnership() external override {... */\n      jump\t// out\n        /* \"contract/LuckyDraw.sol\":4056:5280  function join(uint256 lotId, uint256 quantity) public {... */\n    tag_53:\n        /* \"contract/LuckyDraw.sol\":4121:4140  Lottery storage lot */\n      0x00\n        /* \"contract/LuckyDraw.sol\":4143:4152  lotteries */\n      0x08\n        /* \"contract/LuckyDraw.sol\":4153:4158  lotId */\n      dup4\n        /* \"contract/LuckyDraw.sol\":4143:4159  lotteries[lotId] */\n      dup2\n      sload\n      dup2\n      lt\n      tag_204\n      jumpi\n      tag_205\n      tag_98\n      jump\t// in\n    tag_205:\n    tag_204:\n      swap1\n      0x00\n      mstore\n      keccak256(0x00, 0x20)\n      swap1\n      0x0f\n      mul\n      add\n        /* \"contract/LuckyDraw.sol\":4121:4159  Lottery storage lot = lotteries[lotId] */\n      swap1\n      pop\n        /* \"contract/LuckyDraw.sol\":4204:4219  block.timestamp */\n      timestamp\n        /* \"contract/LuckyDraw.sol\":4192:4195  lot */\n      dup2\n        /* \"contract/LuckyDraw.sol\":4192:4201  lot.start */\n      0x0b\n      add\n      sload\n        /* \"contract/LuckyDraw.sol\":4192:4219  lot.start < block.timestamp */\n      lt\n        /* \"contract/LuckyDraw.sol\":4192:4248  lot.start < block.timestamp && lot.end > block.timestamp */\n      dup1\n      iszero\n      tag_207\n      jumpi\n      pop\n        /* \"contract/LuckyDraw.sol\":4233:4248  block.timestamp */\n      timestamp\n        /* \"contract/LuckyDraw.sol\":4223:4226  lot */\n      dup2\n        /* \"contract/LuckyDraw.sol\":4223:4230  lot.end */\n      0x0c\n      add\n      sload\n        /* \"contract/LuckyDraw.sol\":4223:4248  lot.end > block.timestamp */\n      gt\n        /* \"contract/LuckyDraw.sol\":4192:4248  lot.start < block.timestamp && lot.end > block.timestamp */\n    tag_207:\n        /* \"contract/LuckyDraw.sol\":4170:4288  require(... */\n      tag_208\n      jumpi\n      mload(0x40)\n      0x08c379a000000000000000000000000000000000000000000000000000000000\n      dup2\n      mstore\n      0x04\n      add\n      tag_209\n      swap1\n      tag_173\n      jump\t// in\n    tag_209:\n      mload(0x40)\n      dup1\n      swap2\n      sub\n      swap1\n      revert\n    tag_208:\n        /* \"contract/LuckyDraw.sol\":4299:4317  uint256 currentLen */\n      0x00\n        /* \"contract/LuckyDraw.sol\":4320:4323  lot */\n      dup2\n        /* \"contract/LuckyDraw.sol\":4320:4338  lot.indexedTickets */\n      0x08\n      add\n        /* \"contract/LuckyDraw.sol\":4320:4350  lot.indexedTickets[msg.sender] */\n      0x00\n        /* \"contract/LuckyDraw.sol\":4339:4349  msg.sender */\n      caller\n        /* \"contract/LuckyDraw.sol\":4320:4350  lot.indexedTickets[msg.sender] */\n      0xffffffffffffffffffffffffffffffffffffffff\n      and\n      0xffffffffffffffffffffffffffffffffffffffff\n      and\n      dup2\n      mstore\n      0x20\n      add\n      swap1\n      dup2\n      mstore\n      0x20\n      add\n      0x00\n      keccak256\n        /* \"contract/LuckyDraw.sol\":4320:4357  lot.indexedTickets[msg.sender].length */\n      dup1\n      sload\n      swap1\n      pop\n        /* \"contract/LuckyDraw.sol\":4299:4357  uint256 currentLen = lot.indexedTickets[msg.sender].length */\n      swap1\n      pop\n        /* \"contract/LuckyDraw.sol\":4401:4402  0 */\n      0x00\n        /* \"contract/LuckyDraw.sol\":4390:4398  quantity */\n      dup4\n        /* \"contract/LuckyDraw.sol\":4390:4402  quantity > 0 */\n      gt\n        /* \"contract/LuckyDraw.sol\":4390:4445  quantity > 0 && currentLen + quantity <= lot.maxTickets */\n      dup1\n      iszero\n      tag_210\n      jumpi\n      pop\n        /* \"contract/LuckyDraw.sol\":4431:4434  lot */\n      dup2\n        /* \"contract/LuckyDraw.sol\":4431:4445  lot.maxTickets */\n      0x04\n      add\n      sload\n        /* \"contract/LuckyDraw.sol\":4419:4427  quantity */\n      dup4\n        /* \"contract/LuckyDraw.sol\":4406:4416  currentLen */\n      dup3\n        /* \"contract/LuckyDraw.sol\":4406:4427  currentLen + quantity */\n      tag_211\n      swap2\n      swap1\n      tag_112\n      jump\t// in\n    tag_211:\n        /* \"contract/LuckyDraw.sol\":4406:4445  currentLen + quantity <= lot.maxTickets */\n      gt\n      iszero\n        /* \"contract/LuckyDraw.sol\":4390:4445  quantity > 0 && currentLen + quantity <= lot.maxTickets */\n    tag_210:\n        /* \"contract/LuckyDraw.sol\":4368:4489  require(... */\n      tag_212\n      jumpi\n      mload(0x40)\n      0x08c379a000000000000000000000000000000000000000000000000000000000\n      dup2\n      mstore\n      0x04\n      add\n      tag_213\n      swap1\n      tag_214\n      jump\t// in\n    tag_213:\n      mload(0x40)\n      dup1\n      swap2\n      sub\n      swap1\n      revert\n    tag_212:\n        /* \"contract/LuckyDraw.sol\":4502:4523  uint256[] memory buff */\n      0x00\n        /* \"contract/LuckyDraw.sol\":4553:4561  quantity */\n      dup4\n        /* \"contract/LuckyDraw.sol\":4540:4550  currentLen */\n      dup3\n        /* \"contract/LuckyDraw.sol\":4540:4561  currentLen + quantity */\n      tag_215\n      swap2\n      swap1\n      tag_112\n      jump\t// in\n    tag_215:\n        /* \"contract/LuckyDraw.sol\":4526:4562  new uint256[](currentLen + quantity) */\n      0xffffffffffffffff\n      dup2\n      gt\n      iszero\n      tag_216\n      jumpi\n      tag_217\n      tag_164\n      jump\t// in\n    tag_217:\n    tag_216:\n      mload(0x40)\n      swap1\n      dup1\n      dup3\n      mstore\n      dup1\n      0x20\n      mul\n      0x20\n      add\n      dup3\n      add\n      0x40\n      mstore\n      dup1\n      iszero\n      tag_218\n      jumpi\n      dup2\n      0x20\n      add\n      0x20\n      dup3\n      mul\n      dup1\n      calldatasize\n      dup4\n      calldatacopy\n      dup1\n      dup3\n      add\n      swap2\n      pop\n      pop\n      swap1\n      pop\n    tag_218:\n      pop\n        /* \"contract/LuckyDraw.sol\":4502:4562  uint256[] memory buff = new uint256[](currentLen + quantity) */\n      swap1\n      pop\n        /* \"contract/LuckyDraw.sol\":4575:4587  IERC20 token */\n      0x00\n        /* \"contract/LuckyDraw.sol\":4597:4600  lot */\n      dup4\n        /* \"contract/LuckyDraw.sol\":4597:4610  lot.tokenAddr */\n      0x01\n      add\n      0x00\n      swap1\n      sload\n      swap1\n      0x0100\n      exp\n      swap1\n      div\n      0xffffffffffffffffffffffffffffffffffffffff\n      and\n        /* \"contract/LuckyDraw.sol\":4575:4611  IERC20 token = IERC20(lot.tokenAddr) */\n      swap1\n      pop\n        /* \"contract/LuckyDraw.sol\":4622:4640  uint256 totalPrice */\n      0x00\n        /* \"contract/LuckyDraw.sol\":4654:4657  lot */\n      dup5\n        /* \"contract/LuckyDraw.sol\":4654:4669  lot.ticketPrice */\n      0x05\n      add\n      sload\n        /* \"contract/LuckyDraw.sol\":4643:4651  quantity */\n      dup7\n        /* \"contract/LuckyDraw.sol\":4643:4669  quantity * lot.ticketPrice */\n      tag_219\n      swap2\n      swap1\n      tag_220\n      jump\t// in\n    tag_219:\n        /* \"contract/LuckyDraw.sol\":4622:4669  uint256 totalPrice = quantity * lot.ticketPrice */\n      swap1\n      pop\n        /* \"contract/LuckyDraw.sol\":4680:4685  token */\n      dup2\n        /* \"contract/LuckyDraw.sol\":4680:4698  token.transferFrom */\n      0xffffffffffffffffffffffffffffffffffffffff\n      and\n      0x23b872dd\n        /* \"contract/LuckyDraw.sol\":4699:4709  msg.sender */\n      caller\n        /* \"contract/LuckyDraw.sol\":4719:4723  this */\n      address\n        /* \"contract/LuckyDraw.sol\":4726:4736  totalPrice */\n      dup5\n        /* \"contract/LuckyDraw.sol\":4680:4737  token.transferFrom(msg.sender, address(this), totalPrice) */\n      mload(0x40)\n      dup5\n      0xffffffff\n      and\n      0xe0\n      shl\n      dup2\n      mstore\n      0x04\n      add\n      tag_221\n      swap4\n      swap3\n      swap2\n      swap1\n      tag_222\n      jump\t// in\n    tag_221:\n      0x20\n      mload(0x40)\n      dup1\n      dup4\n      sub\n      dup2\n      0x00\n      dup8\n      gas\n      call\n      iszero\n      dup1\n      iszero\n      tag_224\n      jumpi\n      returndatasize\n      0x00\n      dup1\n      returndatacopy\n      revert(0x00, returndatasize)\n    tag_224:\n      pop\n      pop\n      pop\n      pop\n      mload(0x40)\n      returndatasize\n      not(0x1f)\n      0x1f\n      dup3\n      add\n      and\n      dup3\n      add\n      dup1\n      0x40\n      mstore\n      pop\n      dup2\n      add\n      swap1\n      tag_225\n      swap2\n      swap1\n      tag_123\n      jump\t// in\n    tag_225:\n      pop\n        /* \"contract/LuckyDraw.sol\":4770:4779  uint256 i */\n      0x00\n        /* \"contract/LuckyDraw.sol\":4765:4876  for (uint256 i = 0; i < currentLen; i++) {... */\n    tag_226:\n        /* \"contract/LuckyDraw.sol\":4789:4799  currentLen */\n      dup5\n        /* \"contract/LuckyDraw.sol\":4785:4786  i */\n      dup2\n        /* \"contract/LuckyDraw.sol\":4785:4799  i < currentLen */\n      lt\n        /* \"contract/LuckyDraw.sol\":4765:4876  for (uint256 i = 0; i < currentLen; i++) {... */\n      iszero\n      tag_227\n      jumpi\n        /* \"contract/LuckyDraw.sol\":4831:4834  lot */\n      dup6\n        /* \"contract/LuckyDraw.sol\":4831:4849  lot.indexedTickets */\n      0x08\n      add\n        /* \"contract/LuckyDraw.sol\":4831:4861  lot.indexedTickets[msg.sender] */\n      0x00\n        /* \"contract/LuckyDraw.sol\":4850:4860  msg.sender */\n      caller\n        /* \"contract/LuckyDraw.sol\":4831:4861  lot.indexedTickets[msg.sender] */\n      0xffffffffffffffffffffffffffffffffffffffff\n      and\n      0xffffffffffffffffffffffffffffffffffffffff\n      and\n      dup2\n      mstore\n      0x20\n      add\n      swap1\n      dup2\n      mstore\n      0x20\n      add\n      0x00\n      keccak256\n        /* \"contract/LuckyDraw.sol\":4862:4863  i */\n      dup2\n        /* \"contract/LuckyDraw.sol\":4831:4864  lot.indexedTickets[msg.sender][i] */\n      dup2\n      sload\n      dup2\n      lt\n      tag_229\n      jumpi\n      tag_230\n      tag_98\n      jump\t// in\n    tag_230:\n    tag_229:\n      swap1\n      0x00\n      mstore\n      keccak256(0x00, 0x20)\n      add\n      sload\n        /* \"contract/LuckyDraw.sol\":4821:4825  buff */\n      dup5\n        /* \"contract/LuckyDraw.sol\":4826:4827  i */\n      dup3\n        /* \"contract/LuckyDraw.sol\":4821:4828  buff[i] */\n      dup2\n      mload\n      dup2\n      lt\n      tag_232\n      jumpi\n      tag_233\n      tag_98\n      jump\t// in\n    tag_233:\n    tag_232:\n      0x20\n      mul\n      0x20\n      add\n      add\n        /* \"contract/LuckyDraw.sol\":4821:4864  buff[i] = lot.indexedTickets[msg.sender][i] */\n      dup2\n      dup2\n      mstore\n      pop\n      pop\n        /* \"contract/LuckyDraw.sol\":4801:4804  i++ */\n      dup1\n      dup1\n      tag_234\n      swap1\n      tag_191\n      jump\t// in\n    tag_234:\n      swap2\n      pop\n      pop\n        /* \"contract/LuckyDraw.sol\":4765:4876  for (uint256 i = 0; i < currentLen; i++) {... */\n      jump(tag_226)\n    tag_227:\n      pop\n        /* \"contract/LuckyDraw.sol\":4916:4925  uint256 i */\n      0x00\n        /* \"contract/LuckyDraw.sol\":4911:5102  for (uint256 i = 0; i < quantity; i++) {... */\n    tag_235:\n        /* \"contract/LuckyDraw.sol\":4935:4943  quantity */\n      dup7\n        /* \"contract/LuckyDraw.sol\":4931:4932  i */\n      dup2\n        /* \"contract/LuckyDraw.sol\":4931:4943  i < quantity */\n      lt\n        /* \"contract/LuckyDraw.sol\":4911:5102  for (uint256 i = 0; i < quantity; i++) {... */\n      iszero\n      tag_236\n      jumpi\n        /* \"contract/LuckyDraw.sol\":4988:5009  lot.counter.current() */\n      tag_238\n        /* \"contract/LuckyDraw.sol\":4988:4991  lot */\n      dup7\n        /* \"contract/LuckyDraw.sol\":4988:4999  lot.counter */\n      0x0e\n      add\n        /* \"contract/LuckyDraw.sol\":4988:5007  lot.counter.current */\n      tag_239\n        /* \"contract/LuckyDraw.sol\":4988:5009  lot.counter.current() */\n      jump\t// in\n    tag_238:\n        /* \"contract/LuckyDraw.sol\":4965:4969  buff */\n      dup5\n        /* \"contract/LuckyDraw.sol\":4983:4984  i */\n      dup3\n        /* \"contract/LuckyDraw.sol\":4970:4980  currentLen */\n      dup8\n        /* \"contract/LuckyDraw.sol\":4970:4984  currentLen + i */\n      tag_240\n      swap2\n      swap1\n      tag_112\n      jump\t// in\n    tag_240:\n        /* \"contract/LuckyDraw.sol\":4965:4985  buff[currentLen + i] */\n      dup2\n      mload\n      dup2\n      lt\n      tag_241\n      jumpi\n      tag_242\n      tag_98\n      jump\t// in\n    tag_242:\n    tag_241:\n      0x20\n      mul\n      0x20\n      add\n      add\n        /* \"contract/LuckyDraw.sol\":4965:5009  buff[currentLen + i] = lot.counter.current() */\n      dup2\n      dup2\n      mstore\n      pop\n      pop\n        /* \"contract/LuckyDraw.sol\":5024:5027  lot */\n      dup6\n        /* \"contract/LuckyDraw.sol\":5024:5035  lot.tickets */\n      0x09\n      add\n        /* \"contract/LuckyDraw.sol\":5041:5051  msg.sender */\n      caller\n        /* \"contract/LuckyDraw.sol\":5024:5052  lot.tickets.push(msg.sender) */\n      swap1\n      dup1\n      0x01\n      dup2\n      sload\n      add\n      dup1\n      dup3\n      sstore\n      dup1\n      swap2\n      pop\n      pop\n      0x01\n      swap1\n      sub\n      swap1\n      0x00\n      mstore\n      keccak256(0x00, 0x20)\n      add\n      0x00\n      swap1\n      swap2\n      swap1\n      swap2\n      swap1\n      swap2\n      0x0100\n      exp\n      dup2\n      sload\n      dup2\n      0xffffffffffffffffffffffffffffffffffffffff\n      mul\n      not\n      and\n      swap1\n      dup4\n      0xffffffffffffffffffffffffffffffffffffffff\n      and\n      mul\n      or\n      swap1\n      sstore\n      pop\n        /* \"contract/LuckyDraw.sol\":5067:5090  lot.counter.increment() */\n      tag_244\n        /* \"contract/LuckyDraw.sol\":5067:5070  lot */\n      dup7\n        /* \"contract/LuckyDraw.sol\":5067:5078  lot.counter */\n      0x0e\n      add\n        /* \"contract/LuckyDraw.sol\":5067:5088  lot.counter.increment */\n      tag_245\n        /* \"contract/LuckyDraw.sol\":5067:5090  lot.counter.increment() */\n      jump\t// in\n    tag_244:\n        /* \"contract/LuckyDraw.sol\":4945:4948  i++ */\n      dup1\n      dup1\n      tag_246\n      swap1\n      tag_191\n      jump\t// in\n    tag_246:\n      swap2\n      pop\n      pop\n        /* \"contract/LuckyDraw.sol\":4911:5102  for (uint256 i = 0; i < quantity; i++) {... */\n      jump(tag_235)\n    tag_236:\n      pop\n        /* \"contract/LuckyDraw.sol\":5147:5151  buff */\n      dup3\n        /* \"contract/LuckyDraw.sol\":5114:5117  lot */\n      dup6\n        /* \"contract/LuckyDraw.sol\":5114:5132  lot.indexedTickets */\n      0x08\n      add\n        /* \"contract/LuckyDraw.sol\":5114:5144  lot.indexedTickets[msg.sender] */\n      0x00\n        /* \"contract/LuckyDraw.sol\":5133:5143  msg.sender */\n      caller\n        /* \"contract/LuckyDraw.sol\":5114:5144  lot.indexedTickets[msg.sender] */\n      0xffffffffffffffffffffffffffffffffffffffff\n      and\n      0xffffffffffffffffffffffffffffffffffffffff\n      and\n      dup2\n      mstore\n      0x20\n      add\n      swap1\n      dup2\n      mstore\n      0x20\n      add\n      0x00\n      keccak256\n        /* \"contract/LuckyDraw.sol\":5114:5151  lot.indexedTickets[msg.sender] = buff */\n      swap1\n      dup1\n      mload\n      swap1\n      0x20\n      add\n      swap1\n      tag_247\n      swap3\n      swap2\n      swap1\n      tag_167\n      jump\t// in\n    tag_247:\n      pop\n        /* \"contract/LuckyDraw.sol\":5174:5184  totalPrice */\n      dup1\n        /* \"contract/LuckyDraw.sol\":5162:5165  lot */\n      dup6\n        /* \"contract/LuckyDraw.sol\":5162:5170  lot.pool */\n      0x02\n      add\n      0x00\n        /* \"contract/LuckyDraw.sol\":5162:5184  lot.pool += totalPrice */\n      dup3\n      dup3\n      sload\n      tag_248\n      swap2\n      swap1\n      tag_112\n      jump\t// in\n    tag_248:\n      swap3\n      pop\n      pop\n      dup2\n      swap1\n      sstore\n      pop\n        /* \"contract/LuckyDraw.sol\":5205:5210  lotId */\n      dup7\n        /* \"contract/LuckyDraw.sol\":5200:5223  Fund(lotId, totalPrice) */\n      0xe10598fa0628b6878df33dddd270fc68abc6bc5b8b864e07ac2d9313cf31043e\n        /* \"contract/LuckyDraw.sol\":5212:5222  totalPrice */\n      dup3\n        /* \"contract/LuckyDraw.sol\":5200:5223  Fund(lotId, totalPrice) */\n      mload(0x40)\n      tag_249\n      swap2\n      swap1\n      tag_58\n      jump\t// in\n    tag_249:\n      mload(0x40)\n      dup1\n      swap2\n      sub\n      swap1\n      log2\n        /* \"contract/LuckyDraw.sol\":5251:5261  msg.sender */\n      caller\n        /* \"contract/LuckyDraw.sol\":5239:5272  Join(lotId, msg.sender, quantity) */\n      0xffffffffffffffffffffffffffffffffffffffff\n      and\n        /* \"contract/LuckyDraw.sol\":5244:5249  lotId */\n      dup8\n        /* \"contract/LuckyDraw.sol\":5239:5272  Join(lotId, msg.sender, quantity) */\n      0xb3e822478fa19cb993157f15b49a00501cc8d45226c1e7233aef1e281dc567f9\n        /* \"contract/LuckyDraw.sol\":5263:5271  quantity */\n      dup9\n        /* \"contract/LuckyDraw.sol\":5239:5272  Join(lotId, msg.sender, quantity) */\n      mload(0x40)\n      tag_250\n      swap2\n      swap1\n      tag_58\n      jump\t// in\n    tag_250:\n      mload(0x40)\n      dup1\n      swap2\n      sub\n      swap1\n      log3\n        /* \"contract/LuckyDraw.sol\":4110:5280  {... */\n      pop\n      pop\n      pop\n      pop\n      pop\n        /* \"contract/LuckyDraw.sol\":4056:5280  function join(uint256 lotId, uint256 quantity) public {... */\n      pop\n      pop\n      jump\t// out\n        /* \"contract/LuckyDraw.sol\":8197:9022  function prize(uint256 lotId) public view returns (uint256) {... */\n    tag_56:\n        /* \"contract/LuckyDraw.sol\":8248:8255  uint256 */\n      0x00\n        /* \"contract/LuckyDraw.sol\":8268:8287  Lottery storage lot */\n      dup1\n        /* \"contract/LuckyDraw.sol\":8290:8299  lotteries */\n      0x08\n        /* \"contract/LuckyDraw.sol\":8300:8305  lotId */\n      dup4\n        /* \"contract/LuckyDraw.sol\":8290:8306  lotteries[lotId] */\n      dup2\n      sload\n      dup2\n      lt\n      tag_252\n      jumpi\n      tag_253\n      tag_98\n      jump\t// in\n    tag_253:\n    tag_252:\n      swap1\n      0x00\n      mstore\n      keccak256(0x00, 0x20)\n      swap1\n      0x0f\n      mul\n      add\n        /* \"contract/LuckyDraw.sol\":8268:8306  Lottery storage lot = lotteries[lotId] */\n      swap1\n      pop\n        /* \"contract/LuckyDraw.sol\":8362:8363  0 */\n      0x00\n        /* \"contract/LuckyDraw.sol\":8321:8324  lot */\n      dup2\n        /* \"contract/LuckyDraw.sol\":8321:8339  lot.indexedTickets */\n      0x08\n      add\n        /* \"contract/LuckyDraw.sol\":8321:8351  lot.indexedTickets[msg.sender] */\n      0x00\n        /* \"contract/LuckyDraw.sol\":8340:8350  msg.sender */\n      caller\n        /* \"contract/LuckyDraw.sol\":8321:8351  lot.indexedTickets[msg.sender] */\n      0xffffffffffffffffffffffffffffffffffffffff\n      and\n      0xffffffffffffffffffffffffffffffffffffffff\n      and\n      dup2\n      mstore\n      0x20\n      add\n      swap1\n      dup2\n      mstore\n      0x20\n      add\n      0x00\n      keccak256\n        /* \"contract/LuckyDraw.sol\":8321:8358  lot.indexedTickets[msg.sender].length */\n      dup1\n      sload\n      swap1\n      pop\n        /* \"contract/LuckyDraw.sol\":8321:8363  lot.indexedTickets[msg.sender].length == 0 */\n      sub\n        /* \"contract/LuckyDraw.sol\":8317:8373  if (lot.indexedTickets[msg.sender].length == 0) return 0 */\n      tag_255\n      jumpi\n        /* \"contract/LuckyDraw.sol\":8372:8373  0 */\n      0x00\n        /* \"contract/LuckyDraw.sol\":8365:8373  return 0 */\n      swap2\n      pop\n      pop\n      jump(tag_251)\n        /* \"contract/LuckyDraw.sol\":8317:8373  if (lot.indexedTickets[msg.sender].length == 0) return 0 */\n    tag_255:\n        /* \"contract/LuckyDraw.sol\":8384:8408  address[] memory winners */\n      0x00\n        /* \"contract/LuckyDraw.sol\":8411:8425  winners(lotId) */\n      tag_256\n        /* \"contract/LuckyDraw.sol\":8419:8424  lotId */\n      dup5\n        /* \"contract/LuckyDraw.sol\":8411:8418  winners */\n      tag_65\n        /* \"contract/LuckyDraw.sol\":8411:8425  winners(lotId) */\n      jump\t// in\n    tag_256:\n        /* \"contract/LuckyDraw.sol\":8384:8425  address[] memory winners = winners(lotId) */\n      swap1\n      pop\n        /* \"contract/LuckyDraw.sol\":8436:8456  uint256 winnerPrizes */\n      0x00\n        /* \"contract/LuckyDraw.sol\":8467:8488  uint256 winnerTickets */\n      dup1\n        /* \"contract/LuckyDraw.sol\":8504:8513  uint256 i */\n      0x00\n        /* \"contract/LuckyDraw.sol\":8499:8848  for (uint256 i = 0; i < winners.length; i++) {... */\n    tag_257:\n        /* \"contract/LuckyDraw.sol\":8523:8530  winners */\n      dup4\n        /* \"contract/LuckyDraw.sol\":8523:8537  winners.length */\n      mload\n        /* \"contract/LuckyDraw.sol\":8519:8520  i */\n      dup2\n        /* \"contract/LuckyDraw.sol\":8519:8537  i < winners.length */\n      lt\n        /* \"contract/LuckyDraw.sol\":8499:8848  for (uint256 i = 0; i < winners.length; i++) {... */\n      iszero\n      tag_258\n      jumpi\n        /* \"contract/LuckyDraw.sol\":8577:8584  winners */\n      dup4\n        /* \"contract/LuckyDraw.sol\":8585:8586  i */\n      dup2\n        /* \"contract/LuckyDraw.sol\":8577:8587  winners[i] */\n      dup2\n      mload\n      dup2\n      lt\n      tag_260\n      jumpi\n      tag_261\n      tag_98\n      jump\t// in\n    tag_261:\n    tag_260:\n      0x20\n      mul\n      0x20\n      add\n      add\n      mload\n        /* \"contract/LuckyDraw.sol\":8563:8587  msg.sender == winners[i] */\n      0xffffffffffffffffffffffffffffffffffffffff\n      and\n        /* \"contract/LuckyDraw.sol\":8563:8573  msg.sender */\n      caller\n        /* \"contract/LuckyDraw.sol\":8563:8587  msg.sender == winners[i] */\n      0xffffffffffffffffffffffffffffffffffffffff\n      and\n      sub\n        /* \"contract/LuckyDraw.sol\":8559:8837  if (msg.sender == winners[i]) {... */\n      tag_262\n      jumpi\n        /* \"contract/LuckyDraw.sol\":8650:8653  100 */\n      0x64\n        /* \"contract/LuckyDraw.sol\":8627:8630  lot */\n      dup6\n        /* \"contract/LuckyDraw.sol\":8627:8643  lot.winnerRatios */\n      0x06\n      add\n        /* \"contract/LuckyDraw.sol\":8644:8645  i */\n      dup3\n        /* \"contract/LuckyDraw.sol\":8627:8646  lot.winnerRatios[i] */\n      dup2\n      sload\n      dup2\n      lt\n      tag_263\n      jumpi\n      tag_264\n      tag_98\n      jump\t// in\n    tag_264:\n    tag_263:\n      swap1\n      0x00\n      mstore\n      keccak256(0x00, 0x20)\n      add\n      sload\n        /* \"contract/LuckyDraw.sol\":8616:8619  lot */\n      dup7\n        /* \"contract/LuckyDraw.sol\":8616:8624  lot.pool */\n      0x02\n      add\n      sload\n        /* \"contract/LuckyDraw.sol\":8616:8646  lot.pool * lot.winnerRatios[i] */\n      tag_266\n      swap2\n      swap1\n      tag_220\n      jump\t// in\n    tag_266:\n        /* \"contract/LuckyDraw.sol\":8615:8653  (lot.pool * lot.winnerRatios[i]) / 100 */\n      tag_267\n      swap2\n      swap1\n      tag_268\n      jump\t// in\n    tag_267:\n        /* \"contract/LuckyDraw.sol\":8608:8653  return (lot.pool * lot.winnerRatios[i]) / 100 */\n      swap6\n      pop\n      pop\n      pop\n      pop\n      pop\n      pop\n      jump(tag_251)\n        /* \"contract/LuckyDraw.sol\":8559:8837  if (msg.sender == winners[i]) {... */\n    tag_262:\n        /* \"contract/LuckyDraw.sol\":8711:8714  lot */\n      dup5\n        /* \"contract/LuckyDraw.sol\":8711:8729  lot.indexedTickets */\n      0x08\n      add\n        /* \"contract/LuckyDraw.sol\":8711:8741  lot.indexedTickets[winners[i]] */\n      0x00\n        /* \"contract/LuckyDraw.sol\":8730:8737  winners */\n      dup6\n        /* \"contract/LuckyDraw.sol\":8738:8739  i */\n      dup4\n        /* \"contract/LuckyDraw.sol\":8730:8740  winners[i] */\n      dup2\n      mload\n      dup2\n      lt\n      tag_270\n      jumpi\n      tag_271\n      tag_98\n      jump\t// in\n    tag_271:\n    tag_270:\n      0x20\n      mul\n      0x20\n      add\n      add\n      mload\n        /* \"contract/LuckyDraw.sol\":8711:8741  lot.indexedTickets[winners[i]] */\n      0xffffffffffffffffffffffffffffffffffffffff\n      and\n      0xffffffffffffffffffffffffffffffffffffffff\n      and\n      dup2\n      mstore\n      0x20\n      add\n      swap1\n      dup2\n      mstore\n      0x20\n      add\n      0x00\n      keccak256\n        /* \"contract/LuckyDraw.sol\":8711:8748  lot.indexedTickets[winners[i]].length */\n      dup1\n      sload\n      swap1\n      pop\n        /* \"contract/LuckyDraw.sol\":8694:8748  winnerTickets += lot.indexedTickets[winners[i]].length */\n      dup3\n      tag_272\n      swap2\n      swap1\n      tag_112\n      jump\t// in\n    tag_272:\n      swap2\n      pop\n        /* \"contract/LuckyDraw.sol\":8818:8821  100 */\n      0x64\n        /* \"contract/LuckyDraw.sol\":8795:8798  lot */\n      dup6\n        /* \"contract/LuckyDraw.sol\":8795:8811  lot.winnerRatios */\n      0x06\n      add\n        /* \"contract/LuckyDraw.sol\":8812:8813  i */\n      dup3\n        /* \"contract/LuckyDraw.sol\":8795:8814  lot.winnerRatios[i] */\n      dup2\n      sload\n      dup2\n      lt\n      tag_273\n      jumpi\n      tag_274\n      tag_98\n      jump\t// in\n    tag_274:\n    tag_273:\n      swap1\n      0x00\n      mstore\n      keccak256(0x00, 0x20)\n      add\n      sload\n        /* \"contract/LuckyDraw.sol\":8784:8787  lot */\n      dup7\n        /* \"contract/LuckyDraw.sol\":8784:8792  lot.pool */\n      0x02\n      add\n      sload\n        /* \"contract/LuckyDraw.sol\":8784:8814  lot.pool * lot.winnerRatios[i] */\n      tag_276\n      swap2\n      swap1\n      tag_220\n      jump\t// in\n    tag_276:\n        /* \"contract/LuckyDraw.sol\":8783:8821  (lot.pool * lot.winnerRatios[i]) / 100 */\n      tag_277\n      swap2\n      swap1\n      tag_268\n      jump\t// in\n    tag_277:\n        /* \"contract/LuckyDraw.sol\":8767:8821  winnerPrizes += (lot.pool * lot.winnerRatios[i]) / 100 */\n      dup4\n      tag_278\n      swap2\n      swap1\n      tag_112\n      jump\t// in\n    tag_278:\n      swap3\n      pop\n        /* \"contract/LuckyDraw.sol\":8539:8542  i++ */\n      dup1\n      dup1\n      tag_279\n      swap1\n      tag_191\n      jump\t// in\n    tag_279:\n      swap2\n      pop\n      pop\n        /* \"contract/LuckyDraw.sol\":8499:8848  for (uint256 i = 0; i < winners.length; i++) {... */\n      jump(tag_257)\n    tag_258:\n      pop\n        /* \"contract/LuckyDraw.sol\":9000:9013  winnerTickets */\n      dup1\n        /* \"contract/LuckyDraw.sol\":8979:8982  lot */\n      dup5\n        /* \"contract/LuckyDraw.sol\":8979:8990  lot.tickets */\n      0x09\n      add\n        /* \"contract/LuckyDraw.sol\":8979:8997  lot.tickets.length */\n      dup1\n      sload\n      swap1\n      pop\n        /* \"contract/LuckyDraw.sol\":8979:9013  lot.tickets.length - winnerTickets */\n      tag_280\n      swap2\n      swap1\n      tag_117\n      jump\t// in\n    tag_280:\n        /* \"contract/LuckyDraw.sol\":8924:8927  lot */\n      dup5\n        /* \"contract/LuckyDraw.sol\":8924:8942  lot.indexedTickets */\n      0x08\n      add\n        /* \"contract/LuckyDraw.sol\":8924:8954  lot.indexedTickets[msg.sender] */\n      0x00\n        /* \"contract/LuckyDraw.sol\":8943:8953  msg.sender */\n      caller\n        /* \"contract/LuckyDraw.sol\":8924:8954  lot.indexedTickets[msg.sender] */\n      0xffffffffffffffffffffffffffffffffffffffff\n      and\n      0xffffffffffffffffffffffffffffffffffffffff\n      and\n      dup2\n      mstore\n      0x20\n      add\n      swap1\n      dup2\n      mstore\n      0x20\n      add\n      0x00\n      keccak256\n        /* \"contract/LuckyDraw.sol\":8924:8961  lot.indexedTickets[msg.sender].length */\n      dup1\n      sload\n      swap1\n      pop\n        /* \"contract/LuckyDraw.sol\":8891:8903  winnerPrizes */\n      dup4\n        /* \"contract/LuckyDraw.sol\":8880:8883  lot */\n      dup7\n        /* \"contract/LuckyDraw.sol\":8880:8888  lot.pool */\n      0x02\n      add\n      sload\n        /* \"contract/LuckyDraw.sol\":8880:8903  lot.pool - winnerPrizes */\n      tag_281\n      swap2\n      swap1\n      tag_117\n      jump\t// in\n    tag_281:\n        /* \"contract/LuckyDraw.sol\":8879:8961  (lot.pool - winnerPrizes) *... */\n      tag_282\n      swap2\n      swap1\n      tag_220\n      jump\t// in\n    tag_282:\n        /* \"contract/LuckyDraw.sol\":8878:9014  ((lot.pool - winnerPrizes) *... */\n      tag_283\n      swap2\n      swap1\n      tag_268\n      jump\t// in\n    tag_283:\n        /* \"contract/LuckyDraw.sol\":8858:9014  return... */\n      swap5\n      pop\n      pop\n      pop\n      pop\n      pop\n        /* \"contract/LuckyDraw.sol\":8197:9022  function prize(uint256 lotId) public view returns (uint256) {... */\n    tag_251:\n      swap2\n      swap1\n      pop\n      jump\t// out\n        /* \"@chainlink/contracts/src/v0.8/ConfirmedOwnerWithProposal.sol\":1332:1413  function owner() public view override returns (address) {... */\n    tag_60:\n        /* \"@chainlink/contracts/src/v0.8/ConfirmedOwnerWithProposal.sol\":1379:1386  address */\n      0x00\n        /* \"@chainlink/contracts/src/v0.8/ConfirmedOwnerWithProposal.sol\":1401:1408  s_owner */\n      dup1\n      0x00\n      swap1\n      sload\n      swap1\n      0x0100\n      exp\n      swap1\n      div\n      0xffffffffffffffffffffffffffffffffffffffff\n      and\n        /* \"@chainlink/contracts/src/v0.8/ConfirmedOwnerWithProposal.sol\":1394:1408  return s_owner */\n      swap1\n      pop\n        /* \"@chainlink/contracts/src/v0.8/ConfirmedOwnerWithProposal.sol\":1332:1413  function owner() public view override returns (address) {... */\n      swap1\n      jump\t// out\n        /* \"contract/LuckyDraw.sol\":7099:8189  function winners(uint256 lotId)... */\n    tag_65:\n        /* \"contract/LuckyDraw.sol\":7179:7202  address[] memory result */\n      0x60\n        /* \"contract/LuckyDraw.sol\":7220:7239  Lottery storage lot */\n      0x00\n        /* \"contract/LuckyDraw.sol\":7242:7251  lotteries */\n      0x08\n        /* \"contract/LuckyDraw.sol\":7252:7257  lotId */\n      dup4\n        /* \"contract/LuckyDraw.sol\":7242:7258  lotteries[lotId] */\n      dup2\n      sload\n      dup2\n      lt\n      tag_286\n      jumpi\n      tag_287\n      tag_98\n      jump\t// in\n    tag_287:\n    tag_286:\n      swap1\n      0x00\n      mstore\n      keccak256(0x00, 0x20)\n      swap1\n      0x0f\n      mul\n      add\n        /* \"contract/LuckyDraw.sol\":7220:7258  Lottery storage lot = lotteries[lotId] */\n      swap1\n      pop\n        /* \"contract/LuckyDraw.sol\":7269:7304  RequestStatus storage randomRequest */\n      0x00\n        /* \"contract/LuckyDraw.sol\":7307:7317  s_requests */\n      0x09\n        /* \"contract/LuckyDraw.sol\":7307:7335  s_requests[lot.vrfRequestId] */\n      0x00\n        /* \"contract/LuckyDraw.sol\":7318:7321  lot */\n      dup4\n        /* \"contract/LuckyDraw.sol\":7318:7334  lot.vrfRequestId */\n      0x0a\n      add\n      sload\n        /* \"contract/LuckyDraw.sol\":7307:7335  s_requests[lot.vrfRequestId] */\n      dup2\n      mstore\n      0x20\n      add\n      swap1\n      dup2\n      mstore\n      0x20\n      add\n      0x00\n      keccak256\n        /* \"contract/LuckyDraw.sol\":7269:7335  RequestStatus storage randomRequest = s_requests[lot.vrfRequestId] */\n      swap1\n      pop\n        /* \"contract/LuckyDraw.sol\":7354:7367  randomRequest */\n      dup1\n        /* \"contract/LuckyDraw.sol\":7354:7377  randomRequest.fulfilled */\n      0x00\n      add\n      0x00\n      swap1\n      sload\n      swap1\n      0x0100\n      exp\n      swap1\n      div\n      0xff\n      and\n        /* \"contract/LuckyDraw.sol\":7346:7391  require(randomRequest.fulfilled, \"no result\") */\n      tag_289\n      jumpi\n      mload(0x40)\n      0x08c379a000000000000000000000000000000000000000000000000000000000\n      dup2\n      mstore\n      0x04\n      add\n      tag_290\n      swap1\n      tag_291\n      jump\t// in\n    tag_290:\n      mload(0x40)\n      dup1\n      swap2\n      sub\n      swap1\n      revert\n    tag_289:\n        /* \"contract/LuckyDraw.sol\":7425:7428  lot */\n      dup2\n        /* \"contract/LuckyDraw.sol\":7425:7436  lot.winners */\n      0x07\n      add\n      0x00\n      swap1\n      sload\n      swap1\n      0x0100\n      exp\n      swap1\n      div\n      0xffffffff\n      and\n        /* \"contract/LuckyDraw.sol\":7411:7437  new address[](lot.winners) */\n      0xffffffff\n      and\n      0xffffffffffffffff\n      dup2\n      gt\n      iszero\n      tag_292\n      jumpi\n      tag_293\n      tag_164\n      jump\t// in\n    tag_293:\n    tag_292:\n      mload(0x40)\n      swap1\n      dup1\n      dup3\n      mstore\n      dup1\n      0x20\n      mul\n      0x20\n      add\n      dup3\n      add\n      0x40\n      mstore\n      dup1\n      iszero\n      tag_294\n      jumpi\n      dup2\n      0x20\n      add\n      0x20\n      dup3\n      mul\n      dup1\n      calldatasize\n      dup4\n      calldatacopy\n      dup1\n      dup3\n      add\n      swap2\n      pop\n      pop\n      swap1\n      pop\n    tag_294:\n      pop\n        /* \"contract/LuckyDraw.sol\":7402:7437  result = new address[](lot.winners) */\n      swap3\n      pop\n        /* \"contract/LuckyDraw.sol\":7448:7466  uint256 currentLen */\n      0x00\n        /* \"contract/LuckyDraw.sol\":7469:7490  lot.counter.current() */\n      tag_295\n        /* \"contract/LuckyDraw.sol\":7469:7472  lot */\n      dup4\n        /* \"contract/LuckyDraw.sol\":7469:7480  lot.counter */\n      0x0e\n      add\n        /* \"contract/LuckyDraw.sol\":7469:7488  lot.counter.current */\n      tag_239\n        /* \"contract/LuckyDraw.sol\":7469:7490  lot.counter.current() */\n      jump\t// in\n    tag_295:\n        /* \"contract/LuckyDraw.sol\":7448:7490  uint256 currentLen = lot.counter.current() */\n      swap1\n      pop\n        /* \"contract/LuckyDraw.sol\":7506:7515  uint256 i */\n      0x00\n        /* \"contract/LuckyDraw.sol\":7501:8156  for (uint256 i = 0; i < lot.winners; i++) {... */\n    tag_296:\n        /* \"contract/LuckyDraw.sol\":7525:7528  lot */\n      dup4\n        /* \"contract/LuckyDraw.sol\":7525:7536  lot.winners */\n      0x07\n      add\n      0x00\n      swap1\n      sload\n      swap1\n      0x0100\n      exp\n      swap1\n      div\n      0xffffffff\n      and\n        /* \"contract/LuckyDraw.sol\":7521:7536  i < lot.winners */\n      0xffffffff\n      and\n        /* \"contract/LuckyDraw.sol\":7521:7522  i */\n      dup2\n        /* \"contract/LuckyDraw.sol\":7521:7536  i < lot.winners */\n      lt\n        /* \"contract/LuckyDraw.sol\":7501:8156  for (uint256 i = 0; i < lot.winners; i++) {... */\n      iszero\n      tag_297\n      jumpi\n        /* \"contract/LuckyDraw.sol\":7558:7571  uint256 index */\n      0x00\n        /* \"contract/LuckyDraw.sol\":7605:7615  currentLen */\n      dup3\n        /* \"contract/LuckyDraw.sol\":7574:7587  randomRequest */\n      dup5\n        /* \"contract/LuckyDraw.sol\":7574:7599  randomRequest.randomWords */\n      0x01\n      add\n        /* \"contract/LuckyDraw.sol\":7600:7601  i */\n      dup4\n        /* \"contract/LuckyDraw.sol\":7574:7602  randomRequest.randomWords[i] */\n      dup2\n      sload\n      dup2\n      lt\n      tag_299\n      jumpi\n      tag_300\n      tag_98\n      jump\t// in\n    tag_300:\n    tag_299:\n      swap1\n      0x00\n      mstore\n      keccak256(0x00, 0x20)\n      add\n      sload\n        /* \"contract/LuckyDraw.sol\":7574:7615  randomRequest.randomWords[i] % currentLen */\n      tag_302\n      swap2\n      swap1\n      tag_303\n      jump\t// in\n    tag_302:\n        /* \"contract/LuckyDraw.sol\":7558:7615  uint256 index = randomRequest.randomWords[i] % currentLen */\n      swap1\n      pop\n        /* \"contract/LuckyDraw.sol\":7635:7644  uint256 j */\n      0x00\n        /* \"contract/LuckyDraw.sol\":7630:8033  for (uint256 j = 0; j < i; j++) {... */\n    tag_304:\n        /* \"contract/LuckyDraw.sol\":7654:7655  i */\n      dup3\n        /* \"contract/LuckyDraw.sol\":7650:7651  j */\n      dup2\n        /* \"contract/LuckyDraw.sol\":7650:7655  j < i */\n      lt\n        /* \"contract/LuckyDraw.sol\":7630:8033  for (uint256 j = 0; j < i; j++) {... */\n      iszero\n      tag_305\n      jumpi\n        /* \"contract/LuckyDraw.sol\":7681:7713  uint256[] storage indexedTickets */\n      0x00\n        /* \"contract/LuckyDraw.sol\":7716:7719  lot */\n      dup7\n        /* \"contract/LuckyDraw.sol\":7716:7734  lot.indexedTickets */\n      0x08\n      add\n        /* \"contract/LuckyDraw.sol\":7716:7785  lot.indexedTickets[... */\n      0x00\n        /* \"contract/LuckyDraw.sol\":7757:7763  result */\n      dup10\n        /* \"contract/LuckyDraw.sol\":7764:7765  j */\n      dup5\n        /* \"contract/LuckyDraw.sol\":7757:7766  result[j] */\n      dup2\n      mload\n      dup2\n      lt\n      tag_307\n      jumpi\n      tag_308\n      tag_98\n      jump\t// in\n    tag_308:\n    tag_307:\n      0x20\n      mul\n      0x20\n      add\n      add\n      mload\n        /* \"contract/LuckyDraw.sol\":7716:7785  lot.indexedTickets[... */\n      0xffffffffffffffffffffffffffffffffffffffff\n      and\n      0xffffffffffffffffffffffffffffffffffffffff\n      and\n      dup2\n      mstore\n      0x20\n      add\n      swap1\n      dup2\n      mstore\n      0x20\n      add\n      0x00\n      keccak256\n        /* \"contract/LuckyDraw.sol\":7681:7785  uint256[] storage indexedTickets = lot.indexedTickets[... */\n      swap1\n      pop\n        /* \"contract/LuckyDraw.sol\":7831:7840  uint256 k */\n      0x00\n        /* \"contract/LuckyDraw.sol\":7804:8018  for (... */\n    tag_309:\n        /* \"contract/LuckyDraw.sol\":7871:7885  indexedTickets */\n      dup2\n        /* \"contract/LuckyDraw.sol\":7871:7892  indexedTickets.length */\n      dup1\n      sload\n      swap1\n      pop\n        /* \"contract/LuckyDraw.sol\":7867:7868  k */\n      dup2\n        /* \"contract/LuckyDraw.sol\":7867:7892  k < indexedTickets.length */\n      lt\n        /* \"contract/LuckyDraw.sol\":7867:7922  k < indexedTickets.length && indexedTickets[k] <= index */\n      dup1\n      iszero\n      tag_312\n      jumpi\n      pop\n        /* \"contract/LuckyDraw.sol\":7917:7922  index */\n      dup4\n        /* \"contract/LuckyDraw.sol\":7896:7910  indexedTickets */\n      dup3\n        /* \"contract/LuckyDraw.sol\":7911:7912  k */\n      dup3\n        /* \"contract/LuckyDraw.sol\":7896:7913  indexedTickets[k] */\n      dup2\n      sload\n      dup2\n      lt\n      tag_313\n      jumpi\n      tag_314\n      tag_98\n      jump\t// in\n    tag_314:\n    tag_313:\n      swap1\n      0x00\n      mstore\n      keccak256(0x00, 0x20)\n      add\n      sload\n        /* \"contract/LuckyDraw.sol\":7896:7922  indexedTickets[k] <= index */\n      gt\n      iszero\n        /* \"contract/LuckyDraw.sol\":7867:7922  k < indexedTickets.length && indexedTickets[k] <= index */\n    tag_312:\n        /* \"contract/LuckyDraw.sol\":7804:8018  for (... */\n      iszero\n      tag_310\n      jumpi\n        /* \"contract/LuckyDraw.sol\":7991:7998  ++index */\n      dup4\n      tag_316\n      swap1\n      tag_191\n      jump\t// in\n    tag_316:\n      swap4\n      pop\n        /* \"contract/LuckyDraw.sol\":7945:7948  k++ */\n      dup1\n      dup1\n      tag_317\n      swap1\n      tag_191\n      jump\t// in\n    tag_317:\n      swap2\n      pop\n      pop\n        /* \"contract/LuckyDraw.sol\":7804:8018  for (... */\n      jump(tag_309)\n    tag_310:\n      pop\n        /* \"contract/LuckyDraw.sol\":7662:8033  {... */\n      pop\n        /* \"contract/LuckyDraw.sol\":7657:7660  j++ */\n      dup1\n      dup1\n      tag_318\n      swap1\n      tag_191\n      jump\t// in\n    tag_318:\n      swap2\n      pop\n      pop\n        /* \"contract/LuckyDraw.sol\":7630:8033  for (uint256 j = 0; j < i; j++) {... */\n      jump(tag_304)\n    tag_305:\n      pop\n        /* \"contract/LuckyDraw.sol\":8061:8064  lot */\n      dup5\n        /* \"contract/LuckyDraw.sol\":8061:8072  lot.tickets */\n      0x09\n      add\n        /* \"contract/LuckyDraw.sol\":8073:8078  index */\n      dup2\n        /* \"contract/LuckyDraw.sol\":8061:8079  lot.tickets[index] */\n      dup2\n      sload\n      dup2\n      lt\n      tag_319\n      jumpi\n      tag_320\n      tag_98\n      jump\t// in\n    tag_320:\n    tag_319:\n      swap1\n      0x00\n      mstore\n      keccak256(0x00, 0x20)\n      add\n      0x00\n      swap1\n      sload\n      swap1\n      0x0100\n      exp\n      swap1\n      div\n      0xffffffffffffffffffffffffffffffffffffffff\n      and\n        /* \"contract/LuckyDraw.sol\":8049:8055  result */\n      dup7\n        /* \"contract/LuckyDraw.sol\":8056:8057  i */\n      dup4\n        /* \"contract/LuckyDraw.sol\":8049:8058  result[i] */\n      dup2\n      mload\n      dup2\n      lt\n      tag_322\n      jumpi\n      tag_323\n      tag_98\n      jump\t// in\n    tag_323:\n    tag_322:\n      0x20\n      mul\n      0x20\n      add\n      add\n        /* \"contract/LuckyDraw.sol\":8049:8079  result[i] = lot.tickets[index] */\n      swap1\n      0xffffffffffffffffffffffffffffffffffffffff\n      and\n      swap1\n      dup2\n      0xffffffffffffffffffffffffffffffffffffffff\n      and\n      dup2\n      mstore\n      pop\n      pop\n        /* \"contract/LuckyDraw.sol\":8108:8111  lot */\n      dup5\n        /* \"contract/LuckyDraw.sol\":8108:8126  lot.indexedTickets */\n      0x08\n      add\n        /* \"contract/LuckyDraw.sol\":8108:8137  lot.indexedTickets[result[i]] */\n      0x00\n        /* \"contract/LuckyDraw.sol\":8127:8133  result */\n      dup8\n        /* \"contract/LuckyDraw.sol\":8134:8135  i */\n      dup5\n        /* \"contract/LuckyDraw.sol\":8127:8136  result[i] */\n      dup2\n      mload\n      dup2\n      lt\n      tag_324\n      jumpi\n      tag_325\n      tag_98\n      jump\t// in\n    tag_325:\n    tag_324:\n      0x20\n      mul\n      0x20\n      add\n      add\n      mload\n        /* \"contract/LuckyDraw.sol\":8108:8137  lot.indexedTickets[result[i]] */\n      0xffffffffffffffffffffffffffffffffffffffff\n      and\n      0xffffffffffffffffffffffffffffffffffffffff\n      and\n      dup2\n      mstore\n      0x20\n      add\n      swap1\n      dup2\n      mstore\n      0x20\n      add\n      0x00\n      keccak256\n        /* \"contract/LuckyDraw.sol\":8108:8144  lot.indexedTickets[result[i]].length */\n      dup1\n      sload\n      swap1\n      pop\n        /* \"contract/LuckyDraw.sol\":8094:8144  currentLen -= lot.indexedTickets[result[i]].length */\n      dup4\n      tag_326\n      swap2\n      swap1\n      tag_117\n      jump\t// in\n    tag_326:\n      swap3\n      pop\n        /* \"contract/LuckyDraw.sol\":7543:8156  {... */\n      pop\n        /* \"contract/LuckyDraw.sol\":7538:7541  i++ */\n      dup1\n      dup1\n      tag_327\n      swap1\n      tag_191\n      jump\t// in\n    tag_327:\n      swap2\n      pop\n      pop\n        /* \"contract/LuckyDraw.sol\":7501:8156  for (uint256 i = 0; i < lot.winners; i++) {... */\n      jump(tag_296)\n    tag_297:\n      pop\n        /* \"contract/LuckyDraw.sol\":8168:8181  return result */\n      pop\n      pop\n      pop\n        /* \"contract/LuckyDraw.sol\":7099:8189  function winners(uint256 lotId)... */\n      swap2\n      swap1\n      pop\n      jump\t// out\n        /* \"contract/LuckyDraw.sol\":5438:6426  function lottery(uint256 lotId)... */\n    tag_70:\n        /* \"contract/LuckyDraw.sol\":5532:5549  address tokenAddr */\n      0x00\n        /* \"contract/LuckyDraw.sol\":5564:5576  uint256 pool */\n      dup1\n        /* \"contract/LuckyDraw.sol\":5591:5609  uint256 maxTickets */\n      0x00\n        /* \"contract/LuckyDraw.sol\":5624:5643  uint256 ticketPrice */\n      dup1\n        /* \"contract/LuckyDraw.sol\":5658:5686  uint256[] memory winnerRatio */\n      0x60\n        /* \"contract/LuckyDraw.sol\":5701:5715  uint32 winners */\n      0x00\n        /* \"contract/LuckyDraw.sol\":5730:5750  uint256 vrfRequestId */\n      dup1\n        /* \"contract/LuckyDraw.sol\":5765:5778  uint256 start */\n      0x00\n        /* \"contract/LuckyDraw.sol\":5793:5804  uint256 end */\n      dup1\n        /* \"contract/LuckyDraw.sol\":5819:5839  uint256 totalTickets */\n      0x00\n        /* \"contract/LuckyDraw.sol\":5854:5869  uint256 claimed */\n      dup1\n        /* \"contract/LuckyDraw.sol\":5884:5905  bool vrfRequestExists */\n      0x00\n        /* \"contract/LuckyDraw.sol\":5933:5952  Lottery storage lot */\n      dup1\n        /* \"contract/LuckyDraw.sol\":5955:5964  lotteries */\n      0x08\n        /* \"contract/LuckyDraw.sol\":5965:5970  lotId */\n      dup15\n        /* \"contract/LuckyDraw.sol\":5955:5971  lotteries[lotId] */\n      dup2\n      sload\n      dup2\n      lt\n      tag_329\n      jumpi\n      tag_330\n      tag_98\n      jump\t// in\n    tag_330:\n    tag_329:\n      swap1\n      0x00\n      mstore\n      keccak256(0x00, 0x20)\n      swap1\n      0x0f\n      mul\n      add\n        /* \"contract/LuckyDraw.sol\":5933:5971  Lottery storage lot = lotteries[lotId] */\n      swap1\n      pop\n        /* \"contract/LuckyDraw.sol\":5982:6017  RequestStatus storage randomRequest */\n      0x00\n        /* \"contract/LuckyDraw.sol\":6020:6030  s_requests */\n      0x09\n        /* \"contract/LuckyDraw.sol\":6020:6048  s_requests[lot.vrfRequestId] */\n      0x00\n        /* \"contract/LuckyDraw.sol\":6031:6034  lot */\n      dup4\n        /* \"contract/LuckyDraw.sol\":6031:6047  lot.vrfRequestId */\n      0x0a\n      add\n      sload\n        /* \"contract/LuckyDraw.sol\":6020:6048  s_requests[lot.vrfRequestId] */\n      dup2\n      mstore\n      0x20\n      add\n      swap1\n      dup2\n      mstore\n      0x20\n      add\n      0x00\n      keccak256\n        /* \"contract/LuckyDraw.sol\":5982:6048  RequestStatus storage randomRequest = s_requests[lot.vrfRequestId] */\n      swap1\n      pop\n        /* \"contract/LuckyDraw.sol\":6081:6084  lot */\n      dup2\n        /* \"contract/LuckyDraw.sol\":6081:6094  lot.tokenAddr */\n      0x01\n      add\n      0x00\n      swap1\n      sload\n      swap1\n      0x0100\n      exp\n      swap1\n      div\n      0xffffffffffffffffffffffffffffffffffffffff\n      and\n        /* \"contract/LuckyDraw.sol\":6109:6112  lot */\n      dup3\n        /* \"contract/LuckyDraw.sol\":6109:6117  lot.pool */\n      0x02\n      add\n      sload\n        /* \"contract/LuckyDraw.sol\":6132:6135  lot */\n      dup4\n        /* \"contract/LuckyDraw.sol\":6132:6146  lot.maxTickets */\n      0x04\n      add\n      sload\n        /* \"contract/LuckyDraw.sol\":6161:6164  lot */\n      dup5\n        /* \"contract/LuckyDraw.sol\":6161:6176  lot.ticketPrice */\n      0x05\n      add\n      sload\n        /* \"contract/LuckyDraw.sol\":6191:6194  lot */\n      dup6\n        /* \"contract/LuckyDraw.sol\":6191:6207  lot.winnerRatios */\n      0x06\n      add\n        /* \"contract/LuckyDraw.sol\":6222:6225  lot */\n      dup7\n        /* \"contract/LuckyDraw.sol\":6222:6233  lot.winners */\n      0x07\n      add\n      0x00\n      swap1\n      sload\n      swap1\n      0x0100\n      exp\n      swap1\n      div\n      0xffffffff\n      and\n        /* \"contract/LuckyDraw.sol\":6248:6251  lot */\n      dup8\n        /* \"contract/LuckyDraw.sol\":6248:6264  lot.vrfRequestId */\n      0x0a\n      add\n      sload\n        /* \"contract/LuckyDraw.sol\":6279:6282  lot */\n      dup9\n        /* \"contract/LuckyDraw.sol\":6279:6288  lot.start */\n      0x0b\n      add\n      sload\n        /* \"contract/LuckyDraw.sol\":6303:6306  lot */\n      dup10\n        /* \"contract/LuckyDraw.sol\":6303:6310  lot.end */\n      0x0c\n      add\n      sload\n        /* \"contract/LuckyDraw.sol\":6325:6346  lot.counter.current() */\n      tag_332\n        /* \"contract/LuckyDraw.sol\":6325:6328  lot */\n      dup12\n        /* \"contract/LuckyDraw.sol\":6325:6336  lot.counter */\n      0x0e\n      add\n        /* \"contract/LuckyDraw.sol\":6325:6344  lot.counter.current */\n      tag_239\n        /* \"contract/LuckyDraw.sol\":6325:6346  lot.counter.current() */\n      jump\t// in\n    tag_332:\n        /* \"contract/LuckyDraw.sol\":6361:6364  lot */\n      dup12\n        /* \"contract/LuckyDraw.sol\":6361:6372  lot.claimed */\n      0x03\n      add\n      sload\n        /* \"contract/LuckyDraw.sol\":6387:6400  randomRequest */\n      dup12\n        /* \"contract/LuckyDraw.sol\":6387:6407  randomRequest.exists */\n      0x00\n      add\n      0x01\n      swap1\n      sload\n      swap1\n      0x0100\n      exp\n      swap1\n      div\n      0xff\n      and\n        /* \"contract/LuckyDraw.sol\":6059:6418  return (... */\n      dup8\n      dup1\n      sload\n      dup1\n      0x20\n      mul\n      0x20\n      add\n      mload(0x40)\n      swap1\n      dup2\n      add\n      0x40\n      mstore\n      dup1\n      swap3\n      swap2\n      swap1\n      dup2\n      dup2\n      mstore\n      0x20\n      add\n      dup3\n      dup1\n      sload\n      dup1\n      iszero\n      tag_333\n      jumpi\n      0x20\n      mul\n      dup3\n      add\n      swap2\n      swap1\n      0x00\n      mstore\n      keccak256(0x00, 0x20)\n      swap1\n    tag_334:\n      dup2\n      sload\n      dup2\n      mstore\n      0x20\n      add\n      swap1\n      0x01\n      add\n      swap1\n      dup1\n      dup4\n      gt\n      tag_334\n      jumpi\n    tag_333:\n      pop\n      pop\n      pop\n      pop\n      pop\n      swap8\n      pop\n      swap14\n      pop\n      swap14\n      pop\n      swap14\n      pop\n      swap14\n      pop\n      swap14\n      pop\n      swap14\n      pop\n      swap14\n      pop\n      swap14\n      pop\n      swap14\n      pop\n      swap14\n      pop\n      swap14\n      pop\n      swap14\n      pop\n      pop\n      pop\n        /* \"contract/LuckyDraw.sol\":5438:6426  function lottery(uint256 lotId)... */\n      swap2\n      swap4\n      swap6\n      swap8\n      swap10\n      swap12\n      pop\n      swap2\n      swap4\n      swap6\n      swap8\n      swap10\n      swap12\n      jump\t// out\n        /* \"contract/LuckyDraw.sol\":3701:4048  function fund(uint256 lotId, uint256 amount) public {... */\n    tag_75:\n        /* \"contract/LuckyDraw.sol\":3764:3783  Lottery storage lot */\n      0x00\n        /* \"contract/LuckyDraw.sol\":3786:3795  lotteries */\n      0x08\n        /* \"contract/LuckyDraw.sol\":3796:3801  lotId */\n      dup4\n        /* \"contract/LuckyDraw.sol\":3786:3802  lotteries[lotId] */\n      dup2\n      sload\n      dup2\n      lt\n      tag_336\n      jumpi\n      tag_337\n      tag_98\n      jump\t// in\n    tag_337:\n    tag_336:\n      swap1\n      0x00\n      mstore\n      keccak256(0x00, 0x20)\n      swap1\n      0x0f\n      mul\n      add\n        /* \"contract/LuckyDraw.sol\":3764:3802  Lottery storage lot = lotteries[lotId] */\n      swap1\n      pop\n        /* \"contract/LuckyDraw.sol\":3831:3846  block.timestamp */\n      timestamp\n        /* \"contract/LuckyDraw.sol\":3821:3824  lot */\n      dup2\n        /* \"contract/LuckyDraw.sol\":3821:3828  lot.end */\n      0x0c\n      add\n      sload\n        /* \"contract/LuckyDraw.sol\":3821:3846  lot.end > block.timestamp */\n      gt\n        /* \"contract/LuckyDraw.sol\":3813:3863  require(lot.end > block.timestamp, \"invalid time\") */\n      tag_339\n      jumpi\n      mload(0x40)\n      0x08c379a000000000000000000000000000000000000000000000000000000000\n      dup2\n      mstore\n      0x04\n      add\n      tag_340\n      swap1\n      tag_173\n      jump\t// in\n    tag_340:\n      mload(0x40)\n      dup1\n      swap2\n      sub\n      swap1\n      revert\n    tag_339:\n        /* \"contract/LuckyDraw.sol\":3874:3886  IERC20 token */\n      0x00\n        /* \"contract/LuckyDraw.sol\":3896:3899  lot */\n      dup2\n        /* \"contract/LuckyDraw.sol\":3896:3909  lot.tokenAddr */\n      0x01\n      add\n      0x00\n      swap1\n      sload\n      swap1\n      0x0100\n      exp\n      swap1\n      div\n      0xffffffffffffffffffffffffffffffffffffffff\n      and\n        /* \"contract/LuckyDraw.sol\":3874:3910  IERC20 token = IERC20(lot.tokenAddr) */\n      swap1\n      pop\n        /* \"contract/LuckyDraw.sol\":3921:3926  token */\n      dup1\n        /* \"contract/LuckyDraw.sol\":3921:3939  token.transferFrom */\n      0xffffffffffffffffffffffffffffffffffffffff\n      and\n      0x23b872dd\n        /* \"contract/LuckyDraw.sol\":3940:3950  msg.sender */\n      caller\n        /* \"contract/LuckyDraw.sol\":3960:3964  this */\n      address\n        /* \"contract/LuckyDraw.sol\":3967:3973  amount */\n      dup7\n        /* \"contract/LuckyDraw.sol\":3921:3974  token.transferFrom(msg.sender, address(this), amount) */\n      mload(0x40)\n      dup5\n      0xffffffff\n      and\n      0xe0\n      shl\n      dup2\n      mstore\n      0x04\n      add\n      tag_341\n      swap4\n      swap3\n      swap2\n      swap1\n      tag_222\n      jump\t// in\n    tag_341:\n      0x20\n      mload(0x40)\n      dup1\n      dup4\n      sub\n      dup2\n      0x00\n      dup8\n      gas\n      call\n      iszero\n      dup1\n      iszero\n      tag_343\n      jumpi\n      returndatasize\n      0x00\n      dup1\n      returndatacopy\n      revert(0x00, returndatasize)\n    tag_343:\n      pop\n      pop\n      pop\n      pop\n      mload(0x40)\n      returndatasize\n      not(0x1f)\n      0x1f\n      dup3\n      add\n      and\n      dup3\n      add\n      dup1\n      0x40\n      mstore\n      pop\n      dup2\n      add\n      swap1\n      tag_344\n      swap2\n      swap1\n      tag_123\n      jump\t// in\n    tag_344:\n      pop\n        /* \"contract/LuckyDraw.sol\":3997:4003  amount */\n      dup3\n        /* \"contract/LuckyDraw.sol\":3985:3988  lot */\n      dup3\n        /* \"contract/LuckyDraw.sol\":3985:3993  lot.pool */\n      0x02\n      add\n      0x00\n        /* \"contract/LuckyDraw.sol\":3985:4003  lot.pool += amount */\n      dup3\n      dup3\n      sload\n      tag_345\n      swap2\n      swap1\n      tag_112\n      jump\t// in\n    tag_345:\n      swap3\n      pop\n      pop\n      dup2\n      swap1\n      sstore\n      pop\n        /* \"contract/LuckyDraw.sol\":4026:4031  lotId */\n      dup4\n        /* \"contract/LuckyDraw.sol\":4021:4040  Fund(lotId, amount) */\n      0xe10598fa0628b6878df33dddd270fc68abc6bc5b8b864e07ac2d9313cf31043e\n        /* \"contract/LuckyDraw.sol\":4033:4039  amount */\n      dup5\n        /* \"contract/LuckyDraw.sol\":4021:4040  Fund(lotId, amount) */\n      mload(0x40)\n      tag_346\n      swap2\n      swap1\n      tag_58\n      jump\t// in\n    tag_346:\n      mload(0x40)\n      dup1\n      swap2\n      sub\n      swap1\n      log2\n        /* \"contract/LuckyDraw.sol\":3753:4048  {... */\n      pop\n      pop\n        /* \"contract/LuckyDraw.sol\":3701:4048  function fund(uint256 lotId, uint256 amount) public {... */\n      pop\n      pop\n      jump\t// out\n        /* \"contract/LuckyDraw.sol\":10441:10788  function getRequestStatus(uint256 _requestId)... */\n    tag_78:\n        /* \"contract/LuckyDraw.sol\":10537:10551  bool fulfilled */\n      0x00\n        /* \"contract/LuckyDraw.sol\":10553:10581  uint256[] memory randomWords */\n      0x60\n        /* \"contract/LuckyDraw.sol\":10607:10617  s_requests */\n      0x09\n        /* \"contract/LuckyDraw.sol\":10607:10629  s_requests[_requestId] */\n      0x00\n        /* \"contract/LuckyDraw.sol\":10618:10628  _requestId */\n      dup5\n        /* \"contract/LuckyDraw.sol\":10607:10629  s_requests[_requestId] */\n      dup2\n      mstore\n      0x20\n      add\n      swap1\n      dup2\n      mstore\n      0x20\n      add\n      0x00\n      keccak256\n        /* \"contract/LuckyDraw.sol\":10607:10636  s_requests[_requestId].exists */\n      0x00\n      add\n      0x01\n      swap1\n      sload\n      swap1\n      0x0100\n      exp\n      swap1\n      div\n      0xff\n      and\n        /* \"contract/LuckyDraw.sol\":10599:10658  require(s_requests[_requestId].exists, \"request not found\") */\n      tag_348\n      jumpi\n      mload(0x40)\n      0x08c379a000000000000000000000000000000000000000000000000000000000\n      dup2\n      mstore\n      0x04\n      add\n      tag_349\n      swap1\n      tag_350\n      jump\t// in\n    tag_349:\n      mload(0x40)\n      dup1\n      swap2\n      sub\n      swap1\n      revert\n    tag_348:\n        /* \"contract/LuckyDraw.sol\":10669:10697  RequestStatus memory request */\n      0x00\n        /* \"contract/LuckyDraw.sol\":10700:10710  s_requests */\n      0x09\n        /* \"contract/LuckyDraw.sol\":10700:10722  s_requests[_requestId] */\n      0x00\n        /* \"contract/LuckyDraw.sol\":10711:10721  _requestId */\n      dup6\n        /* \"contract/LuckyDraw.sol\":10700:10722  s_requests[_requestId] */\n      dup2\n      mstore\n      0x20\n      add\n      swap1\n      dup2\n      mstore\n      0x20\n      add\n      0x00\n      keccak256\n        /* \"contract/LuckyDraw.sol\":10669:10722  RequestStatus memory request = s_requests[_requestId] */\n      mload(0x40)\n      dup1\n      0x80\n      add\n      0x40\n      mstore\n      swap1\n      dup2\n      0x00\n      dup3\n      add\n      0x00\n      swap1\n      sload\n      swap1\n      0x0100\n      exp\n      swap1\n      div\n      0xff\n      and\n      iszero\n      iszero\n      iszero\n      iszero\n      dup2\n      mstore\n      0x20\n      add\n      0x00\n      dup3\n      add\n      0x01\n      swap1\n      sload\n      swap1\n      0x0100\n      exp\n      swap1\n      div\n      0xff\n      and\n      iszero\n      iszero\n      iszero\n      iszero\n      dup2\n      mstore\n      0x20\n      add\n      0x01\n      dup3\n      add\n      dup1\n      sload\n      dup1\n      0x20\n      mul\n      0x20\n      add\n      mload(0x40)\n      swap1\n      dup2\n      add\n      0x40\n      mstore\n      dup1\n      swap3\n      swap2\n      swap1\n      dup2\n      dup2\n      mstore\n      0x20\n      add\n      dup3\n      dup1\n      sload\n      dup1\n      iszero\n      tag_351\n      jumpi\n      0x20\n      mul\n      dup3\n      add\n      swap2\n      swap1\n      0x00\n      mstore\n      keccak256(0x00, 0x20)\n      swap1\n    tag_352:\n      dup2\n      sload\n      dup2\n      mstore\n      0x20\n      add\n      swap1\n      0x01\n      add\n      swap1\n      dup1\n      dup4\n      gt\n      tag_352\n      jumpi\n    tag_351:\n      pop\n      pop\n      pop\n      pop\n      pop\n      dup2\n      mstore\n      0x20\n      add\n      0x02\n      dup3\n      add\n      sload\n      dup2\n      mstore\n      pop\n      pop\n      swap1\n      pop\n        /* \"contract/LuckyDraw.sol\":10741:10748  request */\n      dup1\n        /* \"contract/LuckyDraw.sol\":10741:10758  request.fulfilled */\n      0x00\n      add\n      mload\n        /* \"contract/LuckyDraw.sol\":10760:10767  request */\n      dup2\n        /* \"contract/LuckyDraw.sol\":10760:10779  request.randomWords */\n      0x40\n      add\n      mload\n        /* \"contract/LuckyDraw.sol\":10733:10780  return (request.fulfilled, request.randomWords) */\n      swap3\n      pop\n      swap3\n      pop\n      pop\n        /* \"contract/LuckyDraw.sol\":10441:10788  function getRequestStatus(uint256 _requestId)... */\n      swap2\n      pop\n      swap2\n      jump\t// out\n        /* \"@chainlink/contracts/src/v0.8/ConfirmedOwnerWithProposal.sol\":826:924  function transferOwnership(address to) public override onlyOwner {... */\n    tag_84:\n        /* \"@chainlink/contracts/src/v0.8/ConfirmedOwnerWithProposal.sol\":1956:1976  _validateOwnership() */\n      tag_354\n        /* \"@chainlink/contracts/src/v0.8/ConfirmedOwnerWithProposal.sol\":1956:1974  _validateOwnership */\n      tag_87\n        /* \"@chainlink/contracts/src/v0.8/ConfirmedOwnerWithProposal.sol\":1956:1976  _validateOwnership() */\n      jump\t// in\n    tag_354:\n        /* \"@chainlink/contracts/src/v0.8/ConfirmedOwnerWithProposal.sol\":897:919  _transferOwnership(to) */\n      tag_356\n        /* \"@chainlink/contracts/src/v0.8/ConfirmedOwnerWithProposal.sol\":916:918  to */\n      dup2\n        /* \"@chainlink/contracts/src/v0.8/ConfirmedOwnerWithProposal.sol\":897:915  _transferOwnership */\n      tag_357\n        /* \"@chainlink/contracts/src/v0.8/ConfirmedOwnerWithProposal.sol\":897:919  _transferOwnership(to) */\n      jump\t// in\n    tag_356:\n        /* \"@chainlink/contracts/src/v0.8/ConfirmedOwnerWithProposal.sol\":826:924  function transferOwnership(address to) public override onlyOwner {... */\n      pop\n      jump\t// out\n        /* \"@chainlink/contracts/src/v0.8/ConfirmedOwnerWithProposal.sol\":1730:1841  function _validateOwnership() internal view {... */\n    tag_87:\n        /* \"@chainlink/contracts/src/v0.8/ConfirmedOwnerWithProposal.sol\":1802:1809  s_owner */\n      0x00\n      dup1\n      sload\n      swap1\n      0x0100\n      exp\n      swap1\n      div\n      0xffffffffffffffffffffffffffffffffffffffff\n      and\n        /* \"@chainlink/contracts/src/v0.8/ConfirmedOwnerWithProposal.sol\":1788:1809  msg.sender == s_owner */\n      0xffffffffffffffffffffffffffffffffffffffff\n      and\n        /* \"@chainlink/contracts/src/v0.8/ConfirmedOwnerWithProposal.sol\":1788:1798  msg.sender */\n      caller\n        /* \"@chainlink/contracts/src/v0.8/ConfirmedOwnerWithProposal.sol\":1788:1809  msg.sender == s_owner */\n      0xffffffffffffffffffffffffffffffffffffffff\n      and\n      eq\n        /* \"@chainlink/contracts/src/v0.8/ConfirmedOwnerWithProposal.sol\":1780:1836  require(msg.sender == s_owner, \"Only callable by owner\") */\n      tag_359\n      jumpi\n      mload(0x40)\n      0x08c379a000000000000000000000000000000000000000000000000000000000\n      dup2\n      mstore\n      0x04\n      add\n      tag_360\n      swap1\n      tag_361\n      jump\t// in\n    tag_360:\n      mload(0x40)\n      dup1\n      swap2\n      sub\n      swap1\n      revert\n    tag_359:\n        /* \"@chainlink/contracts/src/v0.8/ConfirmedOwnerWithProposal.sol\":1730:1841  function _validateOwnership() internal view {... */\n      jump\t// out\n        /* \"contract/LuckyDraw.sol\":9981:10433  function fulfillRandomWords(... */\n    tag_94:\n        /* \"contract/LuckyDraw.sol\":10122:10132  s_requests */\n      0x09\n        /* \"contract/LuckyDraw.sol\":10122:10144  s_requests[_requestId] */\n      0x00\n        /* \"contract/LuckyDraw.sol\":10133:10143  _requestId */\n      dup4\n        /* \"contract/LuckyDraw.sol\":10122:10144  s_requests[_requestId] */\n      dup2\n      mstore\n      0x20\n      add\n      swap1\n      dup2\n      mstore\n      0x20\n      add\n      0x00\n      keccak256\n        /* \"contract/LuckyDraw.sol\":10122:10151  s_requests[_requestId].exists */\n      0x00\n      add\n      0x01\n      swap1\n      sload\n      swap1\n      0x0100\n      exp\n      swap1\n      div\n      0xff\n      and\n        /* \"contract/LuckyDraw.sol\":10114:10173  require(s_requests[_requestId].exists, \"request not found\") */\n      tag_363\n      jumpi\n      mload(0x40)\n      0x08c379a000000000000000000000000000000000000000000000000000000000\n      dup2\n      mstore\n      0x04\n      add\n      tag_364\n      swap1\n      tag_350\n      jump\t// in\n    tag_364:\n      mload(0x40)\n      dup1\n      swap2\n      sub\n      swap1\n      revert\n    tag_363:\n        /* \"contract/LuckyDraw.sol\":10193:10203  s_requests */\n      0x09\n        /* \"contract/LuckyDraw.sol\":10193:10215  s_requests[_requestId] */\n      0x00\n        /* \"contract/LuckyDraw.sol\":10204:10214  _requestId */\n      dup4\n        /* \"contract/LuckyDraw.sol\":10193:10215  s_requests[_requestId] */\n      dup2\n      mstore\n      0x20\n      add\n      swap1\n      dup2\n      mstore\n      0x20\n      add\n      0x00\n      keccak256\n        /* \"contract/LuckyDraw.sol\":10193:10225  s_requests[_requestId].fulfilled */\n      0x00\n      add\n      0x00\n      swap1\n      sload\n      swap1\n      0x0100\n      exp\n      swap1\n      div\n      0xff\n      and\n        /* \"contract/LuckyDraw.sol\":10192:10225  !s_requests[_requestId].fulfilled */\n      iszero\n        /* \"contract/LuckyDraw.sol\":10184:10239  require(!s_requests[_requestId].fulfilled, \"fulfilled\") */\n      tag_365\n      jumpi\n      mload(0x40)\n      0x08c379a000000000000000000000000000000000000000000000000000000000\n      dup2\n      mstore\n      0x04\n      add\n      tag_366\n      swap1\n      tag_367\n      jump\t// in\n    tag_366:\n      mload(0x40)\n      dup1\n      swap2\n      sub\n      swap1\n      revert\n    tag_365:\n        /* \"contract/LuckyDraw.sol\":10285:10289  true */\n      0x01\n        /* \"contract/LuckyDraw.sol\":10250:10260  s_requests */\n      0x09\n        /* \"contract/LuckyDraw.sol\":10250:10272  s_requests[_requestId] */\n      0x00\n        /* \"contract/LuckyDraw.sol\":10261:10271  _requestId */\n      dup5\n        /* \"contract/LuckyDraw.sol\":10250:10272  s_requests[_requestId] */\n      dup2\n      mstore\n      0x20\n      add\n      swap1\n      dup2\n      mstore\n      0x20\n      add\n      0x00\n      keccak256\n        /* \"contract/LuckyDraw.sol\":10250:10282  s_requests[_requestId].fulfilled */\n      0x00\n      add\n      0x00\n        /* \"contract/LuckyDraw.sol\":10250:10289  s_requests[_requestId].fulfilled = true */\n      0x0100\n      exp\n      dup2\n      sload\n      dup2\n      0xff\n      mul\n      not\n      and\n      swap1\n      dup4\n      iszero\n      iszero\n      mul\n      or\n      swap1\n      sstore\n      pop\n        /* \"contract/LuckyDraw.sol\":10337:10349  _randomWords */\n      dup1\n        /* \"contract/LuckyDraw.sol\":10300:10310  s_requests */\n      0x09\n        /* \"contract/LuckyDraw.sol\":10300:10322  s_requests[_requestId] */\n      0x00\n        /* \"contract/LuckyDraw.sol\":10311:10321  _requestId */\n      dup5\n        /* \"contract/LuckyDraw.sol\":10300:10322  s_requests[_requestId] */\n      dup2\n      mstore\n      0x20\n      add\n      swap1\n      dup2\n      mstore\n      0x20\n      add\n      0x00\n      keccak256\n        /* \"contract/LuckyDraw.sol\":10300:10334  s_requests[_requestId].randomWords */\n      0x01\n      add\n        /* \"contract/LuckyDraw.sol\":10300:10349  s_requests[_requestId].randomWords = _randomWords */\n      swap1\n      dup1\n      mload\n      swap1\n      0x20\n      add\n      swap1\n      tag_368\n      swap3\n      swap2\n      swap1\n      tag_167\n      jump\t// in\n    tag_368:\n      pop\n        /* \"contract/LuckyDraw.sol\":10365:10425  RequestFulfilled(s_requests[_requestId].lotId, _randomWords) */\n      0xfe2e2d779dba245964d4e3ef9b994be63856fd568bf7d3ca9e224755cb1bd54d\n        /* \"contract/LuckyDraw.sol\":10382:10392  s_requests */\n      0x09\n        /* \"contract/LuckyDraw.sol\":10382:10404  s_requests[_requestId] */\n      0x00\n        /* \"contract/LuckyDraw.sol\":10393:10403  _requestId */\n      dup5\n        /* \"contract/LuckyDraw.sol\":10382:10404  s_requests[_requestId] */\n      dup2\n      mstore\n      0x20\n      add\n      swap1\n      dup2\n      mstore\n      0x20\n      add\n      0x00\n      keccak256\n        /* \"contract/LuckyDraw.sol\":10382:10410  s_requests[_requestId].lotId */\n      0x02\n      add\n      sload\n        /* \"contract/LuckyDraw.sol\":10412:10424  _randomWords */\n      dup3\n        /* \"contract/LuckyDraw.sol\":10365:10425  RequestFulfilled(s_requests[_requestId].lotId, _randomWords) */\n      mload(0x40)\n      tag_369\n      swap3\n      swap2\n      swap1\n      tag_370\n      jump\t// in\n    tag_369:\n      mload(0x40)\n      dup1\n      swap2\n      sub\n      swap1\n      log1\n        /* \"contract/LuckyDraw.sol\":9981:10433  function fulfillRandomWords(... */\n      pop\n      pop\n      jump\t// out\n        /* \"@openzeppelin/contracts/security/ReentrancyGuard.sol\":2336:2623  function _nonReentrantBefore() private {... */\n    tag_106:\n        /* \"@openzeppelin/contracts/security/ReentrancyGuard.sol\":1759:1760  2 */\n      0x02\n        /* \"@openzeppelin/contracts/security/ReentrancyGuard.sol\":2468:2475  _status */\n      dup1\n      sload\n        /* \"@openzeppelin/contracts/security/ReentrancyGuard.sol\":2468:2487  _status != _ENTERED */\n      sub\n        /* \"@openzeppelin/contracts/security/ReentrancyGuard.sol\":2460:2523  require(_status != _ENTERED, \"ReentrancyGuard: reentrant call\") */\n      tag_372\n      jumpi\n      mload(0x40)\n      0x08c379a000000000000000000000000000000000000000000000000000000000\n      dup2\n      mstore\n      0x04\n      add\n      tag_373\n      swap1\n      tag_374\n      jump\t// in\n    tag_373:\n      mload(0x40)\n      dup1\n      swap2\n      sub\n      swap1\n      revert\n    tag_372:\n        /* \"@openzeppelin/contracts/security/ReentrancyGuard.sol\":1759:1760  2 */\n      0x02\n        /* \"@openzeppelin/contracts/security/ReentrancyGuard.sol\":2598:2605  _status */\n      dup1\n        /* \"@openzeppelin/contracts/security/ReentrancyGuard.sol\":2598:2616  _status = _ENTERED */\n      dup2\n      swap1\n      sstore\n      pop\n        /* \"@openzeppelin/contracts/security/ReentrancyGuard.sol\":2336:2623  function _nonReentrantBefore() private {... */\n      jump\t// out\n        /* \"@openzeppelin/contracts/security/ReentrancyGuard.sol\":2629:2838  function _nonReentrantAfter() private {... */\n    tag_125:\n        /* \"@openzeppelin/contracts/security/ReentrancyGuard.sol\":1716:1717  1 */\n      0x01\n        /* \"@openzeppelin/contracts/security/ReentrancyGuard.sol\":2809:2816  _status */\n      0x02\n        /* \"@openzeppelin/contracts/security/ReentrancyGuard.sol\":2809:2831  _status = _NOT_ENTERED */\n      dup2\n      swap1\n      sstore\n      pop\n        /* \"@openzeppelin/contracts/security/ReentrancyGuard.sol\":2629:2838  function _nonReentrantAfter() private {... */\n      jump\t// out\n        /* \"@openzeppelin/contracts/utils/Counters.sol\":827:939  function current(Counter storage counter) internal view returns (uint256) {... */\n    tag_239:\n        /* \"@openzeppelin/contracts/utils/Counters.sol\":892:899  uint256 */\n      0x00\n        /* \"@openzeppelin/contracts/utils/Counters.sol\":918:925  counter */\n      dup2\n        /* \"@openzeppelin/contracts/utils/Counters.sol\":918:932  counter._value */\n      0x00\n      add\n      sload\n        /* \"@openzeppelin/contracts/utils/Counters.sol\":911:932  return counter._value */\n      swap1\n      pop\n        /* \"@openzeppelin/contracts/utils/Counters.sol\":827:939  function current(Counter storage counter) internal view returns (uint256) {... */\n      swap2\n      swap1\n      pop\n      jump\t// out\n        /* \"@openzeppelin/contracts/utils/Counters.sol\":945:1068  function increment(Counter storage counter) internal {... */\n    tag_245:\n        /* \"@openzeppelin/contracts/utils/Counters.sol\":1050:1051  1 */\n      0x01\n        /* \"@openzeppelin/contracts/utils/Counters.sol\":1032:1039  counter */\n      dup2\n        /* \"@openzeppelin/contracts/utils/Counters.sol\":1032:1046  counter._value */\n      0x00\n      add\n      0x00\n        /* \"@openzeppelin/contracts/utils/Counters.sol\":1032:1051  counter._value += 1 */\n      dup3\n      dup3\n      sload\n      add\n      swap3\n      pop\n      pop\n      dup2\n      swap1\n      sstore\n      pop\n        /* \"@openzeppelin/contracts/utils/Counters.sol\":945:1068  function increment(Counter storage counter) internal {... */\n      pop\n      jump\t// out\n        /* \"@chainlink/contracts/src/v0.8/ConfirmedOwnerWithProposal.sol\":1497:1685  function _transferOwnership(address to) private {... */\n    tag_357:\n        /* \"@chainlink/contracts/src/v0.8/ConfirmedOwnerWithProposal.sol\":1565:1575  msg.sender */\n      caller\n        /* \"@chainlink/contracts/src/v0.8/ConfirmedOwnerWithProposal.sol\":1559:1575  to != msg.sender */\n      0xffffffffffffffffffffffffffffffffffffffff\n      and\n        /* \"@chainlink/contracts/src/v0.8/ConfirmedOwnerWithProposal.sol\":1559:1561  to */\n      dup2\n        /* \"@chainlink/contracts/src/v0.8/ConfirmedOwnerWithProposal.sol\":1559:1575  to != msg.sender */\n      0xffffffffffffffffffffffffffffffffffffffff\n      and\n      sub\n        /* \"@chainlink/contracts/src/v0.8/ConfirmedOwnerWithProposal.sol\":1551:1603  require(to != msg.sender, \"Cannot transfer to self\") */\n      tag_379\n      jumpi\n      mload(0x40)\n      0x08c379a000000000000000000000000000000000000000000000000000000000\n      dup2\n      mstore\n      0x04\n      add\n      tag_380\n      swap1\n      tag_381\n      jump\t// in\n    tag_380:\n      mload(0x40)\n      dup1\n      swap2\n      sub\n      swap1\n      revert\n    tag_379:\n        /* \"@chainlink/contracts/src/v0.8/ConfirmedOwnerWithProposal.sol\":1627:1629  to */\n      dup1\n        /* \"@chainlink/contracts/src/v0.8/ConfirmedOwnerWithProposal.sol\":1610:1624  s_pendingOwner */\n      0x01\n      0x00\n        /* \"@chainlink/contracts/src/v0.8/ConfirmedOwnerWithProposal.sol\":1610:1629  s_pendingOwner = to */\n      0x0100\n      exp\n      dup2\n      sload\n      dup2\n      0xffffffffffffffffffffffffffffffffffffffff\n      mul\n      not\n      and\n      swap1\n      dup4\n      0xffffffffffffffffffffffffffffffffffffffff\n      and\n      mul\n      or\n      swap1\n      sstore\n      pop\n        /* \"@chainlink/contracts/src/v0.8/ConfirmedOwnerWithProposal.sol\":1677:1679  to */\n      dup1\n        /* \"@chainlink/contracts/src/v0.8/ConfirmedOwnerWithProposal.sol\":1641:1680  OwnershipTransferRequested(s_owner, to) */\n      0xffffffffffffffffffffffffffffffffffffffff\n      and\n        /* \"@chainlink/contracts/src/v0.8/ConfirmedOwnerWithProposal.sol\":1668:1675  s_owner */\n      0x00\n      dup1\n      sload\n      swap1\n      0x0100\n      exp\n      swap1\n      div\n      0xffffffffffffffffffffffffffffffffffffffff\n      and\n        /* \"@chainlink/contracts/src/v0.8/ConfirmedOwnerWithProposal.sol\":1641:1680  OwnershipTransferRequested(s_owner, to) */\n      0xffffffffffffffffffffffffffffffffffffffff\n      and\n      0xed8889f560326eb138920d842192f0eb3dd22b4f139c87a2c57538e05bae1278\n      mload(0x40)\n      mload(0x40)\n      dup1\n      swap2\n      sub\n      swap1\n      log3\n        /* \"@chainlink/contracts/src/v0.8/ConfirmedOwnerWithProposal.sol\":1497:1685  function _transferOwnership(address to) private {... */\n      pop\n      jump\t// out\n    tag_167:\n      dup3\n      dup1\n      sload\n      dup3\n      dup3\n      sstore\n      swap1\n      0x00\n      mstore\n      keccak256(0x00, 0x20)\n      swap1\n      dup2\n      add\n      swap3\n      dup3\n      iszero\n      tag_382\n      jumpi\n      swap2\n      0x20\n      mul\n      dup3\n      add\n    tag_383:\n      dup3\n      dup2\n      gt\n      iszero\n      tag_384\n      jumpi\n      dup3\n      mload\n      dup3\n      sstore\n      swap2\n      0x20\n      add\n      swap2\n      swap1\n      0x01\n      add\n      swap1\n      jump(tag_383)\n    tag_384:\n    tag_382:\n      pop\n      swap1\n      pop\n      tag_385\n      swap2\n      swap1\n      tag_386\n      jump\t// in\n    tag_385:\n      pop\n      swap1\n      jump\t// out\n    tag_386:\n    tag_387:\n      dup1\n      dup3\n      gt\n      iszero\n      tag_388\n      jumpi\n      0x00\n      dup2\n      0x00\n      swap1\n      sstore\n      pop\n      0x01\n      add\n      jump(tag_387)\n    tag_388:\n      pop\n      swap1\n      jump\t// out\n        /* \"#utility.yul\":7:82   */\n    tag_389:\n        /* \"#utility.yul\":40:46   */\n      0x00\n        /* \"#utility.yul\":73:75   */\n      0x40\n        /* \"#utility.yul\":67:76   */\n      mload\n        /* \"#utility.yul\":57:76   */\n      swap1\n      pop\n        /* \"#utility.yul\":7:82   */\n      swap1\n      jump\t// out\n        /* \"#utility.yul\":88:205   */\n    tag_390:\n        /* \"#utility.yul\":197:198   */\n      0x00\n        /* \"#utility.yul\":194:195   */\n      dup1\n        /* \"#utility.yul\":187:199   */\n      revert\n        /* \"#utility.yul\":211:328   */\n    tag_391:\n        /* \"#utility.yul\":320:321   */\n      0x00\n        /* \"#utility.yul\":317:318   */\n      dup1\n        /* \"#utility.yul\":310:322   */\n      revert\n        /* \"#utility.yul\":334:411   */\n    tag_392:\n        /* \"#utility.yul\":371:378   */\n      0x00\n        /* \"#utility.yul\":400:405   */\n      dup2\n        /* \"#utility.yul\":389:405   */\n      swap1\n      pop\n        /* \"#utility.yul\":334:411   */\n      swap2\n      swap1\n      pop\n      jump\t// out\n        /* \"#utility.yul\":417:539   */\n    tag_393:\n        /* \"#utility.yul\":490:514   */\n      tag_479\n        /* \"#utility.yul\":508:513   */\n      dup2\n        /* \"#utility.yul\":490:514   */\n      tag_392\n      jump\t// in\n    tag_479:\n        /* \"#utility.yul\":483:488   */\n      dup2\n        /* \"#utility.yul\":480:515   */\n      eq\n        /* \"#utility.yul\":470:533   */\n      tag_480\n      jumpi\n        /* \"#utility.yul\":529:530   */\n      0x00\n        /* \"#utility.yul\":526:527   */\n      dup1\n        /* \"#utility.yul\":519:531   */\n      revert\n        /* \"#utility.yul\":470:533   */\n    tag_480:\n        /* \"#utility.yul\":417:539   */\n      pop\n      jump\t// out\n        /* \"#utility.yul\":545:684   */\n    tag_394:\n        /* \"#utility.yul\":591:596   */\n      0x00\n        /* \"#utility.yul\":629:635   */\n      dup2\n        /* \"#utility.yul\":616:636   */\n      calldataload\n        /* \"#utility.yul\":607:636   */\n      swap1\n      pop\n        /* \"#utility.yul\":645:678   */\n      tag_482\n        /* \"#utility.yul\":672:677   */\n      dup2\n        /* \"#utility.yul\":645:678   */\n      tag_393\n      jump\t// in\n    tag_482:\n        /* \"#utility.yul\":545:684   */\n      swap3\n      swap2\n      pop\n      pop\n      jump\t// out\n        /* \"#utility.yul\":690:1019   */\n    tag_24:\n        /* \"#utility.yul\":749:755   */\n      0x00\n        /* \"#utility.yul\":798:800   */\n      0x20\n        /* \"#utility.yul\":786:795   */\n      dup3\n        /* \"#utility.yul\":777:784   */\n      dup5\n        /* \"#utility.yul\":773:796   */\n      sub\n        /* \"#utility.yul\":769:801   */\n      slt\n        /* \"#utility.yul\":766:885   */\n      iszero\n      tag_484\n      jumpi\n        /* \"#utility.yul\":804:883   */\n      tag_485\n      tag_390\n      jump\t// in\n    tag_485:\n        /* \"#utility.yul\":766:885   */\n    tag_484:\n        /* \"#utility.yul\":924:925   */\n      0x00\n        /* \"#utility.yul\":949:1002   */\n      tag_486\n        /* \"#utility.yul\":994:1001   */\n      dup5\n        /* \"#utility.yul\":985:991   */\n      dup3\n        /* \"#utility.yul\":974:983   */\n      dup6\n        /* \"#utility.yul\":970:992   */\n      add\n        /* \"#utility.yul\":949:1002   */\n      tag_394\n      jump\t// in\n    tag_486:\n        /* \"#utility.yul\":939:1002   */\n      swap2\n      pop\n        /* \"#utility.yul\":895:1012   */\n      pop\n        /* \"#utility.yul\":690:1019   */\n      swap3\n      swap2\n      pop\n      pop\n      jump\t// out\n        /* \"#utility.yul\":1025:1142   */\n    tag_395:\n        /* \"#utility.yul\":1134:1135   */\n      0x00\n        /* \"#utility.yul\":1131:1132   */\n      dup1\n        /* \"#utility.yul\":1124:1136   */\n      revert\n        /* \"#utility.yul\":1148:1250   */\n    tag_396:\n        /* \"#utility.yul\":1189:1195   */\n      0x00\n        /* \"#utility.yul\":1240:1242   */\n      0x1f\n        /* \"#utility.yul\":1236:1243   */\n      not\n        /* \"#utility.yul\":1231:1233   */\n      0x1f\n        /* \"#utility.yul\":1224:1229   */\n      dup4\n        /* \"#utility.yul\":1220:1234   */\n      add\n        /* \"#utility.yul\":1216:1244   */\n      and\n        /* \"#utility.yul\":1206:1244   */\n      swap1\n      pop\n        /* \"#utility.yul\":1148:1250   */\n      swap2\n      swap1\n      pop\n      jump\t// out\n        /* \"#utility.yul\":1256:1436   */\n    tag_164:\n        /* \"#utility.yul\":1304:1381   */\n      0x4e487b7100000000000000000000000000000000000000000000000000000000\n        /* \"#utility.yul\":1301:1302   */\n      0x00\n        /* \"#utility.yul\":1294:1382   */\n      mstore\n        /* \"#utility.yul\":1401:1405   */\n      0x41\n        /* \"#utility.yul\":1398:1399   */\n      0x04\n        /* \"#utility.yul\":1391:1406   */\n      mstore\n        /* \"#utility.yul\":1425:1429   */\n      0x24\n        /* \"#utility.yul\":1422:1423   */\n      0x00\n        /* \"#utility.yul\":1415:1430   */\n      revert\n        /* \"#utility.yul\":1442:1723   */\n    tag_397:\n        /* \"#utility.yul\":1525:1552   */\n      tag_491\n        /* \"#utility.yul\":1547:1551   */\n      dup3\n        /* \"#utility.yul\":1525:1552   */\n      tag_396\n      jump\t// in\n    tag_491:\n        /* \"#utility.yul\":1517:1523   */\n      dup2\n        /* \"#utility.yul\":1513:1553   */\n      add\n        /* \"#utility.yul\":1655:1661   */\n      dup2\n        /* \"#utility.yul\":1643:1653   */\n      dup2\n        /* \"#utility.yul\":1640:1662   */\n      lt\n        /* \"#utility.yul\":1619:1637   */\n      0xffffffffffffffff\n        /* \"#utility.yul\":1607:1617   */\n      dup3\n        /* \"#utility.yul\":1604:1638   */\n      gt\n        /* \"#utility.yul\":1601:1663   */\n      or\n        /* \"#utility.yul\":1598:1686   */\n      iszero\n      tag_492\n      jumpi\n        /* \"#utility.yul\":1666:1684   */\n      tag_493\n      tag_164\n      jump\t// in\n    tag_493:\n        /* \"#utility.yul\":1598:1686   */\n    tag_492:\n        /* \"#utility.yul\":1706:1716   */\n      dup1\n        /* \"#utility.yul\":1702:1704   */\n      0x40\n        /* \"#utility.yul\":1695:1717   */\n      mstore\n        /* \"#utility.yul\":1485:1723   */\n      pop\n        /* \"#utility.yul\":1442:1723   */\n      pop\n      pop\n      jump\t// out\n        /* \"#utility.yul\":1729:1858   */\n    tag_398:\n        /* \"#utility.yul\":1763:1769   */\n      0x00\n        /* \"#utility.yul\":1790:1810   */\n      tag_495\n      tag_389\n      jump\t// in\n    tag_495:\n        /* \"#utility.yul\":1780:1810   */\n      swap1\n      pop\n        /* \"#utility.yul\":1819:1852   */\n      tag_496\n        /* \"#utility.yul\":1847:1851   */\n      dup3\n        /* \"#utility.yul\":1839:1845   */\n      dup3\n        /* \"#utility.yul\":1819:1852   */\n      tag_397\n      jump\t// in\n    tag_496:\n        /* \"#utility.yul\":1729:1858   */\n      swap2\n      swap1\n      pop\n      jump\t// out\n        /* \"#utility.yul\":1864:2175   */\n    tag_399:\n        /* \"#utility.yul\":1941:1945   */\n      0x00\n        /* \"#utility.yul\":2031:2049   */\n      0xffffffffffffffff\n        /* \"#utility.yul\":2023:2029   */\n      dup3\n        /* \"#utility.yul\":2020:2050   */\n      gt\n        /* \"#utility.yul\":2017:2073   */\n      iszero\n      tag_498\n      jumpi\n        /* \"#utility.yul\":2053:2071   */\n      tag_499\n      tag_164\n      jump\t// in\n    tag_499:\n        /* \"#utility.yul\":2017:2073   */\n    tag_498:\n        /* \"#utility.yul\":2103:2107   */\n      0x20\n        /* \"#utility.yul\":2095:2101   */\n      dup3\n        /* \"#utility.yul\":2091:2108   */\n      mul\n        /* \"#utility.yul\":2083:2108   */\n      swap1\n      pop\n        /* \"#utility.yul\":2163:2167   */\n      0x20\n        /* \"#utility.yul\":2157:2161   */\n      dup2\n        /* \"#utility.yul\":2153:2168   */\n      add\n        /* \"#utility.yul\":2145:2168   */\n      swap1\n      pop\n        /* \"#utility.yul\":1864:2175   */\n      swap2\n      swap1\n      pop\n      jump\t// out\n        /* \"#utility.yul\":2181:2298   */\n    tag_400:\n        /* \"#utility.yul\":2290:2291   */\n      0x00\n        /* \"#utility.yul\":2287:2288   */\n      dup1\n        /* \"#utility.yul\":2280:2292   */\n      revert\n        /* \"#utility.yul\":2321:3031   */\n    tag_401:\n        /* \"#utility.yul\":2417:2422   */\n      0x00\n        /* \"#utility.yul\":2442:2523   */\n      tag_502\n        /* \"#utility.yul\":2458:2522   */\n      tag_503\n        /* \"#utility.yul\":2515:2521   */\n      dup5\n        /* \"#utility.yul\":2458:2522   */\n      tag_399\n      jump\t// in\n    tag_503:\n        /* \"#utility.yul\":2442:2523   */\n      tag_398\n      jump\t// in\n    tag_502:\n        /* \"#utility.yul\":2433:2523   */\n      swap1\n      pop\n        /* \"#utility.yul\":2543:2548   */\n      dup1\n        /* \"#utility.yul\":2572:2578   */\n      dup4\n        /* \"#utility.yul\":2565:2570   */\n      dup3\n        /* \"#utility.yul\":2558:2579   */\n      mstore\n        /* \"#utility.yul\":2606:2610   */\n      0x20\n        /* \"#utility.yul\":2599:2604   */\n      dup3\n        /* \"#utility.yul\":2595:2611   */\n      add\n        /* \"#utility.yul\":2588:2611   */\n      swap1\n      pop\n        /* \"#utility.yul\":2659:2663   */\n      0x20\n        /* \"#utility.yul\":2651:2657   */\n      dup5\n        /* \"#utility.yul\":2647:2664   */\n      mul\n        /* \"#utility.yul\":2639:2645   */\n      dup4\n        /* \"#utility.yul\":2635:2665   */\n      add\n        /* \"#utility.yul\":2688:2691   */\n      dup6\n        /* \"#utility.yul\":2680:2686   */\n      dup2\n        /* \"#utility.yul\":2677:2692   */\n      gt\n        /* \"#utility.yul\":2674:2796   */\n      iszero\n      tag_504\n      jumpi\n        /* \"#utility.yul\":2707:2786   */\n      tag_505\n      tag_400\n      jump\t// in\n    tag_505:\n        /* \"#utility.yul\":2674:2796   */\n    tag_504:\n        /* \"#utility.yul\":2822:2828   */\n      dup4\n        /* \"#utility.yul\":2805:3025   */\n    tag_506:\n        /* \"#utility.yul\":2839:2845   */\n      dup2\n        /* \"#utility.yul\":2834:2837   */\n      dup2\n        /* \"#utility.yul\":2831:2846   */\n      lt\n        /* \"#utility.yul\":2805:3025   */\n      iszero\n      tag_508\n      jumpi\n        /* \"#utility.yul\":2914:2917   */\n      dup1\n        /* \"#utility.yul\":2943:2980   */\n      tag_509\n        /* \"#utility.yul\":2976:2979   */\n      dup9\n        /* \"#utility.yul\":2964:2974   */\n      dup3\n        /* \"#utility.yul\":2943:2980   */\n      tag_394\n      jump\t// in\n    tag_509:\n        /* \"#utility.yul\":2938:2941   */\n      dup5\n        /* \"#utility.yul\":2931:2981   */\n      mstore\n        /* \"#utility.yul\":3010:3014   */\n      0x20\n        /* \"#utility.yul\":3005:3008   */\n      dup5\n        /* \"#utility.yul\":3001:3015   */\n      add\n        /* \"#utility.yul\":2994:3015   */\n      swap4\n      pop\n        /* \"#utility.yul\":2881:3025   */\n      pop\n        /* \"#utility.yul\":2865:2869   */\n      0x20\n        /* \"#utility.yul\":2860:2863   */\n      dup2\n        /* \"#utility.yul\":2856:2870   */\n      add\n        /* \"#utility.yul\":2849:2870   */\n      swap1\n      pop\n        /* \"#utility.yul\":2805:3025   */\n      jump(tag_506)\n    tag_508:\n        /* \"#utility.yul\":2809:2830   */\n      pop\n        /* \"#utility.yul\":2423:3031   */\n      pop\n      pop\n        /* \"#utility.yul\":2321:3031   */\n      swap4\n      swap3\n      pop\n      pop\n      pop\n      jump\t// out\n        /* \"#utility.yul\":3054:3424   */\n    tag_402:\n        /* \"#utility.yul\":3125:3130   */\n      0x00\n        /* \"#utility.yul\":3174:3177   */\n      dup3\n        /* \"#utility.yul\":3167:3171   */\n      0x1f\n        /* \"#utility.yul\":3159:3165   */\n      dup4\n        /* \"#utility.yul\":3155:3172   */\n      add\n        /* \"#utility.yul\":3151:3178   */\n      slt\n        /* \"#utility.yul\":3141:3263   */\n      tag_511\n      jumpi\n        /* \"#utility.yul\":3182:3261   */\n      tag_512\n      tag_395\n      jump\t// in\n    tag_512:\n        /* \"#utility.yul\":3141:3263   */\n    tag_511:\n        /* \"#utility.yul\":3299:3305   */\n      dup2\n        /* \"#utility.yul\":3286:3306   */\n      calldataload\n        /* \"#utility.yul\":3324:3418   */\n      tag_513\n        /* \"#utility.yul\":3414:3417   */\n      dup5\n        /* \"#utility.yul\":3406:3412   */\n      dup3\n        /* \"#utility.yul\":3399:3403   */\n      0x20\n        /* \"#utility.yul\":3391:3397   */\n      dup7\n        /* \"#utility.yul\":3387:3404   */\n      add\n        /* \"#utility.yul\":3324:3418   */\n      tag_401\n      jump\t// in\n    tag_513:\n        /* \"#utility.yul\":3315:3418   */\n      swap2\n      pop\n        /* \"#utility.yul\":3131:3424   */\n      pop\n        /* \"#utility.yul\":3054:3424   */\n      swap3\n      swap2\n      pop\n      pop\n      jump\t// out\n        /* \"#utility.yul\":3430:4114   */\n    tag_28:\n        /* \"#utility.yul\":3523:3529   */\n      0x00\n        /* \"#utility.yul\":3531:3537   */\n      dup1\n        /* \"#utility.yul\":3580:3582   */\n      0x40\n        /* \"#utility.yul\":3568:3577   */\n      dup4\n        /* \"#utility.yul\":3559:3566   */\n      dup6\n        /* \"#utility.yul\":3555:3578   */\n      sub\n        /* \"#utility.yul\":3551:3583   */\n      slt\n        /* \"#utility.yul\":3548:3667   */\n      iszero\n      tag_515\n      jumpi\n        /* \"#utility.yul\":3586:3665   */\n      tag_516\n      tag_390\n      jump\t// in\n    tag_516:\n        /* \"#utility.yul\":3548:3667   */\n    tag_515:\n        /* \"#utility.yul\":3706:3707   */\n      0x00\n        /* \"#utility.yul\":3731:3784   */\n      tag_517\n        /* \"#utility.yul\":3776:3783   */\n      dup6\n        /* \"#utility.yul\":3767:3773   */\n      dup3\n        /* \"#utility.yul\":3756:3765   */\n      dup7\n        /* \"#utility.yul\":3752:3774   */\n      add\n        /* \"#utility.yul\":3731:3784   */\n      tag_394\n      jump\t// in\n    tag_517:\n        /* \"#utility.yul\":3721:3784   */\n      swap3\n      pop\n        /* \"#utility.yul\":3677:3794   */\n      pop\n        /* \"#utility.yul\":3861:3863   */\n      0x20\n        /* \"#utility.yul\":3850:3859   */\n      dup4\n        /* \"#utility.yul\":3846:3864   */\n      add\n        /* \"#utility.yul\":3833:3865   */\n      calldataload\n        /* \"#utility.yul\":3892:3910   */\n      0xffffffffffffffff\n        /* \"#utility.yul\":3884:3890   */\n      dup2\n        /* \"#utility.yul\":3881:3911   */\n      gt\n        /* \"#utility.yul\":3878:3995   */\n      iszero\n      tag_518\n      jumpi\n        /* \"#utility.yul\":3914:3993   */\n      tag_519\n      tag_391\n      jump\t// in\n    tag_519:\n        /* \"#utility.yul\":3878:3995   */\n    tag_518:\n        /* \"#utility.yul\":4019:4097   */\n      tag_520\n        /* \"#utility.yul\":4089:4096   */\n      dup6\n        /* \"#utility.yul\":4080:4086   */\n      dup3\n        /* \"#utility.yul\":4069:4078   */\n      dup7\n        /* \"#utility.yul\":4065:4087   */\n      add\n        /* \"#utility.yul\":4019:4097   */\n      tag_402\n      jump\t// in\n    tag_520:\n        /* \"#utility.yul\":4009:4097   */\n      swap2\n      pop\n        /* \"#utility.yul\":3804:4107   */\n      pop\n        /* \"#utility.yul\":3430:4114   */\n      swap3\n      pop\n      swap3\n      swap1\n      pop\n      jump\t// out\n        /* \"#utility.yul\":4120:4234   */\n    tag_403:\n        /* \"#utility.yul\":4187:4193   */\n      0x00\n        /* \"#utility.yul\":4221:4226   */\n      dup2\n        /* \"#utility.yul\":4215:4227   */\n      mload\n        /* \"#utility.yul\":4205:4227   */\n      swap1\n      pop\n        /* \"#utility.yul\":4120:4234   */\n      swap2\n      swap1\n      pop\n      jump\t// out\n        /* \"#utility.yul\":4240:4424   */\n    tag_404:\n        /* \"#utility.yul\":4339:4350   */\n      0x00\n        /* \"#utility.yul\":4373:4379   */\n      dup3\n        /* \"#utility.yul\":4368:4371   */\n      dup3\n        /* \"#utility.yul\":4361:4380   */\n      mstore\n        /* \"#utility.yul\":4413:4417   */\n      0x20\n        /* \"#utility.yul\":4408:4411   */\n      dup3\n        /* \"#utility.yul\":4404:4418   */\n      add\n        /* \"#utility.yul\":4389:4418   */\n      swap1\n      pop\n        /* \"#utility.yul\":4240:4424   */\n      swap3\n      swap2\n      pop\n      pop\n      jump\t// out\n        /* \"#utility.yul\":4430:4562   */\n    tag_405:\n        /* \"#utility.yul\":4497:4501   */\n      0x00\n        /* \"#utility.yul\":4520:4523   */\n      dup2\n        /* \"#utility.yul\":4512:4523   */\n      swap1\n      pop\n        /* \"#utility.yul\":4550:4554   */\n      0x20\n        /* \"#utility.yul\":4545:4548   */\n      dup3\n        /* \"#utility.yul\":4541:4555   */\n      add\n        /* \"#utility.yul\":4533:4555   */\n      swap1\n      pop\n        /* \"#utility.yul\":4430:4562   */\n      swap2\n      swap1\n      pop\n      jump\t// out\n        /* \"#utility.yul\":4568:4676   */\n    tag_406:\n        /* \"#utility.yul\":4645:4669   */\n      tag_525\n        /* \"#utility.yul\":4663:4668   */\n      dup2\n        /* \"#utility.yul\":4645:4669   */\n      tag_392\n      jump\t// in\n    tag_525:\n        /* \"#utility.yul\":4640:4643   */\n      dup3\n        /* \"#utility.yul\":4633:4670   */\n      mstore\n        /* \"#utility.yul\":4568:4676   */\n      pop\n      pop\n      jump\t// out\n        /* \"#utility.yul\":4682:4861   */\n    tag_407:\n        /* \"#utility.yul\":4751:4761   */\n      0x00\n        /* \"#utility.yul\":4772:4818   */\n      tag_527\n        /* \"#utility.yul\":4814:4817   */\n      dup4\n        /* \"#utility.yul\":4806:4812   */\n      dup4\n        /* \"#utility.yul\":4772:4818   */\n      tag_406\n      jump\t// in\n    tag_527:\n        /* \"#utility.yul\":4850:4854   */\n      0x20\n        /* \"#utility.yul\":4845:4848   */\n      dup4\n        /* \"#utility.yul\":4841:4855   */\n      add\n        /* \"#utility.yul\":4827:4855   */\n      swap1\n      pop\n        /* \"#utility.yul\":4682:4861   */\n      swap3\n      swap2\n      pop\n      pop\n      jump\t// out\n        /* \"#utility.yul\":4867:4980   */\n    tag_408:\n        /* \"#utility.yul\":4937:4941   */\n      0x00\n        /* \"#utility.yul\":4969:4973   */\n      0x20\n        /* \"#utility.yul\":4964:4967   */\n      dup3\n        /* \"#utility.yul\":4960:4974   */\n      add\n        /* \"#utility.yul\":4952:4974   */\n      swap1\n      pop\n        /* \"#utility.yul\":4867:4980   */\n      swap2\n      swap1\n      pop\n      jump\t// out\n        /* \"#utility.yul\":5016:5748   */\n    tag_409:\n        /* \"#utility.yul\":5135:5138   */\n      0x00\n        /* \"#utility.yul\":5164:5218   */\n      tag_530\n        /* \"#utility.yul\":5212:5217   */\n      dup3\n        /* \"#utility.yul\":5164:5218   */\n      tag_403\n      jump\t// in\n    tag_530:\n        /* \"#utility.yul\":5234:5320   */\n      tag_531\n        /* \"#utility.yul\":5313:5319   */\n      dup2\n        /* \"#utility.yul\":5308:5311   */\n      dup6\n        /* \"#utility.yul\":5234:5320   */\n      tag_404\n      jump\t// in\n    tag_531:\n        /* \"#utility.yul\":5227:5320   */\n      swap4\n      pop\n        /* \"#utility.yul\":5344:5400   */\n      tag_532\n        /* \"#utility.yul\":5394:5399   */\n      dup4\n        /* \"#utility.yul\":5344:5400   */\n      tag_405\n      jump\t// in\n    tag_532:\n        /* \"#utility.yul\":5423:5430   */\n      dup1\n        /* \"#utility.yul\":5454:5455   */\n      0x00\n        /* \"#utility.yul\":5439:5723   */\n    tag_533:\n        /* \"#utility.yul\":5464:5470   */\n      dup4\n        /* \"#utility.yul\":5461:5462   */\n      dup2\n        /* \"#utility.yul\":5458:5471   */\n      lt\n        /* \"#utility.yul\":5439:5723   */\n      iszero\n      tag_535\n      jumpi\n        /* \"#utility.yul\":5540:5546   */\n      dup2\n        /* \"#utility.yul\":5534:5547   */\n      mload\n        /* \"#utility.yul\":5567:5630   */\n      tag_536\n        /* \"#utility.yul\":5626:5629   */\n      dup9\n        /* \"#utility.yul\":5611:5624   */\n      dup3\n        /* \"#utility.yul\":5567:5630   */\n      tag_407\n      jump\t// in\n    tag_536:\n        /* \"#utility.yul\":5560:5630   */\n      swap8\n      pop\n        /* \"#utility.yul\":5653:5713   */\n      tag_537\n        /* \"#utility.yul\":5706:5712   */\n      dup4\n        /* \"#utility.yul\":5653:5713   */\n      tag_408\n      jump\t// in\n    tag_537:\n        /* \"#utility.yul\":5643:5713   */\n      swap3\n      pop\n        /* \"#utility.yul\":5499:5723   */\n      pop\n        /* \"#utility.yul\":5486:5487   */\n      0x01\n        /* \"#utility.yul\":5483:5484   */\n      dup2\n        /* \"#utility.yul\":5479:5488   */\n      add\n        /* \"#utility.yul\":5474:5488   */\n      swap1\n      pop\n        /* \"#utility.yul\":5439:5723   */\n      jump(tag_533)\n    tag_535:\n        /* \"#utility.yul\":5443:5457   */\n      pop\n        /* \"#utility.yul\":5739:5742   */\n      dup6\n        /* \"#utility.yul\":5732:5742   */\n      swap4\n      pop\n        /* \"#utility.yul\":5140:5748   */\n      pop\n      pop\n      pop\n        /* \"#utility.yul\":5016:5748   */\n      swap3\n      swap2\n      pop\n      pop\n      jump\t// out\n        /* \"#utility.yul\":5754:6127   */\n    tag_34:\n        /* \"#utility.yul\":5897:5901   */\n      0x00\n        /* \"#utility.yul\":5935:5937   */\n      0x20\n        /* \"#utility.yul\":5924:5933   */\n      dup3\n        /* \"#utility.yul\":5920:5938   */\n      add\n        /* \"#utility.yul\":5912:5938   */\n      swap1\n      pop\n        /* \"#utility.yul\":5984:5993   */\n      dup2\n        /* \"#utility.yul\":5978:5982   */\n      dup2\n        /* \"#utility.yul\":5974:5994   */\n      sub\n        /* \"#utility.yul\":5970:5971   */\n      0x00\n        /* \"#utility.yul\":5959:5968   */\n      dup4\n        /* \"#utility.yul\":5955:5972   */\n      add\n        /* \"#utility.yul\":5948:5995   */\n      mstore\n        /* \"#utility.yul\":6012:6120   */\n      tag_539\n        /* \"#utility.yul\":6115:6119   */\n      dup2\n        /* \"#utility.yul\":6106:6112   */\n      dup5\n        /* \"#utility.yul\":6012:6120   */\n      tag_409\n      jump\t// in\n    tag_539:\n        /* \"#utility.yul\":6004:6120   */\n      swap1\n      pop\n        /* \"#utility.yul\":5754:6127   */\n      swap3\n      swap2\n      pop\n      pop\n      jump\t// out\n        /* \"#utility.yul\":6133:6259   */\n    tag_410:\n        /* \"#utility.yul\":6170:6177   */\n      0x00\n        /* \"#utility.yul\":6210:6252   */\n      0xffffffffffffffffffffffffffffffffffffffff\n        /* \"#utility.yul\":6203:6208   */\n      dup3\n        /* \"#utility.yul\":6199:6253   */\n      and\n        /* \"#utility.yul\":6188:6253   */\n      swap1\n      pop\n        /* \"#utility.yul\":6133:6259   */\n      swap2\n      swap1\n      pop\n      jump\t// out\n        /* \"#utility.yul\":6265:6361   */\n    tag_411:\n        /* \"#utility.yul\":6302:6309   */\n      0x00\n        /* \"#utility.yul\":6331:6355   */\n      tag_542\n        /* \"#utility.yul\":6349:6354   */\n      dup3\n        /* \"#utility.yul\":6331:6355   */\n      tag_410\n      jump\t// in\n    tag_542:\n        /* \"#utility.yul\":6320:6355   */\n      swap1\n      pop\n        /* \"#utility.yul\":6265:6361   */\n      swap2\n      swap1\n      pop\n      jump\t// out\n        /* \"#utility.yul\":6367:6489   */\n    tag_412:\n        /* \"#utility.yul\":6440:6464   */\n      tag_544\n        /* \"#utility.yul\":6458:6463   */\n      dup2\n        /* \"#utility.yul\":6440:6464   */\n      tag_411\n      jump\t// in\n    tag_544:\n        /* \"#utility.yul\":6433:6438   */\n      dup2\n        /* \"#utility.yul\":6430:6465   */\n      eq\n        /* \"#utility.yul\":6420:6483   */\n      tag_545\n      jumpi\n        /* \"#utility.yul\":6479:6480   */\n      0x00\n        /* \"#utility.yul\":6476:6477   */\n      dup1\n        /* \"#utility.yul\":6469:6481   */\n      revert\n        /* \"#utility.yul\":6420:6483   */\n    tag_545:\n        /* \"#utility.yul\":6367:6489   */\n      pop\n      jump\t// out\n        /* \"#utility.yul\":6495:6634   */\n    tag_413:\n        /* \"#utility.yul\":6541:6546   */\n      0x00\n        /* \"#utility.yul\":6579:6585   */\n      dup2\n        /* \"#utility.yul\":6566:6586   */\n      calldataload\n        /* \"#utility.yul\":6557:6586   */\n      swap1\n      pop\n        /* \"#utility.yul\":6595:6628   */\n      tag_547\n        /* \"#utility.yul\":6622:6627   */\n      dup2\n        /* \"#utility.yul\":6595:6628   */\n      tag_412\n      jump\t// in\n    tag_547:\n        /* \"#utility.yul\":6495:6634   */\n      swap3\n      swap2\n      pop\n      pop\n      jump\t// out\n        /* \"#utility.yul\":6640:6733   */\n    tag_414:\n        /* \"#utility.yul\":6676:6683   */\n      0x00\n        /* \"#utility.yul\":6716:6726   */\n      0xffffffff\n        /* \"#utility.yul\":6709:6714   */\n      dup3\n        /* \"#utility.yul\":6705:6727   */\n      and\n        /* \"#utility.yul\":6694:6727   */\n      swap1\n      pop\n        /* \"#utility.yul\":6640:6733   */\n      swap2\n      swap1\n      pop\n      jump\t// out\n        /* \"#utility.yul\":6739:6859   */\n    tag_415:\n        /* \"#utility.yul\":6811:6834   */\n      tag_550\n        /* \"#utility.yul\":6828:6833   */\n      dup2\n        /* \"#utility.yul\":6811:6834   */\n      tag_414\n      jump\t// in\n    tag_550:\n        /* \"#utility.yul\":6804:6809   */\n      dup2\n        /* \"#utility.yul\":6801:6835   */\n      eq\n        /* \"#utility.yul\":6791:6853   */\n      tag_551\n      jumpi\n        /* \"#utility.yul\":6849:6850   */\n      0x00\n        /* \"#utility.yul\":6846:6847   */\n      dup1\n        /* \"#utility.yul\":6839:6851   */\n      revert\n        /* \"#utility.yul\":6791:6853   */\n    tag_551:\n        /* \"#utility.yul\":6739:6859   */\n      pop\n      jump\t// out\n        /* \"#utility.yul\":6865:7002   */\n    tag_416:\n        /* \"#utility.yul\":6910:6915   */\n      0x00\n        /* \"#utility.yul\":6948:6954   */\n      dup2\n        /* \"#utility.yul\":6935:6955   */\n      calldataload\n        /* \"#utility.yul\":6926:6955   */\n      swap1\n      pop\n        /* \"#utility.yul\":6964:6996   */\n      tag_553\n        /* \"#utility.yul\":6990:6995   */\n      dup2\n        /* \"#utility.yul\":6964:6996   */\n      tag_415\n      jump\t// in\n    tag_553:\n        /* \"#utility.yul\":6865:7002   */\n      swap3\n      swap2\n      pop\n      pop\n      jump\t// out\n        /* \"#utility.yul\":7008:8419   */\n    tag_46:\n        /* \"#utility.yul\":7145:7151   */\n      0x00\n        /* \"#utility.yul\":7153:7159   */\n      dup1\n        /* \"#utility.yul\":7161:7167   */\n      0x00\n        /* \"#utility.yul\":7169:7175   */\n      dup1\n        /* \"#utility.yul\":7177:7183   */\n      0x00\n        /* \"#utility.yul\":7185:7191   */\n      dup1\n        /* \"#utility.yul\":7193:7199   */\n      0x00\n        /* \"#utility.yul\":7242:7245   */\n      0xe0\n        /* \"#utility.yul\":7230:7239   */\n      dup9\n        /* \"#utility.yul\":7221:7228   */\n      dup11\n        /* \"#utility.yul\":7217:7240   */\n      sub\n        /* \"#utility.yul\":7213:7246   */\n      slt\n        /* \"#utility.yul\":7210:7330   */\n      iszero\n      tag_555\n      jumpi\n        /* \"#utility.yul\":7249:7328   */\n      tag_556\n      tag_390\n      jump\t// in\n    tag_556:\n        /* \"#utility.yul\":7210:7330   */\n    tag_555:\n        /* \"#utility.yul\":7369:7370   */\n      0x00\n        /* \"#utility.yul\":7394:7447   */\n      tag_557\n        /* \"#utility.yul\":7439:7446   */\n      dup11\n        /* \"#utility.yul\":7430:7436   */\n      dup3\n        /* \"#utility.yul\":7419:7428   */\n      dup12\n        /* \"#utility.yul\":7415:7437   */\n      add\n        /* \"#utility.yul\":7394:7447   */\n      tag_413\n      jump\t// in\n    tag_557:\n        /* \"#utility.yul\":7384:7447   */\n      swap8\n      pop\n        /* \"#utility.yul\":7340:7457   */\n      pop\n        /* \"#utility.yul\":7496:7498   */\n      0x20\n        /* \"#utility.yul\":7522:7575   */\n      tag_558\n        /* \"#utility.yul\":7567:7574   */\n      dup11\n        /* \"#utility.yul\":7558:7564   */\n      dup3\n        /* \"#utility.yul\":7547:7556   */\n      dup12\n        /* \"#utility.yul\":7543:7565   */\n      add\n        /* \"#utility.yul\":7522:7575   */\n      tag_394\n      jump\t// in\n    tag_558:\n        /* \"#utility.yul\":7512:7575   */\n      swap7\n      pop\n        /* \"#utility.yul\":7467:7585   */\n      pop\n        /* \"#utility.yul\":7624:7626   */\n      0x40\n        /* \"#utility.yul\":7650:7703   */\n      tag_559\n        /* \"#utility.yul\":7695:7702   */\n      dup11\n        /* \"#utility.yul\":7686:7692   */\n      dup3\n        /* \"#utility.yul\":7675:7684   */\n      dup12\n        /* \"#utility.yul\":7671:7693   */\n      add\n        /* \"#utility.yul\":7650:7703   */\n      tag_394\n      jump\t// in\n    tag_559:\n        /* \"#utility.yul\":7640:7703   */\n      swap6\n      pop\n        /* \"#utility.yul\":7595:7713   */\n      pop\n        /* \"#utility.yul\":7780:7782   */\n      0x60\n        /* \"#utility.yul\":7769:7778   */\n      dup9\n        /* \"#utility.yul\":7765:7783   */\n      add\n        /* \"#utility.yul\":7752:7784   */\n      calldataload\n        /* \"#utility.yul\":7811:7829   */\n      0xffffffffffffffff\n        /* \"#utility.yul\":7803:7809   */\n      dup2\n        /* \"#utility.yul\":7800:7830   */\n      gt\n        /* \"#utility.yul\":7797:7914   */\n      iszero\n      tag_560\n      jumpi\n        /* \"#utility.yul\":7833:7912   */\n      tag_561\n      tag_391\n      jump\t// in\n    tag_561:\n        /* \"#utility.yul\":7797:7914   */\n    tag_560:\n        /* \"#utility.yul\":7938:8016   */\n      tag_562\n        /* \"#utility.yul\":8008:8015   */\n      dup11\n        /* \"#utility.yul\":7999:8005   */\n      dup3\n        /* \"#utility.yul\":7988:7997   */\n      dup12\n        /* \"#utility.yul\":7984:8006   */\n      add\n        /* \"#utility.yul\":7938:8016   */\n      tag_402\n      jump\t// in\n    tag_562:\n        /* \"#utility.yul\":7928:8016   */\n      swap5\n      pop\n        /* \"#utility.yul\":7723:8026   */\n      pop\n        /* \"#utility.yul\":8065:8068   */\n      0x80\n        /* \"#utility.yul\":8092:8144   */\n      tag_563\n        /* \"#utility.yul\":8136:8143   */\n      dup11\n        /* \"#utility.yul\":8127:8133   */\n      dup3\n        /* \"#utility.yul\":8116:8125   */\n      dup12\n        /* \"#utility.yul\":8112:8134   */\n      add\n        /* \"#utility.yul\":8092:8144   */\n      tag_416\n      jump\t// in\n    tag_563:\n        /* \"#utility.yul\":8082:8144   */\n      swap4\n      pop\n        /* \"#utility.yul\":8036:8154   */\n      pop\n        /* \"#utility.yul\":8193:8196   */\n      0xa0\n        /* \"#utility.yul\":8220:8273   */\n      tag_564\n        /* \"#utility.yul\":8265:8272   */\n      dup11\n        /* \"#utility.yul\":8256:8262   */\n      dup3\n        /* \"#utility.yul\":8245:8254   */\n      dup12\n        /* \"#utility.yul\":8241:8263   */\n      add\n        /* \"#utility.yul\":8220:8273   */\n      tag_394\n      jump\t// in\n    tag_564:\n        /* \"#utility.yul\":8210:8273   */\n      swap3\n      pop\n        /* \"#utility.yul\":8164:8283   */\n      pop\n        /* \"#utility.yul\":8322:8325   */\n      0xc0\n        /* \"#utility.yul\":8349:8402   */\n      tag_565\n        /* \"#utility.yul\":8394:8401   */\n      dup11\n        /* \"#utility.yul\":8385:8391   */\n      dup3\n        /* \"#utility.yul\":8374:8383   */\n      dup12\n        /* \"#utility.yul\":8370:8392   */\n      add\n        /* \"#utility.yul\":8349:8402   */\n      tag_394\n      jump\t// in\n    tag_565:\n        /* \"#utility.yul\":8339:8402   */\n      swap2\n      pop\n        /* \"#utility.yul\":8293:8412   */\n      pop\n        /* \"#utility.yul\":7008:8419   */\n      swap3\n      swap6\n      swap9\n      swap2\n      swap5\n      swap8\n      pop\n      swap3\n      swap6\n      pop\n      jump\t// out\n        /* \"#utility.yul\":8425:8899   */\n    tag_52:\n        /* \"#utility.yul\":8493:8499   */\n      0x00\n        /* \"#utility.yul\":8501:8507   */\n      dup1\n        /* \"#utility.yul\":8550:8552   */\n      0x40\n        /* \"#utility.yul\":8538:8547   */\n      dup4\n        /* \"#utility.yul\":8529:8536   */\n      dup6\n        /* \"#utility.yul\":8525:8548   */\n      sub\n        /* \"#utility.yul\":8521:8553   */\n      slt\n        /* \"#utility.yul\":8518:8637   */\n      iszero\n      tag_567\n      jumpi\n        /* \"#utility.yul\":8556:8635   */\n      tag_568\n      tag_390\n      jump\t// in\n    tag_568:\n        /* \"#utility.yul\":8518:8637   */\n    tag_567:\n        /* \"#utility.yul\":8676:8677   */\n      0x00\n        /* \"#utility.yul\":8701:8754   */\n      tag_569\n        /* \"#utility.yul\":8746:8753   */\n      dup6\n        /* \"#utility.yul\":8737:8743   */\n      dup3\n        /* \"#utility.yul\":8726:8735   */\n      dup7\n        /* \"#utility.yul\":8722:8744   */\n      add\n        /* \"#utility.yul\":8701:8754   */\n      tag_394\n      jump\t// in\n    tag_569:\n        /* \"#utility.yul\":8691:8754   */\n      swap3\n      pop\n        /* \"#utility.yul\":8647:8764   */\n      pop\n        /* \"#utility.yul\":8803:8805   */\n      0x20\n        /* \"#utility.yul\":8829:8882   */\n      tag_570\n        /* \"#utility.yul\":8874:8881   */\n      dup6\n        /* \"#utility.yul\":8865:8871   */\n      dup3\n        /* \"#utility.yul\":8854:8863   */\n      dup7\n        /* \"#utility.yul\":8850:8872   */\n      add\n        /* \"#utility.yul\":8829:8882   */\n      tag_394\n      jump\t// in\n    tag_570:\n        /* \"#utility.yul\":8819:8882   */\n      swap2\n      pop\n        /* \"#utility.yul\":8774:8892   */\n      pop\n        /* \"#utility.yul\":8425:8899   */\n      swap3\n      pop\n      swap3\n      swap1\n      pop\n      jump\t// out\n        /* \"#utility.yul\":8905:9023   */\n    tag_417:\n        /* \"#utility.yul\":8992:9016   */\n      tag_572\n        /* \"#utility.yul\":9010:9015   */\n      dup2\n        /* \"#utility.yul\":8992:9016   */\n      tag_392\n      jump\t// in\n    tag_572:\n        /* \"#utility.yul\":8987:8990   */\n      dup3\n        /* \"#utility.yul\":8980:9017   */\n      mstore\n        /* \"#utility.yul\":8905:9023   */\n      pop\n      pop\n      jump\t// out\n        /* \"#utility.yul\":9029:9251   */\n    tag_58:\n        /* \"#utility.yul\":9122:9126   */\n      0x00\n        /* \"#utility.yul\":9160:9162   */\n      0x20\n        /* \"#utility.yul\":9149:9158   */\n      dup3\n        /* \"#utility.yul\":9145:9163   */\n      add\n        /* \"#utility.yul\":9137:9163   */\n      swap1\n      pop\n        /* \"#utility.yul\":9173:9244   */\n      tag_574\n        /* \"#utility.yul\":9241:9242   */\n      0x00\n        /* \"#utility.yul\":9230:9239   */\n      dup4\n        /* \"#utility.yul\":9226:9243   */\n      add\n        /* \"#utility.yul\":9217:9223   */\n      dup5\n        /* \"#utility.yul\":9173:9244   */\n      tag_417\n      jump\t// in\n    tag_574:\n        /* \"#utility.yul\":9029:9251   */\n      swap3\n      swap2\n      pop\n      pop\n      jump\t// out\n        /* \"#utility.yul\":9257:9375   */\n    tag_418:\n        /* \"#utility.yul\":9344:9368   */\n      tag_576\n        /* \"#utility.yul\":9362:9367   */\n      dup2\n        /* \"#utility.yul\":9344:9368   */\n      tag_411\n      jump\t// in\n    tag_576:\n        /* \"#utility.yul\":9339:9342   */\n      dup3\n        /* \"#utility.yul\":9332:9369   */\n      mstore\n        /* \"#utility.yul\":9257:9375   */\n      pop\n      pop\n      jump\t// out\n        /* \"#utility.yul\":9381:9603   */\n    tag_62:\n        /* \"#utility.yul\":9474:9478   */\n      0x00\n        /* \"#utility.yul\":9512:9514   */\n      0x20\n        /* \"#utility.yul\":9501:9510   */\n      dup3\n        /* \"#utility.yul\":9497:9515   */\n      add\n        /* \"#utility.yul\":9489:9515   */\n      swap1\n      pop\n        /* \"#utility.yul\":9525:9596   */\n      tag_578\n        /* \"#utility.yul\":9593:9594   */\n      0x00\n        /* \"#utility.yul\":9582:9591   */\n      dup4\n        /* \"#utility.yul\":9578:9595   */\n      add\n        /* \"#utility.yul\":9569:9575   */\n      dup5\n        /* \"#utility.yul\":9525:9596   */\n      tag_418\n      jump\t// in\n    tag_578:\n        /* \"#utility.yul\":9381:9603   */\n      swap3\n      swap2\n      pop\n      pop\n      jump\t// out\n        /* \"#utility.yul\":9609:9723   */\n    tag_419:\n        /* \"#utility.yul\":9676:9682   */\n      0x00\n        /* \"#utility.yul\":9710:9715   */\n      dup2\n        /* \"#utility.yul\":9704:9716   */\n      mload\n        /* \"#utility.yul\":9694:9716   */\n      swap1\n      pop\n        /* \"#utility.yul\":9609:9723   */\n      swap2\n      swap1\n      pop\n      jump\t// out\n        /* \"#utility.yul\":9729:9913   */\n    tag_420:\n        /* \"#utility.yul\":9828:9839   */\n      0x00\n        /* \"#utility.yul\":9862:9868   */\n      dup3\n        /* \"#utility.yul\":9857:9860   */\n      dup3\n        /* \"#utility.yul\":9850:9869   */\n      mstore\n        /* \"#utility.yul\":9902:9906   */\n      0x20\n        /* \"#utility.yul\":9897:9900   */\n      dup3\n        /* \"#utility.yul\":9893:9907   */\n      add\n        /* \"#utility.yul\":9878:9907   */\n      swap1\n      pop\n        /* \"#utility.yul\":9729:9913   */\n      swap3\n      swap2\n      pop\n      pop\n      jump\t// out\n        /* \"#utility.yul\":9919:10051   */\n    tag_421:\n        /* \"#utility.yul\":9986:9990   */\n      0x00\n        /* \"#utility.yul\":10009:10012   */\n      dup2\n        /* \"#utility.yul\":10001:10012   */\n      swap1\n      pop\n        /* \"#utility.yul\":10039:10043   */\n      0x20\n        /* \"#utility.yul\":10034:10037   */\n      dup3\n        /* \"#utility.yul\":10030:10044   */\n      add\n        /* \"#utility.yul\":10022:10044   */\n      swap1\n      pop\n        /* \"#utility.yul\":9919:10051   */\n      swap2\n      swap1\n      pop\n      jump\t// out\n        /* \"#utility.yul\":10057:10165   */\n    tag_422:\n        /* \"#utility.yul\":10134:10158   */\n      tag_583\n        /* \"#utility.yul\":10152:10157   */\n      dup2\n        /* \"#utility.yul\":10134:10158   */\n      tag_411\n      jump\t// in\n    tag_583:\n        /* \"#utility.yul\":10129:10132   */\n      dup3\n        /* \"#utility.yul\":10122:10159   */\n      mstore\n        /* \"#utility.yul\":10057:10165   */\n      pop\n      pop\n      jump\t// out\n        /* \"#utility.yul\":10171:10350   */\n    tag_423:\n        /* \"#utility.yul\":10240:10250   */\n      0x00\n        /* \"#utility.yul\":10261:10307   */\n      tag_585\n        /* \"#utility.yul\":10303:10306   */\n      dup4\n        /* \"#utility.yul\":10295:10301   */\n      dup4\n        /* \"#utility.yul\":10261:10307   */\n      tag_422\n      jump\t// in\n    tag_585:\n        /* \"#utility.yul\":10339:10343   */\n      0x20\n        /* \"#utility.yul\":10334:10337   */\n      dup4\n        /* \"#utility.yul\":10330:10344   */\n      add\n        /* \"#utility.yul\":10316:10344   */\n      swap1\n      pop\n        /* \"#utility.yul\":10171:10350   */\n      swap3\n      swap2\n      pop\n      pop\n      jump\t// out\n        /* \"#utility.yul\":10356:10469   */\n    tag_424:\n        /* \"#utility.yul\":10426:10430   */\n      0x00\n        /* \"#utility.yul\":10458:10462   */\n      0x20\n        /* \"#utility.yul\":10453:10456   */\n      dup3\n        /* \"#utility.yul\":10449:10463   */\n      add\n        /* \"#utility.yul\":10441:10463   */\n      swap1\n      pop\n        /* \"#utility.yul\":10356:10469   */\n      swap2\n      swap1\n      pop\n      jump\t// out\n        /* \"#utility.yul\":10505:11237   */\n    tag_425:\n        /* \"#utility.yul\":10624:10627   */\n      0x00\n        /* \"#utility.yul\":10653:10707   */\n      tag_588\n        /* \"#utility.yul\":10701:10706   */\n      dup3\n        /* \"#utility.yul\":10653:10707   */\n      tag_419\n      jump\t// in\n    tag_588:\n        /* \"#utility.yul\":10723:10809   */\n      tag_589\n        /* \"#utility.yul\":10802:10808   */\n      dup2\n        /* \"#utility.yul\":10797:10800   */\n      dup6\n        /* \"#utility.yul\":10723:10809   */\n      tag_420\n      jump\t// in\n    tag_589:\n        /* \"#utility.yul\":10716:10809   */\n      swap4\n      pop\n        /* \"#utility.yul\":10833:10889   */\n      tag_590\n        /* \"#utility.yul\":10883:10888   */\n      dup4\n        /* \"#utility.yul\":10833:10889   */\n      tag_421\n      jump\t// in\n    tag_590:\n        /* \"#utility.yul\":10912:10919   */\n      dup1\n        /* \"#utility.yul\":10943:10944   */\n      0x00\n        /* \"#utility.yul\":10928:11212   */\n    tag_591:\n        /* \"#utility.yul\":10953:10959   */\n      dup4\n        /* \"#utility.yul\":10950:10951   */\n      dup2\n        /* \"#utility.yul\":10947:10960   */\n      lt\n        /* \"#utility.yul\":10928:11212   */\n      iszero\n      tag_593\n      jumpi\n        /* \"#utility.yul\":11029:11035   */\n      dup2\n        /* \"#utility.yul\":11023:11036   */\n      mload\n        /* \"#utility.yul\":11056:11119   */\n      tag_594\n        /* \"#utility.yul\":11115:11118   */\n      dup9\n        /* \"#utility.yul\":11100:11113   */\n      dup3\n        /* \"#utility.yul\":11056:11119   */\n      tag_423\n      jump\t// in\n    tag_594:\n        /* \"#utility.yul\":11049:11119   */\n      swap8\n      pop\n        /* \"#utility.yul\":11142:11202   */\n      tag_595\n        /* \"#utility.yul\":11195:11201   */\n      dup4\n        /* \"#utility.yul\":11142:11202   */\n      tag_424\n      jump\t// in\n    tag_595:\n        /* \"#utility.yul\":11132:11202   */\n      swap3\n      pop\n        /* \"#utility.yul\":10988:11212   */\n      pop\n        /* \"#utility.yul\":10975:10976   */\n      0x01\n        /* \"#utility.yul\":10972:10973   */\n      dup2\n        /* \"#utility.yul\":10968:10977   */\n      add\n        /* \"#utility.yul\":10963:10977   */\n      swap1\n      pop\n        /* \"#utility.yul\":10928:11212   */\n      jump(tag_591)\n    tag_593:\n        /* \"#utility.yul\":10932:10946   */\n      pop\n        /* \"#utility.yul\":11228:11231   */\n      dup6\n        /* \"#utility.yul\":11221:11231   */\n      swap4\n      pop\n        /* \"#utility.yul\":10629:11237   */\n      pop\n      pop\n      pop\n        /* \"#utility.yul\":10505:11237   */\n      swap3\n      swap2\n      pop\n      pop\n      jump\t// out\n        /* \"#utility.yul\":11243:11616   */\n    tag_67:\n        /* \"#utility.yul\":11386:11390   */\n      0x00\n        /* \"#utility.yul\":11424:11426   */\n      0x20\n        /* \"#utility.yul\":11413:11422   */\n      dup3\n        /* \"#utility.yul\":11409:11427   */\n      add\n        /* \"#utility.yul\":11401:11427   */\n      swap1\n      pop\n        /* \"#utility.yul\":11473:11482   */\n      dup2\n        /* \"#utility.yul\":11467:11471   */\n      dup2\n        /* \"#utility.yul\":11463:11483   */\n      sub\n        /* \"#utility.yul\":11459:11460   */\n      0x00\n        /* \"#utility.yul\":11448:11457   */\n      dup4\n        /* \"#utility.yul\":11444:11461   */\n      add\n        /* \"#utility.yul\":11437:11484   */\n      mstore\n        /* \"#utility.yul\":11501:11609   */\n      tag_597\n        /* \"#utility.yul\":11604:11608   */\n      dup2\n        /* \"#utility.yul\":11595:11601   */\n      dup5\n        /* \"#utility.yul\":11501:11609   */\n      tag_425\n      jump\t// in\n    tag_597:\n        /* \"#utility.yul\":11493:11609   */\n      swap1\n      pop\n        /* \"#utility.yul\":11243:11616   */\n      swap3\n      swap2\n      pop\n      pop\n      jump\t// out\n        /* \"#utility.yul\":11622:11737   */\n    tag_426:\n        /* \"#utility.yul\":11707:11730   */\n      tag_599\n        /* \"#utility.yul\":11724:11729   */\n      dup2\n        /* \"#utility.yul\":11707:11730   */\n      tag_414\n      jump\t// in\n    tag_599:\n        /* \"#utility.yul\":11702:11705   */\n      dup3\n        /* \"#utility.yul\":11695:11731   */\n      mstore\n        /* \"#utility.yul\":11622:11737   */\n      pop\n      pop\n      jump\t// out\n        /* \"#utility.yul\":11743:11833   */\n    tag_427:\n        /* \"#utility.yul\":11777:11784   */\n      0x00\n        /* \"#utility.yul\":11820:11825   */\n      dup2\n        /* \"#utility.yul\":11813:11826   */\n      iszero\n        /* \"#utility.yul\":11806:11827   */\n      iszero\n        /* \"#utility.yul\":11795:11827   */\n      swap1\n      pop\n        /* \"#utility.yul\":11743:11833   */\n      swap2\n      swap1\n      pop\n      jump\t// out\n        /* \"#utility.yul\":11839:11948   */\n    tag_428:\n        /* \"#utility.yul\":11920:11941   */\n      tag_602\n        /* \"#utility.yul\":11935:11940   */\n      dup2\n        /* \"#utility.yul\":11920:11941   */\n      tag_427\n      jump\t// in\n    tag_602:\n        /* \"#utility.yul\":11915:11918   */\n      dup3\n        /* \"#utility.yul\":11908:11942   */\n      mstore\n        /* \"#utility.yul\":11839:11948   */\n      pop\n      pop\n      jump\t// out\n        /* \"#utility.yul\":11954:13534   */\n    tag_72:\n        /* \"#utility.yul\":12399:12403   */\n      0x00\n        /* \"#utility.yul\":12437:12440   */\n      0x0180\n        /* \"#utility.yul\":12426:12435   */\n      dup3\n        /* \"#utility.yul\":12422:12441   */\n      add\n        /* \"#utility.yul\":12414:12441   */\n      swap1\n      pop\n        /* \"#utility.yul\":12451:12522   */\n      tag_604\n        /* \"#utility.yul\":12519:12520   */\n      0x00\n        /* \"#utility.yul\":12508:12517   */\n      dup4\n        /* \"#utility.yul\":12504:12521   */\n      add\n        /* \"#utility.yul\":12495:12501   */\n      dup16\n        /* \"#utility.yul\":12451:12522   */\n      tag_418\n      jump\t// in\n    tag_604:\n        /* \"#utility.yul\":12532:12604   */\n      tag_605\n        /* \"#utility.yul\":12600:12602   */\n      0x20\n        /* \"#utility.yul\":12589:12598   */\n      dup4\n        /* \"#utility.yul\":12585:12603   */\n      add\n        /* \"#utility.yul\":12576:12582   */\n      dup15\n        /* \"#utility.yul\":12532:12604   */\n      tag_417\n      jump\t// in\n    tag_605:\n        /* \"#utility.yul\":12614:12686   */\n      tag_606\n        /* \"#utility.yul\":12682:12684   */\n      0x40\n        /* \"#utility.yul\":12671:12680   */\n      dup4\n        /* \"#utility.yul\":12667:12685   */\n      add\n        /* \"#utility.yul\":12658:12664   */\n      dup14\n        /* \"#utility.yul\":12614:12686   */\n      tag_417\n      jump\t// in\n    tag_606:\n        /* \"#utility.yul\":12696:12768   */\n      tag_607\n        /* \"#utility.yul\":12764:12766   */\n      0x60\n        /* \"#utility.yul\":12753:12762   */\n      dup4\n        /* \"#utility.yul\":12749:12767   */\n      add\n        /* \"#utility.yul\":12740:12746   */\n      dup13\n        /* \"#utility.yul\":12696:12768   */\n      tag_417\n      jump\t// in\n    tag_607:\n        /* \"#utility.yul\":12816:12825   */\n      dup2\n        /* \"#utility.yul\":12810:12814   */\n      dup2\n        /* \"#utility.yul\":12806:12826   */\n      sub\n        /* \"#utility.yul\":12800:12803   */\n      0x80\n        /* \"#utility.yul\":12789:12798   */\n      dup4\n        /* \"#utility.yul\":12785:12804   */\n      add\n        /* \"#utility.yul\":12778:12827   */\n      mstore\n        /* \"#utility.yul\":12844:12952   */\n      tag_608\n        /* \"#utility.yul\":12947:12951   */\n      dup2\n        /* \"#utility.yul\":12938:12944   */\n      dup12\n        /* \"#utility.yul\":12844:12952   */\n      tag_409\n      jump\t// in\n    tag_608:\n        /* \"#utility.yul\":12836:12952   */\n      swap1\n      pop\n        /* \"#utility.yul\":12962:13033   */\n      tag_609\n        /* \"#utility.yul\":13028:13031   */\n      0xa0\n        /* \"#utility.yul\":13017:13026   */\n      dup4\n        /* \"#utility.yul\":13013:13032   */\n      add\n        /* \"#utility.yul\":13004:13010   */\n      dup11\n        /* \"#utility.yul\":12962:13033   */\n      tag_426\n      jump\t// in\n    tag_609:\n        /* \"#utility.yul\":13043:13116   */\n      tag_610\n        /* \"#utility.yul\":13111:13114   */\n      0xc0\n        /* \"#utility.yul\":13100:13109   */\n      dup4\n        /* \"#utility.yul\":13096:13115   */\n      add\n        /* \"#utility.yul\":13087:13093   */\n      dup10\n        /* \"#utility.yul\":13043:13116   */\n      tag_417\n      jump\t// in\n    tag_610:\n        /* \"#utility.yul\":13126:13199   */\n      tag_611\n        /* \"#utility.yul\":13194:13197   */\n      0xe0\n        /* \"#utility.yul\":13183:13192   */\n      dup4\n        /* \"#utility.yul\":13179:13198   */\n      add\n        /* \"#utility.yul\":13170:13176   */\n      dup9\n        /* \"#utility.yul\":13126:13199   */\n      tag_417\n      jump\t// in\n    tag_611:\n        /* \"#utility.yul\":13209:13282   */\n      tag_612\n        /* \"#utility.yul\":13277:13280   */\n      0x0100\n        /* \"#utility.yul\":13266:13275   */\n      dup4\n        /* \"#utility.yul\":13262:13281   */\n      add\n        /* \"#utility.yul\":13253:13259   */\n      dup8\n        /* \"#utility.yul\":13209:13282   */\n      tag_417\n      jump\t// in\n    tag_612:\n        /* \"#utility.yul\":13292:13365   */\n      tag_613\n        /* \"#utility.yul\":13360:13363   */\n      0x0120\n        /* \"#utility.yul\":13349:13358   */\n      dup4\n        /* \"#utility.yul\":13345:13364   */\n      add\n        /* \"#utility.yul\":13336:13342   */\n      dup7\n        /* \"#utility.yul\":13292:13365   */\n      tag_417\n      jump\t// in\n    tag_613:\n        /* \"#utility.yul\":13375:13449   */\n      tag_614\n        /* \"#utility.yul\":13444:13447   */\n      0x0140\n        /* \"#utility.yul\":13433:13442   */\n      dup4\n        /* \"#utility.yul\":13429:13448   */\n      add\n        /* \"#utility.yul\":13419:13426   */\n      dup6\n        /* \"#utility.yul\":13375:13449   */\n      tag_417\n      jump\t// in\n    tag_614:\n        /* \"#utility.yul\":13459:13527   */\n      tag_615\n        /* \"#utility.yul\":13522:13525   */\n      0x0160\n        /* \"#utility.yul\":13511:13520   */\n      dup4\n        /* \"#utility.yul\":13507:13526   */\n      add\n        /* \"#utility.yul\":13497:13504   */\n      dup5\n        /* \"#utility.yul\":13459:13527   */\n      tag_428\n      jump\t// in\n    tag_615:\n        /* \"#utility.yul\":11954:13534   */\n      swap14\n      swap13\n      pop\n      pop\n      pop\n      pop\n      pop\n      pop\n      pop\n      pop\n      pop\n      pop\n      pop\n      pop\n      pop\n      jump\t// out\n        /* \"#utility.yul\":13540:14011   */\n    tag_80:\n        /* \"#utility.yul\":13705:13709   */\n      0x00\n        /* \"#utility.yul\":13743:13745   */\n      0x40\n        /* \"#utility.yul\":13732:13741   */\n      dup3\n        /* \"#utility.yul\":13728:13746   */\n      add\n        /* \"#utility.yul\":13720:13746   */\n      swap1\n      pop\n        /* \"#utility.yul\":13756:13821   */\n      tag_617\n        /* \"#utility.yul\":13818:13819   */\n      0x00\n        /* \"#utility.yul\":13807:13816   */\n      dup4\n        /* \"#utility.yul\":13803:13820   */\n      add\n        /* \"#utility.yul\":13794:13800   */\n      dup6\n        /* \"#utility.yul\":13756:13821   */\n      tag_428\n      jump\t// in\n    tag_617:\n        /* \"#utility.yul\":13868:13877   */\n      dup2\n        /* \"#utility.yul\":13862:13866   */\n      dup2\n        /* \"#utility.yul\":13858:13878   */\n      sub\n        /* \"#utility.yul\":13853:13855   */\n      0x20\n        /* \"#utility.yul\":13842:13851   */\n      dup4\n        /* \"#utility.yul\":13838:13856   */\n      add\n        /* \"#utility.yul\":13831:13879   */\n      mstore\n        /* \"#utility.yul\":13896:14004   */\n      tag_618\n        /* \"#utility.yul\":13999:14003   */\n      dup2\n        /* \"#utility.yul\":13990:13996   */\n      dup5\n        /* \"#utility.yul\":13896:14004   */\n      tag_409\n      jump\t// in\n    tag_618:\n        /* \"#utility.yul\":13888:14004   */\n      swap1\n      pop\n        /* \"#utility.yul\":13540:14011   */\n      swap4\n      swap3\n      pop\n      pop\n      pop\n      jump\t// out\n        /* \"#utility.yul\":14017:14346   */\n    tag_83:\n        /* \"#utility.yul\":14076:14082   */\n      0x00\n        /* \"#utility.yul\":14125:14127   */\n      0x20\n        /* \"#utility.yul\":14113:14122   */\n      dup3\n        /* \"#utility.yul\":14104:14111   */\n      dup5\n        /* \"#utility.yul\":14100:14123   */\n      sub\n        /* \"#utility.yul\":14096:14128   */\n      slt\n        /* \"#utility.yul\":14093:14212   */\n      iszero\n      tag_620\n      jumpi\n        /* \"#utility.yul\":14131:14210   */\n      tag_621\n      tag_390\n      jump\t// in\n    tag_621:\n        /* \"#utility.yul\":14093:14212   */\n    tag_620:\n        /* \"#utility.yul\":14251:14252   */\n      0x00\n        /* \"#utility.yul\":14276:14329   */\n      tag_622\n        /* \"#utility.yul\":14321:14328   */\n      dup5\n        /* \"#utility.yul\":14312:14318   */\n      dup3\n        /* \"#utility.yul\":14301:14310   */\n      dup6\n        /* \"#utility.yul\":14297:14319   */\n      add\n        /* \"#utility.yul\":14276:14329   */\n      tag_413\n      jump\t// in\n    tag_622:\n        /* \"#utility.yul\":14266:14329   */\n      swap2\n      pop\n        /* \"#utility.yul\":14222:14339   */\n      pop\n        /* \"#utility.yul\":14017:14346   */\n      swap3\n      swap2\n      pop\n      pop\n      jump\t// out\n        /* \"#utility.yul\":14352:14684   */\n    tag_92:\n        /* \"#utility.yul\":14473:14477   */\n      0x00\n        /* \"#utility.yul\":14511:14513   */\n      0x40\n        /* \"#utility.yul\":14500:14509   */\n      dup3\n        /* \"#utility.yul\":14496:14514   */\n      add\n        /* \"#utility.yul\":14488:14514   */\n      swap1\n      pop\n        /* \"#utility.yul\":14524:14595   */\n      tag_624\n        /* \"#utility.yul\":14592:14593   */\n      0x00\n        /* \"#utility.yul\":14581:14590   */\n      dup4\n        /* \"#utility.yul\":14577:14594   */\n      add\n        /* \"#utility.yul\":14568:14574   */\n      dup6\n        /* \"#utility.yul\":14524:14595   */\n      tag_418\n      jump\t// in\n    tag_624:\n        /* \"#utility.yul\":14605:14677   */\n      tag_625\n        /* \"#utility.yul\":14673:14675   */\n      0x20\n        /* \"#utility.yul\":14662:14671   */\n      dup4\n        /* \"#utility.yul\":14658:14676   */\n      add\n        /* \"#utility.yul\":14649:14655   */\n      dup5\n        /* \"#utility.yul\":14605:14677   */\n      tag_418\n      jump\t// in\n    tag_625:\n        /* \"#utility.yul\":14352:14684   */\n      swap4\n      swap3\n      pop\n      pop\n      pop\n      jump\t// out\n        /* \"#utility.yul\":14690:14870   */\n    tag_98:\n        /* \"#utility.yul\":14738:14815   */\n      0x4e487b7100000000000000000000000000000000000000000000000000000000\n        /* \"#utility.yul\":14735:14736   */\n      0x00\n        /* \"#utility.yul\":14728:14816   */\n      mstore\n        /* \"#utility.yul\":14835:14839   */\n      0x32\n        /* \"#utility.yul\":14832:14833   */\n      0x04\n        /* \"#utility.yul\":14825:14840   */\n      mstore\n        /* \"#utility.yul\":14859:14863   */\n      0x24\n        /* \"#utility.yul\":14856:14857   */\n      0x00\n        /* \"#utility.yul\":14849:14864   */\n      revert\n        /* \"#utility.yul\":14876:15056   */\n    tag_429:\n        /* \"#utility.yul\":14924:15001   */\n      0x4e487b7100000000000000000000000000000000000000000000000000000000\n        /* \"#utility.yul\":14921:14922   */\n      0x00\n        /* \"#utility.yul\":14914:15002   */\n      mstore\n        /* \"#utility.yul\":15021:15025   */\n      0x11\n        /* \"#utility.yul\":15018:15019   */\n      0x04\n        /* \"#utility.yul\":15011:15026   */\n      mstore\n        /* \"#utility.yul\":15045:15049   */\n      0x24\n        /* \"#utility.yul\":15042:15043   */\n      0x00\n        /* \"#utility.yul\":15035:15050   */\n      revert\n        /* \"#utility.yul\":15062:15253   */\n    tag_112:\n        /* \"#utility.yul\":15102:15105   */\n      0x00\n        /* \"#utility.yul\":15121:15141   */\n      tag_629\n        /* \"#utility.yul\":15139:15140   */\n      dup3\n        /* \"#utility.yul\":15121:15141   */\n      tag_392\n      jump\t// in\n    tag_629:\n        /* \"#utility.yul\":15116:15141   */\n      swap2\n      pop\n        /* \"#utility.yul\":15155:15175   */\n      tag_630\n        /* \"#utility.yul\":15173:15174   */\n      dup4\n        /* \"#utility.yul\":15155:15175   */\n      tag_392\n      jump\t// in\n    tag_630:\n        /* \"#utility.yul\":15150:15175   */\n      swap3\n      pop\n        /* \"#utility.yul\":15198:15199   */\n      dup3\n        /* \"#utility.yul\":15195:15196   */\n      dup3\n        /* \"#utility.yul\":15191:15200   */\n      add\n        /* \"#utility.yul\":15184:15200   */\n      swap1\n      pop\n        /* \"#utility.yul\":15219:15222   */\n      dup1\n        /* \"#utility.yul\":15216:15217   */\n      dup3\n        /* \"#utility.yul\":15213:15223   */\n      gt\n        /* \"#utility.yul\":15210:15246   */\n      iszero\n      tag_631\n      jumpi\n        /* \"#utility.yul\":15226:15244   */\n      tag_632\n      tag_429\n      jump\t// in\n    tag_632:\n        /* \"#utility.yul\":15210:15246   */\n    tag_631:\n        /* \"#utility.yul\":15062:15253   */\n      swap3\n      swap2\n      pop\n      pop\n      jump\t// out\n        /* \"#utility.yul\":15259:15428   */\n    tag_430:\n        /* \"#utility.yul\":15343:15354   */\n      0x00\n        /* \"#utility.yul\":15377:15383   */\n      dup3\n        /* \"#utility.yul\":15372:15375   */\n      dup3\n        /* \"#utility.yul\":15365:15384   */\n      mstore\n        /* \"#utility.yul\":15417:15421   */\n      0x20\n        /* \"#utility.yul\":15412:15415   */\n      dup3\n        /* \"#utility.yul\":15408:15422   */\n      add\n        /* \"#utility.yul\":15393:15422   */\n      swap1\n      pop\n        /* \"#utility.yul\":15259:15428   */\n      swap3\n      swap2\n      pop\n      pop\n      jump\t// out\n        /* \"#utility.yul\":15434:15597   */\n    tag_431:\n        /* \"#utility.yul\":15574:15589   */\n      0x6e6f7420617661696c61626c6500000000000000000000000000000000000000\n        /* \"#utility.yul\":15570:15571   */\n      0x00\n        /* \"#utility.yul\":15562:15568   */\n      dup3\n        /* \"#utility.yul\":15558:15572   */\n      add\n        /* \"#utility.yul\":15551:15590   */\n      mstore\n        /* \"#utility.yul\":15434:15597   */\n      pop\n      jump\t// out\n        /* \"#utility.yul\":15603:15969   */\n    tag_432:\n        /* \"#utility.yul\":15745:15748   */\n      0x00\n        /* \"#utility.yul\":15766:15833   */\n      tag_636\n        /* \"#utility.yul\":15830:15832   */\n      0x0d\n        /* \"#utility.yul\":15825:15828   */\n      dup4\n        /* \"#utility.yul\":15766:15833   */\n      tag_430\n      jump\t// in\n    tag_636:\n        /* \"#utility.yul\":15759:15833   */\n      swap2\n      pop\n        /* \"#utility.yul\":15842:15935   */\n      tag_637\n        /* \"#utility.yul\":15931:15934   */\n      dup3\n        /* \"#utility.yul\":15842:15935   */\n      tag_431\n      jump\t// in\n    tag_637:\n        /* \"#utility.yul\":15960:15962   */\n      0x20\n        /* \"#utility.yul\":15955:15958   */\n      dup3\n        /* \"#utility.yul\":15951:15963   */\n      add\n        /* \"#utility.yul\":15944:15963   */\n      swap1\n      pop\n        /* \"#utility.yul\":15603:15969   */\n      swap2\n      swap1\n      pop\n      jump\t// out\n        /* \"#utility.yul\":15975:16394   */\n    tag_115:\n        /* \"#utility.yul\":16141:16145   */\n      0x00\n        /* \"#utility.yul\":16179:16181   */\n      0x20\n        /* \"#utility.yul\":16168:16177   */\n      dup3\n        /* \"#utility.yul\":16164:16182   */\n      add\n        /* \"#utility.yul\":16156:16182   */\n      swap1\n      pop\n        /* \"#utility.yul\":16228:16237   */\n      dup2\n        /* \"#utility.yul\":16222:16226   */\n      dup2\n        /* \"#utility.yul\":16218:16238   */\n      sub\n        /* \"#utility.yul\":16214:16215   */\n      0x00\n        /* \"#utility.yul\":16203:16212   */\n      dup4\n        /* \"#utility.yul\":16199:16216   */\n      add\n        /* \"#utility.yul\":16192:16239   */\n      mstore\n        /* \"#utility.yul\":16256:16387   */\n      tag_639\n        /* \"#utility.yul\":16382:16386   */\n      dup2\n        /* \"#utility.yul\":16256:16387   */\n      tag_432\n      jump\t// in\n    tag_639:\n        /* \"#utility.yul\":16248:16387   */\n      swap1\n      pop\n        /* \"#utility.yul\":15975:16394   */\n      swap2\n      swap1\n      pop\n      jump\t// out\n        /* \"#utility.yul\":16400:16594   */\n    tag_117:\n        /* \"#utility.yul\":16440:16444   */\n      0x00\n        /* \"#utility.yul\":16460:16480   */\n      tag_641\n        /* \"#utility.yul\":16478:16479   */\n      dup3\n        /* \"#utility.yul\":16460:16480   */\n      tag_392\n      jump\t// in\n    tag_641:\n        /* \"#utility.yul\":16455:16480   */\n      swap2\n      pop\n        /* \"#utility.yul\":16494:16514   */\n      tag_642\n        /* \"#utility.yul\":16512:16513   */\n      dup4\n        /* \"#utility.yul\":16494:16514   */\n      tag_392\n      jump\t// in\n    tag_642:\n        /* \"#utility.yul\":16489:16514   */\n      swap3\n      pop\n        /* \"#utility.yul\":16538:16539   */\n      dup3\n        /* \"#utility.yul\":16535:16536   */\n      dup3\n        /* \"#utility.yul\":16531:16540   */\n      sub\n        /* \"#utility.yul\":16523:16540   */\n      swap1\n      pop\n        /* \"#utility.yul\":16562:16563   */\n      dup2\n        /* \"#utility.yul\":16556:16560   */\n      dup2\n        /* \"#utility.yul\":16553:16564   */\n      gt\n        /* \"#utility.yul\":16550:16587   */\n      iszero\n      tag_643\n      jumpi\n        /* \"#utility.yul\":16567:16585   */\n      tag_644\n      tag_429\n      jump\t// in\n    tag_644:\n        /* \"#utility.yul\":16550:16587   */\n    tag_643:\n        /* \"#utility.yul\":16400:16594   */\n      swap3\n      swap2\n      pop\n      pop\n      jump\t// out\n        /* \"#utility.yul\":16600:16932   */\n    tag_119:\n        /* \"#utility.yul\":16721:16725   */\n      0x00\n        /* \"#utility.yul\":16759:16761   */\n      0x40\n        /* \"#utility.yul\":16748:16757   */\n      dup3\n        /* \"#utility.yul\":16744:16762   */\n      add\n        /* \"#utility.yul\":16736:16762   */\n      swap1\n      pop\n        /* \"#utility.yul\":16772:16843   */\n      tag_646\n        /* \"#utility.yul\":16840:16841   */\n      0x00\n        /* \"#utility.yul\":16829:16838   */\n      dup4\n        /* \"#utility.yul\":16825:16842   */\n      add\n        /* \"#utility.yul\":16816:16822   */\n      dup6\n        /* \"#utility.yul\":16772:16843   */\n      tag_418\n      jump\t// in\n    tag_646:\n        /* \"#utility.yul\":16853:16925   */\n      tag_647\n        /* \"#utility.yul\":16921:16923   */\n      0x20\n        /* \"#utility.yul\":16910:16919   */\n      dup4\n        /* \"#utility.yul\":16906:16924   */\n      add\n        /* \"#utility.yul\":16897:16903   */\n      dup5\n        /* \"#utility.yul\":16853:16925   */\n      tag_417\n      jump\t// in\n    tag_647:\n        /* \"#utility.yul\":16600:16932   */\n      swap4\n      swap3\n      pop\n      pop\n      pop\n      jump\t// out\n        /* \"#utility.yul\":16938:17054   */\n    tag_433:\n        /* \"#utility.yul\":17008:17029   */\n      tag_649\n        /* \"#utility.yul\":17023:17028   */\n      dup2\n        /* \"#utility.yul\":17008:17029   */\n      tag_427\n      jump\t// in\n    tag_649:\n        /* \"#utility.yul\":17001:17006   */\n      dup2\n        /* \"#utility.yul\":16998:17030   */\n      eq\n        /* \"#utility.yul\":16988:17048   */\n      tag_650\n      jumpi\n        /* \"#utility.yul\":17044:17045   */\n      0x00\n        /* \"#utility.yul\":17041:17042   */\n      dup1\n        /* \"#utility.yul\":17034:17046   */\n      revert\n        /* \"#utility.yul\":16988:17048   */\n    tag_650:\n        /* \"#utility.yul\":16938:17054   */\n      pop\n      jump\t// out\n        /* \"#utility.yul\":17060:17197   */\n    tag_434:\n        /* \"#utility.yul\":17114:17119   */\n      0x00\n        /* \"#utility.yul\":17145:17151   */\n      dup2\n        /* \"#utility.yul\":17139:17152   */\n      mload\n        /* \"#utility.yul\":17130:17152   */\n      swap1\n      pop\n        /* \"#utility.yul\":17161:17191   */\n      tag_652\n        /* \"#utility.yul\":17185:17190   */\n      dup2\n        /* \"#utility.yul\":17161:17191   */\n      tag_433\n      jump\t// in\n    tag_652:\n        /* \"#utility.yul\":17060:17197   */\n      swap3\n      swap2\n      pop\n      pop\n      jump\t// out\n        /* \"#utility.yul\":17203:17548   */\n    tag_123:\n        /* \"#utility.yul\":17270:17276   */\n      0x00\n        /* \"#utility.yul\":17319:17321   */\n      0x20\n        /* \"#utility.yul\":17307:17316   */\n      dup3\n        /* \"#utility.yul\":17298:17305   */\n      dup5\n        /* \"#utility.yul\":17294:17317   */\n      sub\n        /* \"#utility.yul\":17290:17322   */\n      slt\n        /* \"#utility.yul\":17287:17406   */\n      iszero\n      tag_654\n      jumpi\n        /* \"#utility.yul\":17325:17404   */\n      tag_655\n      tag_390\n      jump\t// in\n    tag_655:\n        /* \"#utility.yul\":17287:17406   */\n    tag_654:\n        /* \"#utility.yul\":17445:17446   */\n      0x00\n        /* \"#utility.yul\":17470:17531   */\n      tag_656\n        /* \"#utility.yul\":17523:17530   */\n      dup5\n        /* \"#utility.yul\":17514:17520   */\n      dup3\n        /* \"#utility.yul\":17503:17512   */\n      dup6\n        /* \"#utility.yul\":17499:17521   */\n      add\n        /* \"#utility.yul\":17470:17531   */\n      tag_434\n      jump\t// in\n    tag_656:\n        /* \"#utility.yul\":17460:17531   */\n      swap2\n      pop\n        /* \"#utility.yul\":17416:17541   */\n      pop\n        /* \"#utility.yul\":17203:17548   */\n      swap3\n      swap2\n      pop\n      pop\n      jump\t// out\n        /* \"#utility.yul\":17554:17716   */\n    tag_435:\n        /* \"#utility.yul\":17694:17708   */\n      0x696e76616c696420757365720000000000000000000000000000000000000000\n        /* \"#utility.yul\":17690:17691   */\n      0x00\n        /* \"#utility.yul\":17682:17688   */\n      dup3\n        /* \"#utility.yul\":17678:17692   */\n      add\n        /* \"#utility.yul\":17671:17709   */\n      mstore\n        /* \"#utility.yul\":17554:17716   */\n      pop\n      jump\t// out\n        /* \"#utility.yul\":17722:18088   */\n    tag_436:\n        /* \"#utility.yul\":17864:17867   */\n      0x00\n        /* \"#utility.yul\":17885:17952   */\n      tag_659\n        /* \"#utility.yul\":17949:17951   */\n      0x0c\n        /* \"#utility.yul\":17944:17947   */\n      dup4\n        /* \"#utility.yul\":17885:17952   */\n      tag_430\n      jump\t// in\n    tag_659:\n        /* \"#utility.yul\":17878:17952   */\n      swap2\n      pop\n        /* \"#utility.yul\":17961:18054   */\n      tag_660\n        /* \"#utility.yul\":18050:18053   */\n      dup3\n        /* \"#utility.yul\":17961:18054   */\n      tag_435\n      jump\t// in\n    tag_660:\n        /* \"#utility.yul\":18079:18081   */\n      0x20\n        /* \"#utility.yul\":18074:18077   */\n      dup3\n        /* \"#utility.yul\":18070:18082   */\n      add\n        /* \"#utility.yul\":18063:18082   */\n      swap1\n      pop\n        /* \"#utility.yul\":17722:18088   */\n      swap2\n      swap1\n      pop\n      jump\t// out\n        /* \"#utility.yul\":18094:18513   */\n    tag_135:\n        /* \"#utility.yul\":18260:18264   */\n      0x00\n        /* \"#utility.yul\":18298:18300   */\n      0x20\n        /* \"#utility.yul\":18287:18296   */\n      dup3\n        /* \"#utility.yul\":18283:18301   */\n      add\n        /* \"#utility.yul\":18275:18301   */\n      swap1\n      pop\n        /* \"#utility.yul\":18347:18356   */\n      dup2\n        /* \"#utility.yul\":18341:18345   */\n      dup2\n        /* \"#utility.yul\":18337:18357   */\n      sub\n        /* \"#utility.yul\":18333:18334   */\n      0x00\n        /* \"#utility.yul\":18322:18331   */\n      dup4\n        /* \"#utility.yul\":18318:18335   */\n      add\n        /* \"#utility.yul\":18311:18358   */\n      mstore\n        /* \"#utility.yul\":18375:18506   */\n      tag_662\n        /* \"#utility.yul\":18501:18505   */\n      dup2\n        /* \"#utility.yul\":18375:18506   */\n      tag_436\n      jump\t// in\n    tag_662:\n        /* \"#utility.yul\":18367:18506   */\n      swap1\n      pop\n        /* \"#utility.yul\":18094:18513   */\n      swap2\n      swap1\n      pop\n      jump\t// out\n        /* \"#utility.yul\":18519:18680   */\n    tag_437:\n        /* \"#utility.yul\":18659:18672   */\n      0x756e617661696c61626c65000000000000000000000000000000000000000000\n        /* \"#utility.yul\":18655:18656   */\n      0x00\n        /* \"#utility.yul\":18647:18653   */\n      dup3\n        /* \"#utility.yul\":18643:18657   */\n      add\n        /* \"#utility.yul\":18636:18673   */\n      mstore\n        /* \"#utility.yul\":18519:18680   */\n      pop\n      jump\t// out\n        /* \"#utility.yul\":18686:19052   */\n    tag_438:\n        /* \"#utility.yul\":18828:18831   */\n      0x00\n        /* \"#utility.yul\":18849:18916   */\n      tag_665\n        /* \"#utility.yul\":18913:18915   */\n      0x0b\n        /* \"#utility.yul\":18908:18911   */\n      dup4\n        /* \"#utility.yul\":18849:18916   */\n      tag_430\n      jump\t// in\n    tag_665:\n        /* \"#utility.yul\":18842:18916   */\n      swap2\n      pop\n        /* \"#utility.yul\":18925:19018   */\n      tag_666\n        /* \"#utility.yul\":19014:19017   */\n      dup3\n        /* \"#utility.yul\":18925:19018   */\n      tag_437\n      jump\t// in\n    tag_666:\n        /* \"#utility.yul\":19043:19045   */\n      0x20\n        /* \"#utility.yul\":19038:19041   */\n      dup3\n        /* \"#utility.yul\":19034:19046   */\n      add\n        /* \"#utility.yul\":19027:19046   */\n      swap1\n      pop\n        /* \"#utility.yul\":18686:19052   */\n      swap2\n      swap1\n      pop\n      jump\t// out\n        /* \"#utility.yul\":19058:19477   */\n    tag_140:\n        /* \"#utility.yul\":19224:19228   */\n      0x00\n        /* \"#utility.yul\":19262:19264   */\n      0x20\n        /* \"#utility.yul\":19251:19260   */\n      dup3\n        /* \"#utility.yul\":19247:19265   */\n      add\n        /* \"#utility.yul\":19239:19265   */\n      swap1\n      pop\n        /* \"#utility.yul\":19311:19320   */\n      dup2\n        /* \"#utility.yul\":19305:19309   */\n      dup2\n        /* \"#utility.yul\":19301:19321   */\n      sub\n        /* \"#utility.yul\":19297:19298   */\n      0x00\n        /* \"#utility.yul\":19286:19295   */\n      dup4\n        /* \"#utility.yul\":19282:19299   */\n      add\n        /* \"#utility.yul\":19275:19322   */\n      mstore\n        /* \"#utility.yul\":19339:19470   */\n      tag_668\n        /* \"#utility.yul\":19465:19469   */\n      dup2\n        /* \"#utility.yul\":19339:19470   */\n      tag_438\n      jump\t// in\n    tag_668:\n        /* \"#utility.yul\":19331:19470   */\n      swap1\n      pop\n        /* \"#utility.yul\":19058:19477   */\n      swap2\n      swap1\n      pop\n      jump\t// out\n        /* \"#utility.yul\":19483:19639   */\n    tag_439:\n        /* \"#utility.yul\":19623:19631   */\n      0x6472617765640000000000000000000000000000000000000000000000000000\n        /* \"#utility.yul\":19619:19620   */\n      0x00\n        /* \"#utility.yul\":19611:19617   */\n      dup3\n        /* \"#utility.yul\":19607:19621   */\n      add\n        /* \"#utility.yul\":19600:19632   */\n      mstore\n        /* \"#utility.yul\":19483:19639   */\n      pop\n      jump\t// out\n        /* \"#utility.yul\":19645:20010   */\n    tag_440:\n        /* \"#utility.yul\":19787:19790   */\n      0x00\n        /* \"#utility.yul\":19808:19874   */\n      tag_671\n        /* \"#utility.yul\":19872:19873   */\n      0x06\n        /* \"#utility.yul\":19867:19870   */\n      dup4\n        /* \"#utility.yul\":19808:19874   */\n      tag_430\n      jump\t// in\n    tag_671:\n        /* \"#utility.yul\":19801:19874   */\n      swap2\n      pop\n        /* \"#utility.yul\":19883:19976   */\n      tag_672\n        /* \"#utility.yul\":19972:19975   */\n      dup3\n        /* \"#utility.yul\":19883:19976   */\n      tag_439\n      jump\t// in\n    tag_672:\n        /* \"#utility.yul\":20001:20003   */\n      0x20\n        /* \"#utility.yul\":19996:19999   */\n      dup3\n        /* \"#utility.yul\":19992:20004   */\n      add\n        /* \"#utility.yul\":19985:20004   */\n      swap1\n      pop\n        /* \"#utility.yul\":19645:20010   */\n      swap2\n      swap1\n      pop\n      jump\t// out\n        /* \"#utility.yul\":20016:20435   */\n    tag_155:\n        /* \"#utility.yul\":20182:20186   */\n      0x00\n        /* \"#utility.yul\":20220:20222   */\n      0x20\n        /* \"#utility.yul\":20209:20218   */\n      dup3\n        /* \"#utility.yul\":20205:20223   */\n      add\n        /* \"#utility.yul\":20197:20223   */\n      swap1\n      pop\n        /* \"#utility.yul\":20269:20278   */\n      dup2\n        /* \"#utility.yul\":20263:20267   */\n      dup2\n        /* \"#utility.yul\":20259:20279   */\n      sub\n        /* \"#utility.yul\":20255:20256   */\n      0x00\n        /* \"#utility.yul\":20244:20253   */\n      dup4\n        /* \"#utility.yul\":20240:20257   */\n      add\n        /* \"#utility.yul\":20233:20280   */\n      mstore\n        /* \"#utility.yul\":20297:20428   */\n      tag_674\n        /* \"#utility.yul\":20423:20427   */\n      dup2\n        /* \"#utility.yul\":20297:20428   */\n      tag_440\n      jump\t// in\n    tag_674:\n        /* \"#utility.yul\":20289:20428   */\n      swap1\n      pop\n        /* \"#utility.yul\":20016:20435   */\n      swap2\n      swap1\n      pop\n      jump\t// out\n        /* \"#utility.yul\":20441:20518   */\n    tag_441:\n        /* \"#utility.yul\":20478:20485   */\n      0x00\n        /* \"#utility.yul\":20507:20512   */\n      dup2\n        /* \"#utility.yul\":20496:20512   */\n      swap1\n      pop\n        /* \"#utility.yul\":20441:20518   */\n      swap2\n      swap1\n      pop\n      jump\t// out\n        /* \"#utility.yul\":20524:20642   */\n    tag_442:\n        /* \"#utility.yul\":20611:20635   */\n      tag_677\n        /* \"#utility.yul\":20629:20634   */\n      dup2\n        /* \"#utility.yul\":20611:20635   */\n      tag_441\n      jump\t// in\n    tag_677:\n        /* \"#utility.yul\":20606:20609   */\n      dup3\n        /* \"#utility.yul\":20599:20636   */\n      mstore\n        /* \"#utility.yul\":20524:20642   */\n      pop\n      pop\n      jump\t// out\n        /* \"#utility.yul\":20648:20749   */\n    tag_443:\n        /* \"#utility.yul\":20684:20691   */\n      0x00\n        /* \"#utility.yul\":20724:20742   */\n      0xffffffffffffffff\n        /* \"#utility.yul\":20717:20722   */\n      dup3\n        /* \"#utility.yul\":20713:20743   */\n      and\n        /* \"#utility.yul\":20702:20743   */\n      swap1\n      pop\n        /* \"#utility.yul\":20648:20749   */\n      swap2\n      swap1\n      pop\n      jump\t// out\n        /* \"#utility.yul\":20755:20870   */\n    tag_444:\n        /* \"#utility.yul\":20840:20863   */\n      tag_680\n        /* \"#utility.yul\":20857:20862   */\n      dup2\n        /* \"#utility.yul\":20840:20863   */\n      tag_443\n      jump\t// in\n    tag_680:\n        /* \"#utility.yul\":20835:20838   */\n      dup3\n        /* \"#utility.yul\":20828:20864   */\n      mstore\n        /* \"#utility.yul\":20755:20870   */\n      pop\n      pop\n      jump\t// out\n        /* \"#utility.yul\":20876:20965   */\n    tag_445:\n        /* \"#utility.yul\":20912:20919   */\n      0x00\n        /* \"#utility.yul\":20952:20958   */\n      0xffff\n        /* \"#utility.yul\":20945:20950   */\n      dup3\n        /* \"#utility.yul\":20941:20959   */\n      and\n        /* \"#utility.yul\":20930:20959   */\n      swap1\n      pop\n        /* \"#utility.yul\":20876:20965   */\n      swap2\n      swap1\n      pop\n      jump\t// out\n        /* \"#utility.yul\":20971:21086   */\n    tag_446:\n        /* \"#utility.yul\":21056:21079   */\n      tag_683\n        /* \"#utility.yul\":21073:21078   */\n      dup2\n        /* \"#utility.yul\":21056:21079   */\n      tag_445\n      jump\t// in\n    tag_683:\n        /* \"#utility.yul\":21051:21054   */\n      dup3\n        /* \"#utility.yul\":21044:21080   */\n      mstore\n        /* \"#utility.yul\":20971:21086   */\n      pop\n      pop\n      jump\t// out\n        /* \"#utility.yul\":21092:21740   */\n    tag_157:\n        /* \"#utility.yul\":21289:21293   */\n      0x00\n        /* \"#utility.yul\":21327:21330   */\n      0xa0\n        /* \"#utility.yul\":21316:21325   */\n      dup3\n        /* \"#utility.yul\":21312:21331   */\n      add\n        /* \"#utility.yul\":21304:21331   */\n      swap1\n      pop\n        /* \"#utility.yul\":21341:21412   */\n      tag_685\n        /* \"#utility.yul\":21409:21410   */\n      0x00\n        /* \"#utility.yul\":21398:21407   */\n      dup4\n        /* \"#utility.yul\":21394:21411   */\n      add\n        /* \"#utility.yul\":21385:21391   */\n      dup9\n        /* \"#utility.yul\":21341:21412   */\n      tag_442\n      jump\t// in\n    tag_685:\n        /* \"#utility.yul\":21422:21492   */\n      tag_686\n        /* \"#utility.yul\":21488:21490   */\n      0x20\n        /* \"#utility.yul\":21477:21486   */\n      dup4\n        /* \"#utility.yul\":21473:21491   */\n      add\n        /* \"#utility.yul\":21464:21470   */\n      dup8\n        /* \"#utility.yul\":21422:21492   */\n      tag_444\n      jump\t// in\n    tag_686:\n        /* \"#utility.yul\":21502:21572   */\n      tag_687\n        /* \"#utility.yul\":21568:21570   */\n      0x40\n        /* \"#utility.yul\":21557:21566   */\n      dup4\n        /* \"#utility.yul\":21553:21571   */\n      add\n        /* \"#utility.yul\":21544:21550   */\n      dup7\n        /* \"#utility.yul\":21502:21572   */\n      tag_446\n      jump\t// in\n    tag_687:\n        /* \"#utility.yul\":21582:21652   */\n      tag_688\n        /* \"#utility.yul\":21648:21650   */\n      0x60\n        /* \"#utility.yul\":21637:21646   */\n      dup4\n        /* \"#utility.yul\":21633:21651   */\n      add\n        /* \"#utility.yul\":21624:21630   */\n      dup6\n        /* \"#utility.yul\":21582:21652   */\n      tag_426\n      jump\t// in\n    tag_688:\n        /* \"#utility.yul\":21662:21733   */\n      tag_689\n        /* \"#utility.yul\":21728:21731   */\n      0x80\n        /* \"#utility.yul\":21717:21726   */\n      dup4\n        /* \"#utility.yul\":21713:21732   */\n      add\n        /* \"#utility.yul\":21704:21710   */\n      dup5\n        /* \"#utility.yul\":21662:21733   */\n      tag_426\n      jump\t// in\n    tag_689:\n        /* \"#utility.yul\":21092:21740   */\n      swap7\n      swap6\n      pop\n      pop\n      pop\n      pop\n      pop\n      pop\n      jump\t// out\n        /* \"#utility.yul\":21746:21889   */\n    tag_447:\n        /* \"#utility.yul\":21803:21808   */\n      0x00\n        /* \"#utility.yul\":21834:21840   */\n      dup2\n        /* \"#utility.yul\":21828:21841   */\n      mload\n        /* \"#utility.yul\":21819:21841   */\n      swap1\n      pop\n        /* \"#utility.yul\":21850:21883   */\n      tag_691\n        /* \"#utility.yul\":21877:21882   */\n      dup2\n        /* \"#utility.yul\":21850:21883   */\n      tag_393\n      jump\t// in\n    tag_691:\n        /* \"#utility.yul\":21746:21889   */\n      swap3\n      swap2\n      pop\n      pop\n      jump\t// out\n        /* \"#utility.yul\":21895:22246   */\n    tag_161:\n        /* \"#utility.yul\":21965:21971   */\n      0x00\n        /* \"#utility.yul\":22014:22016   */\n      0x20\n        /* \"#utility.yul\":22002:22011   */\n      dup3\n        /* \"#utility.yul\":21993:22000   */\n      dup5\n        /* \"#utility.yul\":21989:22012   */\n      sub\n        /* \"#utility.yul\":21985:22017   */\n      slt\n        /* \"#utility.yul\":21982:22101   */\n      iszero\n      tag_693\n      jumpi\n        /* \"#utility.yul\":22020:22099   */\n      tag_694\n      tag_390\n      jump\t// in\n    tag_694:\n        /* \"#utility.yul\":21982:22101   */\n    tag_693:\n        /* \"#utility.yul\":22140:22141   */\n      0x00\n        /* \"#utility.yul\":22165:22229   */\n      tag_695\n        /* \"#utility.yul\":22221:22228   */\n      dup5\n        /* \"#utility.yul\":22212:22218   */\n      dup3\n        /* \"#utility.yul\":22201:22210   */\n      dup6\n        /* \"#utility.yul\":22197:22219   */\n      add\n        /* \"#utility.yul\":22165:22229   */\n      tag_447\n      jump\t// in\n    tag_695:\n        /* \"#utility.yul\":22155:22229   */\n      swap2\n      pop\n        /* \"#utility.yul\":22111:22239   */\n      pop\n        /* \"#utility.yul\":21895:22246   */\n      swap3\n      swap2\n      pop\n      pop\n      jump\t// out\n        /* \"#utility.yul\":22252:22414   */\n    tag_448:\n        /* \"#utility.yul\":22392:22406   */\n      0x696e76616c69642074696d650000000000000000000000000000000000000000\n        /* \"#utility.yul\":22388:22389   */\n      0x00\n        /* \"#utility.yul\":22380:22386   */\n      dup3\n        /* \"#utility.yul\":22376:22390   */\n      add\n        /* \"#utility.yul\":22369:22407   */\n      mstore\n        /* \"#utility.yul\":22252:22414   */\n      pop\n      jump\t// out\n        /* \"#utility.yul\":22420:22786   */\n    tag_449:\n        /* \"#utility.yul\":22562:22565   */\n      0x00\n        /* \"#utility.yul\":22583:22650   */\n      tag_698\n        /* \"#utility.yul\":22647:22649   */\n      0x0c\n        /* \"#utility.yul\":22642:22645   */\n      dup4\n        /* \"#utility.yul\":22583:22650   */\n      tag_430\n      jump\t// in\n    tag_698:\n        /* \"#utility.yul\":22576:22650   */\n      swap2\n      pop\n        /* \"#utility.yul\":22659:22752   */\n      tag_699\n        /* \"#utility.yul\":22748:22751   */\n      dup3\n        /* \"#utility.yul\":22659:22752   */\n      tag_448\n      jump\t// in\n    tag_699:\n        /* \"#utility.yul\":22777:22779   */\n      0x20\n        /* \"#utility.yul\":22772:22775   */\n      dup3\n        /* \"#utility.yul\":22768:22780   */\n      add\n        /* \"#utility.yul\":22761:22780   */\n      swap1\n      pop\n        /* \"#utility.yul\":22420:22786   */\n      swap2\n      swap1\n      pop\n      jump\t// out\n        /* \"#utility.yul\":22792:23211   */\n    tag_173:\n        /* \"#utility.yul\":22958:22962   */\n      0x00\n        /* \"#utility.yul\":22996:22998   */\n      0x20\n        /* \"#utility.yul\":22985:22994   */\n      dup3\n        /* \"#utility.yul\":22981:22999   */\n      add\n        /* \"#utility.yul\":22973:22999   */\n      swap1\n      pop\n        /* \"#utility.yul\":23045:23054   */\n      dup2\n        /* \"#utility.yul\":23039:23043   */\n      dup2\n        /* \"#utility.yul\":23035:23055   */\n      sub\n        /* \"#utility.yul\":23031:23032   */\n      0x00\n        /* \"#utility.yul\":23020:23029   */\n      dup4\n        /* \"#utility.yul\":23016:23033   */\n      add\n        /* \"#utility.yul\":23009:23056   */\n      mstore\n        /* \"#utility.yul\":23073:23204   */\n      tag_701\n        /* \"#utility.yul\":23199:23203   */\n      dup2\n        /* \"#utility.yul\":23073:23204   */\n      tag_449\n      jump\t// in\n    tag_701:\n        /* \"#utility.yul\":23065:23204   */\n      swap1\n      pop\n        /* \"#utility.yul\":22792:23211   */\n      swap2\n      swap1\n      pop\n      jump\t// out\n        /* \"#utility.yul\":23217:23381   */\n    tag_450:\n        /* \"#utility.yul\":23357:23373   */\n      0x696e76616c696420706172616d73000000000000000000000000000000000000\n        /* \"#utility.yul\":23353:23354   */\n      0x00\n        /* \"#utility.yul\":23345:23351   */\n      dup3\n        /* \"#utility.yul\":23341:23355   */\n      add\n        /* \"#utility.yul\":23334:23374   */\n      mstore\n        /* \"#utility.yul\":23217:23381   */\n      pop\n      jump\t// out\n        /* \"#utility.yul\":23387:23753   */\n    tag_451:\n        /* \"#utility.yul\":23529:23532   */\n      0x00\n        /* \"#utility.yul\":23550:23617   */\n      tag_704\n        /* \"#utility.yul\":23614:23616   */\n      0x0e\n        /* \"#utility.yul\":23609:23612   */\n      dup4\n        /* \"#utility.yul\":23550:23617   */\n      tag_430\n      jump\t// in\n    tag_704:\n        /* \"#utility.yul\":23543:23617   */\n      swap2\n      pop\n        /* \"#utility.yul\":23626:23719   */\n      tag_705\n        /* \"#utility.yul\":23715:23718   */\n      dup3\n        /* \"#utility.yul\":23626:23719   */\n      tag_450\n      jump\t// in\n    tag_705:\n        /* \"#utility.yul\":23744:23746   */\n      0x20\n        /* \"#utility.yul\":23739:23742   */\n      dup3\n        /* \"#utility.yul\":23735:23747   */\n      add\n        /* \"#utility.yul\":23728:23747   */\n      swap1\n      pop\n        /* \"#utility.yul\":23387:23753   */\n      swap2\n      swap1\n      pop\n      jump\t// out\n        /* \"#utility.yul\":23759:24178   */\n    tag_177:\n        /* \"#utility.yul\":23925:23929   */\n      0x00\n        /* \"#utility.yul\":23963:23965   */\n      0x20\n        /* \"#utility.yul\":23952:23961   */\n      dup3\n        /* \"#utility.yul\":23948:23966   */\n      add\n        /* \"#utility.yul\":23940:23966   */\n      swap1\n      pop\n        /* \"#utility.yul\":24012:24021   */\n      dup2\n        /* \"#utility.yul\":24006:24010   */\n      dup2\n        /* \"#utility.yul\":24002:24022   */\n      sub\n        /* \"#utility.yul\":23998:23999   */\n      0x00\n        /* \"#utility.yul\":23987:23996   */\n      dup4\n        /* \"#utility.yul\":23983:24000   */\n      add\n        /* \"#utility.yul\":23976:24023   */\n      mstore\n        /* \"#utility.yul\":24040:24171   */\n      tag_707\n        /* \"#utility.yul\":24166:24170   */\n      dup2\n        /* \"#utility.yul\":24040:24171   */\n      tag_451\n      jump\t// in\n    tag_707:\n        /* \"#utility.yul\":24032:24171   */\n      swap1\n      pop\n        /* \"#utility.yul\":23759:24178   */\n      swap2\n      swap1\n      pop\n      jump\t// out\n        /* \"#utility.yul\":24184:24347   */\n    tag_452:\n        /* \"#utility.yul\":24324:24339   */\n      0x696e76616c696420746f6b656e00000000000000000000000000000000000000\n        /* \"#utility.yul\":24320:24321   */\n      0x00\n        /* \"#utility.yul\":24312:24318   */\n      dup3\n        /* \"#utility.yul\":24308:24322   */\n      add\n        /* \"#utility.yul\":24301:24340   */\n      mstore\n        /* \"#utility.yul\":24184:24347   */\n      pop\n      jump\t// out\n        /* \"#utility.yul\":24353:24719   */\n    tag_453:\n        /* \"#utility.yul\":24495:24498   */\n      0x00\n        /* \"#utility.yul\":24516:24583   */\n      tag_710\n        /* \"#utility.yul\":24580:24582   */\n      0x0d\n        /* \"#utility.yul\":24575:24578   */\n      dup4\n        /* \"#utility.yul\":24516:24583   */\n      tag_430\n      jump\t// in\n    tag_710:\n        /* \"#utility.yul\":24509:24583   */\n      swap2\n      pop\n        /* \"#utility.yul\":24592:24685   */\n      tag_711\n        /* \"#utility.yul\":24681:24684   */\n      dup3\n        /* \"#utility.yul\":24592:24685   */\n      tag_452\n      jump\t// in\n    tag_711:\n        /* \"#utility.yul\":24710:24712   */\n      0x20\n        /* \"#utility.yul\":24705:24708   */\n      dup3\n        /* \"#utility.yul\":24701:24713   */\n      add\n        /* \"#utility.yul\":24694:24713   */\n      swap1\n      pop\n        /* \"#utility.yul\":24353:24719   */\n      swap2\n      swap1\n      pop\n      jump\t// out\n        /* \"#utility.yul\":24725:25144   */\n    tag_183:\n        /* \"#utility.yul\":24891:24895   */\n      0x00\n        /* \"#utility.yul\":24929:24931   */\n      0x20\n        /* \"#utility.yul\":24918:24927   */\n      dup3\n        /* \"#utility.yul\":24914:24932   */\n      add\n        /* \"#utility.yul\":24906:24932   */\n      swap1\n      pop\n        /* \"#utility.yul\":24978:24987   */\n      dup2\n        /* \"#utility.yul\":24972:24976   */\n      dup2\n        /* \"#utility.yul\":24968:24988   */\n      sub\n        /* \"#utility.yul\":24964:24965   */\n      0x00\n        /* \"#utility.yul\":24953:24962   */\n      dup4\n        /* \"#utility.yul\":24949:24966   */\n      add\n        /* \"#utility.yul\":24942:24989   */\n      mstore\n        /* \"#utility.yul\":25006:25137   */\n      tag_713\n        /* \"#utility.yul\":25132:25136   */\n      dup2\n        /* \"#utility.yul\":25006:25137   */\n      tag_453\n      jump\t// in\n    tag_713:\n        /* \"#utility.yul\":24998:25137   */\n      swap1\n      pop\n        /* \"#utility.yul\":24725:25144   */\n      swap2\n      swap1\n      pop\n      jump\t// out\n        /* \"#utility.yul\":25150:25383   */\n    tag_191:\n        /* \"#utility.yul\":25189:25192   */\n      0x00\n        /* \"#utility.yul\":25212:25236   */\n      tag_715\n        /* \"#utility.yul\":25230:25235   */\n      dup3\n        /* \"#utility.yul\":25212:25236   */\n      tag_392\n      jump\t// in\n    tag_715:\n        /* \"#utility.yul\":25203:25236   */\n      swap2\n      pop\n        /* \"#utility.yul\":25258:25324   */\n      0xffffffffffffffffffffffffffffffffffffffffffffffffffffffffffffffff\n        /* \"#utility.yul\":25251:25256   */\n      dup3\n        /* \"#utility.yul\":25248:25325   */\n      sub\n        /* \"#utility.yul\":25245:25348   */\n      tag_716\n      jumpi\n        /* \"#utility.yul\":25328:25346   */\n      tag_717\n      tag_429\n      jump\t// in\n    tag_717:\n        /* \"#utility.yul\":25245:25348   */\n    tag_716:\n        /* \"#utility.yul\":25375:25376   */\n      0x01\n        /* \"#utility.yul\":25368:25373   */\n      dup3\n        /* \"#utility.yul\":25364:25377   */\n      add\n        /* \"#utility.yul\":25357:25377   */\n      swap1\n      pop\n        /* \"#utility.yul\":25150:25383   */\n      swap2\n      swap1\n      pop\n      jump\t// out\n        /* \"#utility.yul\":25389:25552   */\n    tag_454:\n        /* \"#utility.yul\":25529:25544   */\n      0x696e76616c696420726174696f00000000000000000000000000000000000000\n        /* \"#utility.yul\":25525:25526   */\n      0x00\n        /* \"#utility.yul\":25517:25523   */\n      dup3\n        /* \"#utility.yul\":25513:25527   */\n      add\n        /* \"#utility.yul\":25506:25545   */\n      mstore\n        /* \"#utility.yul\":25389:25552   */\n      pop\n      jump\t// out\n        /* \"#utility.yul\":25558:25924   */\n    tag_455:\n        /* \"#utility.yul\":25700:25703   */\n      0x00\n        /* \"#utility.yul\":25721:25788   */\n      tag_720\n        /* \"#utility.yul\":25785:25787   */\n      0x0d\n        /* \"#utility.yul\":25780:25783   */\n      dup4\n        /* \"#utility.yul\":25721:25788   */\n      tag_430\n      jump\t// in\n    tag_720:\n        /* \"#utility.yul\":25714:25788   */\n      swap2\n      pop\n        /* \"#utility.yul\":25797:25890   */\n      tag_721\n        /* \"#utility.yul\":25886:25889   */\n      dup3\n        /* \"#utility.yul\":25797:25890   */\n      tag_454\n      jump\t// in\n    tag_721:\n        /* \"#utility.yul\":25915:25917   */\n      0x20\n        /* \"#utility.yul\":25910:25913   */\n      dup3\n        /* \"#utility.yul\":25906:25918   */\n      add\n        /* \"#utility.yul\":25899:25918   */\n      swap1\n      pop\n        /* \"#utility.yul\":25558:25924   */\n      swap2\n      swap1\n      pop\n      jump\t// out\n        /* \"#utility.yul\":25930:26349   */\n    tag_194:\n        /* \"#utility.yul\":26096:26100   */\n      0x00\n        /* \"#utility.yul\":26134:26136   */\n      0x20\n        /* \"#utility.yul\":26123:26132   */\n      dup3\n        /* \"#utility.yul\":26119:26137   */\n      add\n        /* \"#utility.yul\":26111:26137   */\n      swap1\n      pop\n        /* \"#utility.yul\":26183:26192   */\n      dup2\n        /* \"#utility.yul\":26177:26181   */\n      dup2\n        /* \"#utility.yul\":26173:26193   */\n      sub\n        /* \"#utility.yul\":26169:26170   */\n      0x00\n        /* \"#utility.yul\":26158:26167   */\n      dup4\n        /* \"#utility.yul\":26154:26171   */\n      add\n        /* \"#utility.yul\":26147:26194   */\n      mstore\n        /* \"#utility.yul\":26211:26342   */\n      tag_723\n        /* \"#utility.yul\":26337:26341   */\n      dup2\n        /* \"#utility.yul\":26211:26342   */\n      tag_455\n      jump\t// in\n    tag_723:\n        /* \"#utility.yul\":26203:26342   */\n      swap1\n      pop\n        /* \"#utility.yul\":25930:26349   */\n      swap2\n      swap1\n      pop\n      jump\t// out\n        /* \"#utility.yul\":26355:26527   */\n    tag_456:\n        /* \"#utility.yul\":26495:26519   */\n      0x4d7573742062652070726f706f736564206f776e657200000000000000000000\n        /* \"#utility.yul\":26491:26492   */\n      0x00\n        /* \"#utility.yul\":26483:26489   */\n      dup3\n        /* \"#utility.yul\":26479:26493   */\n      add\n        /* \"#utility.yul\":26472:26520   */\n      mstore\n        /* \"#utility.yul\":26355:26527   */\n      pop\n      jump\t// out\n        /* \"#utility.yul\":26533:26899   */\n    tag_457:\n        /* \"#utility.yul\":26675:26678   */\n      0x00\n        /* \"#utility.yul\":26696:26763   */\n      tag_726\n        /* \"#utility.yul\":26760:26762   */\n      0x16\n        /* \"#utility.yul\":26755:26758   */\n      dup4\n        /* \"#utility.yul\":26696:26763   */\n      tag_430\n      jump\t// in\n    tag_726:\n        /* \"#utility.yul\":26689:26763   */\n      swap2\n      pop\n        /* \"#utility.yul\":26772:26865   */\n      tag_727\n        /* \"#utility.yul\":26861:26864   */\n      dup3\n        /* \"#utility.yul\":26772:26865   */\n      tag_456\n      jump\t// in\n    tag_727:\n        /* \"#utility.yul\":26890:26892   */\n      0x20\n        /* \"#utility.yul\":26885:26888   */\n      dup3\n        /* \"#utility.yul\":26881:26893   */\n      add\n        /* \"#utility.yul\":26874:26893   */\n      swap1\n      pop\n        /* \"#utility.yul\":26533:26899   */\n      swap2\n      swap1\n      pop\n      jump\t// out\n        /* \"#utility.yul\":26905:27324   */\n    tag_202:\n        /* \"#utility.yul\":27071:27075   */\n      0x00\n        /* \"#utility.yul\":27109:27111   */\n      0x20\n        /* \"#utility.yul\":27098:27107   */\n      dup3\n        /* \"#utility.yul\":27094:27112   */\n      add\n        /* \"#utility.yul\":27086:27112   */\n      swap1\n      pop\n        /* \"#utility.yul\":27158:27167   */\n      dup2\n        /* \"#utility.yul\":27152:27156   */\n      dup2\n        /* \"#utility.yul\":27148:27168   */\n      sub\n        /* \"#utility.yul\":27144:27145   */\n      0x00\n        /* \"#utility.yul\":27133:27142   */\n      dup4\n        /* \"#utility.yul\":27129:27146   */\n      add\n        /* \"#utility.yul\":27122:27169   */\n      mstore\n        /* \"#utility.yul\":27186:27317   */\n      tag_729\n        /* \"#utility.yul\":27312:27316   */\n      dup2\n        /* \"#utility.yul\":27186:27317   */\n      tag_457\n      jump\t// in\n    tag_729:\n        /* \"#utility.yul\":27178:27317   */\n      swap1\n      pop\n        /* \"#utility.yul\":26905:27324   */\n      swap2\n      swap1\n      pop\n      jump\t// out\n        /* \"#utility.yul\":27330:27496   */\n    tag_458:\n        /* \"#utility.yul\":27470:27488   */\n      0x696e76616c6964207175616e7469747900000000000000000000000000000000\n        /* \"#utility.yul\":27466:27467   */\n      0x00\n        /* \"#utility.yul\":27458:27464   */\n      dup3\n        /* \"#utility.yul\":27454:27468   */\n      add\n        /* \"#utility.yul\":27447:27489   */\n      mstore\n        /* \"#utility.yul\":27330:27496   */\n      pop\n      jump\t// out\n        /* \"#utility.yul\":27502:27868   */\n    tag_459:\n        /* \"#utility.yul\":27644:27647   */\n      0x00\n        /* \"#utility.yul\":27665:27732   */\n      tag_732\n        /* \"#utility.yul\":27729:27731   */\n      0x10\n        /* \"#utility.yul\":27724:27727   */\n      dup4\n        /* \"#utility.yul\":27665:27732   */\n      tag_430\n      jump\t// in\n    tag_732:\n        /* \"#utility.yul\":27658:27732   */\n      swap2\n      pop\n        /* \"#utility.yul\":27741:27834   */\n      tag_733\n        /* \"#utility.yul\":27830:27833   */\n      dup3\n        /* \"#utility.yul\":27741:27834   */\n      tag_458\n      jump\t// in\n    tag_733:\n        /* \"#utility.yul\":27859:27861   */\n      0x20\n        /* \"#utility.yul\":27854:27857   */\n      dup3\n        /* \"#utility.yul\":27850:27862   */\n      add\n        /* \"#utility.yul\":27843:27862   */\n      swap1\n      pop\n        /* \"#utility.yul\":27502:27868   */\n      swap2\n      swap1\n      pop\n      jump\t// out\n        /* \"#utility.yul\":27874:28293   */\n    tag_214:\n        /* \"#utility.yul\":28040:28044   */\n      0x00\n        /* \"#utility.yul\":28078:28080   */\n      0x20\n        /* \"#utility.yul\":28067:28076   */\n      dup3\n        /* \"#utility.yul\":28063:28081   */\n      add\n        /* \"#utility.yul\":28055:28081   */\n      swap1\n      pop\n        /* \"#utility.yul\":28127:28136   */\n      dup2\n        /* \"#utility.yul\":28121:28125   */\n      dup2\n        /* \"#utility.yul\":28117:28137   */\n      sub\n        /* \"#utility.yul\":28113:28114   */\n      0x00\n        /* \"#utility.yul\":28102:28111   */\n      dup4\n        /* \"#utility.yul\":28098:28115   */\n      add\n        /* \"#utility.yul\":28091:28138   */\n      mstore\n        /* \"#utility.yul\":28155:28286   */\n      tag_735\n        /* \"#utility.yul\":28281:28285   */\n      dup2\n        /* \"#utility.yul\":28155:28286   */\n      tag_459\n      jump\t// in\n    tag_735:\n        /* \"#utility.yul\":28147:28286   */\n      swap1\n      pop\n        /* \"#utility.yul\":27874:28293   */\n      swap2\n      swap1\n      pop\n      jump\t// out\n        /* \"#utility.yul\":28299:28709   */\n    tag_220:\n        /* \"#utility.yul\":28339:28346   */\n      0x00\n        /* \"#utility.yul\":28362:28382   */\n      tag_737\n        /* \"#utility.yul\":28380:28381   */\n      dup3\n        /* \"#utility.yul\":28362:28382   */\n      tag_392\n      jump\t// in\n    tag_737:\n        /* \"#utility.yul\":28357:28382   */\n      swap2\n      pop\n        /* \"#utility.yul\":28396:28416   */\n      tag_738\n        /* \"#utility.yul\":28414:28415   */\n      dup4\n        /* \"#utility.yul\":28396:28416   */\n      tag_392\n      jump\t// in\n    tag_738:\n        /* \"#utility.yul\":28391:28416   */\n      swap3\n      pop\n        /* \"#utility.yul\":28451:28452   */\n      dup3\n        /* \"#utility.yul\":28448:28449   */\n      dup3\n        /* \"#utility.yul\":28444:28453   */\n      mul\n        /* \"#utility.yul\":28473:28503   */\n      tag_739\n        /* \"#utility.yul\":28491:28502   */\n      dup2\n        /* \"#utility.yul\":28473:28503   */\n      tag_392\n      jump\t// in\n    tag_739:\n        /* \"#utility.yul\":28462:28503   */\n      swap2\n      pop\n        /* \"#utility.yul\":28652:28653   */\n      dup3\n        /* \"#utility.yul\":28643:28650   */\n      dup3\n        /* \"#utility.yul\":28639:28654   */\n      div\n        /* \"#utility.yul\":28636:28637   */\n      dup5\n        /* \"#utility.yul\":28633:28655   */\n      eq\n        /* \"#utility.yul\":28613:28614   */\n      dup4\n        /* \"#utility.yul\":28606:28615   */\n      iszero\n        /* \"#utility.yul\":28586:28669   */\n      or\n        /* \"#utility.yul\":28563:28702   */\n      tag_740\n      jumpi\n        /* \"#utility.yul\":28682:28700   */\n      tag_741\n      tag_429\n      jump\t// in\n    tag_741:\n        /* \"#utility.yul\":28563:28702   */\n    tag_740:\n        /* \"#utility.yul\":28347:28709   */\n      pop\n        /* \"#utility.yul\":28299:28709   */\n      swap3\n      swap2\n      pop\n      pop\n      jump\t// out\n        /* \"#utility.yul\":28715:29157   */\n    tag_222:\n        /* \"#utility.yul\":28864:28868   */\n      0x00\n        /* \"#utility.yul\":28902:28904   */\n      0x60\n        /* \"#utility.yul\":28891:28900   */\n      dup3\n        /* \"#utility.yul\":28887:28905   */\n      add\n        /* \"#utility.yul\":28879:28905   */\n      swap1\n      pop\n        /* \"#utility.yul\":28915:28986   */\n      tag_743\n        /* \"#utility.yul\":28983:28984   */\n      0x00\n        /* \"#utility.yul\":28972:28981   */\n      dup4\n        /* \"#utility.yul\":28968:28985   */\n      add\n        /* \"#utility.yul\":28959:28965   */\n      dup7\n        /* \"#utility.yul\":28915:28986   */\n      tag_418\n      jump\t// in\n    tag_743:\n        /* \"#utility.yul\":28996:29068   */\n      tag_744\n        /* \"#utility.yul\":29064:29066   */\n      0x20\n        /* \"#utility.yul\":29053:29062   */\n      dup4\n        /* \"#utility.yul\":29049:29067   */\n      add\n        /* \"#utility.yul\":29040:29046   */\n      dup6\n        /* \"#utility.yul\":28996:29068   */\n      tag_418\n      jump\t// in\n    tag_744:\n        /* \"#utility.yul\":29078:29150   */\n      tag_745\n        /* \"#utility.yul\":29146:29148   */\n      0x40\n        /* \"#utility.yul\":29135:29144   */\n      dup4\n        /* \"#utility.yul\":29131:29149   */\n      add\n        /* \"#utility.yul\":29122:29128   */\n      dup5\n        /* \"#utility.yul\":29078:29150   */\n      tag_417\n      jump\t// in\n    tag_745:\n        /* \"#utility.yul\":28715:29157   */\n      swap5\n      swap4\n      pop\n      pop\n      pop\n      pop\n      jump\t// out\n        /* \"#utility.yul\":29163:29343   */\n    tag_460:\n        /* \"#utility.yul\":29211:29288   */\n      0x4e487b7100000000000000000000000000000000000000000000000000000000\n        /* \"#utility.yul\":29208:29209   */\n      0x00\n        /* \"#utility.yul\":29201:29289   */\n      mstore\n        /* \"#utility.yul\":29308:29312   */\n      0x12\n        /* \"#utility.yul\":29305:29306   */\n      0x04\n        /* \"#utility.yul\":29298:29313   */\n      mstore\n        /* \"#utility.yul\":29332:29336   */\n      0x24\n        /* \"#utility.yul\":29329:29330   */\n      0x00\n        /* \"#utility.yul\":29322:29337   */\n      revert\n        /* \"#utility.yul\":29349:29534   */\n    tag_268:\n        /* \"#utility.yul\":29389:29390   */\n      0x00\n        /* \"#utility.yul\":29406:29426   */\n      tag_748\n        /* \"#utility.yul\":29424:29425   */\n      dup3\n        /* \"#utility.yul\":29406:29426   */\n      tag_392\n      jump\t// in\n    tag_748:\n        /* \"#utility.yul\":29401:29426   */\n      swap2\n      pop\n        /* \"#utility.yul\":29440:29460   */\n      tag_749\n        /* \"#utility.yul\":29458:29459   */\n      dup4\n        /* \"#utility.yul\":29440:29460   */\n      tag_392\n      jump\t// in\n    tag_749:\n        /* \"#utility.yul\":29435:29460   */\n      swap3\n      pop\n        /* \"#utility.yul\":29479:29480   */\n      dup3\n        /* \"#utility.yul\":29469:29504   */\n      tag_750\n      jumpi\n        /* \"#utility.yul\":29484:29502   */\n      tag_751\n      tag_460\n      jump\t// in\n    tag_751:\n        /* \"#utility.yul\":29469:29504   */\n    tag_750:\n        /* \"#utility.yul\":29526:29527   */\n      dup3\n        /* \"#utility.yul\":29523:29524   */\n      dup3\n        /* \"#utility.yul\":29519:29528   */\n      div\n        /* \"#utility.yul\":29514:29528   */\n      swap1\n      pop\n        /* \"#utility.yul\":29349:29534   */\n      swap3\n      swap2\n      pop\n      pop\n      jump\t// out\n        /* \"#utility.yul\":29540:29699   */\n    tag_461:\n        /* \"#utility.yul\":29680:29691   */\n      0x6e6f20726573756c740000000000000000000000000000000000000000000000\n        /* \"#utility.yul\":29676:29677   */\n      0x00\n        /* \"#utility.yul\":29668:29674   */\n      dup3\n        /* \"#utility.yul\":29664:29678   */\n      add\n        /* \"#utility.yul\":29657:29692   */\n      mstore\n        /* \"#utility.yul\":29540:29699   */\n      pop\n      jump\t// out\n        /* \"#utility.yul\":29705:30070   */\n    tag_462:\n        /* \"#utility.yul\":29847:29850   */\n      0x00\n        /* \"#utility.yul\":29868:29934   */\n      tag_754\n        /* \"#utility.yul\":29932:29933   */\n      0x09\n        /* \"#utility.yul\":29927:29930   */\n      dup4\n        /* \"#utility.yul\":29868:29934   */\n      tag_430\n      jump\t// in\n    tag_754:\n        /* \"#utility.yul\":29861:29934   */\n      swap2\n      pop\n        /* \"#utility.yul\":29943:30036   */\n      tag_755\n        /* \"#utility.yul\":30032:30035   */\n      dup3\n        /* \"#utility.yul\":29943:30036   */\n      tag_461\n      jump\t// in\n    tag_755:\n        /* \"#utility.yul\":30061:30063   */\n      0x20\n        /* \"#utility.yul\":30056:30059   */\n      dup3\n        /* \"#utility.yul\":30052:30064   */\n      add\n        /* \"#utility.yul\":30045:30064   */\n      swap1\n      pop\n        /* \"#utility.yul\":29705:30070   */\n      swap2\n      swap1\n      pop\n      jump\t// out\n        /* \"#utility.yul\":30076:30495   */\n    tag_291:\n        /* \"#utility.yul\":30242:30246   */\n      0x00\n        /* \"#utility.yul\":30280:30282   */\n      0x20\n        /* \"#utility.yul\":30269:30278   */\n      dup3\n        /* \"#utility.yul\":30265:30283   */\n      add\n        /* \"#utility.yul\":30257:30283   */\n      swap1\n      pop\n        /* \"#utility.yul\":30329:30338   */\n      dup2\n        /* \"#utility.yul\":30323:30327   */\n      dup2\n        /* \"#utility.yul\":30319:30339   */\n      sub\n        /* \"#utility.yul\":30315:30316   */\n      0x00\n        /* \"#utility.yul\":30304:30313   */\n      dup4\n        /* \"#utility.yul\":30300:30317   */\n      add\n        /* \"#utility.yul\":30293:30340   */\n      mstore\n        /* \"#utility.yul\":30357:30488   */\n      tag_757\n        /* \"#utility.yul\":30483:30487   */\n      dup2\n        /* \"#utility.yul\":30357:30488   */\n      tag_462\n      jump\t// in\n    tag_757:\n        /* \"#utility.yul\":30349:30488   */\n      swap1\n      pop\n        /* \"#utility.yul\":30076:30495   */\n      swap2\n      swap1\n      pop\n      jump\t// out\n        /* \"#utility.yul\":30501:30677   */\n    tag_303:\n        /* \"#utility.yul\":30533:30534   */\n      0x00\n        /* \"#utility.yul\":30550:30570   */\n      tag_759\n        /* \"#utility.yul\":30568:30569   */\n      dup3\n        /* \"#utility.yul\":30550:30570   */\n      tag_392\n      jump\t// in\n    tag_759:\n        /* \"#utility.yul\":30545:30570   */\n      swap2\n      pop\n        /* \"#utility.yul\":30584:30604   */\n      tag_760\n        /* \"#utility.yul\":30602:30603   */\n      dup4\n        /* \"#utility.yul\":30584:30604   */\n      tag_392\n      jump\t// in\n    tag_760:\n        /* \"#utility.yul\":30579:30604   */\n      swap3\n      pop\n        /* \"#utility.yul\":30623:30624   */\n      dup3\n        /* \"#utility.yul\":30613:30648   */\n      tag_761\n      jumpi\n        /* \"#utility.yul\":30628:30646   */\n      tag_762\n      tag_460\n      jump\t// in\n    tag_762:\n        /* \"#utility.yul\":30613:30648   */\n    tag_761:\n        /* \"#utility.yul\":30669:30670   */\n      dup3\n        /* \"#utility.yul\":30666:30667   */\n      dup3\n        /* \"#utility.yul\":30662:30671   */\n      mod\n        /* \"#utility.yul\":30657:30671   */\n      swap1\n      pop\n        /* \"#utility.yul\":30501:30677   */\n      swap3\n      swap2\n      pop\n      pop\n      jump\t// out\n        /* \"#utility.yul\":30683:30850   */\n    tag_463:\n        /* \"#utility.yul\":30823:30842   */\n      0x72657175657374206e6f7420666f756e64000000000000000000000000000000\n        /* \"#utility.yul\":30819:30820   */\n      0x00\n        /* \"#utility.yul\":30811:30817   */\n      dup3\n        /* \"#utility.yul\":30807:30821   */\n      add\n        /* \"#utility.yul\":30800:30843   */\n      mstore\n        /* \"#utility.yul\":30683:30850   */\n      pop\n      jump\t// out\n        /* \"#utility.yul\":30856:31222   */\n    tag_464:\n        /* \"#utility.yul\":30998:31001   */\n      0x00\n        /* \"#utility.yul\":31019:31086   */\n      tag_765\n        /* \"#utility.yul\":31083:31085   */\n      0x11\n        /* \"#utility.yul\":31078:31081   */\n      dup4\n        /* \"#utility.yul\":31019:31086   */\n      tag_430\n      jump\t// in\n    tag_765:\n        /* \"#utility.yul\":31012:31086   */\n      swap2\n      pop\n        /* \"#utility.yul\":31095:31188   */\n      tag_766\n        /* \"#utility.yul\":31184:31187   */\n      dup3\n        /* \"#utility.yul\":31095:31188   */\n      tag_463\n      jump\t// in\n    tag_766:\n        /* \"#utility.yul\":31213:31215   */\n      0x20\n        /* \"#utility.yul\":31208:31211   */\n      dup3\n        /* \"#utility.yul\":31204:31216   */\n      add\n        /* \"#utility.yul\":31197:31216   */\n      swap1\n      pop\n        /* \"#utility.yul\":30856:31222   */\n      swap2\n      swap1\n      pop\n      jump\t// out\n        /* \"#utility.yul\":31228:31647   */\n    tag_350:\n        /* \"#utility.yul\":31394:31398   */\n      0x00\n        /* \"#utility.yul\":31432:31434   */\n      0x20\n        /* \"#utility.yul\":31421:31430   */\n      dup3\n        /* \"#utility.yul\":31417:31435   */\n      add\n        /* \"#utility.yul\":31409:31435   */\n      swap1\n      pop\n        /* \"#utility.yul\":31481:31490   */\n      dup2\n        /* \"#utility.yul\":31475:31479   */\n      dup2\n        /* \"#utility.yul\":31471:31491   */\n      sub\n        /* \"#utility.yul\":31467:31468   */\n      0x00\n        /* \"#utility.yul\":31456:31465   */\n      dup4\n        /* \"#utility.yul\":31452:31469   */\n      add\n        /* \"#utility.yul\":31445:31492   */\n      mstore\n        /* \"#utility.yul\":31509:31640   */\n      tag_768\n        /* \"#utility.yul\":31635:31639   */\n      dup2\n        /* \"#utility.yul\":31509:31640   */\n      tag_464\n      jump\t// in\n    tag_768:\n        /* \"#utility.yul\":31501:31640   */\n      swap1\n      pop\n        /* \"#utility.yul\":31228:31647   */\n      swap2\n      swap1\n      pop\n      jump\t// out\n        /* \"#utility.yul\":31653:31825   */\n    tag_465:\n        /* \"#utility.yul\":31793:31817   */\n      0x4f6e6c792063616c6c61626c65206279206f776e657200000000000000000000\n        /* \"#utility.yul\":31789:31790   */\n      0x00\n        /* \"#utility.yul\":31781:31787   */\n      dup3\n        /* \"#utility.yul\":31777:31791   */\n      add\n        /* \"#utility.yul\":31770:31818   */\n      mstore\n        /* \"#utility.yul\":31653:31825   */\n      pop\n      jump\t// out\n        /* \"#utility.yul\":31831:32197   */\n    tag_466:\n        /* \"#utility.yul\":31973:31976   */\n      0x00\n        /* \"#utility.yul\":31994:32061   */\n      tag_771\n        /* \"#utility.yul\":32058:32060   */\n      0x16\n        /* \"#utility.yul\":32053:32056   */\n      dup4\n        /* \"#utility.yul\":31994:32061   */\n      tag_430\n      jump\t// in\n    tag_771:\n        /* \"#utility.yul\":31987:32061   */\n      swap2\n      pop\n        /* \"#utility.yul\":32070:32163   */\n      tag_772\n        /* \"#utility.yul\":32159:32162   */\n      dup3\n        /* \"#utility.yul\":32070:32163   */\n      tag_465\n      jump\t// in\n    tag_772:\n        /* \"#utility.yul\":32188:32190   */\n      0x20\n        /* \"#utility.yul\":32183:32186   */\n      dup3\n        /* \"#utility.yul\":32179:32191   */\n      add\n        /* \"#utility.yul\":32172:32191   */\n      swap1\n      pop\n        /* \"#utility.yul\":31831:32197   */\n      swap2\n      swap1\n      pop\n      jump\t// out\n        /* \"#utility.yul\":32203:32622   */\n    tag_361:\n        /* \"#utility.yul\":32369:32373   */\n      0x00\n        /* \"#utility.yul\":32407:32409   */\n      0x20\n        /* \"#utility.yul\":32396:32405   */\n      dup3\n        /* \"#utility.yul\":32392:32410   */\n      add\n        /* \"#utility.yul\":32384:32410   */\n      swap1\n      pop\n        /* \"#utility.yul\":32456:32465   */\n      dup2\n        /* \"#utility.yul\":32450:32454   */\n      dup2\n        /* \"#utility.yul\":32446:32466   */\n      sub\n        /* \"#utility.yul\":32442:32443   */\n      0x00\n        /* \"#utility.yul\":32431:32440   */\n      dup4\n        /* \"#utility.yul\":32427:32444   */\n      add\n        /* \"#utility.yul\":32420:32467   */\n      mstore\n        /* \"#utility.yul\":32484:32615   */\n      tag_774\n        /* \"#utility.yul\":32610:32614   */\n      dup2\n        /* \"#utility.yul\":32484:32615   */\n      tag_466\n      jump\t// in\n    tag_774:\n        /* \"#utility.yul\":32476:32615   */\n      swap1\n      pop\n        /* \"#utility.yul\":32203:32622   */\n      swap2\n      swap1\n      pop\n      jump\t// out\n        /* \"#utility.yul\":32628:32787   */\n    tag_467:\n        /* \"#utility.yul\":32768:32779   */\n      0x66756c66696c6c65640000000000000000000000000000000000000000000000\n        /* \"#utility.yul\":32764:32765   */\n      0x00\n        /* \"#utility.yul\":32756:32762   */\n      dup3\n        /* \"#utility.yul\":32752:32766   */\n      add\n        /* \"#utility.yul\":32745:32780   */\n      mstore\n        /* \"#utility.yul\":32628:32787   */\n      pop\n      jump\t// out\n        /* \"#utility.yul\":32793:33158   */\n    tag_468:\n        /* \"#utility.yul\":32935:32938   */\n      0x00\n        /* \"#utility.yul\":32956:33022   */\n      tag_777\n        /* \"#utility.yul\":33020:33021   */\n      0x09\n        /* \"#utility.yul\":33015:33018   */\n      dup4\n        /* \"#utility.yul\":32956:33022   */\n      tag_430\n      jump\t// in\n    tag_777:\n        /* \"#utility.yul\":32949:33022   */\n      swap2\n      pop\n        /* \"#utility.yul\":33031:33124   */\n      tag_778\n        /* \"#utility.yul\":33120:33123   */\n      dup3\n        /* \"#utility.yul\":33031:33124   */\n      tag_467\n      jump\t// in\n    tag_778:\n        /* \"#utility.yul\":33149:33151   */\n      0x20\n        /* \"#utility.yul\":33144:33147   */\n      dup3\n        /* \"#utility.yul\":33140:33152   */\n      add\n        /* \"#utility.yul\":33133:33152   */\n      swap1\n      pop\n        /* \"#utility.yul\":32793:33158   */\n      swap2\n      swap1\n      pop\n      jump\t// out\n        /* \"#utility.yul\":33164:33583   */\n    tag_367:\n        /* \"#utility.yul\":33330:33334   */\n      0x00\n        /* \"#utility.yul\":33368:33370   */\n      0x20\n        /* \"#utility.yul\":33357:33366   */\n      dup3\n        /* \"#utility.yul\":33353:33371   */\n      add\n        /* \"#utility.yul\":33345:33371   */\n      swap1\n      pop\n        /* \"#utility.yul\":33417:33426   */\n      dup2\n        /* \"#utility.yul\":33411:33415   */\n      dup2\n        /* \"#utility.yul\":33407:33427   */\n      sub\n        /* \"#utility.yul\":33403:33404   */\n      0x00\n        /* \"#utility.yul\":33392:33401   */\n      dup4\n        /* \"#utility.yul\":33388:33405   */\n      add\n        /* \"#utility.yul\":33381:33428   */\n      mstore\n        /* \"#utility.yul\":33445:33576   */\n      tag_780\n        /* \"#utility.yul\":33571:33575   */\n      dup2\n        /* \"#utility.yul\":33445:33576   */\n      tag_468\n      jump\t// in\n    tag_780:\n        /* \"#utility.yul\":33437:33576   */\n      swap1\n      pop\n        /* \"#utility.yul\":33164:33583   */\n      swap2\n      swap1\n      pop\n      jump\t// out\n        /* \"#utility.yul\":33589:34072   */\n    tag_370:\n        /* \"#utility.yul\":33760:33764   */\n      0x00\n        /* \"#utility.yul\":33798:33800   */\n      0x40\n        /* \"#utility.yul\":33787:33796   */\n      dup3\n        /* \"#utility.yul\":33783:33801   */\n      add\n        /* \"#utility.yul\":33775:33801   */\n      swap1\n      pop\n        /* \"#utility.yul\":33811:33882   */\n      tag_782\n        /* \"#utility.yul\":33879:33880   */\n      0x00\n        /* \"#utility.yul\":33868:33877   */\n      dup4\n        /* \"#utility.yul\":33864:33881   */\n      add\n        /* \"#utility.yul\":33855:33861   */\n      dup6\n        /* \"#utility.yul\":33811:33882   */\n      tag_417\n      jump\t// in\n    tag_782:\n        /* \"#utility.yul\":33929:33938   */\n      dup2\n        /* \"#utility.yul\":33923:33927   */\n      dup2\n        /* \"#utility.yul\":33919:33939   */\n      sub\n        /* \"#utility.yul\":33914:33916   */\n      0x20\n        /* \"#utility.yul\":33903:33912   */\n      dup4\n        /* \"#utility.yul\":33899:33917   */\n      add\n        /* \"#utility.yul\":33892:33940   */\n      mstore\n        /* \"#utility.yul\":33957:34065   */\n      tag_783\n        /* \"#utility.yul\":34060:34064   */\n      dup2\n        /* \"#utility.yul\":34051:34057   */\n      dup5\n        /* \"#utility.yul\":33957:34065   */\n      tag_409\n      jump\t// in\n    tag_783:\n        /* \"#utility.yul\":33949:34065   */\n      swap1\n      pop\n        /* \"#utility.yul\":33589:34072   */\n      swap4\n      swap3\n      pop\n      pop\n      pop\n      jump\t// out\n        /* \"#utility.yul\":34078:34259   */\n    tag_469:\n        /* \"#utility.yul\":34218:34251   */\n      0x5265656e7472616e637947756172643a207265656e7472616e742063616c6c00\n        /* \"#utility.yul\":34214:34215   */\n      0x00\n        /* \"#utility.yul\":34206:34212   */\n      dup3\n        /* \"#utility.yul\":34202:34216   */\n      add\n        /* \"#utility.yul\":34195:34252   */\n      mstore\n        /* \"#utility.yul\":34078:34259   */\n      pop\n      jump\t// out\n        /* \"#utility.yul\":34265:34631   */\n    tag_470:\n        /* \"#utility.yul\":34407:34410   */\n      0x00\n        /* \"#utility.yul\":34428:34495   */\n      tag_786\n        /* \"#utility.yul\":34492:34494   */\n      0x1f\n        /* \"#utility.yul\":34487:34490   */\n      dup4\n        /* \"#utility.yul\":34428:34495   */\n      tag_430\n      jump\t// in\n    tag_786:\n        /* \"#utility.yul\":34421:34495   */\n      swap2\n      pop\n        /* \"#utility.yul\":34504:34597   */\n      tag_787\n        /* \"#utility.yul\":34593:34596   */\n      dup3\n        /* \"#utility.yul\":34504:34597   */\n      tag_469\n      jump\t// in\n    tag_787:\n        /* \"#utility.yul\":34622:34624   */\n      0x20\n        /* \"#utility.yul\":34617:34620   */\n      dup3\n        /* \"#utility.yul\":34613:34625   */\n      add\n        /* \"#utility.yul\":34606:34625   */\n      swap1\n      pop\n        /* \"#utility.yul\":34265:34631   */\n      swap2\n      swap1\n      pop\n      jump\t// out\n        /* \"#utility.yul\":34637:35056   */\n    tag_374:\n        /* \"#utility.yul\":34803:34807   */\n      0x00\n        /* \"#utility.yul\":34841:34843   */\n      0x20\n        /* \"#utility.yul\":34830:34839   */\n      dup3\n        /* \"#utility.yul\":34826:34844   */\n      add\n        /* \"#utility.yul\":34818:34844   */\n      swap1\n      pop\n        /* \"#utility.yul\":34890:34899   */\n      dup2\n        /* \"#utility.yul\":34884:34888   */\n      dup2\n        /* \"#utility.yul\":34880:34900   */\n      sub\n        /* \"#utility.yul\":34876:34877   */\n      0x00\n        /* \"#utility.yul\":34865:34874   */\n      dup4\n        /* \"#utility.yul\":34861:34878   */\n      add\n        /* \"#utility.yul\":34854:34901   */\n      mstore\n        /* \"#utility.yul\":34918:35049   */\n      tag_789\n        /* \"#utility.yul\":35044:35048   */\n      dup2\n        /* \"#utility.yul\":34918:35049   */\n      tag_470\n      jump\t// in\n    tag_789:\n        /* \"#utility.yul\":34910:35049   */\n      swap1\n      pop\n        /* \"#utility.yul\":34637:35056   */\n      swap2\n      swap1\n      pop\n      jump\t// out\n        /* \"#utility.yul\":35062:35235   */\n    tag_471:\n        /* \"#utility.yul\":35202:35227   */\n      0x43616e6e6f74207472616e7366657220746f2073656c66000000000000000000\n        /* \"#utility.yul\":35198:35199   */\n      0x00\n        /* \"#utility.yul\":35190:35196   */\n      dup3\n        /* \"#utility.yul\":35186:35200   */\n      add\n        /* \"#utility.yul\":35179:35228   */\n      mstore\n        /* \"#utility.yul\":35062:35235   */\n      pop\n      jump\t// out\n        /* \"#utility.yul\":35241:35607   */\n    tag_472:\n        /* \"#utility.yul\":35383:35386   */\n      0x00\n        /* \"#utility.yul\":35404:35471   */\n      tag_792\n        /* \"#utility.yul\":35468:35470   */\n      0x17\n        /* \"#utility.yul\":35463:35466   */\n      dup4\n        /* \"#utility.yul\":35404:35471   */\n      tag_430\n      jump\t// in\n    tag_792:\n        /* \"#utility.yul\":35397:35471   */\n      swap2\n      pop\n        /* \"#utility.yul\":35480:35573   */\n      tag_793\n        /* \"#utility.yul\":35569:35572   */\n      dup3\n        /* \"#utility.yul\":35480:35573   */\n      tag_471\n      jump\t// in\n    tag_793:\n        /* \"#utility.yul\":35598:35600   */\n      0x20\n        /* \"#utility.yul\":35593:35596   */\n      dup3\n        /* \"#utility.yul\":35589:35601   */\n      add\n        /* \"#utility.yul\":35582:35601   */\n      swap1\n      pop\n        /* \"#utility.yul\":35241:35607   */\n      swap2\n      swap1\n      pop\n      jump\t// out\n        /* \"#utility.yul\":35613:36032   */\n    tag_381:\n        /* \"#utility.yul\":35779:35783   */\n      0x00\n        /* \"#utility.yul\":35817:35819   */\n      0x20\n        /* \"#utility.yul\":35806:35815   */\n      dup3\n        /* \"#utility.yul\":35802:35820   */\n      add\n        /* \"#utility.yul\":35794:35820   */\n      swap1\n      pop\n        /* \"#utility.yul\":35866:35875   */\n      dup2\n        /* \"#utility.yul\":35860:35864   */\n      dup2\n        /* \"#utility.yul\":35856:35876   */\n      sub\n        /* \"#utility.yul\":35852:35853   */\n      0x00\n        /* \"#utility.yul\":35841:35850   */\n      dup4\n        /* \"#utility.yul\":35837:35854   */\n      add\n        /* \"#utility.yul\":35830:35877   */\n      mstore\n        /* \"#utility.yul\":35894:36025   */\n      tag_795\n        /* \"#utility.yul\":36020:36024   */\n      dup2\n        /* \"#utility.yul\":35894:36025   */\n      tag_472\n      jump\t// in\n    tag_795:\n        /* \"#utility.yul\":35886:36025   */\n      swap1\n      pop\n        /* \"#utility.yul\":35613:36032   */\n      swap2\n      swap1\n      pop\n      jump\t// out\n\n    auxdata: 0xa2646970667358221220f182bc8ab63e4d84d0036d0e343e9815ae3ce280021b0bb2ed3fe5296cef988f64736f6c63430008110033\n}\n",
				"bytecode": {
					"linkReferences": {},
					"object": "60a060405262278d006003557fd4bb89654db74673a187bd804519e65e3f71a52bc55f11da7601a13dcf50531460001b600655620f4240600760006101000a81548163ffffffff021916908363ffffffff1602179055506003600760046101000a81548161ffff021916908361ffff1602179055503480156200008157600080fd5b5060405162003a9c38038062003a9c8339818101604052810190620000a79190620003f7565b33806000736a2aad07396b36fe02a22b33cf443582f682c82f8073ffffffffffffffffffffffffffffffffffffffff1660808173ffffffffffffffffffffffffffffffffffffffff168152505050600073ffffffffffffffffffffffffffffffffffffffff168273ffffffffffffffffffffffffffffffffffffffff160362000167576040517f08c379a00000000000000000000000000000000000000000000000000000000081526004016200015e906200048a565b60405180910390fd5b816000806101000a81548173ffffffffffffffffffffffffffffffffffffffff021916908373ffffffffffffffffffffffffffffffffffffffff160217905550600073ffffffffffffffffffffffffffffffffffffffff168173ffffffffffffffffffffffffffffffffffffffff1614620001ee57620001ed816200027e60201b60201c565b5b5050506001600281905550736a2aad07396b36fe02a22b33cf443582f682c82f600a60006101000a81548173ffffffffffffffffffffffffffffffffffffffff021916908373ffffffffffffffffffffffffffffffffffffffff16021790555080600460006101000a81548167ffffffffffffffff021916908367ffffffffffffffff160217905550506200051e565b3373ffffffffffffffffffffffffffffffffffffffff168173ffffffffffffffffffffffffffffffffffffffff1603620002ef576040517f08c379a0000000000000000000000000000000000000000000000000000000008152600401620002e690620004fc565b60405180910390fd5b80600160006101000a81548173ffffffffffffffffffffffffffffffffffffffff021916908373ffffffffffffffffffffffffffffffffffffffff1602179055508073ffffffffffffffffffffffffffffffffffffffff1660008054906101000a900473ffffffffffffffffffffffffffffffffffffffff1673ffffffffffffffffffffffffffffffffffffffff167fed8889f560326eb138920d842192f0eb3dd22b4f139c87a2c57538e05bae127860405160405180910390a350565b600080fd5b600067ffffffffffffffff82169050919050565b620003d181620003b2565b8114620003dd57600080fd5b50565b600081519050620003f181620003c6565b92915050565b60006020828403121562000410576200040f620003ad565b5b60006200042084828501620003e0565b91505092915050565b600082825260208201905092915050565b7f43616e6e6f7420736574206f776e657220746f207a65726f0000000000000000600082015250565b60006200047260188362000429565b91506200047f826200043a565b602082019050919050565b60006020820190508181036000830152620004a58162000463565b9050919050565b7f43616e6e6f74207472616e7366657220746f2073656c66000000000000000000600082015250565b6000620004e460178362000429565b9150620004f182620004ac565b602082019050919050565b600060208201905081810360008301526200051781620004d5565b9050919050565b60805161355b6200054160003960008181610339015261038d015261355b6000f3fe608060405234801561001057600080fd5b50600436106101005760003560e01c806379e66b4611610097578063a57d156011610066578063a57d156014610281578063a65e2cfd146102bc578063d8a4676f146102d8578063f2fde38b1461030957610100565b806379e66b46146101e757806386ca3936146102035780638da5cb5b14610233578063a2fb11751461025157610100565b8063379607f5116100d3578063379607f5146101895780633b304147146101a55780634c947ded146101c157806379ba5097146101dd57610100565b80631b08af49146101055780631fe543e31461012157806328bd0a3d1461013d5780632e1a7d4d1461016d575b600080fd5b61011f600480360381019061011a919061239d565b610325565b005b61013b60048036038101906101369190612523565b610337565b005b6101576004803603810190610152919061239d565b6103f7565b604051610164919061263d565b60405180910390f35b6101876004803603810190610182919061239d565b6104b1565b005b6101a3600480360381019061019e919061239d565b61060f565b005b6101bf60048036038101906101ba919061239d565b6108ed565b005b6101db60048036038101906101d691906126f9565b610bc8565b005b6101e5610f15565b005b61020160048036038101906101fc91906127b7565b6110aa565b005b61021d6004803603810190610218919061239d565b611545565b60405161022a9190612806565b60405180910390f35b61023b6117c4565b6040516102489190612830565b60405180910390f35b61026b6004803603810190610266919061239d565b6117ed565b6040516102789190612909565b60405180910390f35b61029b6004803603810190610296919061239d565b611b39565b6040516102b39c9b9a99989796959493929190612955565b60405180910390f35b6102d660048036038101906102d191906127b7565b611c86565b005b6102f260048036038101906102ed919061239d565b611df5565b604051610300929190612a16565b60405180910390f35b610323600480360381019061031e9190612a46565b611f2a565b005b61032d611f3e565b8060038190555050565b7f000000000000000000000000000000000000000000000000000000000000000073ffffffffffffffffffffffffffffffffffffffff163373ffffffffffffffffffffffffffffffffffffffff16146103e957337f00000000000000000000000000000000000000000000000000000000000000006040517f1cf993f40000000000000000000000000000000000000000000000000000000081526004016103e0929190612a73565b60405180910390fd5b6103f38282611fce565b5050565b60606008828154811061040d5761040c612a9c565b5b90600052602060002090600f020160080160003373ffffffffffffffffffffffffffffffffffffffff1673ffffffffffffffffffffffffffffffffffffffff1681526020019081526020016000208054806020026020016040519081016040528092919081815260200182805480156104a557602002820191906000526020600020905b815481526020019060010190808311610491575b50505050509050919050565b6104b9611f3e565b6104c1612142565b6000600882815481106104d7576104d6612a9c565b5b90600052602060002090600f0201905060035481600c01546104f99190612afa565b421161053a576040517f08c379a000000000000000000000000000000000000000000000000000000000815260040161053190612b8b565b60405180910390fd5b60008160010160009054906101000a900473ffffffffffffffffffffffffffffffffffffffff1690508073ffffffffffffffffffffffffffffffffffffffff1663a9059cbb33846003015485600201546105949190612bab565b6040518363ffffffff1660e01b81526004016105b1929190612bdf565b6020604051808303816000875af11580156105d0573d6000803e3d6000fd5b505050506040513d601f19601f820116820180604052508101906105f49190612c34565b5081600201548260030181905550505061060c61218f565b50565b610617612142565b60006008828154811061062d5761062c612a9c565b5b90600052602060002090600f0201905060008160080160003373ffffffffffffffffffffffffffffffffffffffff1673ffffffffffffffffffffffffffffffffffffffff168152602001908152602001600020805490501180156106dd575080600d0160003373ffffffffffffffffffffffffffffffffffffffff1673ffffffffffffffffffffffffffffffffffffffff16815260200190815260200160002060009054906101000a900460ff16155b61071c576040517f08c379a000000000000000000000000000000000000000000000000000000000815260040161071390612cad565b60405180910390fd5b600061072783611545565b9050808260030154836002015461073e9190612bab565b1161077e576040517f08c379a000000000000000000000000000000000000000000000000000000000815260040161077590612d19565b60405180910390fd5b60008260010160009054906101000a900473ffffffffffffffffffffffffffffffffffffffff1690508073ffffffffffffffffffffffffffffffffffffffff1663a9059cbb33846040518363ffffffff1660e01b81526004016107e2929190612bdf565b6020604051808303816000875af1158015610801573d6000803e3d6000fd5b505050506040513d601f19601f820116820180604052508101906108259190612c34565b508183600301600082825461083a9190612afa565b92505081905550600183600d0160003373ffffffffffffffffffffffffffffffffffffffff1673ffffffffffffffffffffffffffffffffffffffff16815260200190815260200160002060006101000a81548160ff0219169083151502179055503373ffffffffffffffffffffffffffffffffffffffff16847f6aa3eac93d079e5e100b1029be716caa33586c96aa4baac390669fb5c2a2121260405160405180910390a35050506108ea61218f565b50565b60006008828154811061090357610902612a9c565b5b90600052602060002090600f0201905080600c01544211610959576040517f08c379a000000000000000000000000000000000000000000000000000000000815260040161095090612b8b565b60405180910390fd5b600081600a0154146109a0576040517f08c379a000000000000000000000000000000000000000000000000000000000815260040161099790612d85565b60405180910390fd5b600a60009054906101000a900473ffffffffffffffffffffffffffffffffffffffff1673ffffffffffffffffffffffffffffffffffffffff16635d3b1d30600654600460009054906101000a900467ffffffffffffffff16600760049054906101000a900461ffff16600760009054906101000a900463ffffffff168660070160009054906101000a900463ffffffff166040518663ffffffff1660e01b8152600401610a51959493929190612dfe565b6020604051808303816000875af1158015610a70573d6000803e3d6000fd5b505050506040513d601f19601f82011682018060405250810190610a949190612e66565b81600a01819055506040518060800160405280600015158152602001600115158152602001600067ffffffffffffffff811115610ad457610ad36123e0565b5b604051908082528060200260200182016040528015610b025781602001602082028036833780820191505090505b508152602001838152506009600083600a0154815260200190815260200160002060008201518160000160006101000a81548160ff02191690831515021790555060208201518160000160016101000a81548160ff0219169083151502179055506040820151816001019080519060200190610b7f9291906122e9565b50606082015181600201559050507f0cd21a41891ff04ecd9a8754bec97e2fb85d2a4e7694329d4dc364c796f23d0682604051610bbc9190612806565b60405180910390a15050565b8181118015610bd657504281115b610c15576040517f08c379a0000000000000000000000000000000000000000000000000000000008152600401610c0c90612edf565b60405180910390fd5b8263ffffffff168451148015610c31575060008363ffffffff16115b610c70576040517f08c379a0000000000000000000000000000000000000000000000000000000008152600401610c6790612f4b565b60405180910390fd5b600087905060008173ffffffffffffffffffffffffffffffffffffffff166318160ddd6040518163ffffffff1660e01b8152600401602060405180830381865afa158015610cc2573d6000803e3d6000fd5b505050506040513d601f19601f82011682018060405250810190610ce69190612e66565b11610d26576040517f08c379a0000000000000000000000000000000000000000000000000000000008152600401610d1d90612fb7565b60405180910390fd5b6000805b8563ffffffff16811015610d7357868181518110610d4b57610d4a612a9c565b5b602002602001015182610d5e9190612afa565b91508080610d6b90612fd7565b915050610d2a565b5060648110610db7576040517f08c379a0000000000000000000000000000000000000000000000000000000008152600401610dae9061306b565b60405180910390fd5b600060086001816001815401808255809150500390600052602060002090600f02019050338160000160006101000a81548173ffffffffffffffffffffffffffffffffffffffff021916908373ffffffffffffffffffffffffffffffffffffffff160217905550898160010160006101000a81548173ffffffffffffffffffffffffffffffffffffffff021916908373ffffffffffffffffffffffffffffffffffffffff16021790555088816004018190555087816005018190555086816006019080519060200190610e8b9291906122e9565b50858160070160006101000a81548163ffffffff021916908363ffffffff1602179055508481600b01819055508381600c01819055507f960f4fb18f2af9795686d97891dbd6534865353629cbda12afb278e6181976626001600880549050610ef49190612bab565b604051610f019190612806565b60405180910390a150505050505050505050565b600160009054906101000a900473ffffffffffffffffffffffffffffffffffffffff1673ffffffffffffffffffffffffffffffffffffffff163373ffffffffffffffffffffffffffffffffffffffff1614610fa5576040517f08c379a0000000000000000000000000000000000000000000000000000000008152600401610f9c906130d7565b60405180910390fd5b60008060009054906101000a900473ffffffffffffffffffffffffffffffffffffffff169050336000806101000a81548173ffffffffffffffffffffffffffffffffffffffff021916908373ffffffffffffffffffffffffffffffffffffffff1602179055506000600160006101000a81548173ffffffffffffffffffffffffffffffffffffffff021916908373ffffffffffffffffffffffffffffffffffffffff1602179055503373ffffffffffffffffffffffffffffffffffffffff168173ffffffffffffffffffffffffffffffffffffffff167f8be0079c531659141344cd1fd0a4f28419497f9722a3daafe3b4186f6b6457e060405160405180910390a350565b6000600883815481106110c0576110bf612a9c565b5b90600052602060002090600f020190504281600b01541080156110e657504281600c0154115b611125576040517f08c379a000000000000000000000000000000000000000000000000000000000815260040161111c90612edf565b60405180910390fd5b60008160080160003373ffffffffffffffffffffffffffffffffffffffff1673ffffffffffffffffffffffffffffffffffffffff16815260200190815260200160002080549050905060008311801561118d57508160040154838261118a9190612afa565b11155b6111cc576040517f08c379a00000000000000000000000000000000000000000000000000000000081526004016111c390613143565b60405180910390fd5b600083826111da9190612afa565b67ffffffffffffffff8111156111f3576111f26123e0565b5b6040519080825280602002602001820160405280156112215781602001602082028036833780820191505090505b50905060008360010160009054906101000a900473ffffffffffffffffffffffffffffffffffffffff169050600084600501548661125f9190613163565b90508173ffffffffffffffffffffffffffffffffffffffff166323b872dd3330846040518463ffffffff1660e01b815260040161129e939291906131a5565b6020604051808303816000875af11580156112bd573d6000803e3d6000fd5b505050506040513d601f19601f820116820180604052508101906112e19190612c34565b5060005b8481101561137d578560080160003373ffffffffffffffffffffffffffffffffffffffff1673ffffffffffffffffffffffffffffffffffffffff16815260200190815260200160002081815481106113405761133f612a9c565b5b906000526020600020015484828151811061135e5761135d612a9c565b5b602002602001018181525050808061137590612fd7565b9150506112e5565b5060005b868110156114435761139586600e01612199565b8482876113a29190612afa565b815181106113b3576113b2612a9c565b5b60200260200101818152505085600901339080600181540180825580915050600190039060005260206000200160009091909190916101000a81548173ffffffffffffffffffffffffffffffffffffffff021916908373ffffffffffffffffffffffffffffffffffffffff16021790555061143086600e016121a7565b808061143b90612fd7565b915050611381565b50828560080160003373ffffffffffffffffffffffffffffffffffffffff1673ffffffffffffffffffffffffffffffffffffffff16815260200190815260200160002090805190602001906114999291906122e9565b50808560020160008282546114ae9190612afa565b92505081905550867fe10598fa0628b6878df33dddd270fc68abc6bc5b8b864e07ac2d9313cf31043e826040516114e59190612806565b60405180910390a23373ffffffffffffffffffffffffffffffffffffffff16877fb3e822478fa19cb993157f15b49a00501cc8d45226c1e7233aef1e281dc567f9886040516115349190612806565b60405180910390a350505050505050565b6000806008838154811061155c5761155b612a9c565b5b90600052602060002090600f0201905060008160080160003373ffffffffffffffffffffffffffffffffffffffff1673ffffffffffffffffffffffffffffffffffffffff16815260200190815260200160002080549050036115c25760009150506117bf565b60006115cd846117ed565b905060008060005b835181101561173b578381815181106115f1576115f0612a9c565b5b602002602001015173ffffffffffffffffffffffffffffffffffffffff163373ffffffffffffffffffffffffffffffffffffffff160361167357606485600601828154811061164357611642612a9c565b5b9060005260206000200154866002015461165d9190613163565b611667919061320b565b955050505050506117bf565b84600801600085838151811061168c5761168b612a9c565b5b602002602001015173ffffffffffffffffffffffffffffffffffffffff1673ffffffffffffffffffffffffffffffffffffffff16815260200190815260200160002080549050826116dd9190612afa565b915060648560060182815481106116f7576116f6612a9c565b5b906000526020600020015486600201546117119190613163565b61171b919061320b565b836117269190612afa565b9250808061173390612fd7565b9150506115d5565b5080846009018054905061174f9190612bab565b8460080160003373ffffffffffffffffffffffffffffffffffffffff1673ffffffffffffffffffffffffffffffffffffffff168152602001908152602001600020805490508386600201546117a49190612bab565b6117ae9190613163565b6117b8919061320b565b9450505050505b919050565b60008060009054906101000a900473ffffffffffffffffffffffffffffffffffffffff16905090565b606060006008838154811061180557611804612a9c565b5b90600052602060002090600f0201905060006009600083600a0154815260200190815260200160002090508060000160009054906101000a900460ff16611881576040517f08c379a000000000000000000000000000000000000000000000000000000000815260040161187890613288565b60405180910390fd5b8160070160009054906101000a900463ffffffff1663ffffffff1667ffffffffffffffff8111156118b5576118b46123e0565b5b6040519080825280602002602001820160405280156118e35781602001602082028036833780820191505090505b50925060006118f483600e01612199565b905060005b8360070160009054906101000a900463ffffffff1663ffffffff16811015611b305760008284600101838154811061193457611933612a9c565b5b906000526020600020015461194991906132a8565b905060005b82811015611a2157600086600801600089848151811061197157611970612a9c565b5b602002602001015173ffffffffffffffffffffffffffffffffffffffff1673ffffffffffffffffffffffffffffffffffffffff168152602001908152602001600020905060005b8180549050811080156119e85750838282815481106119da576119d9612a9c565b5b906000526020600020015411155b15611a0c57836119f790612fd7565b93508080611a0490612fd7565b9150506119b8565b50508080611a1990612fd7565b91505061194e565b50846009018181548110611a3857611a37612a9c565b5b9060005260206000200160009054906101000a900473ffffffffffffffffffffffffffffffffffffffff16868381518110611a7657611a75612a9c565b5b602002602001019073ffffffffffffffffffffffffffffffffffffffff16908173ffffffffffffffffffffffffffffffffffffffff1681525050846008016000878481518110611ac957611ac8612a9c565b5b602002602001015173ffffffffffffffffffffffffffffffffffffffff1673ffffffffffffffffffffffffffffffffffffffff1681526020019081526020016000208054905083611b1a9190612bab565b9250508080611b2890612fd7565b9150506118f9565b50505050919050565b600080600080606060008060008060008060008060088e81548110611b6157611b60612a9c565b5b90600052602060002090600f0201905060006009600083600a0154815260200190815260200160002090508160010160009054906101000a900473ffffffffffffffffffffffffffffffffffffffff16826002015483600401548460050154856006018660070160009054906101000a900463ffffffff1687600a015488600b015489600c0154611bf48b600e01612199565b8b600301548b60000160019054906101000a900460ff1687805480602002602001604051908101604052809291908181526020018280548015611c5657602002820191906000526020600020905b815481526020019060010190808311611c42575b505050505097509d509d509d509d509d509d509d509d509d509d509d509d50505091939597999b5091939597999b565b600060088381548110611c9c57611c9b612a9c565b5b90600052602060002090600f020190504281600c015411611cf2576040517f08c379a0000000000000000000000000000000000000000000000000000000008152600401611ce990612edf565b60405180910390fd5b60008160010160009054906101000a900473ffffffffffffffffffffffffffffffffffffffff1690508073ffffffffffffffffffffffffffffffffffffffff166323b872dd3330866040518463ffffffff1660e01b8152600401611d58939291906131a5565b6020604051808303816000875af1158015611d77573d6000803e3d6000fd5b505050506040513d601f19601f82011682018060405250810190611d9b9190612c34565b5082826002016000828254611db09190612afa565b92505081905550837fe10598fa0628b6878df33dddd270fc68abc6bc5b8b864e07ac2d9313cf31043e84604051611de79190612806565b60405180910390a250505050565b600060606009600084815260200190815260200160002060000160019054906101000a900460ff16611e5c576040517f08c379a0000000000000000000000000000000000000000000000000000000008152600401611e5390613325565b60405180910390fd5b6000600960008581526020019081526020016000206040518060800160405290816000820160009054906101000a900460ff161515151581526020016000820160019054906101000a900460ff1615151515815260200160018201805480602002602001604051908101604052809291908181526020018280548015611f0157602002820191906000526020600020905b815481526020019060010190808311611eed575b505050505081526020016002820154815250509050806000015181604001519250925050915091565b611f32611f3e565b611f3b816121bd565b50565b60008054906101000a900473ffffffffffffffffffffffffffffffffffffffff1673ffffffffffffffffffffffffffffffffffffffff163373ffffffffffffffffffffffffffffffffffffffff1614611fcc576040517f08c379a0000000000000000000000000000000000000000000000000000000008152600401611fc390613391565b60405180910390fd5b565b6009600083815260200190815260200160002060000160019054906101000a900460ff16612031576040517f08c379a000000000000000000000000000000000000000000000000000000000815260040161202890613325565b60405180910390fd5b6009600083815260200190815260200160002060000160009054906101000a900460ff1615612095576040517f08c379a000000000000000000000000000000000000000000000000000000000815260040161208c906133fd565b60405180910390fd5b60016009600084815260200190815260200160002060000160006101000a81548160ff021916908315150217905550806009600084815260200190815260200160002060010190805190602001906120ee9291906122e9565b507ffe2e2d779dba245964d4e3ef9b994be63856fd568bf7d3ca9e224755cb1bd54d60096000848152602001908152602001600020600201548260405161213692919061341d565b60405180910390a15050565b6002805403612186576040517f08c379a000000000000000000000000000000000000000000000000000000000815260040161217d90613499565b60405180910390fd5b60028081905550565b6001600281905550565b600081600001549050919050565b6001816000016000828254019250508190555050565b3373ffffffffffffffffffffffffffffffffffffffff168173ffffffffffffffffffffffffffffffffffffffff160361222b576040517f08c379a000000000000000000000000000000000000000000000000000000000815260040161222290613505565b60405180910390fd5b80600160006101000a81548173ffffffffffffffffffffffffffffffffffffffff021916908373ffffffffffffffffffffffffffffffffffffffff1602179055508073ffffffffffffffffffffffffffffffffffffffff1660008054906101000a900473ffffffffffffffffffffffffffffffffffffffff1673ffffffffffffffffffffffffffffffffffffffff167fed8889f560326eb138920d842192f0eb3dd22b4f139c87a2c57538e05bae127860405160405180910390a350565b828054828255906000526020600020908101928215612325579160200282015b82811115612324578251825591602001919060010190612309565b5b5090506123329190612336565b5090565b5b8082111561234f576000816000905550600101612337565b5090565b6000604051905090565b600080fd5b600080fd5b6000819050919050565b61237a81612367565b811461238557600080fd5b50565b60008135905061239781612371565b92915050565b6000602082840312156123b3576123b261235d565b5b60006123c184828501612388565b91505092915050565b600080fd5b6000601f19601f8301169050919050565b7f4e487b7100000000000000000000000000000000000000000000000000000000600052604160045260246000fd5b612418826123cf565b810181811067ffffffffffffffff82111715612437576124366123e0565b5b80604052505050565b600061244a612353565b9050612456828261240f565b919050565b600067ffffffffffffffff821115612476576124756123e0565b5b602082029050602081019050919050565b600080fd5b600061249f61249a8461245b565b612440565b905080838252602082019050602084028301858111156124c2576124c1612487565b5b835b818110156124eb57806124d78882612388565b8452602084019350506020810190506124c4565b5050509392505050565b600082601f83011261250a576125096123ca565b5b813561251a84826020860161248c565b91505092915050565b6000806040838503121561253a5761253961235d565b5b600061254885828601612388565b925050602083013567ffffffffffffffff81111561256957612568612362565b5b612575858286016124f5565b9150509250929050565b600081519050919050565b600082825260208201905092915050565b6000819050602082019050919050565b6125b481612367565b82525050565b60006125c683836125ab565b60208301905092915050565b6000602082019050919050565b60006125ea8261257f565b6125f4818561258a565b93506125ff8361259b565b8060005b8381101561263057815161261788826125ba565b9750612622836125d2565b925050600181019050612603565b5085935050505092915050565b6000602082019050818103600083015261265781846125df565b905092915050565b600073ffffffffffffffffffffffffffffffffffffffff82169050919050565b600061268a8261265f565b9050919050565b61269a8161267f565b81146126a557600080fd5b50565b6000813590506126b781612691565b92915050565b600063ffffffff82169050919050565b6126d6816126bd565b81146126e157600080fd5b50565b6000813590506126f3816126cd565b92915050565b600080600080600080600060e0888a0312156127185761271761235d565b5b60006127268a828b016126a8565b97505060206127378a828b01612388565b96505060406127488a828b01612388565b955050606088013567ffffffffffffffff81111561276957612768612362565b5b6127758a828b016124f5565b94505060806127868a828b016126e4565b93505060a06127978a828b01612388565b92505060c06127a88a828b01612388565b91505092959891949750929550565b600080604083850312156127ce576127cd61235d565b5b60006127dc85828601612388565b92505060206127ed85828601612388565b9150509250929050565b61280081612367565b82525050565b600060208201905061281b60008301846127f7565b92915050565b61282a8161267f565b82525050565b60006020820190506128456000830184612821565b92915050565b600081519050919050565b600082825260208201905092915050565b6000819050602082019050919050565b6128808161267f565b82525050565b60006128928383612877565b60208301905092915050565b6000602082019050919050565b60006128b68261284b565b6128c08185612856565b93506128cb83612867565b8060005b838110156128fc5781516128e38882612886565b97506128ee8361289e565b9250506001810190506128cf565b5085935050505092915050565b6000602082019050818103600083015261292381846128ab565b905092915050565b612934816126bd565b82525050565b60008115159050919050565b61294f8161293a565b82525050565b60006101808201905061296b600083018f612821565b612978602083018e6127f7565b612985604083018d6127f7565b612992606083018c6127f7565b81810360808301526129a4818b6125df565b90506129b360a083018a61292b565b6129c060c08301896127f7565b6129cd60e08301886127f7565b6129db6101008301876127f7565b6129e96101208301866127f7565b6129f76101408301856127f7565b612a05610160830184612946565b9d9c50505050505050505050505050565b6000604082019050612a2b6000830185612946565b8181036020830152612a3d81846125df565b90509392505050565b600060208284031215612a5c57612a5b61235d565b5b6000612a6a848285016126a8565b91505092915050565b6000604082019050612a886000830185612821565b612a956020830184612821565b9392505050565b7f4e487b7100000000000000000000000000000000000000000000000000000000600052603260045260246000fd5b7f4e487b7100000000000000000000000000000000000000000000000000000000600052601160045260246000fd5b6000612b0582612367565b9150612b1083612367565b9250828201905080821115612b2857612b27612acb565b5b92915050565b600082825260208201905092915050565b7f6e6f7420617661696c61626c6500000000000000000000000000000000000000600082015250565b6000612b75600d83612b2e565b9150612b8082612b3f565b602082019050919050565b60006020820190508181036000830152612ba481612b68565b9050919050565b6000612bb682612367565b9150612bc183612367565b9250828203905081811115612bd957612bd8612acb565b5b92915050565b6000604082019050612bf46000830185612821565b612c0160208301846127f7565b9392505050565b612c118161293a565b8114612c1c57600080fd5b50565b600081519050612c2e81612c08565b92915050565b600060208284031215612c4a57612c4961235d565b5b6000612c5884828501612c1f565b91505092915050565b7f696e76616c696420757365720000000000000000000000000000000000000000600082015250565b6000612c97600c83612b2e565b9150612ca282612c61565b602082019050919050565b60006020820190508181036000830152612cc681612c8a565b9050919050565b7f756e617661696c61626c65000000000000000000000000000000000000000000600082015250565b6000612d03600b83612b2e565b9150612d0e82612ccd565b602082019050919050565b60006020820190508181036000830152612d3281612cf6565b9050919050565b7f6472617765640000000000000000000000000000000000000000000000000000600082015250565b6000612d6f600683612b2e565b9150612d7a82612d39565b602082019050919050565b60006020820190508181036000830152612d9e81612d62565b9050919050565b6000819050919050565b612db881612da5565b82525050565b600067ffffffffffffffff82169050919050565b612ddb81612dbe565b82525050565b600061ffff82169050919050565b612df881612de1565b82525050565b600060a082019050612e136000830188612daf565b612e206020830187612dd2565b612e2d6040830186612def565b612e3a606083018561292b565b612e47608083018461292b565b9695505050505050565b600081519050612e6081612371565b92915050565b600060208284031215612e7c57612e7b61235d565b5b6000612e8a84828501612e51565b91505092915050565b7f696e76616c69642074696d650000000000000000000000000000000000000000600082015250565b6000612ec9600c83612b2e565b9150612ed482612e93565b602082019050919050565b60006020820190508181036000830152612ef881612ebc565b9050919050565b7f696e76616c696420706172616d73000000000000000000000000000000000000600082015250565b6000612f35600e83612b2e565b9150612f4082612eff565b602082019050919050565b60006020820190508181036000830152612f6481612f28565b9050919050565b7f696e76616c696420746f6b656e00000000000000000000000000000000000000600082015250565b6000612fa1600d83612b2e565b9150612fac82612f6b565b602082019050919050565b60006020820190508181036000830152612fd081612f94565b9050919050565b6000612fe282612367565b91507fffffffffffffffffffffffffffffffffffffffffffffffffffffffffffffffff820361301457613013612acb565b5b600182019050919050565b7f696e76616c696420726174696f00000000000000000000000000000000000000600082015250565b6000613055600d83612b2e565b91506130608261301f565b602082019050919050565b6000602082019050818103600083015261308481613048565b9050919050565b7f4d7573742062652070726f706f736564206f776e657200000000000000000000600082015250565b60006130c1601683612b2e565b91506130cc8261308b565b602082019050919050565b600060208201905081810360008301526130f0816130b4565b9050919050565b7f696e76616c6964207175616e7469747900000000000000000000000000000000600082015250565b600061312d601083612b2e565b9150613138826130f7565b602082019050919050565b6000602082019050818103600083015261315c81613120565b9050919050565b600061316e82612367565b915061317983612367565b925082820261318781612367565b9150828204841483151761319e5761319d612acb565b5b5092915050565b60006060820190506131ba6000830186612821565b6131c76020830185612821565b6131d460408301846127f7565b949350505050565b7f4e487b7100000000000000000000000000000000000000000000000000000000600052601260045260246000fd5b600061321682612367565b915061322183612367565b925082613231576132306131dc565b5b828204905092915050565b7f6e6f20726573756c740000000000000000000000000000000000000000000000600082015250565b6000613272600983612b2e565b915061327d8261323c565b602082019050919050565b600060208201905081810360008301526132a181613265565b9050919050565b60006132b382612367565b91506132be83612367565b9250826132ce576132cd6131dc565b5b828206905092915050565b7f72657175657374206e6f7420666f756e64000000000000000000000000000000600082015250565b600061330f601183612b2e565b915061331a826132d9565b602082019050919050565b6000602082019050818103600083015261333e81613302565b9050919050565b7f4f6e6c792063616c6c61626c65206279206f776e657200000000000000000000600082015250565b600061337b601683612b2e565b915061338682613345565b602082019050919050565b600060208201905081810360008301526133aa8161336e565b9050919050565b7f66756c66696c6c65640000000000000000000000000000000000000000000000600082015250565b60006133e7600983612b2e565b91506133f2826133b1565b602082019050919050565b60006020820190508181036000830152613416816133da565b9050919050565b600060408201905061343260008301856127f7565b818103602083015261344481846125df565b90509392505050565b7f5265656e7472616e637947756172643a207265656e7472616e742063616c6c00600082015250565b6000613483601f83612b2e565b915061348e8261344d565b602082019050919050565b600060208201905081810360008301526134b281613476565b9050919050565b7f43616e6e6f74207472616e7366657220746f2073656c66000000000000000000600082015250565b60006134ef601783612b2e565b91506134fa826134b9565b602082019050919050565b6000602082019050818103600083015261351e816134e2565b905091905056fea2646970667358221220f182bc8ab63e4d84d0036d0e343e9815ae3ce280021b0bb2ed3fe5296cef988f64736f6c63430008110033",
					"opcodes": "PUSH1 0xA0 PUSH1 0x40 MSTORE PUSH3 0x278D00 PUSH1 0x3 SSTORE PUSH32 0xD4BB89654DB74673A187BD804519E65E3F71A52BC55F11DA7601A13DCF505314 PUSH1 0x0 SHL PUSH1 0x6 SSTORE PUSH3 0xF4240 PUSH1 0x7 PUSH1 0x0 PUSH2 0x100 EXP DUP2 SLOAD DUP2 PUSH4 0xFFFFFFFF MUL NOT AND SWAP1 DUP4 PUSH4 0xFFFFFFFF AND MUL OR SWAP1 SSTORE POP PUSH1 0x3 PUSH1 0x7 PUSH1 0x4 PUSH2 0x100 EXP DUP2 SLOAD DUP2 PUSH2 0xFFFF MUL NOT AND SWAP1 DUP4 PUSH2 0xFFFF AND MUL OR SWAP1 SSTORE POP CALLVALUE DUP1 ISZERO PUSH3 0x81 JUMPI PUSH1 0x0 DUP1 REVERT JUMPDEST POP PUSH1 0x40 MLOAD PUSH3 0x3A9C CODESIZE SUB DUP1 PUSH3 0x3A9C DUP4 CODECOPY DUP2 DUP2 ADD PUSH1 0x40 MSTORE DUP2 ADD SWAP1 PUSH3 0xA7 SWAP2 SWAP1 PUSH3 0x3F7 JUMP JUMPDEST CALLER DUP1 PUSH1 0x0 PUSH20 0x6A2AAD07396B36FE02A22B33CF443582F682C82F DUP1 PUSH20 0xFFFFFFFFFFFFFFFFFFFFFFFFFFFFFFFFFFFFFFFF AND PUSH1 0x80 DUP2 PUSH20 0xFFFFFFFFFFFFFFFFFFFFFFFFFFFFFFFFFFFFFFFF AND DUP2 MSTORE POP POP POP PUSH1 0x0 PUSH20 0xFFFFFFFFFFFFFFFFFFFFFFFFFFFFFFFFFFFFFFFF AND DUP3 PUSH20 0xFFFFFFFFFFFFFFFFFFFFFFFFFFFFFFFFFFFFFFFF AND SUB PUSH3 0x167 JUMPI PUSH1 0x40 MLOAD PUSH32 0x8C379A000000000000000000000000000000000000000000000000000000000 DUP2 MSTORE PUSH1 0x4 ADD PUSH3 0x15E SWAP1 PUSH3 0x48A JUMP JUMPDEST PUSH1 0x40 MLOAD DUP1 SWAP2 SUB SWAP1 REVERT JUMPDEST DUP2 PUSH1 0x0 DUP1 PUSH2 0x100 EXP DUP2 SLOAD DUP2 PUSH20 0xFFFFFFFFFFFFFFFFFFFFFFFFFFFFFFFFFFFFFFFF MUL NOT AND SWAP1 DUP4 PUSH20 0xFFFFFFFFFFFFFFFFFFFFFFFFFFFFFFFFFFFFFFFF AND MUL OR SWAP1 SSTORE POP PUSH1 0x0 PUSH20 0xFFFFFFFFFFFFFFFFFFFFFFFFFFFFFFFFFFFFFFFF AND DUP2 PUSH20 0xFFFFFFFFFFFFFFFFFFFFFFFFFFFFFFFFFFFFFFFF AND EQ PUSH3 0x1EE JUMPI PUSH3 0x1ED DUP2 PUSH3 0x27E PUSH1 0x20 SHL PUSH1 0x20 SHR JUMP JUMPDEST JUMPDEST POP POP POP PUSH1 0x1 PUSH1 0x2 DUP2 SWAP1 SSTORE POP PUSH20 0x6A2AAD07396B36FE02A22B33CF443582F682C82F PUSH1 0xA PUSH1 0x0 PUSH2 0x100 EXP DUP2 SLOAD DUP2 PUSH20 0xFFFFFFFFFFFFFFFFFFFFFFFFFFFFFFFFFFFFFFFF MUL NOT AND SWAP1 DUP4 PUSH20 0xFFFFFFFFFFFFFFFFFFFFFFFFFFFFFFFFFFFFFFFF AND MUL OR SWAP1 SSTORE POP DUP1 PUSH1 0x4 PUSH1 0x0 PUSH2 0x100 EXP DUP2 SLOAD DUP2 PUSH8 0xFFFFFFFFFFFFFFFF MUL NOT AND SWAP1 DUP4 PUSH8 0xFFFFFFFFFFFFFFFF AND MUL OR SWAP1 SSTORE POP POP PUSH3 0x51E JUMP JUMPDEST CALLER PUSH20 0xFFFFFFFFFFFFFFFFFFFFFFFFFFFFFFFFFFFFFFFF AND DUP2 PUSH20 0xFFFFFFFFFFFFFFFFFFFFFFFFFFFFFFFFFFFFFFFF AND SUB PUSH3 0x2EF JUMPI PUSH1 0x40 MLOAD PUSH32 0x8C379A000000000000000000000000000000000000000000000000000000000 DUP2 MSTORE PUSH1 0x4 ADD PUSH3 0x2E6 SWAP1 PUSH3 0x4FC JUMP JUMPDEST PUSH1 0x40 MLOAD DUP1 SWAP2 SUB SWAP1 REVERT JUMPDEST DUP1 PUSH1 0x1 PUSH1 0x0 PUSH2 0x100 EXP DUP2 SLOAD DUP2 PUSH20 0xFFFFFFFFFFFFFFFFFFFFFFFFFFFFFFFFFFFFFFFF MUL NOT AND SWAP1 DUP4 PUSH20 0xFFFFFFFFFFFFFFFFFFFFFFFFFFFFFFFFFFFFFFFF AND MUL OR SWAP1 SSTORE POP DUP1 PUSH20 0xFFFFFFFFFFFFFFFFFFFFFFFFFFFFFFFFFFFFFFFF AND PUSH1 0x0 DUP1 SLOAD SWAP1 PUSH2 0x100 EXP SWAP1 DIV PUSH20 0xFFFFFFFFFFFFFFFFFFFFFFFFFFFFFFFFFFFFFFFF AND PUSH20 0xFFFFFFFFFFFFFFFFFFFFFFFFFFFFFFFFFFFFFFFF AND PUSH32 0xED8889F560326EB138920D842192F0EB3DD22B4F139C87A2C57538E05BAE1278 PUSH1 0x40 MLOAD PUSH1 0x40 MLOAD DUP1 SWAP2 SUB SWAP1 LOG3 POP JUMP JUMPDEST PUSH1 0x0 DUP1 REVERT JUMPDEST PUSH1 0x0 PUSH8 0xFFFFFFFFFFFFFFFF DUP3 AND SWAP1 POP SWAP2 SWAP1 POP JUMP JUMPDEST PUSH3 0x3D1 DUP2 PUSH3 0x3B2 JUMP JUMPDEST DUP2 EQ PUSH3 0x3DD JUMPI PUSH1 0x0 DUP1 REVERT JUMPDEST POP JUMP JUMPDEST PUSH1 0x0 DUP2 MLOAD SWAP1 POP PUSH3 0x3F1 DUP2 PUSH3 0x3C6 JUMP JUMPDEST SWAP3 SWAP2 POP POP JUMP JUMPDEST PUSH1 0x0 PUSH1 0x20 DUP3 DUP5 SUB SLT ISZERO PUSH3 0x410 JUMPI PUSH3 0x40F PUSH3 0x3AD JUMP JUMPDEST JUMPDEST PUSH1 0x0 PUSH3 0x420 DUP5 DUP3 DUP6 ADD PUSH3 0x3E0 JUMP JUMPDEST SWAP2 POP POP SWAP3 SWAP2 POP POP JUMP JUMPDEST PUSH1 0x0 DUP3 DUP3 MSTORE PUSH1 0x20 DUP3 ADD SWAP1 POP SWAP3 SWAP2 POP POP JUMP JUMPDEST PUSH32 0x43616E6E6F7420736574206F776E657220746F207A65726F0000000000000000 PUSH1 0x0 DUP3 ADD MSTORE POP JUMP JUMPDEST PUSH1 0x0 PUSH3 0x472 PUSH1 0x18 DUP4 PUSH3 0x429 JUMP JUMPDEST SWAP2 POP PUSH3 0x47F DUP3 PUSH3 0x43A JUMP JUMPDEST PUSH1 0x20 DUP3 ADD SWAP1 POP SWAP2 SWAP1 POP JUMP JUMPDEST PUSH1 0x0 PUSH1 0x20 DUP3 ADD SWAP1 POP DUP2 DUP2 SUB PUSH1 0x0 DUP4 ADD MSTORE PUSH3 0x4A5 DUP2 PUSH3 0x463 JUMP JUMPDEST SWAP1 POP SWAP2 SWAP1 POP JUMP JUMPDEST PUSH32 0x43616E6E6F74207472616E7366657220746F2073656C66000000000000000000 PUSH1 0x0 DUP3 ADD MSTORE POP JUMP JUMPDEST PUSH1 0x0 PUSH3 0x4E4 PUSH1 0x17 DUP4 PUSH3 0x429 JUMP JUMPDEST SWAP2 POP PUSH3 0x4F1 DUP3 PUSH3 0x4AC JUMP JUMPDEST PUSH1 0x20 DUP3 ADD SWAP1 POP SWAP2 SWAP1 POP JUMP JUMPDEST PUSH1 0x0 PUSH1 0x20 DUP3 ADD SWAP1 POP DUP2 DUP2 SUB PUSH1 0x0 DUP4 ADD MSTORE PUSH3 0x517 DUP2 PUSH3 0x4D5 JUMP JUMPDEST SWAP1 POP SWAP2 SWAP1 POP JUMP JUMPDEST PUSH1 0x80 MLOAD PUSH2 0x355B PUSH3 0x541 PUSH1 0x0 CODECOPY PUSH1 0x0 DUP2 DUP2 PUSH2 0x339 ADD MSTORE PUSH2 0x38D ADD MSTORE PUSH2 0x355B PUSH1 0x0 RETURN INVALID PUSH1 0x80 PUSH1 0x40 MSTORE CALLVALUE DUP1 ISZERO PUSH2 0x10 JUMPI PUSH1 0x0 DUP1 REVERT JUMPDEST POP PUSH1 0x4 CALLDATASIZE LT PUSH2 0x100 JUMPI PUSH1 0x0 CALLDATALOAD PUSH1 0xE0 SHR DUP1 PUSH4 0x79E66B46 GT PUSH2 0x97 JUMPI DUP1 PUSH4 0xA57D1560 GT PUSH2 0x66 JUMPI DUP1 PUSH4 0xA57D1560 EQ PUSH2 0x281 JUMPI DUP1 PUSH4 0xA65E2CFD EQ PUSH2 0x2BC JUMPI DUP1 PUSH4 0xD8A4676F EQ PUSH2 0x2D8 JUMPI DUP1 PUSH4 0xF2FDE38B EQ PUSH2 0x309 JUMPI PUSH2 0x100 JUMP JUMPDEST DUP1 PUSH4 0x79E66B46 EQ PUSH2 0x1E7 JUMPI DUP1 PUSH4 0x86CA3936 EQ PUSH2 0x203 JUMPI DUP1 PUSH4 0x8DA5CB5B EQ PUSH2 0x233 JUMPI DUP1 PUSH4 0xA2FB1175 EQ PUSH2 0x251 JUMPI PUSH2 0x100 JUMP JUMPDEST DUP1 PUSH4 0x379607F5 GT PUSH2 0xD3 JUMPI DUP1 PUSH4 0x379607F5 EQ PUSH2 0x189 JUMPI DUP1 PUSH4 0x3B304147 EQ PUSH2 0x1A5 JUMPI DUP1 PUSH4 0x4C947DED EQ PUSH2 0x1C1 JUMPI DUP1 PUSH4 0x79BA5097 EQ PUSH2 0x1DD JUMPI PUSH2 0x100 JUMP JUMPDEST DUP1 PUSH4 0x1B08AF49 EQ PUSH2 0x105 JUMPI DUP1 PUSH4 0x1FE543E3 EQ PUSH2 0x121 JUMPI DUP1 PUSH4 0x28BD0A3D EQ PUSH2 0x13D JUMPI DUP1 PUSH4 0x2E1A7D4D EQ PUSH2 0x16D JUMPI JUMPDEST PUSH1 0x0 DUP1 REVERT JUMPDEST PUSH2 0x11F PUSH1 0x4 DUP1 CALLDATASIZE SUB DUP2 ADD SWAP1 PUSH2 0x11A SWAP2 SWAP1 PUSH2 0x239D JUMP JUMPDEST PUSH2 0x325 JUMP JUMPDEST STOP JUMPDEST PUSH2 0x13B PUSH1 0x4 DUP1 CALLDATASIZE SUB DUP2 ADD SWAP1 PUSH2 0x136 SWAP2 SWAP1 PUSH2 0x2523 JUMP JUMPDEST PUSH2 0x337 JUMP JUMPDEST STOP JUMPDEST PUSH2 0x157 PUSH1 0x4 DUP1 CALLDATASIZE SUB DUP2 ADD SWAP1 PUSH2 0x152 SWAP2 SWAP1 PUSH2 0x239D JUMP JUMPDEST PUSH2 0x3F7 JUMP JUMPDEST PUSH1 0x40 MLOAD PUSH2 0x164 SWAP2 SWAP1 PUSH2 0x263D JUMP JUMPDEST PUSH1 0x40 MLOAD DUP1 SWAP2 SUB SWAP1 RETURN JUMPDEST PUSH2 0x187 PUSH1 0x4 DUP1 CALLDATASIZE SUB DUP2 ADD SWAP1 PUSH2 0x182 SWAP2 SWAP1 PUSH2 0x239D JUMP JUMPDEST PUSH2 0x4B1 JUMP JUMPDEST STOP JUMPDEST PUSH2 0x1A3 PUSH1 0x4 DUP1 CALLDATASIZE SUB DUP2 ADD SWAP1 PUSH2 0x19E SWAP2 SWAP1 PUSH2 0x239D JUMP JUMPDEST PUSH2 0x60F JUMP JUMPDEST STOP JUMPDEST PUSH2 0x1BF PUSH1 0x4 DUP1 CALLDATASIZE SUB DUP2 ADD SWAP1 PUSH2 0x1BA SWAP2 SWAP1 PUSH2 0x239D JUMP JUMPDEST PUSH2 0x8ED JUMP JUMPDEST STOP JUMPDEST PUSH2 0x1DB PUSH1 0x4 DUP1 CALLDATASIZE SUB DUP2 ADD SWAP1 PUSH2 0x1D6 SWAP2 SWAP1 PUSH2 0x26F9 JUMP JUMPDEST PUSH2 0xBC8 JUMP JUMPDEST STOP JUMPDEST PUSH2 0x1E5 PUSH2 0xF15 JUMP JUMPDEST STOP JUMPDEST PUSH2 0x201 PUSH1 0x4 DUP1 CALLDATASIZE SUB DUP2 ADD SWAP1 PUSH2 0x1FC SWAP2 SWAP1 PUSH2 0x27B7 JUMP JUMPDEST PUSH2 0x10AA JUMP JUMPDEST STOP JUMPDEST PUSH2 0x21D PUSH1 0x4 DUP1 CALLDATASIZE SUB DUP2 ADD SWAP1 PUSH2 0x218 SWAP2 SWAP1 PUSH2 0x239D JUMP JUMPDEST PUSH2 0x1545 JUMP JUMPDEST PUSH1 0x40 MLOAD PUSH2 0x22A SWAP2 SWAP1 PUSH2 0x2806 JUMP JUMPDEST PUSH1 0x40 MLOAD DUP1 SWAP2 SUB SWAP1 RETURN JUMPDEST PUSH2 0x23B PUSH2 0x17C4 JUMP JUMPDEST PUSH1 0x40 MLOAD PUSH2 0x248 SWAP2 SWAP1 PUSH2 0x2830 JUMP JUMPDEST PUSH1 0x40 MLOAD DUP1 SWAP2 SUB SWAP1 RETURN JUMPDEST PUSH2 0x26B PUSH1 0x4 DUP1 CALLDATASIZE SUB DUP2 ADD SWAP1 PUSH2 0x266 SWAP2 SWAP1 PUSH2 0x239D JUMP JUMPDEST PUSH2 0x17ED JUMP JUMPDEST PUSH1 0x40 MLOAD PUSH2 0x278 SWAP2 SWAP1 PUSH2 0x2909 JUMP JUMPDEST PUSH1 0x40 MLOAD DUP1 SWAP2 SUB SWAP1 RETURN JUMPDEST PUSH2 0x29B PUSH1 0x4 DUP1 CALLDATASIZE SUB DUP2 ADD SWAP1 PUSH2 0x296 SWAP2 SWAP1 PUSH2 0x239D JUMP JUMPDEST PUSH2 0x1B39 JUMP JUMPDEST PUSH1 0x40 MLOAD PUSH2 0x2B3 SWAP13 SWAP12 SWAP11 SWAP10 SWAP9 SWAP8 SWAP7 SWAP6 SWAP5 SWAP4 SWAP3 SWAP2 SWAP1 PUSH2 0x2955 JUMP JUMPDEST PUSH1 0x40 MLOAD DUP1 SWAP2 SUB SWAP1 RETURN JUMPDEST PUSH2 0x2D6 PUSH1 0x4 DUP1 CALLDATASIZE SUB DUP2 ADD SWAP1 PUSH2 0x2D1 SWAP2 SWAP1 PUSH2 0x27B7 JUMP JUMPDEST PUSH2 0x1C86 JUMP JUMPDEST STOP JUMPDEST PUSH2 0x2F2 PUSH1 0x4 DUP1 CALLDATASIZE SUB DUP2 ADD SWAP1 PUSH2 0x2ED SWAP2 SWAP1 PUSH2 0x239D JUMP JUMPDEST PUSH2 0x1DF5 JUMP JUMPDEST PUSH1 0x40 MLOAD PUSH2 0x300 SWAP3 SWAP2 SWAP1 PUSH2 0x2A16 JUMP JUMPDEST PUSH1 0x40 MLOAD DUP1 SWAP2 SUB SWAP1 RETURN JUMPDEST PUSH2 0x323 PUSH1 0x4 DUP1 CALLDATASIZE SUB DUP2 ADD SWAP1 PUSH2 0x31E SWAP2 SWAP1 PUSH2 0x2A46 JUMP JUMPDEST PUSH2 0x1F2A JUMP JUMPDEST STOP JUMPDEST PUSH2 0x32D PUSH2 0x1F3E JUMP JUMPDEST DUP1 PUSH1 0x3 DUP2 SWAP1 SSTORE POP POP JUMP JUMPDEST PUSH32 0x0 PUSH20 0xFFFFFFFFFFFFFFFFFFFFFFFFFFFFFFFFFFFFFFFF AND CALLER PUSH20 0xFFFFFFFFFFFFFFFFFFFFFFFFFFFFFFFFFFFFFFFF AND EQ PUSH2 0x3E9 JUMPI CALLER PUSH32 0x0 PUSH1 0x40 MLOAD PUSH32 0x1CF993F400000000000000000000000000000000000000000000000000000000 DUP2 MSTORE PUSH1 0x4 ADD PUSH2 0x3E0 SWAP3 SWAP2 SWAP1 PUSH2 0x2A73 JUMP JUMPDEST PUSH1 0x40 MLOAD DUP1 SWAP2 SUB SWAP1 REVERT JUMPDEST PUSH2 0x3F3 DUP3 DUP3 PUSH2 0x1FCE JUMP JUMPDEST POP POP JUMP JUMPDEST PUSH1 0x60 PUSH1 0x8 DUP3 DUP2 SLOAD DUP2 LT PUSH2 0x40D JUMPI PUSH2 0x40C PUSH2 0x2A9C JUMP JUMPDEST JUMPDEST SWAP1 PUSH1 0x0 MSTORE PUSH1 0x20 PUSH1 0x0 KECCAK256 SWAP1 PUSH1 0xF MUL ADD PUSH1 0x8 ADD PUSH1 0x0 CALLER PUSH20 0xFFFFFFFFFFFFFFFFFFFFFFFFFFFFFFFFFFFFFFFF AND PUSH20 0xFFFFFFFFFFFFFFFFFFFFFFFFFFFFFFFFFFFFFFFF AND DUP2 MSTORE PUSH1 0x20 ADD SWAP1 DUP2 MSTORE PUSH1 0x20 ADD PUSH1 0x0 KECCAK256 DUP1 SLOAD DUP1 PUSH1 0x20 MUL PUSH1 0x20 ADD PUSH1 0x40 MLOAD SWAP1 DUP2 ADD PUSH1 0x40 MSTORE DUP1 SWAP3 SWAP2 SWAP1 DUP2 DUP2 MSTORE PUSH1 0x20 ADD DUP3 DUP1 SLOAD DUP1 ISZERO PUSH2 0x4A5 JUMPI PUSH1 0x20 MUL DUP3 ADD SWAP2 SWAP1 PUSH1 0x0 MSTORE PUSH1 0x20 PUSH1 0x0 KECCAK256 SWAP1 JUMPDEST DUP2 SLOAD DUP2 MSTORE PUSH1 0x20 ADD SWAP1 PUSH1 0x1 ADD SWAP1 DUP1 DUP4 GT PUSH2 0x491 JUMPI JUMPDEST POP POP POP POP POP SWAP1 POP SWAP2 SWAP1 POP JUMP JUMPDEST PUSH2 0x4B9 PUSH2 0x1F3E JUMP JUMPDEST PUSH2 0x4C1 PUSH2 0x2142 JUMP JUMPDEST PUSH1 0x0 PUSH1 0x8 DUP3 DUP2 SLOAD DUP2 LT PUSH2 0x4D7 JUMPI PUSH2 0x4D6 PUSH2 0x2A9C JUMP JUMPDEST JUMPDEST SWAP1 PUSH1 0x0 MSTORE PUSH1 0x20 PUSH1 0x0 KECCAK256 SWAP1 PUSH1 0xF MUL ADD SWAP1 POP PUSH1 0x3 SLOAD DUP2 PUSH1 0xC ADD SLOAD PUSH2 0x4F9 SWAP2 SWAP1 PUSH2 0x2AFA JUMP JUMPDEST TIMESTAMP GT PUSH2 0x53A JUMPI PUSH1 0x40 MLOAD PUSH32 0x8C379A000000000000000000000000000000000000000000000000000000000 DUP2 MSTORE PUSH1 0x4 ADD PUSH2 0x531 SWAP1 PUSH2 0x2B8B JUMP JUMPDEST PUSH1 0x40 MLOAD DUP1 SWAP2 SUB SWAP1 REVERT JUMPDEST PUSH1 0x0 DUP2 PUSH1 0x1 ADD PUSH1 0x0 SWAP1 SLOAD SWAP1 PUSH2 0x100 EXP SWAP1 DIV PUSH20 0xFFFFFFFFFFFFFFFFFFFFFFFFFFFFFFFFFFFFFFFF AND SWAP1 POP DUP1 PUSH20 0xFFFFFFFFFFFFFFFFFFFFFFFFFFFFFFFFFFFFFFFF AND PUSH4 0xA9059CBB CALLER DUP5 PUSH1 0x3 ADD SLOAD DUP6 PUSH1 0x2 ADD SLOAD PUSH2 0x594 SWAP2 SWAP1 PUSH2 0x2BAB JUMP JUMPDEST PUSH1 0x40 MLOAD DUP4 PUSH4 0xFFFFFFFF AND PUSH1 0xE0 SHL DUP2 MSTORE PUSH1 0x4 ADD PUSH2 0x5B1 SWAP3 SWAP2 SWAP1 PUSH2 0x2BDF JUMP JUMPDEST PUSH1 0x20 PUSH1 0x40 MLOAD DUP1 DUP4 SUB DUP2 PUSH1 0x0 DUP8 GAS CALL ISZERO DUP1 ISZERO PUSH2 0x5D0 JUMPI RETURNDATASIZE PUSH1 0x0 DUP1 RETURNDATACOPY RETURNDATASIZE PUSH1 0x0 REVERT JUMPDEST POP POP POP POP PUSH1 0x40 MLOAD RETURNDATASIZE PUSH1 0x1F NOT PUSH1 0x1F DUP3 ADD AND DUP3 ADD DUP1 PUSH1 0x40 MSTORE POP DUP2 ADD SWAP1 PUSH2 0x5F4 SWAP2 SWAP1 PUSH2 0x2C34 JUMP JUMPDEST POP DUP2 PUSH1 0x2 ADD SLOAD DUP3 PUSH1 0x3 ADD DUP2 SWAP1 SSTORE POP POP POP PUSH2 0x60C PUSH2 0x218F JUMP JUMPDEST POP JUMP JUMPDEST PUSH2 0x617 PUSH2 0x2142 JUMP JUMPDEST PUSH1 0x0 PUSH1 0x8 DUP3 DUP2 SLOAD DUP2 LT PUSH2 0x62D JUMPI PUSH2 0x62C PUSH2 0x2A9C JUMP JUMPDEST JUMPDEST SWAP1 PUSH1 0x0 MSTORE PUSH1 0x20 PUSH1 0x0 KECCAK256 SWAP1 PUSH1 0xF MUL ADD SWAP1 POP PUSH1 0x0 DUP2 PUSH1 0x8 ADD PUSH1 0x0 CALLER PUSH20 0xFFFFFFFFFFFFFFFFFFFFFFFFFFFFFFFFFFFFFFFF AND PUSH20 0xFFFFFFFFFFFFFFFFFFFFFFFFFFFFFFFFFFFFFFFF AND DUP2 MSTORE PUSH1 0x20 ADD SWAP1 DUP2 MSTORE PUSH1 0x20 ADD PUSH1 0x0 KECCAK256 DUP1 SLOAD SWAP1 POP GT DUP1 ISZERO PUSH2 0x6DD JUMPI POP DUP1 PUSH1 0xD ADD PUSH1 0x0 CALLER PUSH20 0xFFFFFFFFFFFFFFFFFFFFFFFFFFFFFFFFFFFFFFFF AND PUSH20 0xFFFFFFFFFFFFFFFFFFFFFFFFFFFFFFFFFFFFFFFF AND DUP2 MSTORE PUSH1 0x20 ADD SWAP1 DUP2 MSTORE PUSH1 0x20 ADD PUSH1 0x0 KECCAK256 PUSH1 0x0 SWAP1 SLOAD SWAP1 PUSH2 0x100 EXP SWAP1 DIV PUSH1 0xFF AND ISZERO JUMPDEST PUSH2 0x71C JUMPI PUSH1 0x40 MLOAD PUSH32 0x8C379A000000000000000000000000000000000000000000000000000000000 DUP2 MSTORE PUSH1 0x4 ADD PUSH2 0x713 SWAP1 PUSH2 0x2CAD JUMP JUMPDEST PUSH1 0x40 MLOAD DUP1 SWAP2 SUB SWAP1 REVERT JUMPDEST PUSH1 0x0 PUSH2 0x727 DUP4 PUSH2 0x1545 JUMP JUMPDEST SWAP1 POP DUP1 DUP3 PUSH1 0x3 ADD SLOAD DUP4 PUSH1 0x2 ADD SLOAD PUSH2 0x73E SWAP2 SWAP1 PUSH2 0x2BAB JUMP JUMPDEST GT PUSH2 0x77E JUMPI PUSH1 0x40 MLOAD PUSH32 0x8C379A000000000000000000000000000000000000000000000000000000000 DUP2 MSTORE PUSH1 0x4 ADD PUSH2 0x775 SWAP1 PUSH2 0x2D19 JUMP JUMPDEST PUSH1 0x40 MLOAD DUP1 SWAP2 SUB SWAP1 REVERT JUMPDEST PUSH1 0x0 DUP3 PUSH1 0x1 ADD PUSH1 0x0 SWAP1 SLOAD SWAP1 PUSH2 0x100 EXP SWAP1 DIV PUSH20 0xFFFFFFFFFFFFFFFFFFFFFFFFFFFFFFFFFFFFFFFF AND SWAP1 POP DUP1 PUSH20 0xFFFFFFFFFFFFFFFFFFFFFFFFFFFFFFFFFFFFFFFF AND PUSH4 0xA9059CBB CALLER DUP5 PUSH1 0x40 MLOAD DUP4 PUSH4 0xFFFFFFFF AND PUSH1 0xE0 SHL DUP2 MSTORE PUSH1 0x4 ADD PUSH2 0x7E2 SWAP3 SWAP2 SWAP1 PUSH2 0x2BDF JUMP JUMPDEST PUSH1 0x20 PUSH1 0x40 MLOAD DUP1 DUP4 SUB DUP2 PUSH1 0x0 DUP8 GAS CALL ISZERO DUP1 ISZERO PUSH2 0x801 JUMPI RETURNDATASIZE PUSH1 0x0 DUP1 RETURNDATACOPY RETURNDATASIZE PUSH1 0x0 REVERT JUMPDEST POP POP POP POP PUSH1 0x40 MLOAD RETURNDATASIZE PUSH1 0x1F NOT PUSH1 0x1F DUP3 ADD AND DUP3 ADD DUP1 PUSH1 0x40 MSTORE POP DUP2 ADD SWAP1 PUSH2 0x825 SWAP2 SWAP1 PUSH2 0x2C34 JUMP JUMPDEST POP DUP2 DUP4 PUSH1 0x3 ADD PUSH1 0x0 DUP3 DUP3 SLOAD PUSH2 0x83A SWAP2 SWAP1 PUSH2 0x2AFA JUMP JUMPDEST SWAP3 POP POP DUP2 SWAP1 SSTORE POP PUSH1 0x1 DUP4 PUSH1 0xD ADD PUSH1 0x0 CALLER PUSH20 0xFFFFFFFFFFFFFFFFFFFFFFFFFFFFFFFFFFFFFFFF AND PUSH20 0xFFFFFFFFFFFFFFFFFFFFFFFFFFFFFFFFFFFFFFFF AND DUP2 MSTORE PUSH1 0x20 ADD SWAP1 DUP2 MSTORE PUSH1 0x20 ADD PUSH1 0x0 KECCAK256 PUSH1 0x0 PUSH2 0x100 EXP DUP2 SLOAD DUP2 PUSH1 0xFF MUL NOT AND SWAP1 DUP4 ISZERO ISZERO MUL OR SWAP1 SSTORE POP CALLER PUSH20 0xFFFFFFFFFFFFFFFFFFFFFFFFFFFFFFFFFFFFFFFF AND DUP5 PUSH32 0x6AA3EAC93D079E5E100B1029BE716CAA33586C96AA4BAAC390669FB5C2A21212 PUSH1 0x40 MLOAD PUSH1 0x40 MLOAD DUP1 SWAP2 SUB SWAP1 LOG3 POP POP POP PUSH2 0x8EA PUSH2 0x218F JUMP JUMPDEST POP JUMP JUMPDEST PUSH1 0x0 PUSH1 0x8 DUP3 DUP2 SLOAD DUP2 LT PUSH2 0x903 JUMPI PUSH2 0x902 PUSH2 0x2A9C JUMP JUMPDEST JUMPDEST SWAP1 PUSH1 0x0 MSTORE PUSH1 0x20 PUSH1 0x0 KECCAK256 SWAP1 PUSH1 0xF MUL ADD SWAP1 POP DUP1 PUSH1 0xC ADD SLOAD TIMESTAMP GT PUSH2 0x959 JUMPI PUSH1 0x40 MLOAD PUSH32 0x8C379A000000000000000000000000000000000000000000000000000000000 DUP2 MSTORE PUSH1 0x4 ADD PUSH2 0x950 SWAP1 PUSH2 0x2B8B JUMP JUMPDEST PUSH1 0x40 MLOAD DUP1 SWAP2 SUB SWAP1 REVERT JUMPDEST PUSH1 0x0 DUP2 PUSH1 0xA ADD SLOAD EQ PUSH2 0x9A0 JUMPI PUSH1 0x40 MLOAD PUSH32 0x8C379A000000000000000000000000000000000000000000000000000000000 DUP2 MSTORE PUSH1 0x4 ADD PUSH2 0x997 SWAP1 PUSH2 0x2D85 JUMP JUMPDEST PUSH1 0x40 MLOAD DUP1 SWAP2 SUB SWAP1 REVERT JUMPDEST PUSH1 0xA PUSH1 0x0 SWAP1 SLOAD SWAP1 PUSH2 0x100 EXP SWAP1 DIV PUSH20 0xFFFFFFFFFFFFFFFFFFFFFFFFFFFFFFFFFFFFFFFF AND PUSH20 0xFFFFFFFFFFFFFFFFFFFFFFFFFFFFFFFFFFFFFFFF AND PUSH4 0x5D3B1D30 PUSH1 0x6 SLOAD PUSH1 0x4 PUSH1 0x0 SWAP1 SLOAD SWAP1 PUSH2 0x100 EXP SWAP1 DIV PUSH8 0xFFFFFFFFFFFFFFFF AND PUSH1 0x7 PUSH1 0x4 SWAP1 SLOAD SWAP1 PUSH2 0x100 EXP SWAP1 DIV PUSH2 0xFFFF AND PUSH1 0x7 PUSH1 0x0 SWAP1 SLOAD SWAP1 PUSH2 0x100 EXP SWAP1 DIV PUSH4 0xFFFFFFFF AND DUP7 PUSH1 0x7 ADD PUSH1 0x0 SWAP1 SLOAD SWAP1 PUSH2 0x100 EXP SWAP1 DIV PUSH4 0xFFFFFFFF AND PUSH1 0x40 MLOAD DUP7 PUSH4 0xFFFFFFFF AND PUSH1 0xE0 SHL DUP2 MSTORE PUSH1 0x4 ADD PUSH2 0xA51 SWAP6 SWAP5 SWAP4 SWAP3 SWAP2 SWAP1 PUSH2 0x2DFE JUMP JUMPDEST PUSH1 0x20 PUSH1 0x40 MLOAD DUP1 DUP4 SUB DUP2 PUSH1 0x0 DUP8 GAS CALL ISZERO DUP1 ISZERO PUSH2 0xA70 JUMPI RETURNDATASIZE PUSH1 0x0 DUP1 RETURNDATACOPY RETURNDATASIZE PUSH1 0x0 REVERT JUMPDEST POP POP POP POP PUSH1 0x40 MLOAD RETURNDATASIZE PUSH1 0x1F NOT PUSH1 0x1F DUP3 ADD AND DUP3 ADD DUP1 PUSH1 0x40 MSTORE POP DUP2 ADD SWAP1 PUSH2 0xA94 SWAP2 SWAP1 PUSH2 0x2E66 JUMP JUMPDEST DUP2 PUSH1 0xA ADD DUP2 SWAP1 SSTORE POP PUSH1 0x40 MLOAD DUP1 PUSH1 0x80 ADD PUSH1 0x40 MSTORE DUP1 PUSH1 0x0 ISZERO ISZERO DUP2 MSTORE PUSH1 0x20 ADD PUSH1 0x1 ISZERO ISZERO DUP2 MSTORE PUSH1 0x20 ADD PUSH1 0x0 PUSH8 0xFFFFFFFFFFFFFFFF DUP2 GT ISZERO PUSH2 0xAD4 JUMPI PUSH2 0xAD3 PUSH2 0x23E0 JUMP JUMPDEST JUMPDEST PUSH1 0x40 MLOAD SWAP1 DUP1 DUP3 MSTORE DUP1 PUSH1 0x20 MUL PUSH1 0x20 ADD DUP3 ADD PUSH1 0x40 MSTORE DUP1 ISZERO PUSH2 0xB02 JUMPI DUP2 PUSH1 0x20 ADD PUSH1 0x20 DUP3 MUL DUP1 CALLDATASIZE DUP4 CALLDATACOPY DUP1 DUP3 ADD SWAP2 POP POP SWAP1 POP JUMPDEST POP DUP2 MSTORE PUSH1 0x20 ADD DUP4 DUP2 MSTORE POP PUSH1 0x9 PUSH1 0x0 DUP4 PUSH1 0xA ADD SLOAD DUP2 MSTORE PUSH1 0x20 ADD SWAP1 DUP2 MSTORE PUSH1 0x20 ADD PUSH1 0x0 KECCAK256 PUSH1 0x0 DUP3 ADD MLOAD DUP2 PUSH1 0x0 ADD PUSH1 0x0 PUSH2 0x100 EXP DUP2 SLOAD DUP2 PUSH1 0xFF MUL NOT AND SWAP1 DUP4 ISZERO ISZERO MUL OR SWAP1 SSTORE POP PUSH1 0x20 DUP3 ADD MLOAD DUP2 PUSH1 0x0 ADD PUSH1 0x1 PUSH2 0x100 EXP DUP2 SLOAD DUP2 PUSH1 0xFF MUL NOT AND SWAP1 DUP4 ISZERO ISZERO MUL OR SWAP1 SSTORE POP PUSH1 0x40 DUP3 ADD MLOAD DUP2 PUSH1 0x1 ADD SWAP1 DUP1 MLOAD SWAP1 PUSH1 0x20 ADD SWAP1 PUSH2 0xB7F SWAP3 SWAP2 SWAP1 PUSH2 0x22E9 JUMP JUMPDEST POP PUSH1 0x60 DUP3 ADD MLOAD DUP2 PUSH1 0x2 ADD SSTORE SWAP1 POP POP PUSH32 0xCD21A41891FF04ECD9A8754BEC97E2FB85D2A4E7694329D4DC364C796F23D06 DUP3 PUSH1 0x40 MLOAD PUSH2 0xBBC SWAP2 SWAP1 PUSH2 0x2806 JUMP JUMPDEST PUSH1 0x40 MLOAD DUP1 SWAP2 SUB SWAP1 LOG1 POP POP JUMP JUMPDEST DUP2 DUP2 GT DUP1 ISZERO PUSH2 0xBD6 JUMPI POP TIMESTAMP DUP2 GT JUMPDEST PUSH2 0xC15 JUMPI PUSH1 0x40 MLOAD PUSH32 0x8C379A000000000000000000000000000000000000000000000000000000000 DUP2 MSTORE PUSH1 0x4 ADD PUSH2 0xC0C SWAP1 PUSH2 0x2EDF JUMP JUMPDEST PUSH1 0x40 MLOAD DUP1 SWAP2 SUB SWAP1 REVERT JUMPDEST DUP3 PUSH4 0xFFFFFFFF AND DUP5 MLOAD EQ DUP1 ISZERO PUSH2 0xC31 JUMPI POP PUSH1 0x0 DUP4 PUSH4 0xFFFFFFFF AND GT JUMPDEST PUSH2 0xC70 JUMPI PUSH1 0x40 MLOAD PUSH32 0x8C379A000000000000000000000000000000000000000000000000000000000 DUP2 MSTORE PUSH1 0x4 ADD PUSH2 0xC67 SWAP1 PUSH2 0x2F4B JUMP JUMPDEST PUSH1 0x40 MLOAD DUP1 SWAP2 SUB SWAP1 REVERT JUMPDEST PUSH1 0x0 DUP8 SWAP1 POP PUSH1 0x0 DUP2 PUSH20 0xFFFFFFFFFFFFFFFFFFFFFFFFFFFFFFFFFFFFFFFF AND PUSH4 0x18160DDD PUSH1 0x40 MLOAD DUP2 PUSH4 0xFFFFFFFF AND PUSH1 0xE0 SHL DUP2 MSTORE PUSH1 0x4 ADD PUSH1 0x20 PUSH1 0x40 MLOAD DUP1 DUP4 SUB DUP2 DUP7 GAS STATICCALL ISZERO DUP1 ISZERO PUSH2 0xCC2 JUMPI RETURNDATASIZE PUSH1 0x0 DUP1 RETURNDATACOPY RETURNDATASIZE PUSH1 0x0 REVERT JUMPDEST POP POP POP POP PUSH1 0x40 MLOAD RETURNDATASIZE PUSH1 0x1F NOT PUSH1 0x1F DUP3 ADD AND DUP3 ADD DUP1 PUSH1 0x40 MSTORE POP DUP2 ADD SWAP1 PUSH2 0xCE6 SWAP2 SWAP1 PUSH2 0x2E66 JUMP JUMPDEST GT PUSH2 0xD26 JUMPI PUSH1 0x40 MLOAD PUSH32 0x8C379A000000000000000000000000000000000000000000000000000000000 DUP2 MSTORE PUSH1 0x4 ADD PUSH2 0xD1D SWAP1 PUSH2 0x2FB7 JUMP JUMPDEST PUSH1 0x40 MLOAD DUP1 SWAP2 SUB SWAP1 REVERT JUMPDEST PUSH1 0x0 DUP1 JUMPDEST DUP6 PUSH4 0xFFFFFFFF AND DUP2 LT ISZERO PUSH2 0xD73 JUMPI DUP7 DUP2 DUP2 MLOAD DUP2 LT PUSH2 0xD4B JUMPI PUSH2 0xD4A PUSH2 0x2A9C JUMP JUMPDEST JUMPDEST PUSH1 0x20 MUL PUSH1 0x20 ADD ADD MLOAD DUP3 PUSH2 0xD5E SWAP2 SWAP1 PUSH2 0x2AFA JUMP JUMPDEST SWAP2 POP DUP1 DUP1 PUSH2 0xD6B SWAP1 PUSH2 0x2FD7 JUMP JUMPDEST SWAP2 POP POP PUSH2 0xD2A JUMP JUMPDEST POP PUSH1 0x64 DUP2 LT PUSH2 0xDB7 JUMPI PUSH1 0x40 MLOAD PUSH32 0x8C379A000000000000000000000000000000000000000000000000000000000 DUP2 MSTORE PUSH1 0x4 ADD PUSH2 0xDAE SWAP1 PUSH2 0x306B JUMP JUMPDEST PUSH1 0x40 MLOAD DUP1 SWAP2 SUB SWAP1 REVERT JUMPDEST PUSH1 0x0 PUSH1 0x8 PUSH1 0x1 DUP2 PUSH1 0x1 DUP2 SLOAD ADD DUP1 DUP3 SSTORE DUP1 SWAP2 POP POP SUB SWAP1 PUSH1 0x0 MSTORE PUSH1 0x20 PUSH1 0x0 KECCAK256 SWAP1 PUSH1 0xF MUL ADD SWAP1 POP CALLER DUP2 PUSH1 0x0 ADD PUSH1 0x0 PUSH2 0x100 EXP DUP2 SLOAD DUP2 PUSH20 0xFFFFFFFFFFFFFFFFFFFFFFFFFFFFFFFFFFFFFFFF MUL NOT AND SWAP1 DUP4 PUSH20 0xFFFFFFFFFFFFFFFFFFFFFFFFFFFFFFFFFFFFFFFF AND MUL OR SWAP1 SSTORE POP DUP10 DUP2 PUSH1 0x1 ADD PUSH1 0x0 PUSH2 0x100 EXP DUP2 SLOAD DUP2 PUSH20 0xFFFFFFFFFFFFFFFFFFFFFFFFFFFFFFFFFFFFFFFF MUL NOT AND SWAP1 DUP4 PUSH20 0xFFFFFFFFFFFFFFFFFFFFFFFFFFFFFFFFFFFFFFFF AND MUL OR SWAP1 SSTORE POP DUP9 DUP2 PUSH1 0x4 ADD DUP2 SWAP1 SSTORE POP DUP8 DUP2 PUSH1 0x5 ADD DUP2 SWAP1 SSTORE POP DUP7 DUP2 PUSH1 0x6 ADD SWAP1 DUP1 MLOAD SWAP1 PUSH1 0x20 ADD SWAP1 PUSH2 0xE8B SWAP3 SWAP2 SWAP1 PUSH2 0x22E9 JUMP JUMPDEST POP DUP6 DUP2 PUSH1 0x7 ADD PUSH1 0x0 PUSH2 0x100 EXP DUP2 SLOAD DUP2 PUSH4 0xFFFFFFFF MUL NOT AND SWAP1 DUP4 PUSH4 0xFFFFFFFF AND MUL OR SWAP1 SSTORE POP DUP5 DUP2 PUSH1 0xB ADD DUP2 SWAP1 SSTORE POP DUP4 DUP2 PUSH1 0xC ADD DUP2 SWAP1 SSTORE POP PUSH32 0x960F4FB18F2AF9795686D97891DBD6534865353629CBDA12AFB278E618197662 PUSH1 0x1 PUSH1 0x8 DUP1 SLOAD SWAP1 POP PUSH2 0xEF4 SWAP2 SWAP1 PUSH2 0x2BAB JUMP JUMPDEST PUSH1 0x40 MLOAD PUSH2 0xF01 SWAP2 SWAP1 PUSH2 0x2806 JUMP JUMPDEST PUSH1 0x40 MLOAD DUP1 SWAP2 SUB SWAP1 LOG1 POP POP POP POP POP POP POP POP POP POP JUMP JUMPDEST PUSH1 0x1 PUSH1 0x0 SWAP1 SLOAD SWAP1 PUSH2 0x100 EXP SWAP1 DIV PUSH20 0xFFFFFFFFFFFFFFFFFFFFFFFFFFFFFFFFFFFFFFFF AND PUSH20 0xFFFFFFFFFFFFFFFFFFFFFFFFFFFFFFFFFFFFFFFF AND CALLER PUSH20 0xFFFFFFFFFFFFFFFFFFFFFFFFFFFFFFFFFFFFFFFF AND EQ PUSH2 0xFA5 JUMPI PUSH1 0x40 MLOAD PUSH32 0x8C379A000000000000000000000000000000000000000000000000000000000 DUP2 MSTORE PUSH1 0x4 ADD PUSH2 0xF9C SWAP1 PUSH2 0x30D7 JUMP JUMPDEST PUSH1 0x40 MLOAD DUP1 SWAP2 SUB SWAP1 REVERT JUMPDEST PUSH1 0x0 DUP1 PUSH1 0x0 SWAP1 SLOAD SWAP1 PUSH2 0x100 EXP SWAP1 DIV PUSH20 0xFFFFFFFFFFFFFFFFFFFFFFFFFFFFFFFFFFFFFFFF AND SWAP1 POP CALLER PUSH1 0x0 DUP1 PUSH2 0x100 EXP DUP2 SLOAD DUP2 PUSH20 0xFFFFFFFFFFFFFFFFFFFFFFFFFFFFFFFFFFFFFFFF MUL NOT AND SWAP1 DUP4 PUSH20 0xFFFFFFFFFFFFFFFFFFFFFFFFFFFFFFFFFFFFFFFF AND MUL OR SWAP1 SSTORE POP PUSH1 0x0 PUSH1 0x1 PUSH1 0x0 PUSH2 0x100 EXP DUP2 SLOAD DUP2 PUSH20 0xFFFFFFFFFFFFFFFFFFFFFFFFFFFFFFFFFFFFFFFF MUL NOT AND SWAP1 DUP4 PUSH20 0xFFFFFFFFFFFFFFFFFFFFFFFFFFFFFFFFFFFFFFFF AND MUL OR SWAP1 SSTORE POP CALLER PUSH20 0xFFFFFFFFFFFFFFFFFFFFFFFFFFFFFFFFFFFFFFFF AND DUP2 PUSH20 0xFFFFFFFFFFFFFFFFFFFFFFFFFFFFFFFFFFFFFFFF AND PUSH32 0x8BE0079C531659141344CD1FD0A4F28419497F9722A3DAAFE3B4186F6B6457E0 PUSH1 0x40 MLOAD PUSH1 0x40 MLOAD DUP1 SWAP2 SUB SWAP1 LOG3 POP JUMP JUMPDEST PUSH1 0x0 PUSH1 0x8 DUP4 DUP2 SLOAD DUP2 LT PUSH2 0x10C0 JUMPI PUSH2 0x10BF PUSH2 0x2A9C JUMP JUMPDEST JUMPDEST SWAP1 PUSH1 0x0 MSTORE PUSH1 0x20 PUSH1 0x0 KECCAK256 SWAP1 PUSH1 0xF MUL ADD SWAP1 POP TIMESTAMP DUP2 PUSH1 0xB ADD SLOAD LT DUP1 ISZERO PUSH2 0x10E6 JUMPI POP TIMESTAMP DUP2 PUSH1 0xC ADD SLOAD GT JUMPDEST PUSH2 0x1125 JUMPI PUSH1 0x40 MLOAD PUSH32 0x8C379A000000000000000000000000000000000000000000000000000000000 DUP2 MSTORE PUSH1 0x4 ADD PUSH2 0x111C SWAP1 PUSH2 0x2EDF JUMP JUMPDEST PUSH1 0x40 MLOAD DUP1 SWAP2 SUB SWAP1 REVERT JUMPDEST PUSH1 0x0 DUP2 PUSH1 0x8 ADD PUSH1 0x0 CALLER PUSH20 0xFFFFFFFFFFFFFFFFFFFFFFFFFFFFFFFFFFFFFFFF AND PUSH20 0xFFFFFFFFFFFFFFFFFFFFFFFFFFFFFFFFFFFFFFFF AND DUP2 MSTORE PUSH1 0x20 ADD SWAP1 DUP2 MSTORE PUSH1 0x20 ADD PUSH1 0x0 KECCAK256 DUP1 SLOAD SWAP1 POP SWAP1 POP PUSH1 0x0 DUP4 GT DUP1 ISZERO PUSH2 0x118D JUMPI POP DUP2 PUSH1 0x4 ADD SLOAD DUP4 DUP3 PUSH2 0x118A SWAP2 SWAP1 PUSH2 0x2AFA JUMP JUMPDEST GT ISZERO JUMPDEST PUSH2 0x11CC JUMPI PUSH1 0x40 MLOAD PUSH32 0x8C379A000000000000000000000000000000000000000000000000000000000 DUP2 MSTORE PUSH1 0x4 ADD PUSH2 0x11C3 SWAP1 PUSH2 0x3143 JUMP JUMPDEST PUSH1 0x40 MLOAD DUP1 SWAP2 SUB SWAP1 REVERT JUMPDEST PUSH1 0x0 DUP4 DUP3 PUSH2 0x11DA SWAP2 SWAP1 PUSH2 0x2AFA JUMP JUMPDEST PUSH8 0xFFFFFFFFFFFFFFFF DUP2 GT ISZERO PUSH2 0x11F3 JUMPI PUSH2 0x11F2 PUSH2 0x23E0 JUMP JUMPDEST JUMPDEST PUSH1 0x40 MLOAD SWAP1 DUP1 DUP3 MSTORE DUP1 PUSH1 0x20 MUL PUSH1 0x20 ADD DUP3 ADD PUSH1 0x40 MSTORE DUP1 ISZERO PUSH2 0x1221 JUMPI DUP2 PUSH1 0x20 ADD PUSH1 0x20 DUP3 MUL DUP1 CALLDATASIZE DUP4 CALLDATACOPY DUP1 DUP3 ADD SWAP2 POP POP SWAP1 POP JUMPDEST POP SWAP1 POP PUSH1 0x0 DUP4 PUSH1 0x1 ADD PUSH1 0x0 SWAP1 SLOAD SWAP1 PUSH2 0x100 EXP SWAP1 DIV PUSH20 0xFFFFFFFFFFFFFFFFFFFFFFFFFFFFFFFFFFFFFFFF AND SWAP1 POP PUSH1 0x0 DUP5 PUSH1 0x5 ADD SLOAD DUP7 PUSH2 0x125F SWAP2 SWAP1 PUSH2 0x3163 JUMP JUMPDEST SWAP1 POP DUP2 PUSH20 0xFFFFFFFFFFFFFFFFFFFFFFFFFFFFFFFFFFFFFFFF AND PUSH4 0x23B872DD CALLER ADDRESS DUP5 PUSH1 0x40 MLOAD DUP5 PUSH4 0xFFFFFFFF AND PUSH1 0xE0 SHL DUP2 MSTORE PUSH1 0x4 ADD PUSH2 0x129E SWAP4 SWAP3 SWAP2 SWAP1 PUSH2 0x31A5 JUMP JUMPDEST PUSH1 0x20 PUSH1 0x40 MLOAD DUP1 DUP4 SUB DUP2 PUSH1 0x0 DUP8 GAS CALL ISZERO DUP1 ISZERO PUSH2 0x12BD JUMPI RETURNDATASIZE PUSH1 0x0 DUP1 RETURNDATACOPY RETURNDATASIZE PUSH1 0x0 REVERT JUMPDEST POP POP POP POP PUSH1 0x40 MLOAD RETURNDATASIZE PUSH1 0x1F NOT PUSH1 0x1F DUP3 ADD AND DUP3 ADD DUP1 PUSH1 0x40 MSTORE POP DUP2 ADD SWAP1 PUSH2 0x12E1 SWAP2 SWAP1 PUSH2 0x2C34 JUMP JUMPDEST POP PUSH1 0x0 JUMPDEST DUP5 DUP2 LT ISZERO PUSH2 0x137D JUMPI DUP6 PUSH1 0x8 ADD PUSH1 0x0 CALLER PUSH20 0xFFFFFFFFFFFFFFFFFFFFFFFFFFFFFFFFFFFFFFFF AND PUSH20 0xFFFFFFFFFFFFFFFFFFFFFFFFFFFFFFFFFFFFFFFF AND DUP2 MSTORE PUSH1 0x20 ADD SWAP1 DUP2 MSTORE PUSH1 0x20 ADD PUSH1 0x0 KECCAK256 DUP2 DUP2 SLOAD DUP2 LT PUSH2 0x1340 JUMPI PUSH2 0x133F PUSH2 0x2A9C JUMP JUMPDEST JUMPDEST SWAP1 PUSH1 0x0 MSTORE PUSH1 0x20 PUSH1 0x0 KECCAK256 ADD SLOAD DUP5 DUP3 DUP2 MLOAD DUP2 LT PUSH2 0x135E JUMPI PUSH2 0x135D PUSH2 0x2A9C JUMP JUMPDEST JUMPDEST PUSH1 0x20 MUL PUSH1 0x20 ADD ADD DUP2 DUP2 MSTORE POP POP DUP1 DUP1 PUSH2 0x1375 SWAP1 PUSH2 0x2FD7 JUMP JUMPDEST SWAP2 POP POP PUSH2 0x12E5 JUMP JUMPDEST POP PUSH1 0x0 JUMPDEST DUP7 DUP2 LT ISZERO PUSH2 0x1443 JUMPI PUSH2 0x1395 DUP7 PUSH1 0xE ADD PUSH2 0x2199 JUMP JUMPDEST DUP5 DUP3 DUP8 PUSH2 0x13A2 SWAP2 SWAP1 PUSH2 0x2AFA JUMP JUMPDEST DUP2 MLOAD DUP2 LT PUSH2 0x13B3 JUMPI PUSH2 0x13B2 PUSH2 0x2A9C JUMP JUMPDEST JUMPDEST PUSH1 0x20 MUL PUSH1 0x20 ADD ADD DUP2 DUP2 MSTORE POP POP DUP6 PUSH1 0x9 ADD CALLER SWAP1 DUP1 PUSH1 0x1 DUP2 SLOAD ADD DUP1 DUP3 SSTORE DUP1 SWAP2 POP POP PUSH1 0x1 SWAP1 SUB SWAP1 PUSH1 0x0 MSTORE PUSH1 0x20 PUSH1 0x0 KECCAK256 ADD PUSH1 0x0 SWAP1 SWAP2 SWAP1 SWAP2 SWAP1 SWAP2 PUSH2 0x100 EXP DUP2 SLOAD DUP2 PUSH20 0xFFFFFFFFFFFFFFFFFFFFFFFFFFFFFFFFFFFFFFFF MUL NOT AND SWAP1 DUP4 PUSH20 0xFFFFFFFFFFFFFFFFFFFFFFFFFFFFFFFFFFFFFFFF AND MUL OR SWAP1 SSTORE POP PUSH2 0x1430 DUP7 PUSH1 0xE ADD PUSH2 0x21A7 JUMP JUMPDEST DUP1 DUP1 PUSH2 0x143B SWAP1 PUSH2 0x2FD7 JUMP JUMPDEST SWAP2 POP POP PUSH2 0x1381 JUMP JUMPDEST POP DUP3 DUP6 PUSH1 0x8 ADD PUSH1 0x0 CALLER PUSH20 0xFFFFFFFFFFFFFFFFFFFFFFFFFFFFFFFFFFFFFFFF AND PUSH20 0xFFFFFFFFFFFFFFFFFFFFFFFFFFFFFFFFFFFFFFFF AND DUP2 MSTORE PUSH1 0x20 ADD SWAP1 DUP2 MSTORE PUSH1 0x20 ADD PUSH1 0x0 KECCAK256 SWAP1 DUP1 MLOAD SWAP1 PUSH1 0x20 ADD SWAP1 PUSH2 0x1499 SWAP3 SWAP2 SWAP1 PUSH2 0x22E9 JUMP JUMPDEST POP DUP1 DUP6 PUSH1 0x2 ADD PUSH1 0x0 DUP3 DUP3 SLOAD PUSH2 0x14AE SWAP2 SWAP1 PUSH2 0x2AFA JUMP JUMPDEST SWAP3 POP POP DUP2 SWAP1 SSTORE POP DUP7 PUSH32 0xE10598FA0628B6878DF33DDDD270FC68ABC6BC5B8B864E07AC2D9313CF31043E DUP3 PUSH1 0x40 MLOAD PUSH2 0x14E5 SWAP2 SWAP1 PUSH2 0x2806 JUMP JUMPDEST PUSH1 0x40 MLOAD DUP1 SWAP2 SUB SWAP1 LOG2 CALLER PUSH20 0xFFFFFFFFFFFFFFFFFFFFFFFFFFFFFFFFFFFFFFFF AND DUP8 PUSH32 0xB3E822478FA19CB993157F15B49A00501CC8D45226C1E7233AEF1E281DC567F9 DUP9 PUSH1 0x40 MLOAD PUSH2 0x1534 SWAP2 SWAP1 PUSH2 0x2806 JUMP JUMPDEST PUSH1 0x40 MLOAD DUP1 SWAP2 SUB SWAP1 LOG3 POP POP POP POP POP POP POP JUMP JUMPDEST PUSH1 0x0 DUP1 PUSH1 0x8 DUP4 DUP2 SLOAD DUP2 LT PUSH2 0x155C JUMPI PUSH2 0x155B PUSH2 0x2A9C JUMP JUMPDEST JUMPDEST SWAP1 PUSH1 0x0 MSTORE PUSH1 0x20 PUSH1 0x0 KECCAK256 SWAP1 PUSH1 0xF MUL ADD SWAP1 POP PUSH1 0x0 DUP2 PUSH1 0x8 ADD PUSH1 0x0 CALLER PUSH20 0xFFFFFFFFFFFFFFFFFFFFFFFFFFFFFFFFFFFFFFFF AND PUSH20 0xFFFFFFFFFFFFFFFFFFFFFFFFFFFFFFFFFFFFFFFF AND DUP2 MSTORE PUSH1 0x20 ADD SWAP1 DUP2 MSTORE PUSH1 0x20 ADD PUSH1 0x0 KECCAK256 DUP1 SLOAD SWAP1 POP SUB PUSH2 0x15C2 JUMPI PUSH1 0x0 SWAP2 POP POP PUSH2 0x17BF JUMP JUMPDEST PUSH1 0x0 PUSH2 0x15CD DUP5 PUSH2 0x17ED JUMP JUMPDEST SWAP1 POP PUSH1 0x0 DUP1 PUSH1 0x0 JUMPDEST DUP4 MLOAD DUP2 LT ISZERO PUSH2 0x173B JUMPI DUP4 DUP2 DUP2 MLOAD DUP2 LT PUSH2 0x15F1 JUMPI PUSH2 0x15F0 PUSH2 0x2A9C JUMP JUMPDEST JUMPDEST PUSH1 0x20 MUL PUSH1 0x20 ADD ADD MLOAD PUSH20 0xFFFFFFFFFFFFFFFFFFFFFFFFFFFFFFFFFFFFFFFF AND CALLER PUSH20 0xFFFFFFFFFFFFFFFFFFFFFFFFFFFFFFFFFFFFFFFF AND SUB PUSH2 0x1673 JUMPI PUSH1 0x64 DUP6 PUSH1 0x6 ADD DUP3 DUP2 SLOAD DUP2 LT PUSH2 0x1643 JUMPI PUSH2 0x1642 PUSH2 0x2A9C JUMP JUMPDEST JUMPDEST SWAP1 PUSH1 0x0 MSTORE PUSH1 0x20 PUSH1 0x0 KECCAK256 ADD SLOAD DUP7 PUSH1 0x2 ADD SLOAD PUSH2 0x165D SWAP2 SWAP1 PUSH2 0x3163 JUMP JUMPDEST PUSH2 0x1667 SWAP2 SWAP1 PUSH2 0x320B JUMP JUMPDEST SWAP6 POP POP POP POP POP POP PUSH2 0x17BF JUMP JUMPDEST DUP5 PUSH1 0x8 ADD PUSH1 0x0 DUP6 DUP4 DUP2 MLOAD DUP2 LT PUSH2 0x168C JUMPI PUSH2 0x168B PUSH2 0x2A9C JUMP JUMPDEST JUMPDEST PUSH1 0x20 MUL PUSH1 0x20 ADD ADD MLOAD PUSH20 0xFFFFFFFFFFFFFFFFFFFFFFFFFFFFFFFFFFFFFFFF AND PUSH20 0xFFFFFFFFFFFFFFFFFFFFFFFFFFFFFFFFFFFFFFFF AND DUP2 MSTORE PUSH1 0x20 ADD SWAP1 DUP2 MSTORE PUSH1 0x20 ADD PUSH1 0x0 KECCAK256 DUP1 SLOAD SWAP1 POP DUP3 PUSH2 0x16DD SWAP2 SWAP1 PUSH2 0x2AFA JUMP JUMPDEST SWAP2 POP PUSH1 0x64 DUP6 PUSH1 0x6 ADD DUP3 DUP2 SLOAD DUP2 LT PUSH2 0x16F7 JUMPI PUSH2 0x16F6 PUSH2 0x2A9C JUMP JUMPDEST JUMPDEST SWAP1 PUSH1 0x0 MSTORE PUSH1 0x20 PUSH1 0x0 KECCAK256 ADD SLOAD DUP7 PUSH1 0x2 ADD SLOAD PUSH2 0x1711 SWAP2 SWAP1 PUSH2 0x3163 JUMP JUMPDEST PUSH2 0x171B SWAP2 SWAP1 PUSH2 0x320B JUMP JUMPDEST DUP4 PUSH2 0x1726 SWAP2 SWAP1 PUSH2 0x2AFA JUMP JUMPDEST SWAP3 POP DUP1 DUP1 PUSH2 0x1733 SWAP1 PUSH2 0x2FD7 JUMP JUMPDEST SWAP2 POP POP PUSH2 0x15D5 JUMP JUMPDEST POP DUP1 DUP5 PUSH1 0x9 ADD DUP1 SLOAD SWAP1 POP PUSH2 0x174F SWAP2 SWAP1 PUSH2 0x2BAB JUMP JUMPDEST DUP5 PUSH1 0x8 ADD PUSH1 0x0 CALLER PUSH20 0xFFFFFFFFFFFFFFFFFFFFFFFFFFFFFFFFFFFFFFFF AND PUSH20 0xFFFFFFFFFFFFFFFFFFFFFFFFFFFFFFFFFFFFFFFF AND DUP2 MSTORE PUSH1 0x20 ADD SWAP1 DUP2 MSTORE PUSH1 0x20 ADD PUSH1 0x0 KECCAK256 DUP1 SLOAD SWAP1 POP DUP4 DUP7 PUSH1 0x2 ADD SLOAD PUSH2 0x17A4 SWAP2 SWAP1 PUSH2 0x2BAB JUMP JUMPDEST PUSH2 0x17AE SWAP2 SWAP1 PUSH2 0x3163 JUMP JUMPDEST PUSH2 0x17B8 SWAP2 SWAP1 PUSH2 0x320B JUMP JUMPDEST SWAP5 POP POP POP POP POP JUMPDEST SWAP2 SWAP1 POP JUMP JUMPDEST PUSH1 0x0 DUP1 PUSH1 0x0 SWAP1 SLOAD SWAP1 PUSH2 0x100 EXP SWAP1 DIV PUSH20 0xFFFFFFFFFFFFFFFFFFFFFFFFFFFFFFFFFFFFFFFF AND SWAP1 POP SWAP1 JUMP JUMPDEST PUSH1 0x60 PUSH1 0x0 PUSH1 0x8 DUP4 DUP2 SLOAD DUP2 LT PUSH2 0x1805 JUMPI PUSH2 0x1804 PUSH2 0x2A9C JUMP JUMPDEST JUMPDEST SWAP1 PUSH1 0x0 MSTORE PUSH1 0x20 PUSH1 0x0 KECCAK256 SWAP1 PUSH1 0xF MUL ADD SWAP1 POP PUSH1 0x0 PUSH1 0x9 PUSH1 0x0 DUP4 PUSH1 0xA ADD SLOAD DUP2 MSTORE PUSH1 0x20 ADD SWAP1 DUP2 MSTORE PUSH1 0x20 ADD PUSH1 0x0 KECCAK256 SWAP1 POP DUP1 PUSH1 0x0 ADD PUSH1 0x0 SWAP1 SLOAD SWAP1 PUSH2 0x100 EXP SWAP1 DIV PUSH1 0xFF AND PUSH2 0x1881 JUMPI PUSH1 0x40 MLOAD PUSH32 0x8C379A000000000000000000000000000000000000000000000000000000000 DUP2 MSTORE PUSH1 0x4 ADD PUSH2 0x1878 SWAP1 PUSH2 0x3288 JUMP JUMPDEST PUSH1 0x40 MLOAD DUP1 SWAP2 SUB SWAP1 REVERT JUMPDEST DUP2 PUSH1 0x7 ADD PUSH1 0x0 SWAP1 SLOAD SWAP1 PUSH2 0x100 EXP SWAP1 DIV PUSH4 0xFFFFFFFF AND PUSH4 0xFFFFFFFF AND PUSH8 0xFFFFFFFFFFFFFFFF DUP2 GT ISZERO PUSH2 0x18B5 JUMPI PUSH2 0x18B4 PUSH2 0x23E0 JUMP JUMPDEST JUMPDEST PUSH1 0x40 MLOAD SWAP1 DUP1 DUP3 MSTORE DUP1 PUSH1 0x20 MUL PUSH1 0x20 ADD DUP3 ADD PUSH1 0x40 MSTORE DUP1 ISZERO PUSH2 0x18E3 JUMPI DUP2 PUSH1 0x20 ADD PUSH1 0x20 DUP3 MUL DUP1 CALLDATASIZE DUP4 CALLDATACOPY DUP1 DUP3 ADD SWAP2 POP POP SWAP1 POP JUMPDEST POP SWAP3 POP PUSH1 0x0 PUSH2 0x18F4 DUP4 PUSH1 0xE ADD PUSH2 0x2199 JUMP JUMPDEST SWAP1 POP PUSH1 0x0 JUMPDEST DUP4 PUSH1 0x7 ADD PUSH1 0x0 SWAP1 SLOAD SWAP1 PUSH2 0x100 EXP SWAP1 DIV PUSH4 0xFFFFFFFF AND PUSH4 0xFFFFFFFF AND DUP2 LT ISZERO PUSH2 0x1B30 JUMPI PUSH1 0x0 DUP3 DUP5 PUSH1 0x1 ADD DUP4 DUP2 SLOAD DUP2 LT PUSH2 0x1934 JUMPI PUSH2 0x1933 PUSH2 0x2A9C JUMP JUMPDEST JUMPDEST SWAP1 PUSH1 0x0 MSTORE PUSH1 0x20 PUSH1 0x0 KECCAK256 ADD SLOAD PUSH2 0x1949 SWAP2 SWAP1 PUSH2 0x32A8 JUMP JUMPDEST SWAP1 POP PUSH1 0x0 JUMPDEST DUP3 DUP2 LT ISZERO PUSH2 0x1A21 JUMPI PUSH1 0x0 DUP7 PUSH1 0x8 ADD PUSH1 0x0 DUP10 DUP5 DUP2 MLOAD DUP2 LT PUSH2 0x1971 JUMPI PUSH2 0x1970 PUSH2 0x2A9C JUMP JUMPDEST JUMPDEST PUSH1 0x20 MUL PUSH1 0x20 ADD ADD MLOAD PUSH20 0xFFFFFFFFFFFFFFFFFFFFFFFFFFFFFFFFFFFFFFFF AND PUSH20 0xFFFFFFFFFFFFFFFFFFFFFFFFFFFFFFFFFFFFFFFF AND DUP2 MSTORE PUSH1 0x20 ADD SWAP1 DUP2 MSTORE PUSH1 0x20 ADD PUSH1 0x0 KECCAK256 SWAP1 POP PUSH1 0x0 JUMPDEST DUP2 DUP1 SLOAD SWAP1 POP DUP2 LT DUP1 ISZERO PUSH2 0x19E8 JUMPI POP DUP4 DUP3 DUP3 DUP2 SLOAD DUP2 LT PUSH2 0x19DA JUMPI PUSH2 0x19D9 PUSH2 0x2A9C JUMP JUMPDEST JUMPDEST SWAP1 PUSH1 0x0 MSTORE PUSH1 0x20 PUSH1 0x0 KECCAK256 ADD SLOAD GT ISZERO JUMPDEST ISZERO PUSH2 0x1A0C JUMPI DUP4 PUSH2 0x19F7 SWAP1 PUSH2 0x2FD7 JUMP JUMPDEST SWAP4 POP DUP1 DUP1 PUSH2 0x1A04 SWAP1 PUSH2 0x2FD7 JUMP JUMPDEST SWAP2 POP POP PUSH2 0x19B8 JUMP JUMPDEST POP POP DUP1 DUP1 PUSH2 0x1A19 SWAP1 PUSH2 0x2FD7 JUMP JUMPDEST SWAP2 POP POP PUSH2 0x194E JUMP JUMPDEST POP DUP5 PUSH1 0x9 ADD DUP2 DUP2 SLOAD DUP2 LT PUSH2 0x1A38 JUMPI PUSH2 0x1A37 PUSH2 0x2A9C JUMP JUMPDEST JUMPDEST SWAP1 PUSH1 0x0 MSTORE PUSH1 0x20 PUSH1 0x0 KECCAK256 ADD PUSH1 0x0 SWAP1 SLOAD SWAP1 PUSH2 0x100 EXP SWAP1 DIV PUSH20 0xFFFFFFFFFFFFFFFFFFFFFFFFFFFFFFFFFFFFFFFF AND DUP7 DUP4 DUP2 MLOAD DUP2 LT PUSH2 0x1A76 JUMPI PUSH2 0x1A75 PUSH2 0x2A9C JUMP JUMPDEST JUMPDEST PUSH1 0x20 MUL PUSH1 0x20 ADD ADD SWAP1 PUSH20 0xFFFFFFFFFFFFFFFFFFFFFFFFFFFFFFFFFFFFFFFF AND SWAP1 DUP2 PUSH20 0xFFFFFFFFFFFFFFFFFFFFFFFFFFFFFFFFFFFFFFFF AND DUP2 MSTORE POP POP DUP5 PUSH1 0x8 ADD PUSH1 0x0 DUP8 DUP5 DUP2 MLOAD DUP2 LT PUSH2 0x1AC9 JUMPI PUSH2 0x1AC8 PUSH2 0x2A9C JUMP JUMPDEST JUMPDEST PUSH1 0x20 MUL PUSH1 0x20 ADD ADD MLOAD PUSH20 0xFFFFFFFFFFFFFFFFFFFFFFFFFFFFFFFFFFFFFFFF AND PUSH20 0xFFFFFFFFFFFFFFFFFFFFFFFFFFFFFFFFFFFFFFFF AND DUP2 MSTORE PUSH1 0x20 ADD SWAP1 DUP2 MSTORE PUSH1 0x20 ADD PUSH1 0x0 KECCAK256 DUP1 SLOAD SWAP1 POP DUP4 PUSH2 0x1B1A SWAP2 SWAP1 PUSH2 0x2BAB JUMP JUMPDEST SWAP3 POP POP DUP1 DUP1 PUSH2 0x1B28 SWAP1 PUSH2 0x2FD7 JUMP JUMPDEST SWAP2 POP POP PUSH2 0x18F9 JUMP JUMPDEST POP POP POP POP SWAP2 SWAP1 POP JUMP JUMPDEST PUSH1 0x0 DUP1 PUSH1 0x0 DUP1 PUSH1 0x60 PUSH1 0x0 DUP1 PUSH1 0x0 DUP1 PUSH1 0x0 DUP1 PUSH1 0x0 DUP1 PUSH1 0x8 DUP15 DUP2 SLOAD DUP2 LT PUSH2 0x1B61 JUMPI PUSH2 0x1B60 PUSH2 0x2A9C JUMP JUMPDEST JUMPDEST SWAP1 PUSH1 0x0 MSTORE PUSH1 0x20 PUSH1 0x0 KECCAK256 SWAP1 PUSH1 0xF MUL ADD SWAP1 POP PUSH1 0x0 PUSH1 0x9 PUSH1 0x0 DUP4 PUSH1 0xA ADD SLOAD DUP2 MSTORE PUSH1 0x20 ADD SWAP1 DUP2 MSTORE PUSH1 0x20 ADD PUSH1 0x0 KECCAK256 SWAP1 POP DUP2 PUSH1 0x1 ADD PUSH1 0x0 SWAP1 SLOAD SWAP1 PUSH2 0x100 EXP SWAP1 DIV PUSH20 0xFFFFFFFFFFFFFFFFFFFFFFFFFFFFFFFFFFFFFFFF AND DUP3 PUSH1 0x2 ADD SLOAD DUP4 PUSH1 0x4 ADD SLOAD DUP5 PUSH1 0x5 ADD SLOAD DUP6 PUSH1 0x6 ADD DUP7 PUSH1 0x7 ADD PUSH1 0x0 SWAP1 SLOAD SWAP1 PUSH2 0x100 EXP SWAP1 DIV PUSH4 0xFFFFFFFF AND DUP8 PUSH1 0xA ADD SLOAD DUP9 PUSH1 0xB ADD SLOAD DUP10 PUSH1 0xC ADD SLOAD PUSH2 0x1BF4 DUP12 PUSH1 0xE ADD PUSH2 0x2199 JUMP JUMPDEST DUP12 PUSH1 0x3 ADD SLOAD DUP12 PUSH1 0x0 ADD PUSH1 0x1 SWAP1 SLOAD SWAP1 PUSH2 0x100 EXP SWAP1 DIV PUSH1 0xFF AND DUP8 DUP1 SLOAD DUP1 PUSH1 0x20 MUL PUSH1 0x20 ADD PUSH1 0x40 MLOAD SWAP1 DUP2 ADD PUSH1 0x40 MSTORE DUP1 SWAP3 SWAP2 SWAP1 DUP2 DUP2 MSTORE PUSH1 0x20 ADD DUP3 DUP1 SLOAD DUP1 ISZERO PUSH2 0x1C56 JUMPI PUSH1 0x20 MUL DUP3 ADD SWAP2 SWAP1 PUSH1 0x0 MSTORE PUSH1 0x20 PUSH1 0x0 KECCAK256 SWAP1 JUMPDEST DUP2 SLOAD DUP2 MSTORE PUSH1 0x20 ADD SWAP1 PUSH1 0x1 ADD SWAP1 DUP1 DUP4 GT PUSH2 0x1C42 JUMPI JUMPDEST POP POP POP POP POP SWAP8 POP SWAP14 POP SWAP14 POP SWAP14 POP SWAP14 POP SWAP14 POP SWAP14 POP SWAP14 POP SWAP14 POP SWAP14 POP SWAP14 POP SWAP14 POP SWAP14 POP POP POP SWAP2 SWAP4 SWAP6 SWAP8 SWAP10 SWAP12 POP SWAP2 SWAP4 SWAP6 SWAP8 SWAP10 SWAP12 JUMP JUMPDEST PUSH1 0x0 PUSH1 0x8 DUP4 DUP2 SLOAD DUP2 LT PUSH2 0x1C9C JUMPI PUSH2 0x1C9B PUSH2 0x2A9C JUMP JUMPDEST JUMPDEST SWAP1 PUSH1 0x0 MSTORE PUSH1 0x20 PUSH1 0x0 KECCAK256 SWAP1 PUSH1 0xF MUL ADD SWAP1 POP TIMESTAMP DUP2 PUSH1 0xC ADD SLOAD GT PUSH2 0x1CF2 JUMPI PUSH1 0x40 MLOAD PUSH32 0x8C379A000000000000000000000000000000000000000000000000000000000 DUP2 MSTORE PUSH1 0x4 ADD PUSH2 0x1CE9 SWAP1 PUSH2 0x2EDF JUMP JUMPDEST PUSH1 0x40 MLOAD DUP1 SWAP2 SUB SWAP1 REVERT JUMPDEST PUSH1 0x0 DUP2 PUSH1 0x1 ADD PUSH1 0x0 SWAP1 SLOAD SWAP1 PUSH2 0x100 EXP SWAP1 DIV PUSH20 0xFFFFFFFFFFFFFFFFFFFFFFFFFFFFFFFFFFFFFFFF AND SWAP1 POP DUP1 PUSH20 0xFFFFFFFFFFFFFFFFFFFFFFFFFFFFFFFFFFFFFFFF AND PUSH4 0x23B872DD CALLER ADDRESS DUP7 PUSH1 0x40 MLOAD DUP5 PUSH4 0xFFFFFFFF AND PUSH1 0xE0 SHL DUP2 MSTORE PUSH1 0x4 ADD PUSH2 0x1D58 SWAP4 SWAP3 SWAP2 SWAP1 PUSH2 0x31A5 JUMP JUMPDEST PUSH1 0x20 PUSH1 0x40 MLOAD DUP1 DUP4 SUB DUP2 PUSH1 0x0 DUP8 GAS CALL ISZERO DUP1 ISZERO PUSH2 0x1D77 JUMPI RETURNDATASIZE PUSH1 0x0 DUP1 RETURNDATACOPY RETURNDATASIZE PUSH1 0x0 REVERT JUMPDEST POP POP POP POP PUSH1 0x40 MLOAD RETURNDATASIZE PUSH1 0x1F NOT PUSH1 0x1F DUP3 ADD AND DUP3 ADD DUP1 PUSH1 0x40 MSTORE POP DUP2 ADD SWAP1 PUSH2 0x1D9B SWAP2 SWAP1 PUSH2 0x2C34 JUMP JUMPDEST POP DUP3 DUP3 PUSH1 0x2 ADD PUSH1 0x0 DUP3 DUP3 SLOAD PUSH2 0x1DB0 SWAP2 SWAP1 PUSH2 0x2AFA JUMP JUMPDEST SWAP3 POP POP DUP2 SWAP1 SSTORE POP DUP4 PUSH32 0xE10598FA0628B6878DF33DDDD270FC68ABC6BC5B8B864E07AC2D9313CF31043E DUP5 PUSH1 0x40 MLOAD PUSH2 0x1DE7 SWAP2 SWAP1 PUSH2 0x2806 JUMP JUMPDEST PUSH1 0x40 MLOAD DUP1 SWAP2 SUB SWAP1 LOG2 POP POP POP POP JUMP JUMPDEST PUSH1 0x0 PUSH1 0x60 PUSH1 0x9 PUSH1 0x0 DUP5 DUP2 MSTORE PUSH1 0x20 ADD SWAP1 DUP2 MSTORE PUSH1 0x20 ADD PUSH1 0x0 KECCAK256 PUSH1 0x0 ADD PUSH1 0x1 SWAP1 SLOAD SWAP1 PUSH2 0x100 EXP SWAP1 DIV PUSH1 0xFF AND PUSH2 0x1E5C JUMPI PUSH1 0x40 MLOAD PUSH32 0x8C379A000000000000000000000000000000000000000000000000000000000 DUP2 MSTORE PUSH1 0x4 ADD PUSH2 0x1E53 SWAP1 PUSH2 0x3325 JUMP JUMPDEST PUSH1 0x40 MLOAD DUP1 SWAP2 SUB SWAP1 REVERT JUMPDEST PUSH1 0x0 PUSH1 0x9 PUSH1 0x0 DUP6 DUP2 MSTORE PUSH1 0x20 ADD SWAP1 DUP2 MSTORE PUSH1 0x20 ADD PUSH1 0x0 KECCAK256 PUSH1 0x40 MLOAD DUP1 PUSH1 0x80 ADD PUSH1 0x40 MSTORE SWAP1 DUP2 PUSH1 0x0 DUP3 ADD PUSH1 0x0 SWAP1 SLOAD SWAP1 PUSH2 0x100 EXP SWAP1 DIV PUSH1 0xFF AND ISZERO ISZERO ISZERO ISZERO DUP2 MSTORE PUSH1 0x20 ADD PUSH1 0x0 DUP3 ADD PUSH1 0x1 SWAP1 SLOAD SWAP1 PUSH2 0x100 EXP SWAP1 DIV PUSH1 0xFF AND ISZERO ISZERO ISZERO ISZERO DUP2 MSTORE PUSH1 0x20 ADD PUSH1 0x1 DUP3 ADD DUP1 SLOAD DUP1 PUSH1 0x20 MUL PUSH1 0x20 ADD PUSH1 0x40 MLOAD SWAP1 DUP2 ADD PUSH1 0x40 MSTORE DUP1 SWAP3 SWAP2 SWAP1 DUP2 DUP2 MSTORE PUSH1 0x20 ADD DUP3 DUP1 SLOAD DUP1 ISZERO PUSH2 0x1F01 JUMPI PUSH1 0x20 MUL DUP3 ADD SWAP2 SWAP1 PUSH1 0x0 MSTORE PUSH1 0x20 PUSH1 0x0 KECCAK256 SWAP1 JUMPDEST DUP2 SLOAD DUP2 MSTORE PUSH1 0x20 ADD SWAP1 PUSH1 0x1 ADD SWAP1 DUP1 DUP4 GT PUSH2 0x1EED JUMPI JUMPDEST POP POP POP POP POP DUP2 MSTORE PUSH1 0x20 ADD PUSH1 0x2 DUP3 ADD SLOAD DUP2 MSTORE POP POP SWAP1 POP DUP1 PUSH1 0x0 ADD MLOAD DUP2 PUSH1 0x40 ADD MLOAD SWAP3 POP SWAP3 POP POP SWAP2 POP SWAP2 JUMP JUMPDEST PUSH2 0x1F32 PUSH2 0x1F3E JUMP JUMPDEST PUSH2 0x1F3B DUP2 PUSH2 0x21BD JUMP JUMPDEST POP JUMP JUMPDEST PUSH1 0x0 DUP1 SLOAD SWAP1 PUSH2 0x100 EXP SWAP1 DIV PUSH20 0xFFFFFFFFFFFFFFFFFFFFFFFFFFFFFFFFFFFFFFFF AND PUSH20 0xFFFFFFFFFFFFFFFFFFFFFFFFFFFFFFFFFFFFFFFF AND CALLER PUSH20 0xFFFFFFFFFFFFFFFFFFFFFFFFFFFFFFFFFFFFFFFF AND EQ PUSH2 0x1FCC JUMPI PUSH1 0x40 MLOAD PUSH32 0x8C379A000000000000000000000000000000000000000000000000000000000 DUP2 MSTORE PUSH1 0x4 ADD PUSH2 0x1FC3 SWAP1 PUSH2 0x3391 JUMP JUMPDEST PUSH1 0x40 MLOAD DUP1 SWAP2 SUB SWAP1 REVERT JUMPDEST JUMP JUMPDEST PUSH1 0x9 PUSH1 0x0 DUP4 DUP2 MSTORE PUSH1 0x20 ADD SWAP1 DUP2 MSTORE PUSH1 0x20 ADD PUSH1 0x0 KECCAK256 PUSH1 0x0 ADD PUSH1 0x1 SWAP1 SLOAD SWAP1 PUSH2 0x100 EXP SWAP1 DIV PUSH1 0xFF AND PUSH2 0x2031 JUMPI PUSH1 0x40 MLOAD PUSH32 0x8C379A000000000000000000000000000000000000000000000000000000000 DUP2 MSTORE PUSH1 0x4 ADD PUSH2 0x2028 SWAP1 PUSH2 0x3325 JUMP JUMPDEST PUSH1 0x40 MLOAD DUP1 SWAP2 SUB SWAP1 REVERT JUMPDEST PUSH1 0x9 PUSH1 0x0 DUP4 DUP2 MSTORE PUSH1 0x20 ADD SWAP1 DUP2 MSTORE PUSH1 0x20 ADD PUSH1 0x0 KECCAK256 PUSH1 0x0 ADD PUSH1 0x0 SWAP1 SLOAD SWAP1 PUSH2 0x100 EXP SWAP1 DIV PUSH1 0xFF AND ISZERO PUSH2 0x2095 JUMPI PUSH1 0x40 MLOAD PUSH32 0x8C379A000000000000000000000000000000000000000000000000000000000 DUP2 MSTORE PUSH1 0x4 ADD PUSH2 0x208C SWAP1 PUSH2 0x33FD JUMP JUMPDEST PUSH1 0x40 MLOAD DUP1 SWAP2 SUB SWAP1 REVERT JUMPDEST PUSH1 0x1 PUSH1 0x9 PUSH1 0x0 DUP5 DUP2 MSTORE PUSH1 0x20 ADD SWAP1 DUP2 MSTORE PUSH1 0x20 ADD PUSH1 0x0 KECCAK256 PUSH1 0x0 ADD PUSH1 0x0 PUSH2 0x100 EXP DUP2 SLOAD DUP2 PUSH1 0xFF MUL NOT AND SWAP1 DUP4 ISZERO ISZERO MUL OR SWAP1 SSTORE POP DUP1 PUSH1 0x9 PUSH1 0x0 DUP5 DUP2 MSTORE PUSH1 0x20 ADD SWAP1 DUP2 MSTORE PUSH1 0x20 ADD PUSH1 0x0 KECCAK256 PUSH1 0x1 ADD SWAP1 DUP1 MLOAD SWAP1 PUSH1 0x20 ADD SWAP1 PUSH2 0x20EE SWAP3 SWAP2 SWAP1 PUSH2 0x22E9 JUMP JUMPDEST POP PUSH32 0xFE2E2D779DBA245964D4E3EF9B994BE63856FD568BF7D3CA9E224755CB1BD54D PUSH1 0x9 PUSH1 0x0 DUP5 DUP2 MSTORE PUSH1 0x20 ADD SWAP1 DUP2 MSTORE PUSH1 0x20 ADD PUSH1 0x0 KECCAK256 PUSH1 0x2 ADD SLOAD DUP3 PUSH1 0x40 MLOAD PUSH2 0x2136 SWAP3 SWAP2 SWAP1 PUSH2 0x341D JUMP JUMPDEST PUSH1 0x40 MLOAD DUP1 SWAP2 SUB SWAP1 LOG1 POP POP JUMP JUMPDEST PUSH1 0x2 DUP1 SLOAD SUB PUSH2 0x2186 JUMPI PUSH1 0x40 MLOAD PUSH32 0x8C379A000000000000000000000000000000000000000000000000000000000 DUP2 MSTORE PUSH1 0x4 ADD PUSH2 0x217D SWAP1 PUSH2 0x3499 JUMP JUMPDEST PUSH1 0x40 MLOAD DUP1 SWAP2 SUB SWAP1 REVERT JUMPDEST PUSH1 0x2 DUP1 DUP2 SWAP1 SSTORE POP JUMP JUMPDEST PUSH1 0x1 PUSH1 0x2 DUP2 SWAP1 SSTORE POP JUMP JUMPDEST PUSH1 0x0 DUP2 PUSH1 0x0 ADD SLOAD SWAP1 POP SWAP2 SWAP1 POP JUMP JUMPDEST PUSH1 0x1 DUP2 PUSH1 0x0 ADD PUSH1 0x0 DUP3 DUP3 SLOAD ADD SWAP3 POP POP DUP2 SWAP1 SSTORE POP POP JUMP JUMPDEST CALLER PUSH20 0xFFFFFFFFFFFFFFFFFFFFFFFFFFFFFFFFFFFFFFFF AND DUP2 PUSH20 0xFFFFFFFFFFFFFFFFFFFFFFFFFFFFFFFFFFFFFFFF AND SUB PUSH2 0x222B JUMPI PUSH1 0x40 MLOAD PUSH32 0x8C379A000000000000000000000000000000000000000000000000000000000 DUP2 MSTORE PUSH1 0x4 ADD PUSH2 0x2222 SWAP1 PUSH2 0x3505 JUMP JUMPDEST PUSH1 0x40 MLOAD DUP1 SWAP2 SUB SWAP1 REVERT JUMPDEST DUP1 PUSH1 0x1 PUSH1 0x0 PUSH2 0x100 EXP DUP2 SLOAD DUP2 PUSH20 0xFFFFFFFFFFFFFFFFFFFFFFFFFFFFFFFFFFFFFFFF MUL NOT AND SWAP1 DUP4 PUSH20 0xFFFFFFFFFFFFFFFFFFFFFFFFFFFFFFFFFFFFFFFF AND MUL OR SWAP1 SSTORE POP DUP1 PUSH20 0xFFFFFFFFFFFFFFFFFFFFFFFFFFFFFFFFFFFFFFFF AND PUSH1 0x0 DUP1 SLOAD SWAP1 PUSH2 0x100 EXP SWAP1 DIV PUSH20 0xFFFFFFFFFFFFFFFFFFFFFFFFFFFFFFFFFFFFFFFF AND PUSH20 0xFFFFFFFFFFFFFFFFFFFFFFFFFFFFFFFFFFFFFFFF AND PUSH32 0xED8889F560326EB138920D842192F0EB3DD22B4F139C87A2C57538E05BAE1278 PUSH1 0x40 MLOAD PUSH1 0x40 MLOAD DUP1 SWAP2 SUB SWAP1 LOG3 POP JUMP JUMPDEST DUP3 DUP1 SLOAD DUP3 DUP3 SSTORE SWAP1 PUSH1 0x0 MSTORE PUSH1 0x20 PUSH1 0x0 KECCAK256 SWAP1 DUP2 ADD SWAP3 DUP3 ISZERO PUSH2 0x2325 JUMPI SWAP2 PUSH1 0x20 MUL DUP3 ADD JUMPDEST DUP3 DUP2 GT ISZERO PUSH2 0x2324 JUMPI DUP3 MLOAD DUP3 SSTORE SWAP2 PUSH1 0x20 ADD SWAP2 SWAP1 PUSH1 0x1 ADD SWAP1 PUSH2 0x2309 JUMP JUMPDEST JUMPDEST POP SWAP1 POP PUSH2 0x2332 SWAP2 SWAP1 PUSH2 0x2336 JUMP JUMPDEST POP SWAP1 JUMP JUMPDEST JUMPDEST DUP1 DUP3 GT ISZERO PUSH2 0x234F JUMPI PUSH1 0x0 DUP2 PUSH1 0x0 SWAP1 SSTORE POP PUSH1 0x1 ADD PUSH2 0x2337 JUMP JUMPDEST POP SWAP1 JUMP JUMPDEST PUSH1 0x0 PUSH1 0x40 MLOAD SWAP1 POP SWAP1 JUMP JUMPDEST PUSH1 0x0 DUP1 REVERT JUMPDEST PUSH1 0x0 DUP1 REVERT JUMPDEST PUSH1 0x0 DUP2 SWAP1 POP SWAP2 SWAP1 POP JUMP JUMPDEST PUSH2 0x237A DUP2 PUSH2 0x2367 JUMP JUMPDEST DUP2 EQ PUSH2 0x2385 JUMPI PUSH1 0x0 DUP1 REVERT JUMPDEST POP JUMP JUMPDEST PUSH1 0x0 DUP2 CALLDATALOAD SWAP1 POP PUSH2 0x2397 DUP2 PUSH2 0x2371 JUMP JUMPDEST SWAP3 SWAP2 POP POP JUMP JUMPDEST PUSH1 0x0 PUSH1 0x20 DUP3 DUP5 SUB SLT ISZERO PUSH2 0x23B3 JUMPI PUSH2 0x23B2 PUSH2 0x235D JUMP JUMPDEST JUMPDEST PUSH1 0x0 PUSH2 0x23C1 DUP5 DUP3 DUP6 ADD PUSH2 0x2388 JUMP JUMPDEST SWAP2 POP POP SWAP3 SWAP2 POP POP JUMP JUMPDEST PUSH1 0x0 DUP1 REVERT JUMPDEST PUSH1 0x0 PUSH1 0x1F NOT PUSH1 0x1F DUP4 ADD AND SWAP1 POP SWAP2 SWAP1 POP JUMP JUMPDEST PUSH32 0x4E487B7100000000000000000000000000000000000000000000000000000000 PUSH1 0x0 MSTORE PUSH1 0x41 PUSH1 0x4 MSTORE PUSH1 0x24 PUSH1 0x0 REVERT JUMPDEST PUSH2 0x2418 DUP3 PUSH2 0x23CF JUMP JUMPDEST DUP2 ADD DUP2 DUP2 LT PUSH8 0xFFFFFFFFFFFFFFFF DUP3 GT OR ISZERO PUSH2 0x2437 JUMPI PUSH2 0x2436 PUSH2 0x23E0 JUMP JUMPDEST JUMPDEST DUP1 PUSH1 0x40 MSTORE POP POP POP JUMP JUMPDEST PUSH1 0x0 PUSH2 0x244A PUSH2 0x2353 JUMP JUMPDEST SWAP1 POP PUSH2 0x2456 DUP3 DUP3 PUSH2 0x240F JUMP JUMPDEST SWAP2 SWAP1 POP JUMP JUMPDEST PUSH1 0x0 PUSH8 0xFFFFFFFFFFFFFFFF DUP3 GT ISZERO PUSH2 0x2476 JUMPI PUSH2 0x2475 PUSH2 0x23E0 JUMP JUMPDEST JUMPDEST PUSH1 0x20 DUP3 MUL SWAP1 POP PUSH1 0x20 DUP2 ADD SWAP1 POP SWAP2 SWAP1 POP JUMP JUMPDEST PUSH1 0x0 DUP1 REVERT JUMPDEST PUSH1 0x0 PUSH2 0x249F PUSH2 0x249A DUP5 PUSH2 0x245B JUMP JUMPDEST PUSH2 0x2440 JUMP JUMPDEST SWAP1 POP DUP1 DUP4 DUP3 MSTORE PUSH1 0x20 DUP3 ADD SWAP1 POP PUSH1 0x20 DUP5 MUL DUP4 ADD DUP6 DUP2 GT ISZERO PUSH2 0x24C2 JUMPI PUSH2 0x24C1 PUSH2 0x2487 JUMP JUMPDEST JUMPDEST DUP4 JUMPDEST DUP2 DUP2 LT ISZERO PUSH2 0x24EB JUMPI DUP1 PUSH2 0x24D7 DUP9 DUP3 PUSH2 0x2388 JUMP JUMPDEST DUP5 MSTORE PUSH1 0x20 DUP5 ADD SWAP4 POP POP PUSH1 0x20 DUP2 ADD SWAP1 POP PUSH2 0x24C4 JUMP JUMPDEST POP POP POP SWAP4 SWAP3 POP POP POP JUMP JUMPDEST PUSH1 0x0 DUP3 PUSH1 0x1F DUP4 ADD SLT PUSH2 0x250A JUMPI PUSH2 0x2509 PUSH2 0x23CA JUMP JUMPDEST JUMPDEST DUP2 CALLDATALOAD PUSH2 0x251A DUP5 DUP3 PUSH1 0x20 DUP7 ADD PUSH2 0x248C JUMP JUMPDEST SWAP2 POP POP SWAP3 SWAP2 POP POP JUMP JUMPDEST PUSH1 0x0 DUP1 PUSH1 0x40 DUP4 DUP6 SUB SLT ISZERO PUSH2 0x253A JUMPI PUSH2 0x2539 PUSH2 0x235D JUMP JUMPDEST JUMPDEST PUSH1 0x0 PUSH2 0x2548 DUP6 DUP3 DUP7 ADD PUSH2 0x2388 JUMP JUMPDEST SWAP3 POP POP PUSH1 0x20 DUP4 ADD CALLDATALOAD PUSH8 0xFFFFFFFFFFFFFFFF DUP2 GT ISZERO PUSH2 0x2569 JUMPI PUSH2 0x2568 PUSH2 0x2362 JUMP JUMPDEST JUMPDEST PUSH2 0x2575 DUP6 DUP3 DUP7 ADD PUSH2 0x24F5 JUMP JUMPDEST SWAP2 POP POP SWAP3 POP SWAP3 SWAP1 POP JUMP JUMPDEST PUSH1 0x0 DUP2 MLOAD SWAP1 POP SWAP2 SWAP1 POP JUMP JUMPDEST PUSH1 0x0 DUP3 DUP3 MSTORE PUSH1 0x20 DUP3 ADD SWAP1 POP SWAP3 SWAP2 POP POP JUMP JUMPDEST PUSH1 0x0 DUP2 SWAP1 POP PUSH1 0x20 DUP3 ADD SWAP1 POP SWAP2 SWAP1 POP JUMP JUMPDEST PUSH2 0x25B4 DUP2 PUSH2 0x2367 JUMP JUMPDEST DUP3 MSTORE POP POP JUMP JUMPDEST PUSH1 0x0 PUSH2 0x25C6 DUP4 DUP4 PUSH2 0x25AB JUMP JUMPDEST PUSH1 0x20 DUP4 ADD SWAP1 POP SWAP3 SWAP2 POP POP JUMP JUMPDEST PUSH1 0x0 PUSH1 0x20 DUP3 ADD SWAP1 POP SWAP2 SWAP1 POP JUMP JUMPDEST PUSH1 0x0 PUSH2 0x25EA DUP3 PUSH2 0x257F JUMP JUMPDEST PUSH2 0x25F4 DUP2 DUP6 PUSH2 0x258A JUMP JUMPDEST SWAP4 POP PUSH2 0x25FF DUP4 PUSH2 0x259B JUMP JUMPDEST DUP1 PUSH1 0x0 JUMPDEST DUP4 DUP2 LT ISZERO PUSH2 0x2630 JUMPI DUP2 MLOAD PUSH2 0x2617 DUP9 DUP3 PUSH2 0x25BA JUMP JUMPDEST SWAP8 POP PUSH2 0x2622 DUP4 PUSH2 0x25D2 JUMP JUMPDEST SWAP3 POP POP PUSH1 0x1 DUP2 ADD SWAP1 POP PUSH2 0x2603 JUMP JUMPDEST POP DUP6 SWAP4 POP POP POP POP SWAP3 SWAP2 POP POP JUMP JUMPDEST PUSH1 0x0 PUSH1 0x20 DUP3 ADD SWAP1 POP DUP2 DUP2 SUB PUSH1 0x0 DUP4 ADD MSTORE PUSH2 0x2657 DUP2 DUP5 PUSH2 0x25DF JUMP JUMPDEST SWAP1 POP SWAP3 SWAP2 POP POP JUMP JUMPDEST PUSH1 0x0 PUSH20 0xFFFFFFFFFFFFFFFFFFFFFFFFFFFFFFFFFFFFFFFF DUP3 AND SWAP1 POP SWAP2 SWAP1 POP JUMP JUMPDEST PUSH1 0x0 PUSH2 0x268A DUP3 PUSH2 0x265F JUMP JUMPDEST SWAP1 POP SWAP2 SWAP1 POP JUMP JUMPDEST PUSH2 0x269A DUP2 PUSH2 0x267F JUMP JUMPDEST DUP2 EQ PUSH2 0x26A5 JUMPI PUSH1 0x0 DUP1 REVERT JUMPDEST POP JUMP JUMPDEST PUSH1 0x0 DUP2 CALLDATALOAD SWAP1 POP PUSH2 0x26B7 DUP2 PUSH2 0x2691 JUMP JUMPDEST SWAP3 SWAP2 POP POP JUMP JUMPDEST PUSH1 0x0 PUSH4 0xFFFFFFFF DUP3 AND SWAP1 POP SWAP2 SWAP1 POP JUMP JUMPDEST PUSH2 0x26D6 DUP2 PUSH2 0x26BD JUMP JUMPDEST DUP2 EQ PUSH2 0x26E1 JUMPI PUSH1 0x0 DUP1 REVERT JUMPDEST POP JUMP JUMPDEST PUSH1 0x0 DUP2 CALLDATALOAD SWAP1 POP PUSH2 0x26F3 DUP2 PUSH2 0x26CD JUMP JUMPDEST SWAP3 SWAP2 POP POP JUMP JUMPDEST PUSH1 0x0 DUP1 PUSH1 0x0 DUP1 PUSH1 0x0 DUP1 PUSH1 0x0 PUSH1 0xE0 DUP9 DUP11 SUB SLT ISZERO PUSH2 0x2718 JUMPI PUSH2 0x2717 PUSH2 0x235D JUMP JUMPDEST JUMPDEST PUSH1 0x0 PUSH2 0x2726 DUP11 DUP3 DUP12 ADD PUSH2 0x26A8 JUMP JUMPDEST SWAP8 POP POP PUSH1 0x20 PUSH2 0x2737 DUP11 DUP3 DUP12 ADD PUSH2 0x2388 JUMP JUMPDEST SWAP7 POP POP PUSH1 0x40 PUSH2 0x2748 DUP11 DUP3 DUP12 ADD PUSH2 0x2388 JUMP JUMPDEST SWAP6 POP POP PUSH1 0x60 DUP9 ADD CALLDATALOAD PUSH8 0xFFFFFFFFFFFFFFFF DUP2 GT ISZERO PUSH2 0x2769 JUMPI PUSH2 0x2768 PUSH2 0x2362 JUMP JUMPDEST JUMPDEST PUSH2 0x2775 DUP11 DUP3 DUP12 ADD PUSH2 0x24F5 JUMP JUMPDEST SWAP5 POP POP PUSH1 0x80 PUSH2 0x2786 DUP11 DUP3 DUP12 ADD PUSH2 0x26E4 JUMP JUMPDEST SWAP4 POP POP PUSH1 0xA0 PUSH2 0x2797 DUP11 DUP3 DUP12 ADD PUSH2 0x2388 JUMP JUMPDEST SWAP3 POP POP PUSH1 0xC0 PUSH2 0x27A8 DUP11 DUP3 DUP12 ADD PUSH2 0x2388 JUMP JUMPDEST SWAP2 POP POP SWAP3 SWAP6 SWAP9 SWAP2 SWAP5 SWAP8 POP SWAP3 SWAP6 POP JUMP JUMPDEST PUSH1 0x0 DUP1 PUSH1 0x40 DUP4 DUP6 SUB SLT ISZERO PUSH2 0x27CE JUMPI PUSH2 0x27CD PUSH2 0x235D JUMP JUMPDEST JUMPDEST PUSH1 0x0 PUSH2 0x27DC DUP6 DUP3 DUP7 ADD PUSH2 0x2388 JUMP JUMPDEST SWAP3 POP POP PUSH1 0x20 PUSH2 0x27ED DUP6 DUP3 DUP7 ADD PUSH2 0x2388 JUMP JUMPDEST SWAP2 POP POP SWAP3 POP SWAP3 SWAP1 POP JUMP JUMPDEST PUSH2 0x2800 DUP2 PUSH2 0x2367 JUMP JUMPDEST DUP3 MSTORE POP POP JUMP JUMPDEST PUSH1 0x0 PUSH1 0x20 DUP3 ADD SWAP1 POP PUSH2 0x281B PUSH1 0x0 DUP4 ADD DUP5 PUSH2 0x27F7 JUMP JUMPDEST SWAP3 SWAP2 POP POP JUMP JUMPDEST PUSH2 0x282A DUP2 PUSH2 0x267F JUMP JUMPDEST DUP3 MSTORE POP POP JUMP JUMPDEST PUSH1 0x0 PUSH1 0x20 DUP3 ADD SWAP1 POP PUSH2 0x2845 PUSH1 0x0 DUP4 ADD DUP5 PUSH2 0x2821 JUMP JUMPDEST SWAP3 SWAP2 POP POP JUMP JUMPDEST PUSH1 0x0 DUP2 MLOAD SWAP1 POP SWAP2 SWAP1 POP JUMP JUMPDEST PUSH1 0x0 DUP3 DUP3 MSTORE PUSH1 0x20 DUP3 ADD SWAP1 POP SWAP3 SWAP2 POP POP JUMP JUMPDEST PUSH1 0x0 DUP2 SWAP1 POP PUSH1 0x20 DUP3 ADD SWAP1 POP SWAP2 SWAP1 POP JUMP JUMPDEST PUSH2 0x2880 DUP2 PUSH2 0x267F JUMP JUMPDEST DUP3 MSTORE POP POP JUMP JUMPDEST PUSH1 0x0 PUSH2 0x2892 DUP4 DUP4 PUSH2 0x2877 JUMP JUMPDEST PUSH1 0x20 DUP4 ADD SWAP1 POP SWAP3 SWAP2 POP POP JUMP JUMPDEST PUSH1 0x0 PUSH1 0x20 DUP3 ADD SWAP1 POP SWAP2 SWAP1 POP JUMP JUMPDEST PUSH1 0x0 PUSH2 0x28B6 DUP3 PUSH2 0x284B JUMP JUMPDEST PUSH2 0x28C0 DUP2 DUP6 PUSH2 0x2856 JUMP JUMPDEST SWAP4 POP PUSH2 0x28CB DUP4 PUSH2 0x2867 JUMP JUMPDEST DUP1 PUSH1 0x0 JUMPDEST DUP4 DUP2 LT ISZERO PUSH2 0x28FC JUMPI DUP2 MLOAD PUSH2 0x28E3 DUP9 DUP3 PUSH2 0x2886 JUMP JUMPDEST SWAP8 POP PUSH2 0x28EE DUP4 PUSH2 0x289E JUMP JUMPDEST SWAP3 POP POP PUSH1 0x1 DUP2 ADD SWAP1 POP PUSH2 0x28CF JUMP JUMPDEST POP DUP6 SWAP4 POP POP POP POP SWAP3 SWAP2 POP POP JUMP JUMPDEST PUSH1 0x0 PUSH1 0x20 DUP3 ADD SWAP1 POP DUP2 DUP2 SUB PUSH1 0x0 DUP4 ADD MSTORE PUSH2 0x2923 DUP2 DUP5 PUSH2 0x28AB JUMP JUMPDEST SWAP1 POP SWAP3 SWAP2 POP POP JUMP JUMPDEST PUSH2 0x2934 DUP2 PUSH2 0x26BD JUMP JUMPDEST DUP3 MSTORE POP POP JUMP JUMPDEST PUSH1 0x0 DUP2 ISZERO ISZERO SWAP1 POP SWAP2 SWAP1 POP JUMP JUMPDEST PUSH2 0x294F DUP2 PUSH2 0x293A JUMP JUMPDEST DUP3 MSTORE POP POP JUMP JUMPDEST PUSH1 0x0 PUSH2 0x180 DUP3 ADD SWAP1 POP PUSH2 0x296B PUSH1 0x0 DUP4 ADD DUP16 PUSH2 0x2821 JUMP JUMPDEST PUSH2 0x2978 PUSH1 0x20 DUP4 ADD DUP15 PUSH2 0x27F7 JUMP JUMPDEST PUSH2 0x2985 PUSH1 0x40 DUP4 ADD DUP14 PUSH2 0x27F7 JUMP JUMPDEST PUSH2 0x2992 PUSH1 0x60 DUP4 ADD DUP13 PUSH2 0x27F7 JUMP JUMPDEST DUP2 DUP2 SUB PUSH1 0x80 DUP4 ADD MSTORE PUSH2 0x29A4 DUP2 DUP12 PUSH2 0x25DF JUMP JUMPDEST SWAP1 POP PUSH2 0x29B3 PUSH1 0xA0 DUP4 ADD DUP11 PUSH2 0x292B JUMP JUMPDEST PUSH2 0x29C0 PUSH1 0xC0 DUP4 ADD DUP10 PUSH2 0x27F7 JUMP JUMPDEST PUSH2 0x29CD PUSH1 0xE0 DUP4 ADD DUP9 PUSH2 0x27F7 JUMP JUMPDEST PUSH2 0x29DB PUSH2 0x100 DUP4 ADD DUP8 PUSH2 0x27F7 JUMP JUMPDEST PUSH2 0x29E9 PUSH2 0x120 DUP4 ADD DUP7 PUSH2 0x27F7 JUMP JUMPDEST PUSH2 0x29F7 PUSH2 0x140 DUP4 ADD DUP6 PUSH2 0x27F7 JUMP JUMPDEST PUSH2 0x2A05 PUSH2 0x160 DUP4 ADD DUP5 PUSH2 0x2946 JUMP JUMPDEST SWAP14 SWAP13 POP POP POP POP POP POP POP POP POP POP POP POP POP JUMP JUMPDEST PUSH1 0x0 PUSH1 0x40 DUP3 ADD SWAP1 POP PUSH2 0x2A2B PUSH1 0x0 DUP4 ADD DUP6 PUSH2 0x2946 JUMP JUMPDEST DUP2 DUP2 SUB PUSH1 0x20 DUP4 ADD MSTORE PUSH2 0x2A3D DUP2 DUP5 PUSH2 0x25DF JUMP JUMPDEST SWAP1 POP SWAP4 SWAP3 POP POP POP JUMP JUMPDEST PUSH1 0x0 PUSH1 0x20 DUP3 DUP5 SUB SLT ISZERO PUSH2 0x2A5C JUMPI PUSH2 0x2A5B PUSH2 0x235D JUMP JUMPDEST JUMPDEST PUSH1 0x0 PUSH2 0x2A6A DUP5 DUP3 DUP6 ADD PUSH2 0x26A8 JUMP JUMPDEST SWAP2 POP POP SWAP3 SWAP2 POP POP JUMP JUMPDEST PUSH1 0x0 PUSH1 0x40 DUP3 ADD SWAP1 POP PUSH2 0x2A88 PUSH1 0x0 DUP4 ADD DUP6 PUSH2 0x2821 JUMP JUMPDEST PUSH2 0x2A95 PUSH1 0x20 DUP4 ADD DUP5 PUSH2 0x2821 JUMP JUMPDEST SWAP4 SWAP3 POP POP POP JUMP JUMPDEST PUSH32 0x4E487B7100000000000000000000000000000000000000000000000000000000 PUSH1 0x0 MSTORE PUSH1 0x32 PUSH1 0x4 MSTORE PUSH1 0x24 PUSH1 0x0 REVERT JUMPDEST PUSH32 0x4E487B7100000000000000000000000000000000000000000000000000000000 PUSH1 0x0 MSTORE PUSH1 0x11 PUSH1 0x4 MSTORE PUSH1 0x24 PUSH1 0x0 REVERT JUMPDEST PUSH1 0x0 PUSH2 0x2B05 DUP3 PUSH2 0x2367 JUMP JUMPDEST SWAP2 POP PUSH2 0x2B10 DUP4 PUSH2 0x2367 JUMP JUMPDEST SWAP3 POP DUP3 DUP3 ADD SWAP1 POP DUP1 DUP3 GT ISZERO PUSH2 0x2B28 JUMPI PUSH2 0x2B27 PUSH2 0x2ACB JUMP JUMPDEST JUMPDEST SWAP3 SWAP2 POP POP JUMP JUMPDEST PUSH1 0x0 DUP3 DUP3 MSTORE PUSH1 0x20 DUP3 ADD SWAP1 POP SWAP3 SWAP2 POP POP JUMP JUMPDEST PUSH32 0x6E6F7420617661696C61626C6500000000000000000000000000000000000000 PUSH1 0x0 DUP3 ADD MSTORE POP JUMP JUMPDEST PUSH1 0x0 PUSH2 0x2B75 PUSH1 0xD DUP4 PUSH2 0x2B2E JUMP JUMPDEST SWAP2 POP PUSH2 0x2B80 DUP3 PUSH2 0x2B3F JUMP JUMPDEST PUSH1 0x20 DUP3 ADD SWAP1 POP SWAP2 SWAP1 POP JUMP JUMPDEST PUSH1 0x0 PUSH1 0x20 DUP3 ADD SWAP1 POP DUP2 DUP2 SUB PUSH1 0x0 DUP4 ADD MSTORE PUSH2 0x2BA4 DUP2 PUSH2 0x2B68 JUMP JUMPDEST SWAP1 POP SWAP2 SWAP1 POP JUMP JUMPDEST PUSH1 0x0 PUSH2 0x2BB6 DUP3 PUSH2 0x2367 JUMP JUMPDEST SWAP2 POP PUSH2 0x2BC1 DUP4 PUSH2 0x2367 JUMP JUMPDEST SWAP3 POP DUP3 DUP3 SUB SWAP1 POP DUP2 DUP2 GT ISZERO PUSH2 0x2BD9 JUMPI PUSH2 0x2BD8 PUSH2 0x2ACB JUMP JUMPDEST JUMPDEST SWAP3 SWAP2 POP POP JUMP JUMPDEST PUSH1 0x0 PUSH1 0x40 DUP3 ADD SWAP1 POP PUSH2 0x2BF4 PUSH1 0x0 DUP4 ADD DUP6 PUSH2 0x2821 JUMP JUMPDEST PUSH2 0x2C01 PUSH1 0x20 DUP4 ADD DUP5 PUSH2 0x27F7 JUMP JUMPDEST SWAP4 SWAP3 POP POP POP JUMP JUMPDEST PUSH2 0x2C11 DUP2 PUSH2 0x293A JUMP JUMPDEST DUP2 EQ PUSH2 0x2C1C JUMPI PUSH1 0x0 DUP1 REVERT JUMPDEST POP JUMP JUMPDEST PUSH1 0x0 DUP2 MLOAD SWAP1 POP PUSH2 0x2C2E DUP2 PUSH2 0x2C08 JUMP JUMPDEST SWAP3 SWAP2 POP POP JUMP JUMPDEST PUSH1 0x0 PUSH1 0x20 DUP3 DUP5 SUB SLT ISZERO PUSH2 0x2C4A JUMPI PUSH2 0x2C49 PUSH2 0x235D JUMP JUMPDEST JUMPDEST PUSH1 0x0 PUSH2 0x2C58 DUP5 DUP3 DUP6 ADD PUSH2 0x2C1F JUMP JUMPDEST SWAP2 POP POP SWAP3 SWAP2 POP POP JUMP JUMPDEST PUSH32 0x696E76616C696420757365720000000000000000000000000000000000000000 PUSH1 0x0 DUP3 ADD MSTORE POP JUMP JUMPDEST PUSH1 0x0 PUSH2 0x2C97 PUSH1 0xC DUP4 PUSH2 0x2B2E JUMP JUMPDEST SWAP2 POP PUSH2 0x2CA2 DUP3 PUSH2 0x2C61 JUMP JUMPDEST PUSH1 0x20 DUP3 ADD SWAP1 POP SWAP2 SWAP1 POP JUMP JUMPDEST PUSH1 0x0 PUSH1 0x20 DUP3 ADD SWAP1 POP DUP2 DUP2 SUB PUSH1 0x0 DUP4 ADD MSTORE PUSH2 0x2CC6 DUP2 PUSH2 0x2C8A JUMP JUMPDEST SWAP1 POP SWAP2 SWAP1 POP JUMP JUMPDEST PUSH32 0x756E617661696C61626C65000000000000000000000000000000000000000000 PUSH1 0x0 DUP3 ADD MSTORE POP JUMP JUMPDEST PUSH1 0x0 PUSH2 0x2D03 PUSH1 0xB DUP4 PUSH2 0x2B2E JUMP JUMPDEST SWAP2 POP PUSH2 0x2D0E DUP3 PUSH2 0x2CCD JUMP JUMPDEST PUSH1 0x20 DUP3 ADD SWAP1 POP SWAP2 SWAP1 POP JUMP JUMPDEST PUSH1 0x0 PUSH1 0x20 DUP3 ADD SWAP1 POP DUP2 DUP2 SUB PUSH1 0x0 DUP4 ADD MSTORE PUSH2 0x2D32 DUP2 PUSH2 0x2CF6 JUMP JUMPDEST SWAP1 POP SWAP2 SWAP1 POP JUMP JUMPDEST PUSH32 0x6472617765640000000000000000000000000000000000000000000000000000 PUSH1 0x0 DUP3 ADD MSTORE POP JUMP JUMPDEST PUSH1 0x0 PUSH2 0x2D6F PUSH1 0x6 DUP4 PUSH2 0x2B2E JUMP JUMPDEST SWAP2 POP PUSH2 0x2D7A DUP3 PUSH2 0x2D39 JUMP JUMPDEST PUSH1 0x20 DUP3 ADD SWAP1 POP SWAP2 SWAP1 POP JUMP JUMPDEST PUSH1 0x0 PUSH1 0x20 DUP3 ADD SWAP1 POP DUP2 DUP2 SUB PUSH1 0x0 DUP4 ADD MSTORE PUSH2 0x2D9E DUP2 PUSH2 0x2D62 JUMP JUMPDEST SWAP1 POP SWAP2 SWAP1 POP JUMP JUMPDEST PUSH1 0x0 DUP2 SWAP1 POP SWAP2 SWAP1 POP JUMP JUMPDEST PUSH2 0x2DB8 DUP2 PUSH2 0x2DA5 JUMP JUMPDEST DUP3 MSTORE POP POP JUMP JUMPDEST PUSH1 0x0 PUSH8 0xFFFFFFFFFFFFFFFF DUP3 AND SWAP1 POP SWAP2 SWAP1 POP JUMP JUMPDEST PUSH2 0x2DDB DUP2 PUSH2 0x2DBE JUMP JUMPDEST DUP3 MSTORE POP POP JUMP JUMPDEST PUSH1 0x0 PUSH2 0xFFFF DUP3 AND SWAP1 POP SWAP2 SWAP1 POP JUMP JUMPDEST PUSH2 0x2DF8 DUP2 PUSH2 0x2DE1 JUMP JUMPDEST DUP3 MSTORE POP POP JUMP JUMPDEST PUSH1 0x0 PUSH1 0xA0 DUP3 ADD SWAP1 POP PUSH2 0x2E13 PUSH1 0x0 DUP4 ADD DUP9 PUSH2 0x2DAF JUMP JUMPDEST PUSH2 0x2E20 PUSH1 0x20 DUP4 ADD DUP8 PUSH2 0x2DD2 JUMP JUMPDEST PUSH2 0x2E2D PUSH1 0x40 DUP4 ADD DUP7 PUSH2 0x2DEF JUMP JUMPDEST PUSH2 0x2E3A PUSH1 0x60 DUP4 ADD DUP6 PUSH2 0x292B JUMP JUMPDEST PUSH2 0x2E47 PUSH1 0x80 DUP4 ADD DUP5 PUSH2 0x292B JUMP JUMPDEST SWAP7 SWAP6 POP POP POP POP POP POP JUMP JUMPDEST PUSH1 0x0 DUP2 MLOAD SWAP1 POP PUSH2 0x2E60 DUP2 PUSH2 0x2371 JUMP JUMPDEST SWAP3 SWAP2 POP POP JUMP JUMPDEST PUSH1 0x0 PUSH1 0x20 DUP3 DUP5 SUB SLT ISZERO PUSH2 0x2E7C JUMPI PUSH2 0x2E7B PUSH2 0x235D JUMP JUMPDEST JUMPDEST PUSH1 0x0 PUSH2 0x2E8A DUP5 DUP3 DUP6 ADD PUSH2 0x2E51 JUMP JUMPDEST SWAP2 POP POP SWAP3 SWAP2 POP POP JUMP JUMPDEST PUSH32 0x696E76616C69642074696D650000000000000000000000000000000000000000 PUSH1 0x0 DUP3 ADD MSTORE POP JUMP JUMPDEST PUSH1 0x0 PUSH2 0x2EC9 PUSH1 0xC DUP4 PUSH2 0x2B2E JUMP JUMPDEST SWAP2 POP PUSH2 0x2ED4 DUP3 PUSH2 0x2E93 JUMP JUMPDEST PUSH1 0x20 DUP3 ADD SWAP1 POP SWAP2 SWAP1 POP JUMP JUMPDEST PUSH1 0x0 PUSH1 0x20 DUP3 ADD SWAP1 POP DUP2 DUP2 SUB PUSH1 0x0 DUP4 ADD MSTORE PUSH2 0x2EF8 DUP2 PUSH2 0x2EBC JUMP JUMPDEST SWAP1 POP SWAP2 SWAP1 POP JUMP JUMPDEST PUSH32 0x696E76616C696420706172616D73000000000000000000000000000000000000 PUSH1 0x0 DUP3 ADD MSTORE POP JUMP JUMPDEST PUSH1 0x0 PUSH2 0x2F35 PUSH1 0xE DUP4 PUSH2 0x2B2E JUMP JUMPDEST SWAP2 POP PUSH2 0x2F40 DUP3 PUSH2 0x2EFF JUMP JUMPDEST PUSH1 0x20 DUP3 ADD SWAP1 POP SWAP2 SWAP1 POP JUMP JUMPDEST PUSH1 0x0 PUSH1 0x20 DUP3 ADD SWAP1 POP DUP2 DUP2 SUB PUSH1 0x0 DUP4 ADD MSTORE PUSH2 0x2F64 DUP2 PUSH2 0x2F28 JUMP JUMPDEST SWAP1 POP SWAP2 SWAP1 POP JUMP JUMPDEST PUSH32 0x696E76616C696420746F6B656E00000000000000000000000000000000000000 PUSH1 0x0 DUP3 ADD MSTORE POP JUMP JUMPDEST PUSH1 0x0 PUSH2 0x2FA1 PUSH1 0xD DUP4 PUSH2 0x2B2E JUMP JUMPDEST SWAP2 POP PUSH2 0x2FAC DUP3 PUSH2 0x2F6B JUMP JUMPDEST PUSH1 0x20 DUP3 ADD SWAP1 POP SWAP2 SWAP1 POP JUMP JUMPDEST PUSH1 0x0 PUSH1 0x20 DUP3 ADD SWAP1 POP DUP2 DUP2 SUB PUSH1 0x0 DUP4 ADD MSTORE PUSH2 0x2FD0 DUP2 PUSH2 0x2F94 JUMP JUMPDEST SWAP1 POP SWAP2 SWAP1 POP JUMP JUMPDEST PUSH1 0x0 PUSH2 0x2FE2 DUP3 PUSH2 0x2367 JUMP JUMPDEST SWAP2 POP PUSH32 0xFFFFFFFFFFFFFFFFFFFFFFFFFFFFFFFFFFFFFFFFFFFFFFFFFFFFFFFFFFFFFFFF DUP3 SUB PUSH2 0x3014 JUMPI PUSH2 0x3013 PUSH2 0x2ACB JUMP JUMPDEST JUMPDEST PUSH1 0x1 DUP3 ADD SWAP1 POP SWAP2 SWAP1 POP JUMP JUMPDEST PUSH32 0x696E76616C696420726174696F00000000000000000000000000000000000000 PUSH1 0x0 DUP3 ADD MSTORE POP JUMP JUMPDEST PUSH1 0x0 PUSH2 0x3055 PUSH1 0xD DUP4 PUSH2 0x2B2E JUMP JUMPDEST SWAP2 POP PUSH2 0x3060 DUP3 PUSH2 0x301F JUMP JUMPDEST PUSH1 0x20 DUP3 ADD SWAP1 POP SWAP2 SWAP1 POP JUMP JUMPDEST PUSH1 0x0 PUSH1 0x20 DUP3 ADD SWAP1 POP DUP2 DUP2 SUB PUSH1 0x0 DUP4 ADD MSTORE PUSH2 0x3084 DUP2 PUSH2 0x3048 JUMP JUMPDEST SWAP1 POP SWAP2 SWAP1 POP JUMP JUMPDEST PUSH32 0x4D7573742062652070726F706F736564206F776E657200000000000000000000 PUSH1 0x0 DUP3 ADD MSTORE POP JUMP JUMPDEST PUSH1 0x0 PUSH2 0x30C1 PUSH1 0x16 DUP4 PUSH2 0x2B2E JUMP JUMPDEST SWAP2 POP PUSH2 0x30CC DUP3 PUSH2 0x308B JUMP JUMPDEST PUSH1 0x20 DUP3 ADD SWAP1 POP SWAP2 SWAP1 POP JUMP JUMPDEST PUSH1 0x0 PUSH1 0x20 DUP3 ADD SWAP1 POP DUP2 DUP2 SUB PUSH1 0x0 DUP4 ADD MSTORE PUSH2 0x30F0 DUP2 PUSH2 0x30B4 JUMP JUMPDEST SWAP1 POP SWAP2 SWAP1 POP JUMP JUMPDEST PUSH32 0x696E76616C6964207175616E7469747900000000000000000000000000000000 PUSH1 0x0 DUP3 ADD MSTORE POP JUMP JUMPDEST PUSH1 0x0 PUSH2 0x312D PUSH1 0x10 DUP4 PUSH2 0x2B2E JUMP JUMPDEST SWAP2 POP PUSH2 0x3138 DUP3 PUSH2 0x30F7 JUMP JUMPDEST PUSH1 0x20 DUP3 ADD SWAP1 POP SWAP2 SWAP1 POP JUMP JUMPDEST PUSH1 0x0 PUSH1 0x20 DUP3 ADD SWAP1 POP DUP2 DUP2 SUB PUSH1 0x0 DUP4 ADD MSTORE PUSH2 0x315C DUP2 PUSH2 0x3120 JUMP JUMPDEST SWAP1 POP SWAP2 SWAP1 POP JUMP JUMPDEST PUSH1 0x0 PUSH2 0x316E DUP3 PUSH2 0x2367 JUMP JUMPDEST SWAP2 POP PUSH2 0x3179 DUP4 PUSH2 0x2367 JUMP JUMPDEST SWAP3 POP DUP3 DUP3 MUL PUSH2 0x3187 DUP2 PUSH2 0x2367 JUMP JUMPDEST SWAP2 POP DUP3 DUP3 DIV DUP5 EQ DUP4 ISZERO OR PUSH2 0x319E JUMPI PUSH2 0x319D PUSH2 0x2ACB JUMP JUMPDEST JUMPDEST POP SWAP3 SWAP2 POP POP JUMP JUMPDEST PUSH1 0x0 PUSH1 0x60 DUP3 ADD SWAP1 POP PUSH2 0x31BA PUSH1 0x0 DUP4 ADD DUP7 PUSH2 0x2821 JUMP JUMPDEST PUSH2 0x31C7 PUSH1 0x20 DUP4 ADD DUP6 PUSH2 0x2821 JUMP JUMPDEST PUSH2 0x31D4 PUSH1 0x40 DUP4 ADD DUP5 PUSH2 0x27F7 JUMP JUMPDEST SWAP5 SWAP4 POP POP POP POP JUMP JUMPDEST PUSH32 0x4E487B7100000000000000000000000000000000000000000000000000000000 PUSH1 0x0 MSTORE PUSH1 0x12 PUSH1 0x4 MSTORE PUSH1 0x24 PUSH1 0x0 REVERT JUMPDEST PUSH1 0x0 PUSH2 0x3216 DUP3 PUSH2 0x2367 JUMP JUMPDEST SWAP2 POP PUSH2 0x3221 DUP4 PUSH2 0x2367 JUMP JUMPDEST SWAP3 POP DUP3 PUSH2 0x3231 JUMPI PUSH2 0x3230 PUSH2 0x31DC JUMP JUMPDEST JUMPDEST DUP3 DUP3 DIV SWAP1 POP SWAP3 SWAP2 POP POP JUMP JUMPDEST PUSH32 0x6E6F20726573756C740000000000000000000000000000000000000000000000 PUSH1 0x0 DUP3 ADD MSTORE POP JUMP JUMPDEST PUSH1 0x0 PUSH2 0x3272 PUSH1 0x9 DUP4 PUSH2 0x2B2E JUMP JUMPDEST SWAP2 POP PUSH2 0x327D DUP3 PUSH2 0x323C JUMP JUMPDEST PUSH1 0x20 DUP3 ADD SWAP1 POP SWAP2 SWAP1 POP JUMP JUMPDEST PUSH1 0x0 PUSH1 0x20 DUP3 ADD SWAP1 POP DUP2 DUP2 SUB PUSH1 0x0 DUP4 ADD MSTORE PUSH2 0x32A1 DUP2 PUSH2 0x3265 JUMP JUMPDEST SWAP1 POP SWAP2 SWAP1 POP JUMP JUMPDEST PUSH1 0x0 PUSH2 0x32B3 DUP3 PUSH2 0x2367 JUMP JUMPDEST SWAP2 POP PUSH2 0x32BE DUP4 PUSH2 0x2367 JUMP JUMPDEST SWAP3 POP DUP3 PUSH2 0x32CE JUMPI PUSH2 0x32CD PUSH2 0x31DC JUMP JUMPDEST JUMPDEST DUP3 DUP3 MOD SWAP1 POP SWAP3 SWAP2 POP POP JUMP JUMPDEST PUSH32 0x72657175657374206E6F7420666F756E64000000000000000000000000000000 PUSH1 0x0 DUP3 ADD MSTORE POP JUMP JUMPDEST PUSH1 0x0 PUSH2 0x330F PUSH1 0x11 DUP4 PUSH2 0x2B2E JUMP JUMPDEST SWAP2 POP PUSH2 0x331A DUP3 PUSH2 0x32D9 JUMP JUMPDEST PUSH1 0x20 DUP3 ADD SWAP1 POP SWAP2 SWAP1 POP JUMP JUMPDEST PUSH1 0x0 PUSH1 0x20 DUP3 ADD SWAP1 POP DUP2 DUP2 SUB PUSH1 0x0 DUP4 ADD MSTORE PUSH2 0x333E DUP2 PUSH2 0x3302 JUMP JUMPDEST SWAP1 POP SWAP2 SWAP1 POP JUMP JUMPDEST PUSH32 0x4F6E6C792063616C6C61626C65206279206F776E657200000000000000000000 PUSH1 0x0 DUP3 ADD MSTORE POP JUMP JUMPDEST PUSH1 0x0 PUSH2 0x337B PUSH1 0x16 DUP4 PUSH2 0x2B2E JUMP JUMPDEST SWAP2 POP PUSH2 0x3386 DUP3 PUSH2 0x3345 JUMP JUMPDEST PUSH1 0x20 DUP3 ADD SWAP1 POP SWAP2 SWAP1 POP JUMP JUMPDEST PUSH1 0x0 PUSH1 0x20 DUP3 ADD SWAP1 POP DUP2 DUP2 SUB PUSH1 0x0 DUP4 ADD MSTORE PUSH2 0x33AA DUP2 PUSH2 0x336E JUMP JUMPDEST SWAP1 POP SWAP2 SWAP1 POP JUMP JUMPDEST PUSH32 0x66756C66696C6C65640000000000000000000000000000000000000000000000 PUSH1 0x0 DUP3 ADD MSTORE POP JUMP JUMPDEST PUSH1 0x0 PUSH2 0x33E7 PUSH1 0x9 DUP4 PUSH2 0x2B2E JUMP JUMPDEST SWAP2 POP PUSH2 0x33F2 DUP3 PUSH2 0x33B1 JUMP JUMPDEST PUSH1 0x20 DUP3 ADD SWAP1 POP SWAP2 SWAP1 POP JUMP JUMPDEST PUSH1 0x0 PUSH1 0x20 DUP3 ADD SWAP1 POP DUP2 DUP2 SUB PUSH1 0x0 DUP4 ADD MSTORE PUSH2 0x3416 DUP2 PUSH2 0x33DA JUMP JUMPDEST SWAP1 POP SWAP2 SWAP1 POP JUMP JUMPDEST PUSH1 0x0 PUSH1 0x40 DUP3 ADD SWAP1 POP PUSH2 0x3432 PUSH1 0x0 DUP4 ADD DUP6 PUSH2 0x27F7 JUMP JUMPDEST DUP2 DUP2 SUB PUSH1 0x20 DUP4 ADD MSTORE PUSH2 0x3444 DUP2 DUP5 PUSH2 0x25DF JUMP JUMPDEST SWAP1 POP SWAP4 SWAP3 POP POP POP JUMP JUMPDEST PUSH32 0x5265656E7472616E637947756172643A207265656E7472616E742063616C6C00 PUSH1 0x0 DUP3 ADD MSTORE POP JUMP JUMPDEST PUSH1 0x0 PUSH2 0x3483 PUSH1 0x1F DUP4 PUSH2 0x2B2E JUMP JUMPDEST SWAP2 POP PUSH2 0x348E DUP3 PUSH2 0x344D JUMP JUMPDEST PUSH1 0x20 DUP3 ADD SWAP1 POP SWAP2 SWAP1 POP JUMP JUMPDEST PUSH1 0x0 PUSH1 0x20 DUP3 ADD SWAP1 POP DUP2 DUP2 SUB PUSH1 0x0 DUP4 ADD MSTORE PUSH2 0x34B2 DUP2 PUSH2 0x3476 JUMP JUMPDEST SWAP1 POP SWAP2 SWAP1 POP JUMP JUMPDEST PUSH32 0x43616E6E6F74207472616E7366657220746F2073656C66000000000000000000 PUSH1 0x0 DUP3 ADD MSTORE POP JUMP JUMPDEST PUSH1 0x0 PUSH2 0x34EF PUSH1 0x17 DUP4 PUSH2 0x2B2E JUMP JUMPDEST SWAP2 POP PUSH2 0x34FA DUP3 PUSH2 0x34B9 JUMP JUMPDEST PUSH1 0x20 DUP3 ADD SWAP1 POP SWAP2 SWAP1 POP JUMP JUMPDEST PUSH1 0x0 PUSH1 0x20 DUP3 ADD SWAP1 POP DUP2 DUP2 SUB PUSH1 0x0 DUP4 ADD MSTORE PUSH2 0x351E DUP2 PUSH2 0x34E2 JUMP JUMPDEST SWAP1 POP SWAP2 SWAP1 POP JUMP INVALID LOG2 PUSH5 0x6970667358 0x22 SLT KECCAK256 CALL DUP3 0xBC DUP11 0xB6 RETURNDATACOPY 0x4D DUP5 0xD0 SUB PUSH14 0xE343E9815AE3CE280021B0BB2ED EXTCODEHASH 0xE5 0x29 PUSH13 0xEF988F64736F6C634300081100 CALLER "
				},
				"gasEstimates": {
					"creation": {
						"codeDepositCost": "2731800",
						"executionCost": "infinite",
						"totalCost": "infinite"
					},
					"external": {
						"acceptOwnership()": "54629",
						"claim(uint256)": "infinite",
						"createLottery(address,uint256,uint256,uint256[],uint32,uint256,uint256)": "infinite",
						"draw(uint256)": "infinite",
						"fund(uint256,uint256)": "infinite",
						"getRequestStatus(uint256)": "infinite",
						"join(uint256,uint256)": "infinite",
						"lottery(uint256)": "infinite",
						"myTickets(uint256)": "infinite",
						"owner()": "2589",
						"prize(uint256)": "infinite",
						"rawFulfillRandomWords(uint256,uint256[])": "infinite",
						"setLife(uint256)": "24735",
						"transferOwnership(address)": "30742",
						"winners(uint256)": "infinite",
						"withdraw(uint256)": "infinite"
					},
					"internal": {
						"fulfillRandomWords(uint256,uint256[] memory)": "infinite"
					}
				},
				"methodIdentifiers": {
					"acceptOwnership()": "79ba5097",
					"claim(uint256)": "379607f5",
					"createLottery(address,uint256,uint256,uint256[],uint32,uint256,uint256)": "4c947ded",
					"draw(uint256)": "3b304147",
					"fund(uint256,uint256)": "a65e2cfd",
					"getRequestStatus(uint256)": "d8a4676f",
					"join(uint256,uint256)": "79e66b46",
					"lottery(uint256)": "a57d1560",
					"myTickets(uint256)": "28bd0a3d",
					"owner()": "8da5cb5b",
					"prize(uint256)": "86ca3936",
					"rawFulfillRandomWords(uint256,uint256[])": "1fe543e3",
					"setLife(uint256)": "1b08af49",
					"transferOwnership(address)": "f2fde38b",
					"winners(uint256)": "a2fb1175",
					"withdraw(uint256)": "2e1a7d4d"
				}
			},
			"storageLayout": {
				"storage": [
					{
						"astId": 27,
						"contract": "contract/LuckyDraw.sol:LuckyDraw",
						"label": "s_owner",
						"offset": 0,
						"slot": "0",
						"type": "t_address"
					},
					{
						"astId": 29,
						"contract": "contract/LuckyDraw.sol:LuckyDraw",
						"label": "s_pendingOwner",
						"offset": 0,
						"slot": "1",
						"type": "t_address"
					},
					{
						"astId": 362,
						"contract": "contract/LuckyDraw.sol:LuckyDraw",
						"label": "_status",
						"offset": 0,
						"slot": "2",
						"type": "t_uint256"
					},
					{
						"astId": 656,
						"contract": "contract/LuckyDraw.sol:LuckyDraw",
						"label": "life",
						"offset": 0,
						"slot": "3",
						"type": "t_uint256"
					},
					{
						"astId": 671,
						"contract": "contract/LuckyDraw.sol:LuckyDraw",
						"label": "s_subscriptionId",
						"offset": 0,
						"slot": "4",
						"type": "t_uint64"
					},
					{
						"astId": 675,
						"contract": "contract/LuckyDraw.sol:LuckyDraw",
						"label": "requestMap",
						"offset": 0,
						"slot": "5",
						"type": "t_mapping(t_uint256,t_uint256)"
					},
					{
						"astId": 678,
						"contract": "contract/LuckyDraw.sol:LuckyDraw",
						"label": "keyHash",
						"offset": 0,
						"slot": "6",
						"type": "t_bytes32"
					},
					{
						"astId": 681,
						"contract": "contract/LuckyDraw.sol:LuckyDraw",
						"label": "callbackGasLimit",
						"offset": 0,
						"slot": "7",
						"type": "t_uint32"
					},
					{
						"astId": 684,
						"contract": "contract/LuckyDraw.sol:LuckyDraw",
						"label": "requestConfirmations",
						"offset": 4,
						"slot": "7",
						"type": "t_uint16"
					},
					{
						"astId": 688,
						"contract": "contract/LuckyDraw.sol:LuckyDraw",
						"label": "lotteries",
						"offset": 0,
						"slot": "8",
						"type": "t_array(t_struct(Lottery)649_storage)dyn_storage"
					},
					{
						"astId": 703,
						"contract": "contract/LuckyDraw.sol:LuckyDraw",
						"label": "s_requests",
						"offset": 0,
						"slot": "9",
						"type": "t_mapping(t_uint256,t_struct(RequestStatus)698_storage)"
					},
					{
						"astId": 706,
						"contract": "contract/LuckyDraw.sol:LuckyDraw",
						"label": "COORDINATOR",
						"offset": 0,
						"slot": "10",
						"type": "t_contract(VRFCoordinatorV2Interface)351"
					}
				],
				"types": {
					"t_address": {
						"encoding": "inplace",
						"label": "address",
						"numberOfBytes": "20"
					},
					"t_array(t_address)dyn_storage": {
						"base": "t_address",
						"encoding": "dynamic_array",
						"label": "address[]",
						"numberOfBytes": "32"
					},
					"t_array(t_struct(Lottery)649_storage)dyn_storage": {
						"base": "t_struct(Lottery)649_storage",
						"encoding": "dynamic_array",
						"label": "struct LuckyDraw.Lottery[]",
						"numberOfBytes": "32"
					},
					"t_array(t_uint256)dyn_storage": {
						"base": "t_uint256",
						"encoding": "dynamic_array",
						"label": "uint256[]",
						"numberOfBytes": "32"
					},
					"t_bool": {
						"encoding": "inplace",
						"label": "bool",
						"numberOfBytes": "1"
					},
					"t_bytes32": {
						"encoding": "inplace",
						"label": "bytes32",
						"numberOfBytes": "32"
					},
					"t_contract(VRFCoordinatorV2Interface)351": {
						"encoding": "inplace",
						"label": "contract VRFCoordinatorV2Interface",
						"numberOfBytes": "20"
					},
					"t_mapping(t_address,t_array(t_uint256)dyn_storage)": {
						"encoding": "mapping",
						"key": "t_address",
						"label": "mapping(address => uint256[])",
						"numberOfBytes": "32",
						"value": "t_array(t_uint256)dyn_storage"
					},
					"t_mapping(t_address,t_bool)": {
						"encoding": "mapping",
						"key": "t_address",
						"label": "mapping(address => bool)",
						"numberOfBytes": "32",
						"value": "t_bool"
					},
					"t_mapping(t_uint256,t_struct(RequestStatus)698_storage)": {
						"encoding": "mapping",
						"key": "t_uint256",
						"label": "mapping(uint256 => struct LuckyDraw.RequestStatus)",
						"numberOfBytes": "32",
						"value": "t_struct(RequestStatus)698_storage"
					},
					"t_mapping(t_uint256,t_uint256)": {
						"encoding": "mapping",
						"key": "t_uint256",
						"label": "mapping(uint256 => uint256)",
						"numberOfBytes": "32",
						"value": "t_uint256"
					},
					"t_struct(Counter)489_storage": {
						"encoding": "inplace",
						"label": "struct Counters.Counter",
						"members": [
							{
								"astId": 488,
								"contract": "contract/LuckyDraw.sol:LuckyDraw",
								"label": "_value",
								"offset": 0,
								"slot": "0",
								"type": "t_uint256"
							}
						],
						"numberOfBytes": "32"
					},
					"t_struct(Lottery)649_storage": {
						"encoding": "inplace",
						"label": "struct LuckyDraw.Lottery",
						"members": [
							{
								"astId": 612,
								"contract": "contract/LuckyDraw.sol:LuckyDraw",
								"label": "creator",
								"offset": 0,
								"slot": "0",
								"type": "t_address"
							},
							{
								"astId": 614,
								"contract": "contract/LuckyDraw.sol:LuckyDraw",
								"label": "tokenAddr",
								"offset": 0,
								"slot": "1",
								"type": "t_address"
							},
							{
								"astId": 616,
								"contract": "contract/LuckyDraw.sol:LuckyDraw",
								"label": "pool",
								"offset": 0,
								"slot": "2",
								"type": "t_uint256"
							},
							{
								"astId": 618,
								"contract": "contract/LuckyDraw.sol:LuckyDraw",
								"label": "claimed",
								"offset": 0,
								"slot": "3",
								"type": "t_uint256"
							},
							{
								"astId": 620,
								"contract": "contract/LuckyDraw.sol:LuckyDraw",
								"label": "maxTickets",
								"offset": 0,
								"slot": "4",
								"type": "t_uint256"
							},
							{
								"astId": 622,
								"contract": "contract/LuckyDraw.sol:LuckyDraw",
								"label": "ticketPrice",
								"offset": 0,
								"slot": "5",
								"type": "t_uint256"
							},
							{
								"astId": 625,
								"contract": "contract/LuckyDraw.sol:LuckyDraw",
								"label": "winnerRatios",
								"offset": 0,
								"slot": "6",
								"type": "t_array(t_uint256)dyn_storage"
							},
							{
								"astId": 627,
								"contract": "contract/LuckyDraw.sol:LuckyDraw",
								"label": "winners",
								"offset": 0,
								"slot": "7",
								"type": "t_uint32"
							},
							{
								"astId": 632,
								"contract": "contract/LuckyDraw.sol:LuckyDraw",
								"label": "indexedTickets",
								"offset": 0,
								"slot": "8",
								"type": "t_mapping(t_address,t_array(t_uint256)dyn_storage)"
							},
							{
								"astId": 635,
								"contract": "contract/LuckyDraw.sol:LuckyDraw",
								"label": "tickets",
								"offset": 0,
								"slot": "9",
								"type": "t_array(t_address)dyn_storage"
							},
							{
								"astId": 637,
								"contract": "contract/LuckyDraw.sol:LuckyDraw",
								"label": "vrfRequestId",
								"offset": 0,
								"slot": "10",
								"type": "t_uint256"
							},
							{
								"astId": 639,
								"contract": "contract/LuckyDraw.sol:LuckyDraw",
								"label": "start",
								"offset": 0,
								"slot": "11",
								"type": "t_uint256"
							},
							{
								"astId": 641,
								"contract": "contract/LuckyDraw.sol:LuckyDraw",
								"label": "end",
								"offset": 0,
								"slot": "12",
								"type": "t_uint256"
							},
							{
								"astId": 645,
								"contract": "contract/LuckyDraw.sol:LuckyDraw",
								"label": "claimedAddrs",
								"offset": 0,
								"slot": "13",
								"type": "t_mapping(t_address,t_bool)"
							},
							{
								"astId": 648,
								"contract": "contract/LuckyDraw.sol:LuckyDraw",
								"label": "counter",
								"offset": 0,
								"slot": "14",
								"type": "t_struct(Counter)489_storage"
							}
						],
						"numberOfBytes": "480"
					},
					"t_struct(RequestStatus)698_storage": {
						"encoding": "inplace",
						"label": "struct LuckyDraw.RequestStatus",
						"members": [
							{
								"astId": 690,
								"contract": "contract/LuckyDraw.sol:LuckyDraw",
								"label": "fulfilled",
								"offset": 0,
								"slot": "0",
								"type": "t_bool"
							},
							{
								"astId": 692,
								"contract": "contract/LuckyDraw.sol:LuckyDraw",
								"label": "exists",
								"offset": 1,
								"slot": "0",
								"type": "t_bool"
							},
							{
								"astId": 695,
								"contract": "contract/LuckyDraw.sol:LuckyDraw",
								"label": "randomWords",
								"offset": 0,
								"slot": "1",
								"type": "t_array(t_uint256)dyn_storage"
							},
							{
								"astId": 697,
								"contract": "contract/LuckyDraw.sol:LuckyDraw",
								"label": "lotId",
								"offset": 0,
								"slot": "2",
								"type": "t_uint256"
							}
						],
						"numberOfBytes": "96"
					},
					"t_uint16": {
						"encoding": "inplace",
						"label": "uint16",
						"numberOfBytes": "2"
					},
					"t_uint256": {
						"encoding": "inplace",
						"label": "uint256",
						"numberOfBytes": "32"
					},
					"t_uint32": {
						"encoding": "inplace",
						"label": "uint32",
						"numberOfBytes": "4"
					},
					"t_uint64": {
						"encoding": "inplace",
						"label": "uint64",
						"numberOfBytes": "8"
					}
				}
			},
			"userdoc": {
				"kind": "user",
				"methods": {
					"acceptOwnership()": {
						"notice": "Allows an ownership transfer to be completed by the recipient."
					},
					"owner()": {
						"notice": "Get the current owner"
					},
					"transferOwnership(address)": {
						"notice": "Allows an owner to begin transferring ownership to a new address, pending."
					}
				},
				"version": 1
			}
		}
	}
}